{"abi":[{"type":"receive","stateMutability":"payable"},{"type":"function","name":"LIQUIDITY_PARAMS","inputs":[],"outputs":[{"name":"tickLower","type":"int24","internalType":"int24"},{"name":"tickUpper","type":"int24","internalType":"int24"},{"name":"liquidityDelta","type":"int256","internalType":"int256"},{"name":"salt","type":"bytes32","internalType":"bytes32"}],"stateMutability":"view"},{"type":"function","name":"MAX_PRICE_LIMIT","inputs":[],"outputs":[{"name":"","type":"uint160","internalType":"uint160"}],"stateMutability":"view"},{"type":"function","name":"MIN_PRICE_LIMIT","inputs":[],"outputs":[{"name":"","type":"uint160","internalType":"uint160"}],"stateMutability":"view"},{"type":"function","name":"REMOVE_LIQUIDITY_PARAMS","inputs":[],"outputs":[{"name":"tickLower","type":"int24","internalType":"int24"},{"name":"tickUpper","type":"int24","internalType":"int24"},{"name":"liquidityDelta","type":"int256","internalType":"int256"},{"name":"salt","type":"bytes32","internalType":"bytes32"}],"stateMutability":"view"},{"type":"function","name":"SWAP_PARAMS","inputs":[],"outputs":[{"name":"zeroForOne","type":"bool","internalType":"bool"},{"name":"amountSpecified","type":"int256","internalType":"int256"},{"name":"sqrtPriceLimitX96","type":"uint160","internalType":"uint160"}],"stateMutability":"view"}],"bytecode":{"object":"0x6077196080819052607860a0819052670de0b6b3a764000060c08190525f60e081905280546378ffff8865ffffffffffff1991821681178355600193845560028390556101009590955261012093909352670de0b6b3a763ffff19610140819052610160829052600380549094169094179092556004929092556005556101e06040526101808190526063196101a08190526bb504f333f9de6484597d89b36101c08190526006805460ff1916909317909255600755600880546001600160a01b03199081169092179055602280548216600e17905560238054614000600160a01b0392169190911790553480156100f5575f80fd5b5061022e806101035f395ff3fe60806040526004361061004c575f3560e01c806339cd201314610057578063542524dd146100b157806393ad73ed146100dd578063b1a73b8a1461010a578063c7b8e15d1461015a575f80fd5b3661005357005b5f80fd5b348015610062575f80fd5b5060035460045460055461008492600281810b936301000000909204900b9184565b60408051600295860b81529390940b60208401529282015260608101919091526080015b60405180910390f35b3480156100bc575f80fd5b506100c561016e565b6040516001600160a01b0390911681526020016100a8565b3480156100e8575f80fd5b505f54600154600280546100849380830b93630100000090910490920b919084565b348015610115575f80fd5b506006546007546008546101349260ff1691906001600160a01b031683565b60408051931515845260208401929092526001600160a01b0316908201526060016100a8565b348015610165575f80fd5b506100c5610190565b61018d600173fffd8963efd1fc6a506488495d951d5263988d266101b4565b81565b61018d6401000276a360016101d9565b634e487b7160e01b5f52601160045260245ffd5b6001600160a01b0382811682821603908111156101d3576101d36101a0565b92915050565b6001600160a01b0381811683821601908111156101d3576101d36101a056fea2646970667358221220f688c5128745561552b413e181fedd684593ee8299f36e0637fc3ab9c75396c964736f6c634300081a0033","linkReferences":{}},"methodIdentifiers":{"LIQUIDITY_PARAMS()":"93ad73ed","MAX_PRICE_LIMIT()":"542524dd","MIN_PRICE_LIMIT()":"c7b8e15d","REMOVE_LIQUIDITY_PARAMS()":"39cd2013","SWAP_PARAMS()":"b1a73b8a"},"id":90}