{"abi":[{"type":"constructor","inputs":[{"name":"_manager","type":"address","internalType":"contract IPoolManager"}],"stateMutability":"nonpayable"},{"type":"function","name":"manager","inputs":[],"outputs":[{"name":"","type":"address","internalType":"contract IPoolManager"}],"stateMutability":"view"},{"type":"function","name":"modifyLiquidity","inputs":[{"name":"key","type":"tuple","internalType":"struct PoolKey","components":[{"name":"currency0","type":"address","internalType":"Currency"},{"name":"currency1","type":"address","internalType":"Currency"},{"name":"fee","type":"uint24","internalType":"uint24"},{"name":"tickSpacing","type":"int24","internalType":"int24"},{"name":"hooks","type":"address","internalType":"contract IHooks"}]},{"name":"params","type":"tuple","internalType":"struct IPoolManager.ModifyLiquidityParams","components":[{"name":"tickLower","type":"int24","internalType":"int24"},{"name":"tickUpper","type":"int24","internalType":"int24"},{"name":"liquidityDelta","type":"int256","internalType":"int256"},{"name":"salt","type":"bytes32","internalType":"bytes32"}]},{"name":"hookData","type":"bytes","internalType":"bytes"},{"name":"settleUsingBurn","type":"bool","internalType":"bool"},{"name":"takeClaims","type":"bool","internalType":"bool"}],"outputs":[{"name":"delta","type":"int256","internalType":"BalanceDelta"}],"stateMutability":"payable"},{"type":"function","name":"modifyLiquidity","inputs":[{"name":"key","type":"tuple","internalType":"struct PoolKey","components":[{"name":"currency0","type":"address","internalType":"Currency"},{"name":"currency1","type":"address","internalType":"Currency"},{"name":"fee","type":"uint24","internalType":"uint24"},{"name":"tickSpacing","type":"int24","internalType":"int24"},{"name":"hooks","type":"address","internalType":"contract IHooks"}]},{"name":"params","type":"tuple","internalType":"struct IPoolManager.ModifyLiquidityParams","components":[{"name":"tickLower","type":"int24","internalType":"int24"},{"name":"tickUpper","type":"int24","internalType":"int24"},{"name":"liquidityDelta","type":"int256","internalType":"int256"},{"name":"salt","type":"bytes32","internalType":"bytes32"}]},{"name":"hookData","type":"bytes","internalType":"bytes"}],"outputs":[{"name":"delta","type":"int256","internalType":"BalanceDelta"}],"stateMutability":"payable"},{"type":"function","name":"unlockCallback","inputs":[{"name":"rawData","type":"bytes","internalType":"bytes"}],"outputs":[{"name":"","type":"bytes","internalType":"bytes"}],"stateMutability":"nonpayable"}],"bytecode":{"object":"0x60a0604052348015600e575f80fd5b506040516110ad3803806110ad833981016040819052602b91603b565b6001600160a01b03166080526066565b5f60208284031215604a575f80fd5b81516001600160a01b0381168114605f575f80fd5b9392505050565b6080516110006100ad5f395f818160790152818160f50152818161022d01528181610268015281816103340152818161038a015281816103f9015261044a01526110005ff3fe60806040526004361061003e575f3560e01c80630a5b11e414610042578063481c6a75146100685780635a6bcfda146100b357806391dd7346146100c6575b5f80fd5b610055610050366004610b41565b6100f2565b6040519081526020015b60405180910390f35b348015610073575f80fd5b5061009b7f000000000000000000000000000000000000000000000000000000000000000081565b6040516001600160a01b03909116815260200161005f565b6100556100c1366004610bc8565b61020a565b3480156100d1575f80fd5b506100e56100e0366004610c26565b610220565b60405161005f9190610cc2565b5f7f00000000000000000000000000000000000000000000000000000000000000006001600160a01b03166348c894916040518060c00160405280336001600160a01b03168152602001898152602001888152602001878152602001861515815260200185151581525060405160200161016c9190610d1e565b6040516020818303038152906040526040518263ffffffff1660e01b81526004016101979190610cc2565b5f604051808303815f875af11580156101b2573d5f803e3d5ffd5b505050506040513d5f823e601f3d908101601f191682016040526101d99190810190610dba565b8060200190518101906101ec9190610e2f565b9050478015610200576102005f3383610499565b5095945050505050565b5f6102188484845f806100f2565b949350505050565b6060336001600160a01b037f00000000000000000000000000000000000000000000000000000000000000001614610256575f80fd5b5f61026383850185610e46565b90505f7f00000000000000000000000000000000000000000000000000000000000000006001600160a01b0316635a6bcfda8360200151846040015185606001516040518463ffffffff1660e01b81526004016102c293929190610f0f565b60408051808303815f875af11580156102dd573d5f803e3d5ffd5b505050506040513d601f19601f820116820180604052508101906103019190610f67565b5090505f61030f8260801d90565b600f0b90505f61031f83600f0b90565b600f0b90505f82121561037a57835161037a907f00000000000000000000000000000000000000000000000000000000000000009061035d85610f89565b60808801516020890151516001600160a01b031693929190610535565b5f8112156103d25783516103d2907f0000000000000000000000000000000000000000000000000000000000000000906103b384610f89565b60808801516020808a015101516001600160a01b031693929190610535565b5f82131561042157835160a0850151602086015151610421926001600160a01b03909116917f000000000000000000000000000000000000000000000000000000000000000091908690610801565b5f81131561047257835160a08501516020808701510151610472926001600160a01b03909116917f000000000000000000000000000000000000000000000000000000000000000091908590610801565b60408051602081018590520160405160208183030381529060405294505050505092915050565b5f6001600160a01b0384166104cd575f805f8085875af19050806104c8576104c8638549db5960e01b846108d3565b61052f565b60405163a9059cbb60e01b81526001600160a01b038416600482015282602482015260205f6044835f895af13d15601f3d1160015f511416171691505f81525f60208201525f6040820152508061052f5761052f632c4b17e760e21b856108d3565b50505050565b80156105ca57836001600160a01b031663f5298aca84610564886001600160a01b03166001600160a01b031690565b6040516001600160e01b031960e085901b1681526001600160a01b0390921660048301526024820152604481018590526064015b5f604051808303815f87803b1580156105af575f80fd5b505af11580156105c1573d5f803e3d5ffd5b505050506107fa565b6001600160a01b03851661064157836001600160a01b03166311da60b4836040518263ffffffff1660e01b815260040160206040518083038185885af1158015610616573d5f803e3d5ffd5b50505050506040513d601f19601f8201168201806040525081019061063b9190610e2f565b506107fa565b604051632961046560e21b81526001600160a01b03868116600483015285169063a5841194906024015f604051808303815f87803b158015610681575f80fd5b505af1158015610693573d5f803e3d5ffd5b505050506001600160a01b0383163014610725576040516323b872dd60e01b81526001600160a01b0384811660048301528581166024830152604482018490528616906323b872dd906064016020604051808303815f875af11580156106fb573d5f803e3d5ffd5b505050506040513d601f19601f8201168201806040525081019061071f9190610faf565b50610797565b60405163a9059cbb60e01b81526001600160a01b0385811660048301526024820184905286169063a9059cbb906044016020604051808303815f875af1158015610771573d5f803e3d5ffd5b505050506040513d601f19601f820116820180604052508101906107959190610faf565b505b836001600160a01b03166311da60b46040518163ffffffff1660e01b81526004016020604051808303815f875af11580156107d4573d5f803e3d5ffd5b505050506040513d601f19601f820116820180604052508101906107f89190610e2f565b505b5050505050565b8061084357604051630b0d9c0960e01b81526001600160a01b038681166004830152848116602483015260448201849052851690630b0d9c0990606401610598565b836001600160a01b031663156e29f68461086c886001600160a01b03166001600160a01b031690565b6040516001600160e01b031960e085901b1681526001600160a01b0390921660048301526024820152604481018590526064015f604051808303815f87803b1580156108b6575f80fd5b505af11580156108c8573d5f803e3d5ffd5b505050505050505050565b3d60405183815282600482015260406024820152816044820152815f606483013e602080601f8401040260640191508181fd5b634e487b7160e01b5f52604160045260245ffd5b60405160c0810167ffffffffffffffff8111828210171561093d5761093d610906565b60405290565b604051601f8201601f1916810167ffffffffffffffff8111828210171561096c5761096c610906565b604052919050565b6001600160a01b0381168114610988575f80fd5b50565b8035600281900b811461099c575f80fd5b919050565b5f60a082840312156109b1575f80fd5b60405160a0810167ffffffffffffffff811182821017156109d4576109d4610906565b60405290508082356109e581610974565b815260208301356109f581610974565b6020820152604083013562ffffff81168114610a0f575f80fd5b6040820152610a206060840161098b565b60608201526080830135610a3381610974565b6080919091015292915050565b5f60808284031215610a50575f80fd5b6040516080810167ffffffffffffffff81118282101715610a7357610a73610906565b604052905080610a828361098b565b8152610a906020840161098b565b602082015260408301356040820152606083013560608201525092915050565b5f67ffffffffffffffff821115610ac957610ac9610906565b50601f01601f191660200190565b5f82601f830112610ae6575f80fd5b8135610af9610af482610ab0565b610943565b818152846020838601011115610b0d575f80fd5b816020850160208301375f918101602001919091529392505050565b8015158114610988575f80fd5b803561099c81610b29565b5f805f805f6101808688031215610b56575f80fd5b610b6087876109a1565b9450610b6f8760a08801610a40565b935061012086013567ffffffffffffffff811115610b8b575f80fd5b610b9788828901610ad7565b935050610140860135610ba981610b29565b9150610160860135610bba81610b29565b809150509295509295909350565b5f805f6101408486031215610bdb575f80fd5b610be585856109a1565b9250610bf48560a08601610a40565b915061012084013567ffffffffffffffff811115610c10575f80fd5b610c1c86828701610ad7565b9150509250925092565b5f8060208385031215610c37575f80fd5b823567ffffffffffffffff811115610c4d575f80fd5b8301601f81018513610c5d575f80fd5b803567ffffffffffffffff811115610c73575f80fd5b856020828401011115610c84575f80fd5b6020919091019590945092505050565b5f81518084528060208401602086015e5f602082860101526020601f19601f83011685010191505092915050565b602081525f610cd46020830184610c94565b9392505050565b80516001600160a01b03908116835260208083015182169084015260408083015162ffffff169084015260608083015160020b9084015260809182015116910152565b602080825282516001600160a01b0316828201528201515f90610d446040840182610cdb565b506040838101518051600290810b60e08601526020820151900b610100850152908101516101208401526060908101516101408401528301516101a0610160840152610d946101c0840182610c94565b90506080840151151561018084015260a084015115156101a08401528091505092915050565b5f60208284031215610dca575f80fd5b815167ffffffffffffffff811115610de0575f80fd5b8201601f81018413610df0575f80fd5b8051610dfe610af482610ab0565b818152856020838501011115610e12575f80fd5b8160208401602083015e5f91810160200191909152949350505050565b5f60208284031215610e3f575f80fd5b5051919050565b5f60208284031215610e56575f80fd5b813567ffffffffffffffff811115610e6c575f80fd5b82016101a08185031215610e7e575f80fd5b610e8661091a565b8135610e9181610974565b8152610ea085602084016109a1565b6020820152610eb28560c08401610a40565b604082015261014082013567ffffffffffffffff811115610ed1575f80fd5b610edd86828501610ad7565b606083015250610ef06101608301610b36565b6080820152610f026101808301610b36565b60a0820152949350505050565b610f198185610cdb565b8251600290810b60a08301526020840151900b60c0820152604083015160e082015260608301516101008201526101406101208201525f610f5e610140830184610c94565b95945050505050565b5f8060408385031215610f78575f80fd5b505080516020909101519092909150565b5f600160ff1b8201610fa957634e487b7160e01b5f52601160045260245ffd5b505f0390565b5f60208284031215610fbf575f80fd5b8151610cd481610b2956fea2646970667358221220354ab7311b94730d1d1050af548b1a3ddaeb2c789f88bca45583839ab2a95ac364736f6c634300081a0033","linkReferences":{}},"methodIdentifiers":{"manager()":"481c6a75","modifyLiquidity((address,address,uint24,int24,address),(int24,int24,int256,bytes32),bytes)":"5a6bcfda","modifyLiquidity((address,address,uint24,int24,address),(int24,int24,int256,bytes32),bytes,bool,bool)":"0a5b11e4","unlockCallback(bytes)":"91dd7346"},"id":75}