{"abi":[{"type":"constructor","inputs":[{"name":"_poolManager","type":"address","internalType":"contract IPoolManager"}],"stateMutability":"nonpayable"},{"type":"function","name":"afterAddLiquidity","inputs":[{"name":"","type":"address","internalType":"address"},{"name":"","type":"tuple","internalType":"struct PoolKey","components":[{"name":"currency0","type":"address","internalType":"Currency"},{"name":"currency1","type":"address","internalType":"Currency"},{"name":"fee","type":"uint24","internalType":"uint24"},{"name":"tickSpacing","type":"int24","internalType":"int24"},{"name":"hooks","type":"address","internalType":"contract IHooks"}]},{"name":"","type":"tuple","internalType":"struct IPoolManager.ModifyLiquidityParams","components":[{"name":"tickLower","type":"int24","internalType":"int24"},{"name":"tickUpper","type":"int24","internalType":"int24"},{"name":"liquidityDelta","type":"int256","internalType":"int256"},{"name":"salt","type":"bytes32","internalType":"bytes32"}]},{"name":"","type":"int256","internalType":"BalanceDelta"},{"name":"","type":"int256","internalType":"BalanceDelta"},{"name":"","type":"bytes","internalType":"bytes"}],"outputs":[{"name":"","type":"bytes4","internalType":"bytes4"},{"name":"","type":"int256","internalType":"BalanceDelta"}],"stateMutability":"nonpayable"},{"type":"function","name":"afterDonate","inputs":[{"name":"","type":"address","internalType":"address"},{"name":"","type":"tuple","internalType":"struct PoolKey","components":[{"name":"currency0","type":"address","internalType":"Currency"},{"name":"currency1","type":"address","internalType":"Currency"},{"name":"fee","type":"uint24","internalType":"uint24"},{"name":"tickSpacing","type":"int24","internalType":"int24"},{"name":"hooks","type":"address","internalType":"contract IHooks"}]},{"name":"","type":"uint256","internalType":"uint256"},{"name":"","type":"uint256","internalType":"uint256"},{"name":"","type":"bytes","internalType":"bytes"}],"outputs":[{"name":"","type":"bytes4","internalType":"bytes4"}],"stateMutability":"nonpayable"},{"type":"function","name":"afterInitialize","inputs":[{"name":"","type":"address","internalType":"address"},{"name":"","type":"tuple","internalType":"struct PoolKey","components":[{"name":"currency0","type":"address","internalType":"Currency"},{"name":"currency1","type":"address","internalType":"Currency"},{"name":"fee","type":"uint24","internalType":"uint24"},{"name":"tickSpacing","type":"int24","internalType":"int24"},{"name":"hooks","type":"address","internalType":"contract IHooks"}]},{"name":"","type":"uint160","internalType":"uint160"},{"name":"","type":"int24","internalType":"int24"}],"outputs":[{"name":"","type":"bytes4","internalType":"bytes4"}],"stateMutability":"nonpayable"},{"type":"function","name":"afterRemoveLiquidity","inputs":[{"name":"","type":"address","internalType":"address"},{"name":"","type":"tuple","internalType":"struct PoolKey","components":[{"name":"currency0","type":"address","internalType":"Currency"},{"name":"currency1","type":"address","internalType":"Currency"},{"name":"fee","type":"uint24","internalType":"uint24"},{"name":"tickSpacing","type":"int24","internalType":"int24"},{"name":"hooks","type":"address","internalType":"contract IHooks"}]},{"name":"","type":"tuple","internalType":"struct IPoolManager.ModifyLiquidityParams","components":[{"name":"tickLower","type":"int24","internalType":"int24"},{"name":"tickUpper","type":"int24","internalType":"int24"},{"name":"liquidityDelta","type":"int256","internalType":"int256"},{"name":"salt","type":"bytes32","internalType":"bytes32"}]},{"name":"","type":"int256","internalType":"BalanceDelta"},{"name":"","type":"int256","internalType":"BalanceDelta"},{"name":"","type":"bytes","internalType":"bytes"}],"outputs":[{"name":"","type":"bytes4","internalType":"bytes4"},{"name":"","type":"int256","internalType":"BalanceDelta"}],"stateMutability":"nonpayable"},{"type":"function","name":"afterSwap","inputs":[{"name":"","type":"address","internalType":"address"},{"name":"","type":"tuple","internalType":"struct PoolKey","components":[{"name":"currency0","type":"address","internalType":"Currency"},{"name":"currency1","type":"address","internalType":"Currency"},{"name":"fee","type":"uint24","internalType":"uint24"},{"name":"tickSpacing","type":"int24","internalType":"int24"},{"name":"hooks","type":"address","internalType":"contract IHooks"}]},{"name":"","type":"tuple","internalType":"struct IPoolManager.SwapParams","components":[{"name":"zeroForOne","type":"bool","internalType":"bool"},{"name":"amountSpecified","type":"int256","internalType":"int256"},{"name":"sqrtPriceLimitX96","type":"uint160","internalType":"uint160"}]},{"name":"","type":"int256","internalType":"BalanceDelta"},{"name":"","type":"bytes","internalType":"bytes"}],"outputs":[{"name":"","type":"bytes4","internalType":"bytes4"},{"name":"","type":"int128","internalType":"int128"}],"stateMutability":"nonpayable"},{"type":"function","name":"afterSwapCount","inputs":[{"name":"","type":"bytes32","internalType":"PoolId"}],"outputs":[{"name":"count","type":"uint256","internalType":"uint256"}],"stateMutability":"view"},{"type":"function","name":"beforeAddLiquidity","inputs":[{"name":"","type":"address","internalType":"address"},{"name":"","type":"tuple","internalType":"struct PoolKey","components":[{"name":"currency0","type":"address","internalType":"Currency"},{"name":"currency1","type":"address","internalType":"Currency"},{"name":"fee","type":"uint24","internalType":"uint24"},{"name":"tickSpacing","type":"int24","internalType":"int24"},{"name":"hooks","type":"address","internalType":"contract IHooks"}]},{"name":"","type":"tuple","internalType":"struct IPoolManager.ModifyLiquidityParams","components":[{"name":"tickLower","type":"int24","internalType":"int24"},{"name":"tickUpper","type":"int24","internalType":"int24"},{"name":"liquidityDelta","type":"int256","internalType":"int256"},{"name":"salt","type":"bytes32","internalType":"bytes32"}]},{"name":"","type":"bytes","internalType":"bytes"}],"outputs":[{"name":"","type":"bytes4","internalType":"bytes4"}],"stateMutability":"nonpayable"},{"type":"function","name":"beforeAddLiquidityCount","inputs":[{"name":"","type":"bytes32","internalType":"PoolId"}],"outputs":[{"name":"count","type":"uint256","internalType":"uint256"}],"stateMutability":"view"},{"type":"function","name":"beforeDonate","inputs":[{"name":"","type":"address","internalType":"address"},{"name":"","type":"tuple","internalType":"struct PoolKey","components":[{"name":"currency0","type":"address","internalType":"Currency"},{"name":"currency1","type":"address","internalType":"Currency"},{"name":"fee","type":"uint24","internalType":"uint24"},{"name":"tickSpacing","type":"int24","internalType":"int24"},{"name":"hooks","type":"address","internalType":"contract IHooks"}]},{"name":"","type":"uint256","internalType":"uint256"},{"name":"","type":"uint256","internalType":"uint256"},{"name":"","type":"bytes","internalType":"bytes"}],"outputs":[{"name":"","type":"bytes4","internalType":"bytes4"}],"stateMutability":"nonpayable"},{"type":"function","name":"beforeInitialize","inputs":[{"name":"","type":"address","internalType":"address"},{"name":"","type":"tuple","internalType":"struct PoolKey","components":[{"name":"currency0","type":"address","internalType":"Currency"},{"name":"currency1","type":"address","internalType":"Currency"},{"name":"fee","type":"uint24","internalType":"uint24"},{"name":"tickSpacing","type":"int24","internalType":"int24"},{"name":"hooks","type":"address","internalType":"contract IHooks"}]},{"name":"","type":"uint160","internalType":"uint160"}],"outputs":[{"name":"","type":"bytes4","internalType":"bytes4"}],"stateMutability":"nonpayable"},{"type":"function","name":"beforeRemoveLiquidity","inputs":[{"name":"","type":"address","internalType":"address"},{"name":"","type":"tuple","internalType":"struct PoolKey","components":[{"name":"currency0","type":"address","internalType":"Currency"},{"name":"currency1","type":"address","internalType":"Currency"},{"name":"fee","type":"uint24","internalType":"uint24"},{"name":"tickSpacing","type":"int24","internalType":"int24"},{"name":"hooks","type":"address","internalType":"contract IHooks"}]},{"name":"","type":"tuple","internalType":"struct IPoolManager.ModifyLiquidityParams","components":[{"name":"tickLower","type":"int24","internalType":"int24"},{"name":"tickUpper","type":"int24","internalType":"int24"},{"name":"liquidityDelta","type":"int256","internalType":"int256"},{"name":"salt","type":"bytes32","internalType":"bytes32"}]},{"name":"","type":"bytes","internalType":"bytes"}],"outputs":[{"name":"","type":"bytes4","internalType":"bytes4"}],"stateMutability":"nonpayable"},{"type":"function","name":"beforeRemoveLiquidityCount","inputs":[{"name":"","type":"bytes32","internalType":"PoolId"}],"outputs":[{"name":"count","type":"uint256","internalType":"uint256"}],"stateMutability":"view"},{"type":"function","name":"beforeSwap","inputs":[{"name":"sender","type":"address","internalType":"address"},{"name":"","type":"tuple","internalType":"struct PoolKey","components":[{"name":"currency0","type":"address","internalType":"Currency"},{"name":"currency1","type":"address","internalType":"Currency"},{"name":"fee","type":"uint24","internalType":"uint24"},{"name":"tickSpacing","type":"int24","internalType":"int24"},{"name":"hooks","type":"address","internalType":"contract IHooks"}]},{"name":"","type":"tuple","internalType":"struct IPoolManager.SwapParams","components":[{"name":"zeroForOne","type":"bool","internalType":"bool"},{"name":"amountSpecified","type":"int256","internalType":"int256"},{"name":"sqrtPriceLimitX96","type":"uint160","internalType":"uint160"}]},{"name":"","type":"bytes","internalType":"bytes"}],"outputs":[{"name":"","type":"bytes4","internalType":"bytes4"},{"name":"","type":"int256","internalType":"BeforeSwapDelta"},{"name":"","type":"uint24","internalType":"uint24"}],"stateMutability":"nonpayable"},{"type":"function","name":"beforeSwapCount","inputs":[{"name":"","type":"bytes32","internalType":"PoolId"}],"outputs":[{"name":"count","type":"uint256","internalType":"uint256"}],"stateMutability":"view"},{"type":"function","name":"discountContract","inputs":[],"outputs":[{"name":"","type":"address","internalType":"contract DiscountNFT"}],"stateMutability":"view"},{"type":"function","name":"getHookPermissions","inputs":[],"outputs":[{"name":"","type":"tuple","internalType":"struct Hooks.Permissions","components":[{"name":"beforeInitialize","type":"bool","internalType":"bool"},{"name":"afterInitialize","type":"bool","internalType":"bool"},{"name":"beforeAddLiquidity","type":"bool","internalType":"bool"},{"name":"afterAddLiquidity","type":"bool","internalType":"bool"},{"name":"beforeRemoveLiquidity","type":"bool","internalType":"bool"},{"name":"afterRemoveLiquidity","type":"bool","internalType":"bool"},{"name":"beforeSwap","type":"bool","internalType":"bool"},{"name":"afterSwap","type":"bool","internalType":"bool"},{"name":"beforeDonate","type":"bool","internalType":"bool"},{"name":"afterDonate","type":"bool","internalType":"bool"},{"name":"beforeSwapReturnDelta","type":"bool","internalType":"bool"},{"name":"afterSwapReturnDelta","type":"bool","internalType":"bool"},{"name":"afterAddLiquidityReturnDelta","type":"bool","internalType":"bool"},{"name":"afterRemoveLiquidityReturnDelta","type":"bool","internalType":"bool"}]}],"stateMutability":"pure"},{"type":"function","name":"manager","inputs":[],"outputs":[{"name":"","type":"address","internalType":"contract IPoolManager"}],"stateMutability":"view"},{"type":"function","name":"poolManager","inputs":[],"outputs":[{"name":"","type":"address","internalType":"contract IPoolManager"}],"stateMutability":"view"},{"type":"function","name":"unlockCallback","inputs":[{"name":"data","type":"bytes","internalType":"bytes"}],"outputs":[{"name":"","type":"bytes","internalType":"bytes"}],"stateMutability":"nonpayable"},{"type":"error","name":"HookNotImplemented","inputs":[]},{"type":"error","name":"InvalidPool","inputs":[]},{"type":"error","name":"LockFailure","inputs":[]},{"type":"error","name":"NotPoolManager","inputs":[]},{"type":"error","name":"NotSelf","inputs":[]}],"bytecode":{"object":"0x60e060405234801561000f575f80fd5b5060405161204038038061204083398101604081905261002e916102f0565b6001600160a01b038116608052806100453061008b565b506001600160a01b03811660a05260405161005f906102e3565b604051809103905ff080158015610078573d5f803e3d5ffd5b506001600160a01b031660c0525061031d565b61017b81610176604080516101c0810182525f80825260208201819052918101829052606081018290526080810182905260a0810182905260c0810182905260e08101829052610100810182905261012081018290526101408101829052610160810182905261018081018290526101a081019190915250604080516101c0810182525f80825260208201819052918101829052606081018290526080810182905260a08101829052600160c082015260e08101829052610100810182905261012081018290526101408101829052610160810182905261018081018290526101a081019190915290565b61017e565b50565b80511515612000831615151415806101a25750602081015115156110008316151514155b806101b95750604081015115156108008316151514155b806101d05750606081015115156104008316151514155b806101e75750608081015115156102008316151514155b806101fe575060a081015115156101008316151514155b80610214575060c0810151151560808316151514155b8061022a575060e0810151151560408316151514155b806102415750610100810151151560208316151514155b806102585750610120810151151560108316151514155b8061026f5750610140810151151560088316151514155b806102865750610160810151151560048316151514155b8061029d5750610180810151151560028316151514155b806102b457506101a0810151151560018316151514155b156102ca576102ca630732d7b560e51b836102ce565b5050565b815f526001600160a01b03811660045260245ffd5b61103f8061100183390190565b5f60208284031215610300575f80fd5b81516001600160a01b0381168114610316575f80fd5b9392505050565b60805160a05160c051610ca561035c5f395f818161012501528181610487015261051801525f61019501525f818161041801526105f10152610ca55ff3fe608060405234801561000f575f80fd5b506004361061011c575f3560e01c80639f063efc116100a9578063dacdbe771161006e578063dacdbe77146103d5578063db6a9451146103f4578063dc4c90d314610413578063dc98354e1461043a578063e1b4af69146102b4575f80fd5b80639f063efc14610222578063b47b2fb114610283578063b6a8b0fa146102b4578063c4e833ce146102c2578063c6939957146103b6575f80fd5b8063575e24b4116100ef578063575e24b4146101b75780635c338d32146101f55780636c2bbe7e146102225780636fe7e6eb1461025557806391dd734614610263575f80fd5b8063104789c71461012057806321d0ee7014610164578063259982e514610164578063481c6a7514610190575b5f80fd5b6101477f000000000000000000000000000000000000000000000000000000000000000081565b6040516001600160a01b0390911681526020015b60405180910390f35b61017761017236600461075d565b610448565b6040516001600160e01b0319909116815260200161015b565b6101477f000000000000000000000000000000000000000000000000000000000000000081565b6101ca6101c53660046107e4565b610462565b604080516001600160e01b03199094168452602084019290925262ffffff169082015260600161015b565b61021461020336600461083e565b5f6020819052908152604090205481565b60405190815260200161015b565b610235610230366004610855565b6105c9565b604080516001600160e01b0319909316835260208301919091520161015b565b6101776101723660046108e0565b61027661027136600461093f565b6105e4565b60405161015b919061097e565b6102916102303660046109b3565b604080516001600160e01b03199093168352600f9190910b60208301520161015b565b610177610172366004610a34565b6103a9604080516101c0810182525f80825260208201819052918101829052606081018290526080810182905260a0810182905260c0810182905260e08101829052610100810182905261012081018290526101408101829052610160810182905261018081018290526101a081019190915250604080516101c0810182525f80825260208201819052918101829052606081018290526080810182905260a08101829052600160c082015260e08101829052610100810182905261012081018290526101408101829052610160810182905261018081018290526101a081019190915290565b60405161015b9190610a8e565b6102146103c436600461083e565b60026020525f908152604090205481565b6102146103e336600461083e565b60016020525f908152604090205481565b61021461040236600461083e565b60036020525f908152604090205481565b6101477f000000000000000000000000000000000000000000000000000000000000000081565b610177610172366004610baf565b5f604051630a85dc2960e01b815260040160405180910390fd5b6040516370a0823160e01b81526001600160a01b0386811660048301525f91829182917f0000000000000000000000000000000000000000000000000000000000000000909116906370a0823190602401602060405180830381865afa1580156104ce573d5f803e3d5ffd5b505050506040513d601f19601f820116820180604052508101906104f29190610bf6565b156105ae576040516303793c8d60e11b81526001600160a01b0389811660048301525f917f0000000000000000000000000000000000000000000000000000000000000000909116906306f2791a90602401602060405180830381865afa15801561055f573d5f803e3d5ffd5b505050506040513d601f19601f820116820180604052508101906105839190610c0d565b90505f61059282612710610c36565b6315d7892d60e21b95505f9450624000001792506105be915050565b506315d7892d60e21b91505f9050805b955095509592505050565b5f80604051630a85dc2960e01b815260040160405180910390fd5b6060336001600160a01b037f0000000000000000000000000000000000000000000000000000000000000000161461062f5760405163570c108560e11b815260040160405180910390fd5b6106398383610642565b90505b92915050565b60605f80306001600160a01b03168585604051610660929190610c60565b5f604051808303815f865af19150503d805f8114610699576040519150601f19603f3d011682016040523d82523d5f602084013e61069e565b606091505b509150915081156106b257915061063c9050565b80515f036106d3576040516314815f4760e31b815260040160405180910390fd5b805160208201fd5b6001600160a01b03811681146106ef575f80fd5b50565b5f60a08284031215610702575f80fd5b50919050565b5f60808284031215610702575f80fd5b5f8083601f840112610728575f80fd5b50813567ffffffffffffffff81111561073f575f80fd5b602083019150836020828501011115610756575f80fd5b9250929050565b5f805f805f6101608688031215610772575f80fd5b853561077d816106db565b945061078c87602088016106f2565b935061079b8760c08801610708565b925061014086013567ffffffffffffffff8111156107b7575f80fd5b6107c388828901610718565b969995985093965092949392505050565b5f60608284031215610702575f80fd5b5f805f805f61014086880312156107f9575f80fd5b8535610804816106db565b945061081387602088016106f2565b93506108228760c088016107d4565b925061012086013567ffffffffffffffff8111156107b7575f80fd5b5f6020828403121561084e575f80fd5b5035919050565b5f805f805f805f6101a0888a03121561086c575f80fd5b8735610877816106db565b96506108868960208a016106f2565b95506108958960c08a01610708565b94506101408801359350610160880135925061018088013567ffffffffffffffff8111156108c1575f80fd5b6108cd8a828b01610718565b989b979a50959850939692959293505050565b5f805f8061010085870312156108f4575f80fd5b84356108ff816106db565b935061090e86602087016106f2565b925060c085013561091e816106db565b915060e0850135600281900b8114610934575f80fd5b939692955090935050565b5f8060208385031215610950575f80fd5b823567ffffffffffffffff811115610966575f80fd5b61097285828601610718565b90969095509350505050565b602081525f82518060208401528060208501604085015e5f604082850101526040601f19601f83011684010191505092915050565b5f805f805f8061016087890312156109c9575f80fd5b86356109d4816106db565b95506109e388602089016106f2565b94506109f28860c089016107d4565b9350610120870135925061014087013567ffffffffffffffff811115610a16575f80fd5b610a2289828a01610718565b979a9699509497509295939492505050565b5f805f805f806101208789031215610a4a575f80fd5b8635610a55816106db565b9550610a6488602089016106f2565b945060c0870135935060e0870135925061010087013567ffffffffffffffff811115610a16575f80fd5b8151151581526101c081016020830151610aac602084018215159052565b506040830151610ac0604084018215159052565b506060830151610ad4606084018215159052565b506080830151610ae8608084018215159052565b5060a0830151610afc60a084018215159052565b5060c0830151610b1060c084018215159052565b5060e0830151610b2460e084018215159052565b50610100830151610b3a61010084018215159052565b50610120830151610b5061012084018215159052565b50610140830151610b6661014084018215159052565b50610160830151610b7c61016084018215159052565b50610180830151610b9261018084018215159052565b506101a0830151610ba86101a084018215159052565b5092915050565b5f805f60e08486031215610bc1575f80fd5b8335610bcc816106db565b9250610bdb85602086016106f2565b915060c0840135610beb816106db565b809150509250925092565b5f60208284031215610c06575f80fd5b5051919050565b5f60208284031215610c1d575f80fd5b815162ffffff81168114610c2f575f80fd5b9392505050565b62ffffff8181168382160290811690818114610ba857634e487b7160e01b5f52601160045260245ffd5b818382375f910190815291905056fea26469706673582212205a13add89a8ff48e013b9af078d97e2fafdd27e95d907d8a87834bd7443a730e64736f6c634300081a0033608060405234801561000f575f80fd5b506040518060400160405280600b81526020016a111a5cd8dbdd5b9d13919560aa1b815250604051806040016040528060048152602001631113919560e21b815250815f908161005f919061010c565b50600161006c828261010c565b5050506101c6565b634e487b7160e01b5f52604160045260245ffd5b600181811c9082168061009c57607f821691505b6020821081036100ba57634e487b7160e01b5f52602260045260245ffd5b50919050565b601f82111561010757805f5260205f20601f840160051c810160208510156100e55750805b601f840160051c820191505b81811015610104575f81556001016100f1565b50505b505050565b81516001600160401b0381111561012557610125610074565b610139816101338454610088565b846100c0565b6020601f82116001811461016b575f83156101545750848201515b5f19600385901b1c1916600184901b178455610104565b5f84815260208120601f198516915b8281101561019a578785015182556020948501946001909201910161017a565b50848210156101b757868401515f19600387901b60f8161c191681555b50505050600190811b01905550565b610e6c806101d35f395ff3fe608060405234801561000f575f80fd5b50600436106100fb575f3560e01c80636352211e11610093578063a22cb46511610063578063a22cb4651461025a578063b88d4fde1461026d578063c87b56dd14610280578063e985e9c5146102b4575f80fd5b80636352211e1461020b57806370a082311461021e578063773703971461023f57806395d89b4114610252575f80fd5b8063095ea7b3116100ce578063095ea7b3146101bd57806323b872dd146101d257806342842e0e146101e5578063435e555e146101f8575f80fd5b806301ffc9a7146100ff57806306f2791a1461012757806306fdde0314610168578063081812fc1461017d575b5f80fd5b61011261010d366004610b3a565b6102e1565b60405190151581526020015b60405180910390f35b610154610135366004610b72565b6001600160a01b03165f9081526006602052604090205462ffffff1690565b60405162ffffff909116815260200161011e565b610170610332565b60405161011e9190610b8b565b6101a561018b366004610bc0565b60046020525f90815260409020546001600160a01b031681565b6040516001600160a01b03909116815260200161011e565b6101d06101cb366004610bd7565b6103bd565b005b6101d06101e0366004610bff565b6104a1565b6101d06101f3366004610bff565b610663565b6101d0610206366004610c4b565b610757565b6101a5610219366004610bc0565b6107d3565b61023161022c366004610b72565b610829565b60405190815260200161011e565b6101d061024d366004610c75565b61088a565b6101706108bc565b6101d0610268366004610c9d565b6108c9565b6101d061027b366004610cd6565b610934565b61017061028e366004610bc0565b5060408051808201909152600b81526a756b6d612e6564752e756160a81b602082015290565b6101126102c2366004610d6b565b600560209081525f928352604080842090915290825290205460ff1681565b5f6301ffc9a760e01b6001600160e01b03198316148061031157506380ac58cd60e01b6001600160e01b03198316145b8061032c5750635b5e139f60e01b6001600160e01b03198316145b92915050565b5f805461033e90610d93565b80601f016020809104026020016040519081016040528092919081815260200182805461036a90610d93565b80156103b55780601f1061038c576101008083540402835291602001916103b5565b820191905f5260205f20905b81548152906001019060200180831161039857829003601f168201915b505050505081565b5f818152600260205260409020546001600160a01b03163381148061040457506001600160a01b0381165f90815260056020908152604080832033845290915290205460ff165b6104465760405162461bcd60e51b815260206004820152600e60248201526d1393d517d055551213d49256915160921b60448201526064015b60405180910390fd5b5f8281526004602052604080822080546001600160a01b0319166001600160a01b0387811691821790925591518593918516917f8c5be1e5ebec7d5bd14f71427d1e84f3dd0314c0f7b2291e5b200ac8c7c3b92591a4505050565b5f818152600260205260409020546001600160a01b038481169116146104f65760405162461bcd60e51b815260206004820152600a60248201526957524f4e475f46524f4d60b01b604482015260640161043d565b6001600160a01b0382166105405760405162461bcd60e51b81526020600482015260116024820152701253959053125117d49150d25412515395607a1b604482015260640161043d565b336001600160a01b038416148061057957506001600160a01b0383165f90815260056020908152604080832033845290915290205460ff165b8061059957505f818152600460205260409020546001600160a01b031633145b6105d65760405162461bcd60e51b815260206004820152600e60248201526d1393d517d055551213d49256915160921b604482015260640161043d565b6001600160a01b038084165f81815260036020908152604080832080545f19019055938616808352848320805460010190558583526002825284832080546001600160a01b03199081168317909155600490925284832080549092169091559251849392917fddf252ad1be2c89b69c2b068fc378daa952ba7f163c4a11628f55a4df523b3ef91a4505050565b61066e8383836104a1565b6001600160a01b0382163b15806107135750604051630a85bd0160e11b8082523360048301526001600160a01b03858116602484015260448301849052608060648401525f608484015290919084169063150b7a029060a4016020604051808303815f875af11580156106e3573d5f803e3d5ffd5b505050506040513d601f19601f820116820180604052508101906107079190610dcb565b6001600160e01b031916145b6107525760405162461bcd60e51b815260206004820152601060248201526f155394d0519157d49150d2541251539560821b604482015260640161043d565b505050565b5f8162ffffff16118015610771575060148162ffffff1611155b6107ae5760405162461bcd60e51b815260206004820152600e60248201526d444953434f554e545f52414e474560901b604482015260640161043d565b5f91825260066020526040909120805462ffffff191662ffffff909216919091179055565b5f818152600260205260409020546001600160a01b0316806108245760405162461bcd60e51b815260206004820152600a6024820152691393d517d3525395115160b21b604482015260640161043d565b919050565b5f6001600160a01b03821661086f5760405162461bcd60e51b815260206004820152600c60248201526b5a45524f5f4144445245535360a01b604482015260640161043d565b506001600160a01b03165f9081526003602052604090205490565b6001600160a01b0382165f818152600660205260409020805462ffffff191662ffffff84161790556107528382610a19565b6001805461033e90610d93565b335f8181526005602090815260408083206001600160a01b03871680855290835292819020805460ff191686151590811790915590519081529192917f17307eab39ab6107e8899845ad3d59bd9653f200f220920489ca2b5937696c31910160405180910390a35050565b61093f8585856104a1565b6001600160a01b0384163b15806109d35750604051630a85bd0160e11b808252906001600160a01b0386169063150b7a02906109879033908a90899089908990600401610de6565b6020604051808303815f875af11580156109a3573d5f803e3d5ffd5b505050506040513d601f19601f820116820180604052508101906109c79190610dcb565b6001600160e01b031916145b610a125760405162461bcd60e51b815260206004820152601060248201526f155394d0519157d49150d2541251539560821b604482015260640161043d565b5050505050565b6001600160a01b038216610a635760405162461bcd60e51b81526020600482015260116024820152701253959053125117d49150d25412515395607a1b604482015260640161043d565b5f818152600260205260409020546001600160a01b031615610ab85760405162461bcd60e51b815260206004820152600e60248201526d1053149150511657d3525395115160921b604482015260640161043d565b6001600160a01b0382165f81815260036020908152604080832080546001019055848352600290915280822080546001600160a01b0319168417905551839291907fddf252ad1be2c89b69c2b068fc378daa952ba7f163c4a11628f55a4df523b3ef908290a45050565b6001600160e01b031981168114610b37575f80fd5b50565b5f60208284031215610b4a575f80fd5b8135610b5581610b22565b9392505050565b80356001600160a01b0381168114610824575f80fd5b5f60208284031215610b82575f80fd5b610b5582610b5c565b602081525f82518060208401528060208501604085015e5f604082850101526040601f19601f83011684010191505092915050565b5f60208284031215610bd0575f80fd5b5035919050565b5f8060408385031215610be8575f80fd5b610bf183610b5c565b946020939093013593505050565b5f805f60608486031215610c11575f80fd5b610c1a84610b5c565b9250610c2860208501610b5c565b929592945050506040919091013590565b803562ffffff81168114610824575f80fd5b5f8060408385031215610c5c575f80fd5b82359150610c6c60208401610c39565b90509250929050565b5f8060408385031215610c86575f80fd5b610c8f83610b5c565b9150610c6c60208401610c39565b5f8060408385031215610cae575f80fd5b610cb783610b5c565b915060208301358015158114610ccb575f80fd5b809150509250929050565b5f805f805f60808688031215610cea575f80fd5b610cf386610b5c565b9450610d0160208701610b5c565b935060408601359250606086013567ffffffffffffffff811115610d23575f80fd5b8601601f81018813610d33575f80fd5b803567ffffffffffffffff811115610d49575f80fd5b886020828401011115610d5a575f80fd5b959894975092955050506020019190565b5f8060408385031215610d7c575f80fd5b610d8583610b5c565b9150610c6c60208401610b5c565b600181811c90821680610da757607f821691505b602082108103610dc557634e487b7160e01b5f52602260045260245ffd5b50919050565b5f60208284031215610ddb575f80fd5b8151610b5581610b22565b6001600160a01b03868116825285166020820152604081018490526080606082018190528101829052818360a08301375f81830160a090810191909152601f909201601f1916010194935050505056fea264697066735822122044d8d5458b2a8b3116d6d71e3a94f6fa15836b51c763ebbfcaed9bb03a92afc764736f6c634300081a0033","linkReferences":{}},"methodIdentifiers":{"afterAddLiquidity(address,(address,address,uint24,int24,address),(int24,int24,int256,bytes32),int256,int256,bytes)":"9f063efc","afterDonate(address,(address,address,uint24,int24,address),uint256,uint256,bytes)":"e1b4af69","afterInitialize(address,(address,address,uint24,int24,address),uint160,int24)":"6fe7e6eb","afterRemoveLiquidity(address,(address,address,uint24,int24,address),(int24,int24,int256,bytes32),int256,int256,bytes)":"6c2bbe7e","afterSwap(address,(address,address,uint24,int24,address),(bool,int256,uint160),int256,bytes)":"b47b2fb1","afterSwapCount(bytes32)":"dacdbe77","beforeAddLiquidity(address,(address,address,uint24,int24,address),(int24,int24,int256,bytes32),bytes)":"259982e5","beforeAddLiquidityCount(bytes32)":"c6939957","beforeDonate(address,(address,address,uint24,int24,address),uint256,uint256,bytes)":"b6a8b0fa","beforeInitialize(address,(address,address,uint24,int24,address),uint160)":"dc98354e","beforeRemoveLiquidity(address,(address,address,uint24,int24,address),(int24,int24,int256,bytes32),bytes)":"21d0ee70","beforeRemoveLiquidityCount(bytes32)":"db6a9451","beforeSwap(address,(address,address,uint24,int24,address),(bool,int256,uint160),bytes)":"575e24b4","beforeSwapCount(bytes32)":"5c338d32","discountContract()":"104789c7","getHookPermissions()":"c4e833ce","manager()":"481c6a75","poolManager()":"dc4c90d3","unlockCallback(bytes)":"91dd7346"},"id":127}