{"abi":[{"type":"constructor","inputs":[],"stateMutability":"nonpayable"},{"type":"function","name":"_ownerToCouponId","inputs":[{"name":"","type":"address","internalType":"address"}],"outputs":[{"name":"","type":"uint256","internalType":"uint256"}],"stateMutability":"view"},{"type":"function","name":"approve","inputs":[{"name":"to","type":"address","internalType":"address"},{"name":"tokenId","type":"uint256","internalType":"uint256"}],"outputs":[],"stateMutability":"nonpayable"},{"type":"function","name":"balanceOf","inputs":[{"name":"owner","type":"address","internalType":"address"}],"outputs":[{"name":"","type":"uint256","internalType":"uint256"}],"stateMutability":"view"},{"type":"function","name":"discountOf","inputs":[{"name":"couponId","type":"uint256","internalType":"uint256"}],"outputs":[{"name":"","type":"uint8","internalType":"uint8"}],"stateMutability":"view"},{"type":"function","name":"getApproved","inputs":[{"name":"tokenId","type":"uint256","internalType":"uint256"}],"outputs":[{"name":"","type":"address","internalType":"address"}],"stateMutability":"view"},{"type":"function","name":"getCouponId","inputs":[{"name":"couponOwner","type":"address","internalType":"address"}],"outputs":[{"name":"","type":"uint256","internalType":"uint256"}],"stateMutability":"view"},{"type":"function","name":"isApprovedForAll","inputs":[{"name":"owner","type":"address","internalType":"address"},{"name":"operator","type":"address","internalType":"address"}],"outputs":[{"name":"","type":"bool","internalType":"bool"}],"stateMutability":"view"},{"type":"function","name":"mint","inputs":[{"name":"to","type":"address","internalType":"address"},{"name":"discount","type":"uint8","internalType":"uint8"}],"outputs":[{"name":"","type":"uint256","internalType":"uint256"}],"stateMutability":"nonpayable"},{"type":"function","name":"name","inputs":[],"outputs":[{"name":"","type":"string","internalType":"string"}],"stateMutability":"view"},{"type":"function","name":"ownerOf","inputs":[{"name":"tokenId","type":"uint256","internalType":"uint256"}],"outputs":[{"name":"","type":"address","internalType":"address"}],"stateMutability":"view"},{"type":"function","name":"safeTransferFrom","inputs":[{"name":"from","type":"address","internalType":"address"},{"name":"to","type":"address","internalType":"address"},{"name":"tokenId","type":"uint256","internalType":"uint256"}],"outputs":[],"stateMutability":"nonpayable"},{"type":"function","name":"safeTransferFrom","inputs":[{"name":"from","type":"address","internalType":"address"},{"name":"to","type":"address","internalType":"address"},{"name":"tokenId","type":"uint256","internalType":"uint256"},{"name":"data","type":"bytes","internalType":"bytes"}],"outputs":[],"stateMutability":"nonpayable"},{"type":"function","name":"setApprovalForAll","inputs":[{"name":"operator","type":"address","internalType":"address"},{"name":"approved","type":"bool","internalType":"bool"}],"outputs":[],"stateMutability":"nonpayable"},{"type":"function","name":"supportsInterface","inputs":[{"name":"interfaceId","type":"bytes4","internalType":"bytes4"}],"outputs":[{"name":"","type":"bool","internalType":"bool"}],"stateMutability":"view"},{"type":"function","name":"symbol","inputs":[],"outputs":[{"name":"","type":"string","internalType":"string"}],"stateMutability":"view"},{"type":"function","name":"tokenURI","inputs":[{"name":"tokenId","type":"uint256","internalType":"uint256"}],"outputs":[{"name":"","type":"string","internalType":"string"}],"stateMutability":"view"},{"type":"function","name":"transferFrom","inputs":[{"name":"from","type":"address","internalType":"address"},{"name":"to","type":"address","internalType":"address"},{"name":"tokenId","type":"uint256","internalType":"uint256"}],"outputs":[],"stateMutability":"nonpayable"},{"type":"event","name":"Approval","inputs":[{"name":"owner","type":"address","indexed":true,"internalType":"address"},{"name":"approved","type":"address","indexed":true,"internalType":"address"},{"name":"tokenId","type":"uint256","indexed":true,"internalType":"uint256"}],"anonymous":false},{"type":"event","name":"ApprovalForAll","inputs":[{"name":"owner","type":"address","indexed":true,"internalType":"address"},{"name":"operator","type":"address","indexed":true,"internalType":"address"},{"name":"approved","type":"bool","indexed":false,"internalType":"bool"}],"anonymous":false},{"type":"event","name":"Transfer","inputs":[{"name":"from","type":"address","indexed":true,"internalType":"address"},{"name":"to","type":"address","indexed":true,"internalType":"address"},{"name":"tokenId","type":"uint256","indexed":true,"internalType":"uint256"}],"anonymous":false},{"type":"error","name":"ERC721IncorrectOwner","inputs":[{"name":"sender","type":"address","internalType":"address"},{"name":"tokenId","type":"uint256","internalType":"uint256"},{"name":"owner","type":"address","internalType":"address"}]},{"type":"error","name":"ERC721InsufficientApproval","inputs":[{"name":"operator","type":"address","internalType":"address"},{"name":"tokenId","type":"uint256","internalType":"uint256"}]},{"type":"error","name":"ERC721InvalidApprover","inputs":[{"name":"approver","type":"address","internalType":"address"}]},{"type":"error","name":"ERC721InvalidOperator","inputs":[{"name":"operator","type":"address","internalType":"address"}]},{"type":"error","name":"ERC721InvalidOwner","inputs":[{"name":"owner","type":"address","internalType":"address"}]},{"type":"error","name":"ERC721InvalidReceiver","inputs":[{"name":"receiver","type":"address","internalType":"address"}]},{"type":"error","name":"ERC721InvalidSender","inputs":[{"name":"sender","type":"address","internalType":"address"}]},{"type":"error","name":"ERC721NonexistentToken","inputs":[{"name":"tokenId","type":"uint256","internalType":"uint256"}]}],"bytecode":{"object":"0x608060405234801561000f575f5ffd5b5060405180604001604052806011815260200170111a5cd8dbdd5b9d10dbdd5c1bdb939195607a1b815250604051806040016040528060058152602001642229a1a82760d91b815250815f90816100669190610117565b5060016100738282610117565b50505f600655506101d1565b634e487b7160e01b5f52604160045260245ffd5b600181811c908216806100a757607f821691505b6020821081036100c557634e487b7160e01b5f52602260045260245ffd5b50919050565b601f82111561011257805f5260205f20601f840160051c810160208510156100f05750805b601f840160051c820191505b8181101561010f575f81556001016100fc565b50505b505050565b81516001600160401b038111156101305761013061007f565b6101448161013e8454610093565b846100cb565b6020601f821160018114610176575f831561015f5750848201515b5f19600385901b1c1916600184901b17845561010f565b5f84815260208120601f198516915b828110156101a55787850151825560209485019460019092019101610185565b50848210156101c257868401515f19600387901b60f8161c191681555b50505050600190811b01905550565b6110b0806101de5f395ff3fe608060405234801561000f575f5ffd5b5060043610610106575f3560e01c80636352211e1161009e57806395d89b411161006e57806395d89b411461026f578063a22cb46514610277578063b88d4fde1461028a578063c87b56dd1461029d578063e985e9c5146102b0575f5ffd5b80636352211e14610217578063691562a01461022a57806370a082311461023d57806375d09b3214610250575f5ffd5b806323b872dd116100d957806323b872dd146101875780633ac389de1461019a57806342842e0e146101d057806349299d6e146101e3575f5ffd5b806301ffc9a71461010a57806306fdde0314610132578063081812fc14610147578063095ea7b314610172575b5f5ffd5b61011d610118366004610d0a565b6102c3565b60405190151581526020015b60405180910390f35b61013a610314565b6040516101299190610d53565b61015a610155366004610d65565b6103a3565b6040516001600160a01b039091168152602001610129565b610185610180366004610d97565b6103ca565b005b610185610195366004610dbf565b6103d9565b6101c26101a8366004610df9565b6001600160a01b03165f9081526008602052604090205490565b604051908152602001610129565b6101856101de366004610dbf565b610467565b6102056101f1366004610d65565b5f9081526007602052604090205460ff1690565b60405160ff9091168152602001610129565b61015a610225366004610d65565b610486565b6101c2610238366004610e12565b610490565b6101c261024b366004610df9565b61054c565b6101c261025e366004610df9565b60086020525f908152604090205481565b61013a610591565b610185610285366004610e4c565b6105a0565b610185610298366004610e8e565b6105ab565b61013a6102ab366004610d65565b6105c3565b61011d6102be366004610f6b565b610634565b5f6001600160e01b031982166380ac58cd60e01b14806102f357506001600160e01b03198216635b5e139f60e01b145b8061030e57506301ffc9a760e01b6001600160e01b03198316145b92915050565b60605f805461032290610f9c565b80601f016020809104026020016040519081016040528092919081815260200182805461034e90610f9c565b80156103995780601f1061037057610100808354040283529160200191610399565b820191905f5260205f20905b81548152906001019060200180831161037c57829003601f168201915b5050505050905090565b5f6103ad82610661565b505f828152600460205260409020546001600160a01b031661030e565b6103d5828233610699565b5050565b6001600160a01b03821661040757604051633250574960e11b81525f60048201526024015b60405180910390fd5b5f6104138383336106a6565b9050836001600160a01b0316816001600160a01b031614610461576040516364283d7b60e01b81526001600160a01b03808616600483015260248201849052821660448201526064016103fe565b50505050565b61048183838360405180602001604052805f8152506105ab565b505050565b5f61030e82610661565b5f60148260ff1611156104f15760405162461bcd60e51b815260206004820152602360248201527f446973636f756e74206d757374206265206265747765656e20302520616e642060448201526232302560e81b60648201526084016103fe565b6006546104fe8482610798565b5f818152600760209081526040808320805460ff191660ff88161790556001600160a01b038716835260089091528120829055600680549161053f83610fd4565b9091555090949350505050565b5f6001600160a01b038216610576576040516322718ad960e21b81525f60048201526024016103fe565b506001600160a01b03165f9081526003602052604090205490565b60606001805461032290610f9c565b6103d53383836107f9565b6105b68484846103d9565b6104613385858585610897565b60606105ce82610661565b505f6105e460408051602081019091525f815290565b90505f8151116106025760405180602001604052805f81525061062d565b8061060c846109bf565b60405160200161061d92919061100f565b6040516020818303038152906040525b9392505050565b6001600160a01b039182165f90815260056020908152604080832093909416825291909152205460ff1690565b5f818152600260205260408120546001600160a01b03168061030e57604051637e27328960e01b8152600481018490526024016103fe565b6104818383836001610a4f565b5f828152600260205260408120546001600160a01b03908116908316156106d2576106d2818486610b53565b6001600160a01b0381161561070c576106ed5f855f5f610a4f565b6001600160a01b0381165f90815260036020526040902080545f190190555b6001600160a01b0385161561073a576001600160a01b0385165f908152600360205260409020805460010190555b5f8481526002602052604080822080546001600160a01b0319166001600160a01b0389811691821790925591518793918516917fddf252ad1be2c89b69c2b068fc378daa952ba7f163c4a11628f55a4df523b3ef91a4949350505050565b6001600160a01b0382166107c157604051633250574960e11b81525f60048201526024016103fe565b5f6107cd83835f6106a6565b90506001600160a01b03811615610481576040516339e3563760e11b81525f60048201526024016103fe565b6001600160a01b03821661082b57604051630b61174360e31b81526001600160a01b03831660048201526024016103fe565b6001600160a01b038381165f81815260056020908152604080832094871680845294825291829020805460ff191686151590811790915591519182527f17307eab39ab6107e8899845ad3d59bd9653f200f220920489ca2b5937696c31910160405180910390a3505050565b6001600160a01b0383163b156109b857604051630a85bd0160e11b81526001600160a01b0384169063150b7a02906108d9908890889087908790600401611023565b6020604051808303815f875af1925050508015610913575060408051601f3d908101601f191682019092526109109181019061105f565b60015b61097a573d808015610940576040519150601f19603f3d011682016040523d82523d5f602084013e610945565b606091505b5080515f0361097257604051633250574960e11b81526001600160a01b03851660048201526024016103fe565b805181602001fd5b6001600160e01b03198116630a85bd0160e11b146109b657604051633250574960e11b81526001600160a01b03851660048201526024016103fe565b505b5050505050565b60605f6109cb83610bb7565b60010190505f8167ffffffffffffffff8111156109ea576109ea610e7a565b6040519080825280601f01601f191660200182016040528015610a14576020820181803683370190505b5090508181016020015b5f19016f181899199a1a9b1b9c1cb0b131b232b360811b600a86061a8153600a8504945084610a1e57509392505050565b8080610a6357506001600160a01b03821615155b15610b24575f610a7284610661565b90506001600160a01b03831615801590610a9e5750826001600160a01b0316816001600160a01b031614155b8015610ab15750610aaf8184610634565b155b15610ada5760405163a9fbf51f60e01b81526001600160a01b03841660048201526024016103fe565b8115610b225783856001600160a01b0316826001600160a01b03167f8c5be1e5ebec7d5bd14f71427d1e84f3dd0314c0f7b2291e5b200ac8c7c3b92560405160405180910390a45b505b50505f90815260046020526040902080546001600160a01b0319166001600160a01b0392909216919091179055565b610b5e838383610c8e565b610481576001600160a01b038316610b8c57604051637e27328960e01b8152600481018290526024016103fe565b60405163177e802f60e01b81526001600160a01b0383166004820152602481018290526044016103fe565b5f8072184f03e93ff9f4daa797ed6e38ed64bf6a1f0160401b8310610bf55772184f03e93ff9f4daa797ed6e38ed64bf6a1f0160401b830492506040015b6d04ee2d6d415b85acef81000000008310610c21576d04ee2d6d415b85acef8100000000830492506020015b662386f26fc100008310610c3f57662386f26fc10000830492506010015b6305f5e1008310610c57576305f5e100830492506008015b6127108310610c6b57612710830492506004015b60648310610c7d576064830492506002015b600a831061030e5760010192915050565b5f6001600160a01b03831615801590610cea5750826001600160a01b0316846001600160a01b03161480610cc75750610cc78484610634565b80610cea57505f828152600460205260409020546001600160a01b038481169116145b949350505050565b6001600160e01b031981168114610d07575f5ffd5b50565b5f60208284031215610d1a575f5ffd5b813561062d81610cf2565b5f81518084528060208401602086015e5f602082860101526020601f19601f83011685010191505092915050565b602081525f61062d6020830184610d25565b5f60208284031215610d75575f5ffd5b5035919050565b80356001600160a01b0381168114610d92575f5ffd5b919050565b5f5f60408385031215610da8575f5ffd5b610db183610d7c565b946020939093013593505050565b5f5f5f60608486031215610dd1575f5ffd5b610dda84610d7c565b9250610de860208501610d7c565b929592945050506040919091013590565b5f60208284031215610e09575f5ffd5b61062d82610d7c565b5f5f60408385031215610e23575f5ffd5b610e2c83610d7c565b9150602083013560ff81168114610e41575f5ffd5b809150509250929050565b5f5f60408385031215610e5d575f5ffd5b610e6683610d7c565b915060208301358015158114610e41575f5ffd5b634e487b7160e01b5f52604160045260245ffd5b5f5f5f5f60808587031215610ea1575f5ffd5b610eaa85610d7c565b9350610eb860208601610d7c565b925060408501359150606085013567ffffffffffffffff811115610eda575f5ffd5b8501601f81018713610eea575f5ffd5b803567ffffffffffffffff811115610f0457610f04610e7a565b604051601f8201601f19908116603f0116810167ffffffffffffffff81118282101715610f3357610f33610e7a565b604052818152828201602001891015610f4a575f5ffd5b816020840160208301375f6020838301015280935050505092959194509250565b5f5f60408385031215610f7c575f5ffd5b610f8583610d7c565b9150610f9360208401610d7c565b90509250929050565b600181811c90821680610fb057607f821691505b602082108103610fce57634e487b7160e01b5f52602260045260245ffd5b50919050565b5f60018201610ff157634e487b7160e01b5f52601160045260245ffd5b5060010190565b5f81518060208401855e5f93019283525090919050565b5f610cea61101d8386610ff8565b84610ff8565b6001600160a01b03858116825284166020820152604081018390526080606082018190525f9061105590830184610d25565b9695505050505050565b5f6020828403121561106f575f5ffd5b815161062d81610cf256fea26469706673582212206986a202b3bb27050fb48bdfa757f8da3128de9610bb44ed9b9f00f6a740427964736f6c634300081c0033","linkReferences":{}},"methodIdentifiers":{"_ownerToCouponId(address)":"75d09b32","approve(address,uint256)":"095ea7b3","balanceOf(address)":"70a08231","discountOf(uint256)":"49299d6e","getApproved(uint256)":"081812fc","getCouponId(address)":"3ac389de","isApprovedForAll(address,address)":"e985e9c5","mint(address,uint8)":"691562a0","name()":"06fdde03","ownerOf(uint256)":"6352211e","safeTransferFrom(address,address,uint256)":"42842e0e","safeTransferFrom(address,address,uint256,bytes)":"b88d4fde","setApprovalForAll(address,bool)":"a22cb465","supportsInterface(bytes4)":"01ffc9a7","symbol()":"95d89b41","tokenURI(uint256)":"c87b56dd","transferFrom(address,address,uint256)":"23b872dd"},"id":114}