{"abi":[{"type":"constructor","inputs":[{"name":"_manager","type":"address","internalType":"contract IPoolManager"}],"stateMutability":"nonpayable"},{"type":"function","name":"manager","inputs":[],"outputs":[{"name":"","type":"address","internalType":"contract IPoolManager"}],"stateMutability":"view"},{"type":"function","name":"modifyLiquidity","inputs":[{"name":"key","type":"tuple","internalType":"struct PoolKey","components":[{"name":"currency0","type":"address","internalType":"Currency"},{"name":"currency1","type":"address","internalType":"Currency"},{"name":"fee","type":"uint24","internalType":"uint24"},{"name":"tickSpacing","type":"int24","internalType":"int24"},{"name":"hooks","type":"address","internalType":"contract IHooks"}]},{"name":"params","type":"tuple","internalType":"struct IPoolManager.ModifyLiquidityParams","components":[{"name":"tickLower","type":"int24","internalType":"int24"},{"name":"tickUpper","type":"int24","internalType":"int24"},{"name":"liquidityDelta","type":"int256","internalType":"int256"},{"name":"salt","type":"bytes32","internalType":"bytes32"}]},{"name":"hookData","type":"bytes","internalType":"bytes"},{"name":"settleUsingBurn","type":"bool","internalType":"bool"},{"name":"takeClaims","type":"bool","internalType":"bool"}],"outputs":[{"name":"delta","type":"int256","internalType":"BalanceDelta"}],"stateMutability":"payable"},{"type":"function","name":"modifyLiquidity","inputs":[{"name":"key","type":"tuple","internalType":"struct PoolKey","components":[{"name":"currency0","type":"address","internalType":"Currency"},{"name":"currency1","type":"address","internalType":"Currency"},{"name":"fee","type":"uint24","internalType":"uint24"},{"name":"tickSpacing","type":"int24","internalType":"int24"},{"name":"hooks","type":"address","internalType":"contract IHooks"}]},{"name":"params","type":"tuple","internalType":"struct IPoolManager.ModifyLiquidityParams","components":[{"name":"tickLower","type":"int24","internalType":"int24"},{"name":"tickUpper","type":"int24","internalType":"int24"},{"name":"liquidityDelta","type":"int256","internalType":"int256"},{"name":"salt","type":"bytes32","internalType":"bytes32"}]},{"name":"hookData","type":"bytes","internalType":"bytes"}],"outputs":[{"name":"delta","type":"int256","internalType":"BalanceDelta"}],"stateMutability":"payable"},{"type":"function","name":"unlockCallback","inputs":[{"name":"rawData","type":"bytes","internalType":"bytes"}],"outputs":[{"name":"","type":"bytes","internalType":"bytes"}],"stateMutability":"nonpayable"}],"bytecode":{"object":"0x60a060405234801561000f575f5ffd5b506040516116bb3803806116bb83398101604081905261002e9161003f565b6001600160a01b031660805261006c565b5f6020828403121561004f575f5ffd5b81516001600160a01b0381168114610065575f5ffd5b9392505050565b6080516115ec6100cf5f395f818160790152818160f50152818161022d01528181610294015281816102c501528181610390015281816104fa01528181610550015281816105bf015281816106100152818161077c01526107af01526115ec5ff3fe60806040526004361061003e575f3560e01c80630a5b11e414610042578063481c6a75146100685780635a6bcfda146100b357806391dd7346146100c6575b5f5ffd5b61005561005036600461103d565b6100f2565b6040519081526020015b60405180910390f35b348015610073575f5ffd5b5061009b7f000000000000000000000000000000000000000000000000000000000000000081565b6040516001600160a01b03909116815260200161005f565b6100556100c13660046110c3565b61020a565b3480156100d1575f5ffd5b506100e56100e0366004611120565b610220565b60405161005f91906111ba565b5f7f00000000000000000000000000000000000000000000000000000000000000006001600160a01b03166348c894916040518060c00160405280336001600160a01b03168152602001898152602001888152602001878152602001861515815260200185151581525060405160200161016c9190611216565b6040516020818303038152906040526040518263ffffffff1660e01b815260040161019791906111ba565b5f604051808303815f875af11580156101b2573d5f5f3e3d5ffd5b505050506040513d5f823e601f3d908101601f191682016040526101d991908101906112b2565b8060200190518101906101ec9190611326565b9050478015610200576102005f3383610662565b5095945050505050565b5f6102188484845f5f6100f2565b949350505050565b6060336001600160a01b037f00000000000000000000000000000000000000000000000000000000000000001614610256575f5ffd5b5f6102638385018561133d565b90505f6102be610278836020015160a0902090565b6040840151805160208201516060909201516001600160a01b037f00000000000000000000000000000000000000000000000000000000000000001693923092916106fe565b505090505f7f00000000000000000000000000000000000000000000000000000000000000006001600160a01b0316635a6bcfda8460200151856040015186606001516040518463ffffffff1660e01b815260040161031f93929190611404565b60408051808303815f875af115801561033a573d5f5f3e3d5ffd5b505050506040513d601f19601f8201168201806040525081019061035e9190611453565b5090505f6103ba610374856020015160a0902090565b6040860151805160208201516060909201516001600160a01b037f00000000000000000000000000000000000000000000000000000000000000001693923092916106fe565b505090505f6103d485602001515f0151865f015130610755565b925050505f6103ef866020015160200151875f015130610755565b9250505082600f0b86604001516040015186600f0b61040e9190611489565b1461045f5760405162461bcd60e51b815260206004820152601a60248201527f6c6971756964697479206368616e676520696e636f7272656374000000000000604482015260640160405180910390fd5b5f86604001516040015112156104a7575f82138061047c57505f81135b610488576104886114b0565b5f82128061049557505f81125b156104a2576104a26114b0565b6104ea565b5f86604001516040015113156104ea575f8212806104c457505f81125b6104d0576104d06114b0565b5f8213806104dd57505f81135b156104ea576104ea6114b0565b5f821215610540578551610540907f000000000000000000000000000000000000000000000000000000000000000090610523856114c4565b60808a015160208b0151516001600160a01b0316939291906107e1565b5f811215610598578551610598907f000000000000000000000000000000000000000000000000000000000000000090610579846114c4565b60808a01516020808c015101516001600160a01b0316939291906107e1565b5f8213156105e757855160a08701516020880151516105e7926001600160a01b03909116917f000000000000000000000000000000000000000000000000000000000000000091908690610aad565b5f81131561063857855160a08701516020808901510151610638926001600160a01b03909116917f000000000000000000000000000000000000000000000000000000000000000091908590610aad565b60408051602081018690520160405160208183030381529060405296505050505050505b92915050565b5f6001600160a01b038416610696575f5f5f5f85875af190508061069157610691638549db5960e01b84610b7f565b6106f8565b60405163a9059cbb60e01b81526001600160a01b038416600482015282602482015260205f6044835f895af13d15601f3d1160015f511416171691505f81525f60208201525f604082015250806106f8576106f8632c4b17e760e21b85610b7f565b50505050565b60408051602681018390526006810184905260038101859052858152603a600c8201205f9282018390526020820183905290829052819081906107428a8a83610bb2565b919c909b50909950975050505050505050565b5f808061076b6001600160a01b03871686610c55565b92506107a06001600160a01b0387167f0000000000000000000000000000000000000000000000000000000000000000610c55565b91506107d66001600160a01b037f0000000000000000000000000000000000000000000000000000000000000000168588610ce4565b905093509350939050565b801561087657836001600160a01b031663f5298aca84610810886001600160a01b03166001600160a01b031690565b6040516001600160e01b031960e085901b1681526001600160a01b0390921660048301526024820152604481018590526064015b5f604051808303815f87803b15801561085b575f5ffd5b505af115801561086d573d5f5f3e3d5ffd5b50505050610aa6565b6001600160a01b0385166108ed57836001600160a01b03166311da60b4836040518263ffffffff1660e01b815260040160206040518083038185885af11580156108c2573d5f5f3e3d5ffd5b50505050506040513d601f19601f820116820180604052508101906108e79190611326565b50610aa6565b604051632961046560e21b81526001600160a01b03868116600483015285169063a5841194906024015f604051808303815f87803b15801561092d575f5ffd5b505af115801561093f573d5f5f3e3d5ffd5b505050506001600160a01b03831630146109d1576040516323b872dd60e01b81526001600160a01b0384811660048301528581166024830152604482018490528616906323b872dd906064016020604051808303815f875af11580156109a7573d5f5f3e3d5ffd5b505050506040513d601f19601f820116820180604052508101906109cb91906114de565b50610a43565b60405163a9059cbb60e01b81526001600160a01b0385811660048301526024820184905286169063a9059cbb906044016020604051808303815f875af1158015610a1d573d5f5f3e3d5ffd5b505050506040513d601f19601f82011682018060405250810190610a4191906114de565b505b836001600160a01b03166311da60b46040518163ffffffff1660e01b81526004016020604051808303815f875af1158015610a80573d5f5f3e3d5ffd5b505050506040513d601f19601f82011682018060405250810190610aa49190611326565b505b5050505050565b80610aef57604051630b0d9c0960e01b81526001600160a01b038681166004830152848116602483015260448201849052851690630b0d9c0990606401610844565b836001600160a01b031663156e29f684610b18886001600160a01b03166001600160a01b031690565b6040516001600160e01b031960e085901b1681526001600160a01b0390921660048301526024820152604481018590526064015f604051808303815f87803b158015610b62575f5ffd5b505af1158015610b74573d5f5f3e3d5ffd5b505050505050505050565b3d60405183815282600482015260406024820152816044820152815f606483013e602080601f8401040260640191508181fd5b5f5f5f5f610bc08686610d7b565b604051631afeb18d60e11b815260048101829052600360248201529091505f906001600160a01b038916906335fd631a906044015f60405180830381865afa158015610c0e573d5f5f3e3d5ffd5b505050506040513d5f823e601f3d908101601f19168201604052610c3591908101906114f9565b60208101516040820151606090920151909a919950975095505050505050565b5f6001600160a01b038316610c7557506001600160a01b0381163161065c565b6040516370a0823160e01b81526001600160a01b0383811660048301528416906370a0823190602401602060405180830381865afa158015610cb9573d5f5f3e3d5ffd5b505050506040513d601f19601f82011682018060405250810190610cdd9190611326565b905061065c565b5f5f6001600160a01b0384165f526001600160a01b03831660205260405f209050846001600160a01b031663f135baaa826040518263ffffffff1660e01b8152600401610d3391815260200190565b602060405180830381865afa158015610d4e573d5f5f3e3d5ffd5b505050506040513d601f19601f82011682018060405250810190610d729190611326565b95945050505050565b5f5f610d8684610dcb565b90505f610d946006836115a3565b6040805160208101879052908101829052909150606001604051602081830303815290604052805190602001209250505092915050565b6040515f90610dea908390600690602001918252602082015260400190565b604051602081830303815290604052805190602001209050919050565b634e487b7160e01b5f52604160045260245ffd5b60405160c081016001600160401b0381118282101715610e3d57610e3d610e07565b60405290565b604051601f8201601f191681016001600160401b0381118282101715610e6b57610e6b610e07565b604052919050565b6001600160a01b0381168114610e87575f5ffd5b50565b8035600281900b8114610e9b575f5ffd5b919050565b5f60a08284031215610eb0575f5ffd5b60405160a081016001600160401b0381118282101715610ed257610ed2610e07565b6040529050808235610ee381610e73565b81526020830135610ef381610e73565b6020820152604083013562ffffff81168114610f0d575f5ffd5b6040820152610f1e60608401610e8a565b60608201526080830135610f3181610e73565b6080919091015292915050565b5f60808284031215610f4e575f5ffd5b604051608081016001600160401b0381118282101715610f7057610f70610e07565b604052905080610f7f83610e8a565b8152610f8d60208401610e8a565b602082015260408301356040820152606083013560608201525092915050565b5f6001600160401b03821115610fc557610fc5610e07565b50601f01601f191660200190565b5f82601f830112610fe2575f5ffd5b8135610ff5610ff082610fad565b610e43565b818152846020838601011115611009575f5ffd5b816020850160208301375f918101602001919091529392505050565b8015158114610e87575f5ffd5b8035610e9b81611025565b5f5f5f5f5f6101808688031215611052575f5ffd5b61105c8787610ea0565b945061106b8760a08801610f3e565b93506101208601356001600160401b03811115611086575f5ffd5b61109288828901610fd3565b9350506101408601356110a481611025565b91506101608601356110b581611025565b809150509295509295909350565b5f5f5f61014084860312156110d6575f5ffd5b6110e08585610ea0565b92506110ef8560a08601610f3e565b91506101208401356001600160401b0381111561110a575f5ffd5b61111686828701610fd3565b9150509250925092565b5f5f60208385031215611131575f5ffd5b82356001600160401b03811115611146575f5ffd5b8301601f81018513611156575f5ffd5b80356001600160401b0381111561116b575f5ffd5b85602082840101111561117c575f5ffd5b6020919091019590945092505050565b5f81518084528060208401602086015e5f602082860101526020601f19601f83011685010191505092915050565b602081525f6111cc602083018461118c565b9392505050565b80516001600160a01b03908116835260208083015182169084015260408083015162ffffff169084015260608083015160020b9084015260809182015116910152565b602080825282516001600160a01b0316828201528201515f9061123c60408401826111d3565b506040838101518051600290810b60e08601526020820151900b610100850152908101516101208401526060908101516101408401528301516101a061016084015261128c6101c084018261118c565b90506080840151151561018084015260a084015115156101a08401528091505092915050565b5f602082840312156112c2575f5ffd5b81516001600160401b038111156112d7575f5ffd5b8201601f810184136112e7575f5ffd5b80516112f5610ff082610fad565b818152856020838501011115611309575f5ffd5b8160208401602083015e5f91810160200191909152949350505050565b5f60208284031215611336575f5ffd5b5051919050565b5f6020828403121561134d575f5ffd5b81356001600160401b03811115611362575f5ffd5b82016101a08185031215611374575f5ffd5b61137c610e1b565b813561138781610e73565b81526113968560208401610ea0565b60208201526113a88560c08401610f3e565b60408201526101408201356001600160401b038111156113c6575f5ffd5b6113d286828501610fd3565b6060830152506113e56101608301611032565b60808201526113f76101808301611032565b60a0820152949350505050565b61140e81856111d3565b8251600290810b60a08301526020840151900b60c0820152604083015160e082015260608301516101008201526101406101208201525f610d7261014083018461118c565b5f5f60408385031215611464575f5ffd5b505080516020909101519092909150565b634e487b7160e01b5f52601160045260245ffd5b8082018281125f8312801582168215821617156114a8576114a8611475565b505092915050565b634e487b7160e01b5f52600160045260245ffd5b5f600160ff1b82016114d8576114d8611475565b505f0390565b5f602082840312156114ee575f5ffd5b81516111cc81611025565b5f60208284031215611509575f5ffd5b81516001600160401b0381111561151e575f5ffd5b8201601f8101841361152e575f5ffd5b80516001600160401b0381111561154757611547610e07565b8060051b61155760208201610e43565b91825260208184018101929081019087841115611572575f5ffd5b6020850194505b8385101561159857845180835260209586019590935090910190611579565b979650505050505050565b8082018082111561065c5761065c61147556fea264697066735822122083a2aff96f9ea2376f7575c0cfd7be9fbfce1e775dbb7c415fefe7cc26b16c2764736f6c634300081c0033","linkReferences":{}},"methodIdentifiers":{"manager()":"481c6a75","modifyLiquidity((address,address,uint24,int24,address),(int24,int24,int256,bytes32),bytes)":"5a6bcfda","modifyLiquidity((address,address,uint24,int24,address),(int24,int24,int256,bytes32),bytes,bool,bool)":"0a5b11e4","unlockCallback(bytes)":"91dd7346"},"id":89}