{
  "_format": "hh-sol-artifact-1",
  "contractName": "DiscountHook",
  "sourceName": "contracts/DiscountHook.sol",
  "abi": [
    {
      "inputs": [
        {
          "internalType": "address",
          "name": "_discountNFT",
          "type": "address"
        },
        {
          "internalType": "address",
          "name": "_tokenA",
          "type": "address"
        },
        {
          "internalType": "address",
          "name": "_tokenB",
          "type": "address"
        },
        {
          "internalType": "address",
          "name": "_seller",
          "type": "address"
        }
      ],
      "stateMutability": "nonpayable",
      "type": "constructor"
    },
    {
      "anonymous": false,
      "inputs": [
        {
          "indexed": true,
          "internalType": "address",
          "name": "user",
          "type": "address"
        },
        {
          "indexed": false,
          "internalType": "uint256",
          "name": "amountIn",
          "type": "uint256"
        },
        {
          "indexed": false,
          "internalType": "uint256",
          "name": "amountOut",
          "type": "uint256"
        },
        {
          "indexed": false,
          "internalType": "bool",
          "name": "isAtoB",
          "type": "bool"
        },
        {
          "indexed": false,
          "internalType": "uint256",
          "name": "appliedFee",
          "type": "uint256"
        }
      ],
      "name": "Swap",
      "type": "event"
    },
    {
      "inputs": [],
      "name": "FEE_DENOMINATOR",
      "outputs": [
        {
          "internalType": "uint256",
          "name": "",
          "type": "uint256"
        }
      ],
      "stateMutability": "view",
      "type": "function"
    },
    {
      "inputs": [],
      "name": "discountNFT",
      "outputs": [
        {
          "internalType": "contract DiscountNFT",
          "name": "",
          "type": "address"
        }
      ],
      "stateMutability": "view",
      "type": "function"
    },
    {
      "inputs": [],
      "name": "seller",
      "outputs": [
        {
          "internalType": "address",
          "name": "",
          "type": "address"
        }
      ],
      "stateMutability": "view",
      "type": "function"
    },
    {
      "inputs": [
        {
          "internalType": "uint256",
          "name": "amountIn",
          "type": "uint256"
        },
        {
          "internalType": "bool",
          "name": "isAtoB",
          "type": "bool"
        }
      ],
      "name": "swap",
      "outputs": [
        {
          "internalType": "uint256",
          "name": "",
          "type": "uint256"
        }
      ],
      "stateMutability": "nonpayable",
      "type": "function"
    },
    {
      "inputs": [],
      "name": "tokenA",
      "outputs": [
        {
          "internalType": "contract IERC20",
          "name": "",
          "type": "address"
        }
      ],
      "stateMutability": "view",
      "type": "function"
    },
    {
      "inputs": [],
      "name": "tokenB",
      "outputs": [
        {
          "internalType": "contract IERC20",
          "name": "",
          "type": "address"
        }
      ],
      "stateMutability": "view",
      "type": "function"
    }
  ],
  "bytecode": "0x6101006040523480156200001257600080fd5b50604051620011fe380380620011fe833981810160405281019062000038919062000344565b600073ffffffffffffffffffffffffffffffffffffffff168473ffffffffffffffffffffffffffffffffffffffff1603620000aa576040517f08c379a0000000000000000000000000000000000000000000000000000000008152600401620000a19062000417565b60405180910390fd5b600073ffffffffffffffffffffffffffffffffffffffff168373ffffffffffffffffffffffffffffffffffffffff16036200011c576040517f08c379a0000000000000000000000000000000000000000000000000000000008152600401620001139062000489565b60405180910390fd5b600073ffffffffffffffffffffffffffffffffffffffff168273ffffffffffffffffffffffffffffffffffffffff16036200018e576040517f08c379a00000000000000000000000000000000000000000000000000000000081526004016200018590620004fb565b60405180910390fd5b600073ffffffffffffffffffffffffffffffffffffffff168173ffffffffffffffffffffffffffffffffffffffff160362000200576040517f08c379a0000000000000000000000000000000000000000000000000000000008152600401620001f7906200056d565b60405180910390fd5b8373ffffffffffffffffffffffffffffffffffffffff1660808173ffffffffffffffffffffffffffffffffffffffff16815250508273ffffffffffffffffffffffffffffffffffffffff1660a08173ffffffffffffffffffffffffffffffffffffffff16815250508173ffffffffffffffffffffffffffffffffffffffff1660c08173ffffffffffffffffffffffffffffffffffffffff16815250508073ffffffffffffffffffffffffffffffffffffffff1660e08173ffffffffffffffffffffffffffffffffffffffff1681525050505050506200058f565b600080fd5b600073ffffffffffffffffffffffffffffffffffffffff82169050919050565b60006200030c82620002df565b9050919050565b6200031e81620002ff565b81146200032a57600080fd5b50565b6000815190506200033e8162000313565b92915050565b60008060008060808587031215620003615762000360620002da565b5b600062000371878288016200032d565b945050602062000384878288016200032d565b935050604062000397878288016200032d565b9250506060620003aa878288016200032d565b91505092959194509250565b600082825260208201905092915050565b7f496e76616c6964204e4654206164647265737300000000000000000000000000600082015250565b6000620003ff601383620003b6565b91506200040c82620003c7565b602082019050919050565b600060208201905081810360008301526200043281620003f0565b9050919050565b7f496e76616c696420746f6b656e41206164647265737300000000000000000000600082015250565b600062000471601683620003b6565b91506200047e8262000439565b602082019050919050565b60006020820190508181036000830152620004a48162000462565b9050919050565b7f496e76616c696420746f6b656e42206164647265737300000000000000000000600082015250565b6000620004e3601683620003b6565b9150620004f082620004ab565b602082019050919050565b600060208201905081810360008301526200051681620004d4565b9050919050565b7f496e76616c69642073656c6c6572206164647265737300000000000000000000600082015250565b600062000555601683620003b6565b915062000562826200051d565b602082019050919050565b60006020820190508181036000830152620005888162000546565b9050919050565b60805160a05160c05160e051610c19620005e56000396000818161012f01526102f90152600081816103d70152610554015260008181610153015281816101c101526102bd015260006105780152610c196000f3fe608060405234801561001057600080fd5b50600436106100625760003560e01c806308551a53146100675780630fc63d10146100855780632aea6605146100a35780635f64b55b146100d35780639dec1c05146100f1578063d73792a91461010f575b600080fd5b61006f61012d565b60405161007c91906105e0565b60405180910390f35b61008d610151565b60405161009a919061065a565b60405180910390f35b6100bd60048036038101906100b891906106e8565b610175565b6040516100ca9190610737565b60405180910390f35b6100db610552565b6040516100e8919061065a565b60405180910390f35b6100f9610576565b6040516101069190610773565b60405180910390f35b61011761059a565b6040516101249190610737565b60405180910390f35b7f000000000000000000000000000000000000000000000000000000000000000081565b7f000000000000000000000000000000000000000000000000000000000000000081565b60008083116101b9576040517f08c379a00000000000000000000000000000000000000000000000000000000081526004016101b0906107eb565b60405180910390fd5b8115610511577f000000000000000000000000000000000000000000000000000000000000000073ffffffffffffffffffffffffffffffffffffffff166323b872dd3330866040518463ffffffff1660e01b815260040161021c9392919061080b565b6020604051808303816000875af115801561023b573d6000803e3d6000fd5b505050506040513d601f19601f8201168201806040525081019061025f9190610857565b61029e576040517f08c379a0000000000000000000000000000000000000000000000000000000008152600401610295906108d0565b60405180910390fd5b600060646055856102af919061091f565b6102b99190610990565b90507f000000000000000000000000000000000000000000000000000000000000000073ffffffffffffffffffffffffffffffffffffffff1663a9059cbb7f0000000000000000000000000000000000000000000000000000000000000000836040518363ffffffff1660e01b81526004016103369291906109c1565b6020604051808303816000875af1158015610355573d6000803e3d6000fd5b505050506040513d601f19601f820116820180604052508101906103799190610857565b6103b8576040517f08c379a00000000000000000000000000000000000000000000000000000000081526004016103af90610a36565b60405180910390fd5b600060036005866103c9919061091f565b6103d39190610990565b90507f000000000000000000000000000000000000000000000000000000000000000073ffffffffffffffffffffffffffffffffffffffff1663a9059cbb33836040518363ffffffff1660e01b81526004016104309291906109c1565b6020604051808303816000875af115801561044f573d6000803e3d6000fd5b505050506040513d601f19601f820116820180604052508101906104739190610857565b6104b2576040517f08c379a00000000000000000000000000000000000000000000000000000000081526004016104a990610aa2565b60405180910390fd5b3373ffffffffffffffffffffffffffffffffffffffff167ffcb1b2b5ab53be7a6996938ff51a2e91754922a3d82b4c231db9ffb844872357868387600f6040516104ff9493929190610b0c565b60405180910390a2809250505061054c565b6040517f08c379a000000000000000000000000000000000000000000000000000000000815260040161054390610bc3565b60405180910390fd5b92915050565b7f000000000000000000000000000000000000000000000000000000000000000081565b7f000000000000000000000000000000000000000000000000000000000000000081565b606481565b600073ffffffffffffffffffffffffffffffffffffffff82169050919050565b60006105ca8261059f565b9050919050565b6105da816105bf565b82525050565b60006020820190506105f560008301846105d1565b92915050565b6000819050919050565b600061062061061b6106168461059f565b6105fb565b61059f565b9050919050565b600061063282610605565b9050919050565b600061064482610627565b9050919050565b61065481610639565b82525050565b600060208201905061066f600083018461064b565b92915050565b600080fd5b6000819050919050565b61068d8161067a565b811461069857600080fd5b50565b6000813590506106aa81610684565b92915050565b60008115159050919050565b6106c5816106b0565b81146106d057600080fd5b50565b6000813590506106e2816106bc565b92915050565b600080604083850312156106ff576106fe610675565b5b600061070d8582860161069b565b925050602061071e858286016106d3565b9150509250929050565b6107318161067a565b82525050565b600060208201905061074c6000830184610728565b92915050565b600061075d82610627565b9050919050565b61076d81610752565b82525050565b60006020820190506107886000830184610764565b92915050565b600082825260208201905092915050565b7f416d6f756e74206d7573742062652067726561746572207468616e2030000000600082015250565b60006107d5601d8361078e565b91506107e08261079f565b602082019050919050565b60006020820190508181036000830152610804816107c8565b9050919050565b600060608201905061082060008301866105d1565b61082d60208301856105d1565b61083a6040830184610728565b949350505050565b600081519050610851816106bc565b92915050565b60006020828403121561086d5761086c610675565b5b600061087b84828501610842565b91505092915050565b7f5472616e736665722041206661696c6564000000000000000000000000000000600082015250565b60006108ba60118361078e565b91506108c582610884565b602082019050919050565b600060208201905081810360008301526108e9816108ad565b9050919050565b7f4e487b7100000000000000000000000000000000000000000000000000000000600052601160045260246000fd5b600061092a8261067a565b91506109358361067a565b92508282026109438161067a565b9150828204841483151761095a576109596108f0565b5b5092915050565b7f4e487b7100000000000000000000000000000000000000000000000000000000600052601260045260246000fd5b600061099b8261067a565b91506109a68361067a565b9250826109b6576109b5610961565b5b828204905092915050565b60006040820190506109d660008301856105d1565b6109e36020830184610728565b9392505050565b7f5472616e7366657220746f2073656c6c6572206661696c656400000000000000600082015250565b6000610a2060198361078e565b9150610a2b826109ea565b602082019050919050565b60006020820190508181036000830152610a4f81610a13565b9050919050565b7f5472616e736665722042206661696c6564000000000000000000000000000000600082015250565b6000610a8c60118361078e565b9150610a9782610a56565b602082019050919050565b60006020820190508181036000830152610abb81610a7f565b9050919050565b610acb816106b0565b82525050565b6000819050919050565b6000610af6610af1610aec84610ad1565b6105fb565b61067a565b9050919050565b610b0681610adb565b82525050565b6000608082019050610b216000830187610728565b610b2e6020830186610728565b610b3b6040830185610ac2565b610b486060830184610afd565b95945050505050565b7f4f6e6c79204143444320746f20536c61796572207377617020737570706f727460008201527f6564000000000000000000000000000000000000000000000000000000000000602082015250565b6000610bad60228361078e565b9150610bb882610b51565b604082019050919050565b60006020820190508181036000830152610bdc81610ba0565b905091905056fea26469706673582212202d2d5c4e17fa1e8816d5837e4142cb59adc19b23e9502d3f6c84bca0ec176ad464736f6c63430008140033",
  "linkReferences": {},
  "deployedLinkReferences": {}
}