{
    "contractName": "DiscountCoupon",
    "abi": [
        {
            "inputs": [],
            "stateMutability": "nonpayable",
            "type": "constructor"
        },
        {
            "inputs": [
                {
                    "internalType": "address",
                    "name": "sender",
                    "type": "address"
                },
                {
                    "internalType": "uint256",
                    "name": "tokenId",
                    "type": "uint256"
                },
                {
                    "internalType": "address",
                    "name": "owner",
                    "type": "address"
                }
            ],
            "name": "ERC721IncorrectOwner",
            "type": "error"
        },
        {
            "inputs": [
                {
                    "internalType": "address",
                    "name": "operator",
                    "type": "address"
                },
                {
                    "internalType": "uint256",
                    "name": "tokenId",
                    "type": "uint256"
                }
            ],
            "name": "ERC721InsufficientApproval",
            "type": "error"
        },
        {
            "inputs": [
                {
                    "internalType": "address",
                    "name": "approver",
                    "type": "address"
                }
            ],
            "name": "ERC721InvalidApprover",
            "type": "error"
        },
        {
            "inputs": [
                {
                    "internalType": "address",
                    "name": "operator",
                    "type": "address"
                }
            ],
            "name": "ERC721InvalidOperator",
            "type": "error"
        },
        {
            "inputs": [
                {
                    "internalType": "address",
                    "name": "owner",
                    "type": "address"
                }
            ],
            "name": "ERC721InvalidOwner",
            "type": "error"
        },
        {
            "inputs": [
                {
                    "internalType": "address",
                    "name": "receiver",
                    "type": "address"
                }
            ],
            "name": "ERC721InvalidReceiver",
            "type": "error"
        },
        {
            "inputs": [
                {
                    "internalType": "address",
                    "name": "sender",
                    "type": "address"
                }
            ],
            "name": "ERC721InvalidSender",
            "type": "error"
        },
        {
            "inputs": [
                {
                    "internalType": "uint256",
                    "name": "tokenId",
                    "type": "uint256"
                }
            ],
            "name": "ERC721NonexistentToken",
            "type": "error"
        },
        {
            "anonymous": false,
            "inputs": [
                {
                    "indexed": true,
                    "internalType": "address",
                    "name": "owner",
                    "type": "address"
                },
                {
                    "indexed": true,
                    "internalType": "address",
                    "name": "approved",
                    "type": "address"
                },
                {
                    "indexed": true,
                    "internalType": "uint256",
                    "name": "tokenId",
                    "type": "uint256"
                }
            ],
            "name": "Approval",
            "type": "event"
        },
        {
            "anonymous": false,
            "inputs": [
                {
                    "indexed": true,
                    "internalType": "address",
                    "name": "owner",
                    "type": "address"
                },
                {
                    "indexed": true,
                    "internalType": "address",
                    "name": "operator",
                    "type": "address"
                },
                {
                    "indexed": false,
                    "internalType": "bool",
                    "name": "approved",
                    "type": "bool"
                }
            ],
            "name": "ApprovalForAll",
            "type": "event"
        },
        {
            "anonymous": false,
            "inputs": [
                {
                    "indexed": true,
                    "internalType": "address",
                    "name": "from",
                    "type": "address"
                },
                {
                    "indexed": true,
                    "internalType": "address",
                    "name": "to",
                    "type": "address"
                },
                {
                    "indexed": true,
                    "internalType": "uint256",
                    "name": "tokenId",
                    "type": "uint256"
                }
            ],
            "name": "Transfer",
            "type": "event"
        },
        {
            "inputs": [
                {
                    "internalType": "address",
                    "name": "to",
                    "type": "address"
                },
                {
                    "internalType": "uint256",
                    "name": "tokenId",
                    "type": "uint256"
                }
            ],
            "name": "approve",
            "outputs": [],
            "stateMutability": "nonpayable",
            "type": "function"
        },
        {
            "inputs": [
                {
                    "internalType": "address",
                    "name": "owner",
                    "type": "address"
                }
            ],
            "name": "balanceOf",
            "outputs": [
                {
                    "internalType": "uint256",
                    "name": "",
                    "type": "uint256"
                }
            ],
            "stateMutability": "view",
            "type": "function"
        },
        {
            "inputs": [],
            "name": "couponCounter",
            "outputs": [
                {
                    "internalType": "uint256",
                    "name": "",
                    "type": "uint256"
                }
            ],
            "stateMutability": "view",
            "type": "function"
        },
        {
            "inputs": [
                {
                    "internalType": "uint256",
                    "name": "",
                    "type": "uint256"
                }
            ],
            "name": "discounts",
            "outputs": [
                {
                    "internalType": "uint8",
                    "name": "",
                    "type": "uint8"
                }
            ],
            "stateMutability": "view",
            "type": "function"
        },
        {
            "inputs": [
                {
                    "internalType": "uint256",
                    "name": "tokenId",
                    "type": "uint256"
                }
            ],
            "name": "getApproved",
            "outputs": [
                {
                    "internalType": "address",
                    "name": "",
                    "type": "address"
                }
            ],
            "stateMutability": "view",
            "type": "function"
        },
        {
            "inputs": [
                {
                    "internalType": "uint256",
                    "name": "couponId",
                    "type": "uint256"
                }
            ],
            "name": "getDiscount",
            "outputs": [
                {
                    "internalType": "uint8",
                    "name": "",
                    "type": "uint8"
                }
            ],
            "stateMutability": "view",
            "type": "function"
        },
        {
            "inputs": [
                {
                    "internalType": "address",
                    "name": "owner",
                    "type": "address"
                },
                {
                    "internalType": "address",
                    "name": "operator",
                    "type": "address"
                }
            ],
            "name": "isApprovedForAll",
            "outputs": [
                {
                    "internalType": "bool",
                    "name": "",
                    "type": "bool"
                }
            ],
            "stateMutability": "view",
            "type": "function"
        },
        {
            "inputs": [
                {
                    "internalType": "address",
                    "name": "recipient",
                    "type": "address"
                },
                {
                    "internalType": "uint8",
                    "name": "discount",
                    "type": "uint8"
                }
            ],
            "name": "mintCoupon",
            "outputs": [
                {
                    "internalType": "uint256",
                    "name": "",
                    "type": "uint256"
                }
            ],
            "stateMutability": "nonpayable",
            "type": "function"
        },
        {
            "inputs": [],
            "name": "name",
            "outputs": [
                {
                    "internalType": "string",
                    "name": "",
                    "type": "string"
                }
            ],
            "stateMutability": "view",
            "type": "function"
        },
        {
            "inputs": [
                {
                    "internalType": "uint256",
                    "name": "tokenId",
                    "type": "uint256"
                }
            ],
            "name": "ownerOf",
            "outputs": [
                {
                    "internalType": "address",
                    "name": "",
                    "type": "address"
                }
            ],
            "stateMutability": "view",
            "type": "function"
        },
        {
            "inputs": [
                {
                    "internalType": "address",
                    "name": "from",
                    "type": "address"
                },
                {
                    "internalType": "address",
                    "name": "to",
                    "type": "address"
                },
                {
                    "internalType": "uint256",
                    "name": "tokenId",
                    "type": "uint256"
                }
            ],
            "name": "safeTransferFrom",
            "outputs": [],
            "stateMutability": "nonpayable",
            "type": "function"
        },
        {
            "inputs": [
                {
                    "internalType": "address",
                    "name": "from",
                    "type": "address"
                },
                {
                    "internalType": "address",
                    "name": "to",
                    "type": "address"
                },
                {
                    "internalType": "uint256",
                    "name": "tokenId",
                    "type": "uint256"
                },
                {
                    "internalType": "bytes",
                    "name": "data",
                    "type": "bytes"
                }
            ],
            "name": "safeTransferFrom",
            "outputs": [],
            "stateMutability": "nonpayable",
            "type": "function"
        },
        {
            "inputs": [
                {
                    "internalType": "address",
                    "name": "operator",
                    "type": "address"
                },
                {
                    "internalType": "bool",
                    "name": "approved",
                    "type": "bool"
                }
            ],
            "name": "setApprovalForAll",
            "outputs": [],
            "stateMutability": "nonpayable",
            "type": "function"
        },
        {
            "inputs": [
                {
                    "internalType": "bytes4",
                    "name": "interfaceId",
                    "type": "bytes4"
                }
            ],
            "name": "supportsInterface",
            "outputs": [
                {
                    "internalType": "bool",
                    "name": "",
                    "type": "bool"
                }
            ],
            "stateMutability": "view",
            "type": "function"
        },
        {
            "inputs": [],
            "name": "symbol",
            "outputs": [
                {
                    "internalType": "string",
                    "name": "",
                    "type": "string"
                }
            ],
            "stateMutability": "view",
            "type": "function"
        },
        {
            "inputs": [
                {
                    "internalType": "uint256",
                    "name": "tokenId",
                    "type": "uint256"
                }
            ],
            "name": "tokenURI",
            "outputs": [
                {
                    "internalType": "string",
                    "name": "",
                    "type": "string"
                }
            ],
            "stateMutability": "view",
            "type": "function"
        },
        {
            "inputs": [
                {
                    "internalType": "address",
                    "name": "from",
                    "type": "address"
                },
                {
                    "internalType": "address",
                    "name": "to",
                    "type": "address"
                },
                {
                    "internalType": "uint256",
                    "name": "tokenId",
                    "type": "uint256"
                }
            ],
            "name": "transferFrom",
            "outputs": [],
            "stateMutability": "nonpayable",
            "type": "function"
        }
    ],
    "bytecode": "608060405234801561000f575f5ffd5b506040518060400160405280600e81526020016d2234b9b1b7bab73a21b7bab837b760911b815250604051806040016040528060058152602001642229a1a82760d91b815250815f90816100639190610114565b5060016100708282610114565b50505f600655506101ce565b634e487b7160e01b5f52604160045260245ffd5b600181811c908216806100a457607f821691505b6020821081036100c257634e487b7160e01b5f52602260045260245ffd5b50919050565b601f82111561010f57805f5260205f20601f840160051c810160208510156100ed5750805b601f840160051c820191505b8181101561010c575f81556001016100f9565b50505b505050565b81516001600160401b0381111561012d5761012d61007c565b6101418161013b8454610090565b846100c8565b6020601f821160018114610173575f831561015c5750848201515b5f19600385901b1c1916600184901b17845561010c565b5f84815260208120601f198516915b828110156101a25787850151825560209485019460019092019101610182565b50848210156101bf57868401515f19600387901b60f8161c191681555b50505050600190811b01905550565b6110ab806101db5f395ff3fe608060405234801561000f575f5ffd5b5060043610610106575f3560e01c80636352211e1161009e578063b88d4fde1161006e578063b88d4fde14610243578063bae6a69014610256578063c10a983914610278578063c87b56dd14610281578063e985e9c514610294575f5ffd5b80636352211e1461020257806370a082311461021557806395d89b4114610228578063a22cb46514610230575f5ffd5b80632336dbe4116100d95780632336dbe41461018757806323b872dd146101bb5780632cb2cff2146101ce57806342842e0e146101ef575f5ffd5b806301ffc9a71461010a57806306fdde0314610132578063081812fc14610147578063095ea7b314610172575b5f5ffd5b61011d610118366004610d05565b6102a7565b60405190151581526020015b60405180910390f35b61013a6102f8565b6040516101299190610d4e565b61015a610155366004610d60565b610387565b6040516001600160a01b039091168152602001610129565b610185610180366004610d92565b6103ae565b005b6101a9610195366004610d60565b5f9081526007602052604090205460ff1690565b60405160ff9091168152602001610129565b6101856101c9366004610dba565b6103bd565b6101e16101dc366004610df4565b61044b565b604051908152602001610129565b6101856101fd366004610dba565b6104ee565b61015a610210366004610d60565b61050d565b6101e1610223366004610e2e565b610517565b61013a61055c565b61018561023e366004610e47565b61056b565b610185610251366004610e89565b610576565b6101a9610264366004610d60565b60076020525f908152604090205460ff1681565b6101e160065481565b61013a61028f366004610d60565b61058e565b61011d6102a2366004610f66565b6105ff565b5f6001600160e01b031982166380ac58cd60e01b14806102d757506001600160e01b03198216635b5e139f60e01b145b806102f257506301ffc9a760e01b6001600160e01b03198316145b92915050565b60605f805461030690610f97565b80601f016020809104026020016040519081016040528092919081815260200182805461033290610f97565b801561037d5780601f106103545761010080835404028352916020019161037d565b820191905f5260205f20905b81548152906001019060200180831161036057829003601f168201915b5050505050905090565b5f6103918261062c565b505f828152600460205260409020546001600160a01b03166102f2565b6103b9828233610664565b5050565b6001600160a01b0382166103eb57604051633250574960e11b81525f60048201526024015b60405180910390fd5b5f6103f7838333610671565b9050836001600160a01b0316816001600160a01b031614610445576040516364283d7b60e01b81526001600160a01b03808616600483015260248201849052821660448201526064016103e2565b50505050565b5f60148260ff1611156104ac5760405162461bcd60e51b815260206004820152602360248201527f446973636f756e74206d757374206265206265747765656e20302520616e642060448201526232302560e81b60648201526084016103e2565b6006546104b98482610763565b5f818152600760205260408120805460ff191660ff861617905560068054916104e183610fcf565b9091555090949350505050565b61050883838360405180602001604052805f815250610576565b505050565b5f6102f28261062c565b5f6001600160a01b038216610541576040516322718ad960e21b81525f60048201526024016103e2565b506001600160a01b03165f9081526003602052604090205490565b60606001805461030690610f97565b6103b933838361077c565b6105818484846103bd565b610445338585858561081a565b60606105998261062c565b505f6105af60408051602081019091525f815290565b90505f8151116105cd5760405180602001604052805f8152506105f8565b806105d784610942565b6040516020016105e892919061100a565b6040516020818303038152906040525b9392505050565b6001600160a01b039182165f90815260056020908152604080832093909416825291909152205460ff1690565b5f818152600260205260408120546001600160a01b0316806102f257604051637e27328960e01b8152600481018490526024016103e2565b61050883838360016109d2565b5f828152600260205260408120546001600160a01b039081169083161561069d5761069d818486610ad6565b6001600160a01b038116156106d7576106b85f855f5f6109d2565b6001600160a01b0381165f90815260036020526040902080545f190190555b6001600160a01b03851615610705576001600160a01b0385165f908152600360205260409020805460010190555b5f8481526002602052604080822080546001600160a01b0319166001600160a01b0389811691821790925591518793918516917fddf252ad1be2c89b69c2b068fc378daa952ba7f163c4a11628f55a4df523b3ef91a4949350505050565b6103b9828260405180602001604052805f815250610b3a565b6001600160a01b0382166107ae57604051630b61174360e31b81526001600160a01b03831660048201526024016103e2565b6001600160a01b038381165f81815260056020908152604080832094871680845294825291829020805460ff191686151590811790915591519182527f17307eab39ab6107e8899845ad3d59bd9653f200f220920489ca2b5937696c31910160405180910390a3505050565b6001600160a01b0383163b1561093b57604051630a85bd0160e11b81526001600160a01b0384169063150b7a029061085c90889088908790879060040161101e565b6020604051808303815f875af1925050508015610896575060408051601f3d908101601f191682019092526108939181019061105a565b60015b6108fd573d8080156108c3576040519150601f19603f3d011682016040523d82523d5f602084013e6108c8565b606091505b5080515f036108f557604051633250574960e11b81526001600160a01b03851660048201526024016103e2565b805181602001fd5b6001600160e01b03198116630a85bd0160e11b1461093957604051633250574960e11b81526001600160a01b03851660048201526024016103e2565b505b5050505050565b60605f61094e83610b51565b60010190505f8167ffffffffffffffff81111561096d5761096d610e75565b6040519080825280601f01601f191660200182016040528015610997576020820181803683370190505b5090508181016020015b5f19016f181899199a1a9b1b9c1cb0b131b232b360811b600a86061a8153600a85049450846109a157509392505050565b80806109e657506001600160a01b03821615155b15610aa7575f6109f58461062c565b90506001600160a01b03831615801590610a215750826001600160a01b0316816001600160a01b031614155b8015610a345750610a3281846105ff565b155b15610a5d5760405163a9fbf51f60e01b81526001600160a01b03841660048201526024016103e2565b8115610aa55783856001600160a01b0316826001600160a01b03167f8c5be1e5ebec7d5bd14f71427d1e84f3dd0314c0f7b2291e5b200ac8c7c3b92560405160405180910390a45b505b50505f90815260046020526040902080546001600160a01b0319166001600160a01b0392909216919091179055565b610ae1838383610c28565b610508576001600160a01b038316610b0f57604051637e27328960e01b8152600481018290526024016103e2565b60405163177e802f60e01b81526001600160a01b0383166004820152602481018290526044016103e2565b610b448383610c8c565b610508335f85858561081a565b5f8072184f03e93ff9f4daa797ed6e38ed64bf6a1f0160401b8310610b8f5772184f03e93ff9f4daa797ed6e38ed64bf6a1f0160401b830492506040015b6d04ee2d6d415b85acef81000000008310610bbb576d04ee2d6d415b85acef8100000000830492506020015b662386f26fc100008310610bd957662386f26fc10000830492506010015b6305f5e1008310610bf1576305f5e100830492506008015b6127108310610c0557612710830492506004015b60648310610c17576064830492506002015b600a83106102f25760010192915050565b5f6001600160a01b03831615801590610c845750826001600160a01b0316846001600160a01b03161480610c615750610c6184846105ff565b80610c8457505f828152600460205260409020546001600160a01b038481169116145b949350505050565b6001600160a01b038216610cb557604051633250574960e11b81525f60048201526024016103e2565b5f610cc183835f610671565b90506001600160a01b03811615610508576040516339e3563760e11b81525f60048201526024016103e2565b6001600160e01b031981168114610d02575f5ffd5b50565b5f60208284031215610d15575f5ffd5b81356105f881610ced565b5f81518084528060208401602086015e5f602082860101526020601f19601f83011685010191505092915050565b602081525f6105f86020830184610d20565b5f60208284031215610d70575f5ffd5b5035919050565b80356001600160a01b0381168114610d8d575f5ffd5b919050565b5f5f60408385031215610da3575f5ffd5b610dac83610d77565b946020939093013593505050565b5f5f5f60608486031215610dcc575f5ffd5b610dd584610d77565b9250610de360208501610d77565b929592945050506040919091013590565b5f5f60408385031215610e05575f5ffd5b610e0e83610d77565b9150602083013560ff81168114610e23575f5ffd5b809150509250929050565b5f60208284031215610e3e575f5ffd5b6105f882610d77565b5f5f60408385031215610e58575f5ffd5b610e6183610d77565b915060208301358015158114610e23575f5ffd5b634e487b7160e01b5f52604160045260245ffd5b5f5f5f5f60808587031215610e9c575f5ffd5b610ea585610d77565b9350610eb360208601610d77565b925060408501359150606085013567ffffffffffffffff811115610ed5575f5ffd5b8501601f81018713610ee5575f5ffd5b803567ffffffffffffffff811115610eff57610eff610e75565b604051601f8201601f19908116603f0116810167ffffffffffffffff81118282101715610f2e57610f2e610e75565b604052818152828201602001891015610f45575f5ffd5b816020840160208301375f6020838301015280935050505092959194509250565b5f5f60408385031215610f77575f5ffd5b610f8083610d77565b9150610f8e60208401610d77565b90509250929050565b600181811c90821680610fab57607f821691505b602082108103610fc957634e487b7160e01b5f52602260045260245ffd5b50919050565b5f60018201610fec57634e487b7160e01b5f52601160045260245ffd5b5060010190565b5f81518060208401855e5f93019283525090919050565b5f610c846110188386610ff3565b84610ff3565b6001600160a01b03858116825284166020820152604081018390526080606082018190525f9061105090830184610d20565b9695505050505050565b5f6020828403121561106a575f5ffd5b81516105f881610ced56fea2646970667358221220e68807f4c72fbc80f9aa98e560dbcad93b5a962bdcc9d8b165e142e2bd1e005164736f6c634300081c0033",
    "sourcePath": "/Users/donnie_mix/Blockchain/Uniswap_HW_2/src/Discount.sol",
    "compiler": {
        "name": "solc",
        "version": "0.8.28+commit.7893614a"
    },
    "functionHashes": {
        "approve(address,uint256)": "095ea7b3",
        "balanceOf(address)": "70a08231",
        "couponCounter()": "c10a9839",
        "discounts(uint256)": "bae6a690",
        "getApproved(uint256)": "081812fc",
        "getDiscount(uint256)": "2336dbe4",
        "isApprovedForAll(address,address)": "e985e9c5",
        "mintCoupon(address,uint8)": "2cb2cff2",
        "name()": "06fdde03",
        "ownerOf(uint256)": "6352211e",
        "safeTransferFrom(address,address,uint256)": "42842e0e",
        "safeTransferFrom(address,address,uint256,bytes)": "b88d4fde",
        "setApprovalForAll(address,bool)": "a22cb465",
        "supportsInterface(bytes4)": "01ffc9a7",
        "symbol()": "95d89b41",
        "tokenURI(uint256)": "c87b56dd",
        "transferFrom(address,address,uint256)": "23b872dd"
    },
    "gasEstimates": {
        "creation": {
            "codeDepositCost": "853400",
            "executionCost": "infinite",
            "totalCost": "infinite"
        },
        "external": {
            "approve(address,uint256)": "31530",
            "balanceOf(address)": "2630",
            "couponCounter()": "2360",
            "discounts(uint256)": "2494",
            "getApproved(uint256)": "infinite",
            "getDiscount(uint256)": "2473",
            "isApprovedForAll(address,address)": "infinite",
            "mintCoupon(address,uint8)": "infinite",
            "name()": "infinite",
            "ownerOf(uint256)": "infinite",
            "safeTransferFrom(address,address,uint256)": "infinite",
            "safeTransferFrom(address,address,uint256,bytes)": "infinite",
            "setApprovalForAll(address,bool)": "26744",
            "supportsInterface(bytes4)": "531",
            "symbol()": "infinite",
            "tokenURI(uint256)": "infinite",
            "transferFrom(address,address,uint256)": "infinite"
        }
    }
}