{"abi":[{"type":"receive","stateMutability":"payable"},{"type":"function","name":"LIQUIDITY_PARAMS","inputs":[],"outputs":[{"name":"tickLower","type":"int24","internalType":"int24"},{"name":"tickUpper","type":"int24","internalType":"int24"},{"name":"liquidityDelta","type":"int256","internalType":"int256"},{"name":"salt","type":"bytes32","internalType":"bytes32"}],"stateMutability":"view"},{"type":"function","name":"MAX_PRICE_LIMIT","inputs":[],"outputs":[{"name":"","type":"uint160","internalType":"uint160"}],"stateMutability":"view"},{"type":"function","name":"MIN_PRICE_LIMIT","inputs":[],"outputs":[{"name":"","type":"uint160","internalType":"uint160"}],"stateMutability":"view"},{"type":"function","name":"REMOVE_LIQUIDITY_PARAMS","inputs":[],"outputs":[{"name":"tickLower","type":"int24","internalType":"int24"},{"name":"tickUpper","type":"int24","internalType":"int24"},{"name":"liquidityDelta","type":"int256","internalType":"int256"},{"name":"salt","type":"bytes32","internalType":"bytes32"}],"stateMutability":"view"},{"type":"function","name":"SWAP_PARAMS","inputs":[],"outputs":[{"name":"zeroForOne","type":"bool","internalType":"bool"},{"name":"amountSpecified","type":"int256","internalType":"int256"},{"name":"sqrtPriceLimitX96","type":"uint160","internalType":"uint160"}],"stateMutability":"view"},{"type":"function","name":"anvilPermit2","inputs":[],"outputs":[{"name":"","type":"address","internalType":"contract IAllowanceTransfer"}],"stateMutability":"nonpayable"},{"type":"function","name":"deployAndApprovePosm","inputs":[{"name":"poolManager","type":"address","internalType":"contract IPoolManager"}],"outputs":[],"stateMutability":"nonpayable"},{"type":"function","name":"etchPermit2","inputs":[],"outputs":[{"name":"","type":"address","internalType":"contract IAllowanceTransfer"}],"stateMutability":"nonpayable"}],"bytecode":{"object":"0x6077196080819052607860a0819052670de0b6b3a764000060c08190525f60e081905280546378ffff8865ffffffffffff1991821681178355600193845560028390556101009590955261012093909352670de0b6b3a763ffff19610140819052610160829052600380549094169094179092556004929092556005556101e06040526101808190526063196101a08190526bb504f333f9de6484597d89b36101c08190526006805460ff1916909317909255600755600880546001600160a01b03199081169092179055602280548216600e17905560238054614000600160a01b03908316179055602c80549091166e22d473030f116ddee9f6b43ac78ba317905534801561010d575f80fd5b506171a08061011b5f395ff3fe60806040526004361061007c575f3560e01c8063b1a73b8a1161004c578063b1a73b8a1461015b578063b708593e146101ab578063c7b8e15d146101bf578063dc7c8875146101d3575f80fd5b806303ef31f61461008757806339cd2013146100a8578063542524dd1461010257806393ad73ed1461012e575f80fd5b3661008357005b5f80fd5b348015610092575f80fd5b506100a66100a1366004610633565b6101e7565b005b3480156100b3575f80fd5b506003546004546005546100d592600281810b936301000000909204900b9184565b60408051600295860b81529390940b60208401529282015260608101919091526080015b60405180910390f35b34801561010d575f80fd5b506101166101fb565b6040516001600160a01b0390911681526020016100f9565b348015610139575f80fd5b505f54600154600280546100d59380830b93630100000090910490920b919084565b348015610166575f80fd5b506006546007546008546101859260ff1691906001600160a01b031683565b60408051931515845260208401929092526001600160a01b0316908201526060016100f9565b3480156101b6575f80fd5b5061011661021d565b3480156101ca575f80fd5b506101166103c9565b3480156101de575f80fd5b506101166103d9565b6101f08161047b565b6101f861050b565b50565b61021a600173fffd8963efd1fc6a506488495d951d5263988d26610674565b81565b602c54604051632b65311f60e11b81526001600160a01b0390911660048201525f90737109709ecfa91a80626ff3989d68f67f5b1dd12d90631206c8a89082906356ca623e906024015f60405180830381865afa158015610280573d5f803e3d5ffd5b505050506040513d5f823e601f3d908101601f191682016040526102a79190810190610724565b604080516123e081019091526123c0808252737109709ecfa91a80626ff3989d68f67f5b1dd12d916371aad10d91614dab60208301396040518263ffffffff1660e01b81526004016102f9919061079f565b5f60405180830381865afa158015610313573d5f803e3d5ffd5b505050506040513d5f823e601f3d908101601f1916820160405261033a9190810190610724565b60405160200161034b9291906107c8565b6040516020818303038152906040526040518263ffffffff1660e01b81526004016103769190610808565b5f604051808303815f875af1158015610391573d5f803e3d5ffd5b505050506040513d5f823e601f3d908101601f191682016040526103b89190810190610724565b5050602c546001600160a01b031690565b61021a6401000276a3600161083e565b602c54604080516123e081019091526123c08082525f92737109709ecfa91a80626ff3989d68f67f5b1dd12d9263b4d6c782926001600160a01b0390921691614dab60208301396040518363ffffffff1660e01b815260040161043d92919061085d565b5f604051808303815f87803b158015610454575f80fd5b505af1158015610466573d5f803e3d5ffd5b5050602c546001600160a01b03169392505050565b6104836103d9565b50602c5460405182916001600160a01b031690620493e0905f906104a690610626565b6001600160a01b039485168152928416602084015260408301919091529091166060820152608001604051809103905ff0801580156104e7573d5f803e3d5ffd5b50602d80546001600160a01b0319166001600160a01b039290921691909117905550565b600954610520906001600160a01b0316610537565b600a54610535906001600160a01b0316610537565b565b602c5460405163095ea7b360e01b81526001600160a01b0391821660048201525f1960248201529082169063095ea7b3906044016020604051808303815f875af1158015610587573d5f803e3d5ffd5b505050506040513d601f19601f820116820180604052508101906105ab9190610880565b50602c54602d546040516387517c4560e01b81526001600160a01b03848116600483015291821660248201526044810182905265ffffffffffff60648201529116906387517c45906084015f604051808303815f87803b15801561060d575f80fd5b505af115801561061f573d5f803e3d5ffd5b5050505050565b61450b806108a083390190565b5f60208284031215610643575f80fd5b81356001600160a01b0381168114610659575f80fd5b9392505050565b634e487b7160e01b5f52601160045260245ffd5b6001600160a01b03828116828216039081111561069357610693610660565b92915050565b634e487b7160e01b5f52604160045260245ffd5b5f8067ffffffffffffffff8411156106c7576106c7610699565b50604051601f19601f85018116603f0116810181811067ffffffffffffffff821117156106f6576106f6610699565b60405283815290508082840185101561070d575f80fd5b8383602083015e5f60208583010152509392505050565b5f60208284031215610734575f80fd5b815167ffffffffffffffff81111561074a575f80fd5b8201601f8101841361075a575f80fd5b610769848251602084016106ad565b949350505050565b5f81518084528060208401602086015e5f602082860101526020601f19601f83011685010191505092915050565b602081525f6106596020830184610771565b5f81518060208401855e5f93019283525090919050565b612d9160f11b81525f6107de60028301856107b1565b6211161160e91b81526107f460038201856107b1565b61225d60f01b815260020195945050505050565b60408152600d60408201526c616e76696c5f736574436f646560981b6060820152608060208201525f6106596080830184610771565b6001600160a01b03818116838216019081111561069357610693610660565b6001600160a01b03831681526040602082018190525f9061076990830184610771565b5f60208284031215610890575f80fd5b81518015158114610659575f80fdfe6101606040526001600855348015610015575f80fd5b5060405161450b38038061450b8339810160408190526100349161016e565b82828580806040518060400160405280601881526020017f556e697377617020763420506f736974696f6e73204e465400000000000000008152506040518060400160405280600b81526020016a554e492d56342d504f534d60a81b815250818282815f90816100a49190610258565b5060016100b18282610258565b50508151602083012060c052504660a05261012560c051604080517f8cad95687ba82c2ce50e74f7b754645e5117c3a5bec8151c0726d5857980a8666020820152908101919091524660608201523060808201525f9060a00160405160208183030381529060405280519060200120905090565b6080525050506001600160a01b0390811660e05261010093909352505090811661012052166101405250610312915050565b6001600160a01b038116811461016b575f80fd5b50565b5f805f8060808587031215610181575f80fd5b845161018c81610157565b602086015190945061019d81610157565b6040860151606087015191945092506101b581610157565b939692955090935050565b634e487b7160e01b5f52604160045260245ffd5b600181811c908216806101e857607f821691505b60208210810361020657634e487b7160e01b5f52602260045260245ffd5b50919050565b601f82111561025357805f5260205f20601f840160051c810160208510156102315750805b601f840160051c820191505b81811015610250575f815560010161023d565b50505b505050565b81516001600160401b03811115610271576102716101c0565b6102858161027f84546101d4565b8461020c565b6020601f8211600181146102b7575f83156102a05750848201515b5f19600385901b1c1916600184901b178455610250565b5f84815260208120601f198516915b828110156102e657878501518255602094850194600190920191016102c6565b508482101561030357868401515f19600387901b60f8161c191681555b50505050600190811b01905550565b60805160a05160c05160e0516101005161012051610140516141156103f65f395f81816104e301526113b801525f8181610330015281816107f201528181610b39015261316301525f818161046701528181611dc00152611e1d01525f8181610744015281816110ff015281816114bc0152818161188f01528181611ebb0152818161271e015281816127be01528181612822015281816128de01528181612940015281816129da01528181612aec01528181612f8a01528181612ff7015281816130e7015261312b01525f610d1b01525f610cc701525f610d7501526141155ff3fe60806040526004361061021c575f3560e01c80635a9d7a681161011e578063a22cb465116100a8578063d737d0c71161006d578063d737d0c714610713578063dc4c90d314610733578063dd46508f14610766578063e985e9c514610779578063f7020405146107b2575f80fd5b8063a22cb46514610683578063ac9650d8146106a2578063ad0b27fb146106c2578063b88d4fde146106d5578063c87b56dd146106f4575f80fd5b80637ba03aad116100ee5780637ba03aad1461055857806386b6be7d1461058557806389097a6a1461062557806391dd73461461065057806395d89b411461066f575f80fd5b80635a9d7a68146104d25780636352211e1461050557806370a082311461052457806375794a3c14610543575f80fd5b80631efeed33116101aa5780633aea60f01161016f5780633aea60f01461042457806342842e0e146104375780634767565f146104565780634afe393c14610489578063502e1a161461049c575f80fd5b80631efeed331461038657806323b872dd146103bd5780632b67b570146103dc5780632b9261de146103ef5780633644e51514610402575f80fd5b8063081812fc116101f0578063081812fc146102a1578063095ea7b3146102ed5780630f5730f11461030c57806312261ee71461031f57806316a2413114610352575f80fd5b80622a3e3a1461022057806301ffc9a71461024957806305c1ee201461027857806306fdde031461028d575b5f80fd5b61023361022e366004613394565b6107d8565b604051610240919061343d565b60405180910390f35b348015610254575f80fd5b50610268610263366004613464565b610893565b6040519015158152602001610240565b61028b61028636600461347f565b6108e4565b005b348015610298575f80fd5b506102336108f1565b3480156102ac575f80fd5b506102d56102bb36600461347f565b60046020525f90815260409020546001600160a01b031681565b6040516001600160a01b039091168152602001610240565b3480156102f8575f80fd5b5061028b610307366004613496565b61097c565b61028b61031a3660046134c0565b6109f3565b34801561032a575f80fd5b506102d57f000000000000000000000000000000000000000000000000000000000000000081565b34801561035d575f80fd5b506102d561036c36600461347f565b60076020525f90815260409020546001600160a01b031681565b348015610391575f80fd5b506103a56103a036600461347f565b610abf565b6040516001600160801b039091168152602001610240565b3480156103c8575f80fd5b5061028b6103d736600461352d565b610af3565b6102336103ea36600461356b565b610b1f565b61028b6103fd3660046135bd565b610b74565b34801561040d575f80fd5b50610416610cc4565b604051908152602001610240565b61028b6104323660046135f1565b610d97565b348015610442575f80fd5b5061028b61045136600461352d565b610e4a565b348015610461575f80fd5b506104167f000000000000000000000000000000000000000000000000000000000000000081565b61028b6104973660046136b7565b610f39565b3480156104a7575f80fd5b506104166104b6366004613496565b600660209081525f928352604080842090915290825290205481565b3480156104dd575f80fd5b506102d57f000000000000000000000000000000000000000000000000000000000000000081565b348015610510575f80fd5b506102d561051f36600461347f565b610f93565b34801561052f575f80fd5b5061041661053e366004613715565b610fe9565b34801561054e575f80fd5b5061041660085481565b348015610563575f80fd5b5061057761057236600461347f565b61104a565b604051610240929190613773565b348015610590575f80fd5b506105e561059f36600461378e565b600a6020525f90815260409020805460018201546002928301546001600160a01b03928316938284169362ffffff600160a01b85041693600160b81b900490910b911685565b604080516001600160a01b039687168152948616602086015262ffffff9093169284019290925260020b606083015291909116608082015260a001610240565b348015610630575f80fd5b5061041661063f36600461347f565b60096020525f908152604090205481565b34801561065b575f80fd5b5061023361066a3660046137b5565b6110f2565b34801561067a575f80fd5b5061023361114e565b34801561068e575f80fd5b5061028b61069d3660046137f3565b61115b565b6106b56106b0366004613826565b61116a565b6040516102409190613858565b61028b6106d036600461347f565b611277565b3480156106e0575f80fd5b5061028b6106ef3660046138bb565b6112b4565b3480156106ff575f80fd5b5061023361070e36600461347f565b611399565b34801561071e575f80fd5b505f805160206140c08339815191525c6102d5565b34801561073e575f80fd5b506102d57f000000000000000000000000000000000000000000000000000000000000000081565b61028b610774366004613928565b61142b565b348015610784575f80fd5b5061026861079336600461396f565b600560209081525f928352604080842090915290825290205460ff1681565b6107c56107c03660046139a6565b6114a3565b60405160029190910b8152602001610240565b604051632a2d80d160e01b81526060906001600160a01b037f00000000000000000000000000000000000000000000000000000000000000001690632a2d80d19061082d908890889088908890600401613a7c565b5f604051808303815f87803b158015610844575f80fd5b505af1925050508015610855575060015b61088b573d808015610882576040519150601f19603f3d011682016040523d82523d5f602084013e610887565b606091505b5090505b949350505050565b5f6301ffc9a760e01b6001600160e01b0319831614806108c357506380ac58cd60e01b6001600160e01b03198316145b806108de5750635b5e139f60e01b6001600160e01b03198316145b92915050565b6108ee3382611533565b50565b5f80546108fd90613b57565b80601f016020809104026020016040519081016040528092919081815260200182805461092990613b57565b80156109745780601f1061094b57610100808354040283529160200191610974565b820191905f5260205f20905b81548152906001019060200180831161095757829003601f168201915b505050505081565b5f818152600260205260409020546001600160a01b03163381148015906109c657506001600160a01b0381165f90815260056020908152604080832033845290915290205460ff16155b156109e3576040516282b42960e81b815260040160405180910390fd5b6109ee818484611599565b505050565b8380421115610a1557604051635a9165ff60e01b815260040160405180910390fd5b5f8681526002602090815260408083205481517f49ecf333e5b8c95c40fdafc95c1ad136e8914a8fb55e9dc8bb01eaa83a2df9ad81526001600160a01b038c81169482019485529281018b8152606082018a8152608083018c815260a08420938890529587905290869052859052939092521690610a9f610a95826115f4565b8690869085611633565b610aa98287611533565b610ab4828a8a611599565b505050505050505050565b5f805f610acb8461104a565b9150915061088b8483610ae18460081c60020b90565b610aee8560201c60020b90565b611848565b610afe8383836118c0565b5f8181526009602052604090205460ff16156109ee576109ee818484611a82565b6040516302b67b5760e41b81526060906001600160a01b037f00000000000000000000000000000000000000000000000000000000000000001690632b67b5709061082d908890889088908890600401613b8f565b3384610b808282611b07565b610bad576040516301952d1b60e31b81526001600160a01b03831660048201526024015b60405180910390fd5b5f868152600760205260409020546001600160a01b03168015610bf5576040516312fdec5f60e11b8152600481018890526001600160a01b0382166024820152604401610ba4565b610bfe87611b8e565b5f8781526007602052604080822080546001600160a01b0319166001600160a01b038a1617905551610c6d908890610c3e908b908a908a90602401613be8565b60408051601f198184030181529190526020810180516001600160e01b03166346abfb5960e11b179052611bb1565b905080610c8557610c856363b23e9f60e01b88611be6565b6040516001600160a01b0388169089907f9709492381f90bdc5938bb4e3b8e35b7e0eac8af058619e27191c5a40ce79fa9905f90a35050505050505050565b5f7f00000000000000000000000000000000000000000000000000000000000000004614610d7257610d6d604080517f8cad95687ba82c2ce50e74f7b754645e5117c3a5bec8151c0726d5857980a86660208201527f0000000000000000000000000000000000000000000000000000000000000000918101919091524660608201523060808201525f9060a00160405160208183030381529060405280519060200120905090565b905090565b507f000000000000000000000000000000000000000000000000000000000000000090565b8380421115610db957604051635a9165ff60e01b815260040160405180910390fd5b604080517f6673cb397ee2a50b6b8401653d3638b4ac8b3db9c28aa6870ffceb7574ec2f7681526001600160a01b0389166020820190815260018916928201928352606082018781526080830189815260a084205f9485905292849052938390528290529152610e35610e2b826115f4565b859085908c611633565b610e3f8986611533565b610ab4898989611c19565b610e55838383610af3565b6001600160a01b0382163b1580610efa5750604051630a85bd0160e11b8082523360048301526001600160a01b03858116602484015260448301849052608060648401525f608484015290919084169063150b7a029060a4016020604051808303815f875af1158015610eca573d5f803e3d5ffd5b505050506040513d601f19601f82011682018060405250810190610eee9190613c01565b6001600160e01b031916145b6109ee5760405162461bcd60e51b815260206004820152601060248201526f155394d0519157d49150d2541251539560821b6044820152606401610ba4565b6001600160a01b035f805160206140c08339815191525c1615610f6f576040516337affdbf60e11b815260040160405180910390fd5b610f7833611c85565b610f8484848484611c98565b610f8d5f611c85565b50505050565b5f818152600260205260409020546001600160a01b031680610fe45760405162461bcd60e51b815260206004820152600a6024820152691393d517d3525395115160b21b6044820152606401610ba4565b919050565b5f6001600160a01b03821661102f5760405162461bcd60e51b815260206004820152600c60248201526b5a45524f5f4144445245535360a01b6044820152606401610ba4565b506001600160a01b03165f9081526003602052604090205490565b6040805160a080820183525f808352602080840182905283850182905260608085018390526080948501839052958252600981528482205466ffffffffffffff1981168352600a8252918590208551938401865280546001600160a01b039081168552600182015480821693860193909352600160a01b830462ffffff1696850196909652600160b81b909104600290810b9684019690965294909401549092169082015291565b6060336001600160a01b037f0000000000000000000000000000000000000000000000000000000000000000161461113d5760405163570c108560e11b815260040160405180910390fd5b6111478383611d18565b9392505050565b600180546108fd90613b57565b611166338383611c19565b5050565b6060816001600160401b0381111561118457611184613c1c565b6040519080825280602002602001820160405280156111b757816020015b60608152602001906001900390816111a25790505b5090505f5b82811015611270575f80308686858181106111d9576111d9613c30565b90506020028101906111eb9190613c44565b6040516111f9929190613c86565b5f60405180830381855af49150503d805f8114611231576040519150601f19603f3d011682016040523d82523d5f602084013e611236565b606091505b50915091508161124857805160208201fd5b8084848151811061125b5761125b613c30565b602090810291909101015250506001016111bc565b5092915050565b33816112838282611b07565b6112ab576040516301952d1b60e31b81526001600160a01b0383166004820152602401610ba4565b6109ee83611d55565b6112bf858585610af3565b6001600160a01b0384163b15806113535750604051630a85bd0160e11b808252906001600160a01b0386169063150b7a02906113079033908a90899089908990600401613c95565b6020604051808303815f875af1158015611323573d5f803e3d5ffd5b505050506040513d601f19601f820116820180604052508101906113479190613c01565b6001600160e01b031916145b6113925760405162461bcd60e51b815260206004820152601060248201526f155394d0519157d49150d2541251539560821b6044820152606401610ba4565b5050505050565b60405163e9dc637560e01b8152306004820152602481018290526060907f00000000000000000000000000000000000000000000000000000000000000006001600160a01b03169063e9dc6375906044015f60405180830381865afa158015611404573d5f803e3d5ffd5b505050506040513d5f823e601f3d908101601f191682016040526108de9190810190613d48565b6001600160a01b035f805160206140c08339815191525c1615611461576040516337affdbf60e11b815260040160405180910390fd5b61146a33611c85565b808042111561148f5760405163bfb22adf60e01b815260048101829052602401610ba4565b6114998484611ea4565b506109ee5f611c85565b60405163313b65df60e11b81525f906001600160a01b037f00000000000000000000000000000000000000000000000000000000000000001690636276cbbe906114f39086908690600401613daa565b6020604051808303815f875af115801561150f573d5f803e3d5ffd5b505050506040513d601f19601f820116820180604052508101906111479190613e3b565b6001600160a01b0382165f908152600660209081526040808320600885901c808552925282208054600160ff861690811b918218928390559293909190818316900361159157604051623f613760e71b815260040160405180910390fd5b505050505050565b5f8181526004602052604080822080546001600160a01b0319166001600160a01b0386811691821790925591518493918716917f8c5be1e5ebec7d5bd14f71427d1e84f3dd0314c0f7b2291e5b200ac8c7c3b92591a4505050565b5f806115fe610cc4565b905060405161190160f01b81528160028201528360228201526042812092505f81525f60208201525f60408201525050919050565b5f805f836001600160a01b03163b5f036117995760418690036116855761165c86880188613e56565b90935091508686604081811061167457611674613c30565b919091013560f81c91506116dc9050565b60408690036116c3575f61169b87890189613e56565b9094506001600160ff1b038116935090506116bb60ff82901c601b613e8a565b9150506116dc565b604051634be6321b60e01b815260040160405180910390fd5b604080515f8082526020820180845288905260ff841692820192909252606081018590526080810184905260019060a0016020604051602081039080840390855afa15801561172d573d5f803e3d5ffd5b5050604051601f1901519150506001600160a01b03811661176157604051638baa579f60e01b815260040160405180910390fd5b846001600160a01b0316816001600160a01b03161461179357604051632057875960e21b815260040160405180910390fd5b5061183f565b604051630b135d3f60e11b81525f906001600160a01b03861690631626ba7e906117cb9089908c908c90600401613be8565b602060405180830381865afa1580156117e6573d5f803e3d5ffd5b505050506040513d601f19601f8201168201806040525081019061180a9190613c01565b90506001600160e01b03198116630b135d3f60e11b1461183d57604051632c19a72f60e21b815260040160405180910390fd5b505b50505050505050565b60408051602681018690526006810183905260038101849052308152603a600c8201205f928201839052602082018390529082905260a085206118b6906001600160a01b037f0000000000000000000000000000000000000000000000000000000000000000169083611f34565b9695505050505050565b5f818152600260205260409020546001600160a01b038481169116146119155760405162461bcd60e51b815260206004820152600a60248201526957524f4e475f46524f4d60b01b6044820152606401610ba4565b6001600160a01b03821661195f5760405162461bcd60e51b81526020600482015260116024820152701253959053125117d49150d25412515395607a1b6044820152606401610ba4565b336001600160a01b038416148061199857506001600160a01b0383165f90815260056020908152604080832033845290915290205460ff165b806119b857505f818152600460205260409020546001600160a01b031633145b6119f55760405162461bcd60e51b815260206004820152600e60248201526d1393d517d055551213d49256915160921b6044820152606401610ba4565b6001600160a01b038084165f81815260036020908152604080832080545f19019055938616808352848320805460010190558583526002825284832080546001600160a01b03199081168317909155600490925284832080549092169091559251849392917fddf252ad1be2c89b69c2b068fc378daa952ba7f163c4a11628f55a4df523b3ef91a4505050565b5f83815260076020526040808220549051602481018690526001600160a01b03858116604483015284811660648301529091169190611aef90839060840160408051601f198184030181529190526020810180516001600160e01b031663876fda0760e01b179052611bb1565b9050806113925761139263263bc7b560e01b83611be6565b5f611b1182610f93565b6001600160a01b0316836001600160a01b03161480611b4857505f828152600460205260409020546001600160a01b038481169116145b80611147575060055f611b5a84610f93565b6001600160a01b03908116825260208083019390935260409182015f9081209187168152925290205460ff16905092915050565b5f818152600960205260409020546001175b5f9182526009602052604090912055565b5f826001600160a01b03163b5f03611bd357611bd3637c402b2160e01b611fb4565b5f808351602085015f875af19392505050565b3d60405183815282600482015260406024820152816044820152815f606483013e602080601f8401040260640191508181fd5b6001600160a01b038381165f81815260056020908152604080832094871680845294825291829020805460ff191686151590811790915591519182527f17307eab39ab6107e8899845ad3d59bd9653f200f220920489ca2b5937696c31910160405180910390a3505050565b805f805160206140c08339815191525d50565b82818114611cb95760405163aaad13f760e01b815260040160405180910390fd5b5f5b81811015611591575f868683818110611cd657611cd6613c30565b919091013560f81c9150611d0f905081868685818110611cf857611cf8613c30565b9050602002810190611d0a9190613c44565b611fbc565b50600101611cbb565b6060365f365f611d2887876121b6565b9350935093509350611d3c84848484611c98565b505060408051602081019091525f815295945050505050565b5f818152600760205260409020546001600160a01b031680611d8a5760405163046fcd8560e31b815260040160405180910390fd5b611d938261225e565b5f82815260076020526040902080546001600160a01b03191690556001600160a01b0381163b15611e6b577f00000000000000000000000000000000000000000000000000000000000000005a1015611df657611df66376a1e1d360e11b611fb4565b604051632bd1774560e21b8152600481018390526001600160a01b0382169063af45dd14907f0000000000000000000000000000000000000000000000000000000000000000906024015f604051808303815f88803b158015611e57575f80fd5b5087f193505050508015611e69575060015b505b6040516001600160a01b0382169083907fa0ebb1de82db929a9153472f37d3a66dbede4436258311ad0f52a35a2c91d150905f90a35050565b6040516348c8949160e01b81526001600160a01b037f000000000000000000000000000000000000000000000000000000000000000016906348c8949190611ef29085908590600401613ea3565b5f604051808303815f875af1158015611f0d573d5f803e3d5ffd5b505050506040513d5f823e601f3d908101601f191682016040526109ee9190810190613d48565b5f80611f408484612275565b604051631e2eaeaf60e01b8152600481018290529091506001600160a01b03861690631e2eaeaf906024015b602060405180830381865afa158015611f87573d5f803e3d5ffd5b505050506040513d601f19601f82011682018060405250810190611fab9190613eb6565b95945050505050565b805f5260045ffd5b60098310156120ad5782611ff4575f805f80365f611fda88886122c5565b955095509550955095509550610ab48686868686866122f2565b60018303612026575f805f80365f61200c88886122c5565b955095509550955095509550610ab4868686868686612375565b6002830361207a57365f805f805f80365f6120418b8b6123f9565b98509850985098509850985098509850985061206c8989898989896120658a61243a565b898961247d565b505050505050505050505050565b600383036120a8575f805f365f6120918787612557565b9450945094509450945061183d858585858561257f565b61219a565b601183036120c65781356020830135611392828261266d565b601583036120ed5781356020830135604084013561159183836120e88461243a565b612698565b6009830361211d578135602083013560408401356115918361210e836126b4565b61211885876126d4565b61270e565b6012830361214d578135602083013560408401356115918361213e8461243a565b61214884876128a1565b6128b0565b60178303612160578135610f8d81612932565b60188303612179578135602083013561139282826129a1565b6019830361219a5781356020830135611392826121958361243a565b612a22565b604051635cda29d760e01b815260048101849052602401610ba4565b365f365f604086351860608701945063ffffffff6040880135169350606063ffffffe0601f860116018060208901351882179150808801905063ffffffff8135169250602081019350508160051b805f5b8281101561223657858101358281189490941793860135601f0163ffffffe01690910160209081019101612207565b508085018989011083171561225257633b99b53d5f526004601cfd5b50505092959194509250565b5f8181526009602052604090205460ff1916611ba0565b5f8061228084612a51565b90505f61228e600683613ecd565b6040805160208101879052908101829052909150606001604051602081830303815290604052805190602001209250505092915050565b8135602083013560408401356060850135365f6122e488886004612a8d565b915091509295509295509295565b5f805160206140c08339815191525c8661230c8282611b07565b612334576040516301952d1b60e31b81526001600160a01b0383166004820152602401610ba4565b5f8061233f8a61104a565b915091505f8061235b83856123538e612acf565b8f8c8c612ae8565b9150915061206c8a8a61236e8585612bdd565b9190612c1a565b5f805160206140c08339815191525c8661238f8282611b07565b6123b7576040516301952d1b60e31b81526001600160a01b0383166004820152602401610ba4565b5f806123c28a61104a565b915091505f806123df83856123d68e612acf565b61235390613ee0565b9150915061206c8a8a6123f28585612bdd565b9190612cd4565b8160a081013560c082013560e0830135610100840135610120850135610140860135365f612429898b600b612a8d565b915091509295985092959850929598565b5f5f196001600160a01b03831601612460575f805160206140c08339815191525c6108de565b6001196001600160a01b03831601612479575030919050565b5090565b60088054600181019091556124928482612d70565b5f6124ac6124a5368d90038d018d613efa565b8b8b612e79565b5f83815260096020908152604080832084905566ffffffffffffff198416808452600a90925282206001015492935091600160b81b900460020b90036125135766ffffffffffffff1981165f908152600a602052604090208c906125108282613fb1565b50505b5f61253a838e8036038101906125299190613efa565b6125328d612acf565b878a8a612ae8565b509050612548818a8a612c1a565b50505050505050505050505050565b813560208301356040840135365f61257187876003612a8d565b915091509295509295909350565b5f805160206140c08339815191525c856125998282611b07565b6125c1576040516301952d1b60e31b81526001600160a01b0383166004820152602401610ba4565b5f806125cc8961104a565b915091505f6125f08a846125e38560081c60020b90565b610aee8660201c60020b90565b5f8b8152600960205260408120556001600160801b031690506126128a612eb1565b801561264f575f80612639848661262886612acf565b61263190613ee0565b8f8d8d612ae8565b9150915061264c8b8b6123f28585612bdd565b50505b60ff821615612661576126618a611d55565b50505050505050505050565b5f805160206140c08339815191525c61268a838261211882612f7b565b6109ee828261211885612f7b565b6126a6838261214886612fe8565b6109ee828261214885612fe8565b5f816126c057306108de565b5f805160206140c08339815191525c6108de565b5f600160ff1b83036126f9576126f2826001600160a01b031661304c565b90506108de565b82612707576126f282612f7b565b50816108de565b6001600160a01b03831661279f577f00000000000000000000000000000000000000000000000000000000000000006001600160a01b03166311da60b4826040518263ffffffff1660e01b815260040160206040518083038185885af115801561277a573d5f803e3d5ffd5b50505050506040513d601f19601f82011682018060405250810190610f8d9190613eb6565b604051632961046560e21b81526001600160a01b0384811660048301527f0000000000000000000000000000000000000000000000000000000000000000169063a5841194906024015f604051808303815f87803b1580156127ff575f80fd5b505af1158015612811573d5f803e3d5ffd5b505050506128208383836130c8565b7f00000000000000000000000000000000000000000000000000000000000000006001600160a01b03166311da60b46040518163ffffffff1660e01b81526004016020604051808303815f875af115801561287d573d5f803e3d5ffd5b505050506040513d601f19601f82011682018060405250810190610f8d9190613eb6565b5f82612707576126f282612fe8565b604051630b0d9c0960e01b81526001600160a01b0384811660048301528381166024830152604482018390527f00000000000000000000000000000000000000000000000000000000000000001690630b0d9c09906064015b5f604051808303815f87803b158015612920575f80fd5b505af115801561183f573d5f803e3d5ffd5b5f6129676001600160a01b037f0000000000000000000000000000000000000000000000000000000000000000163084613192565b90505f805160206140c08339815191525c5f82121561298e576109ee838261211885613ee0565b5f8213156109ee576109ee8382846128b0565b5f6129ab83612fe8565b9050818111612a095760405163203c2d1360e21b81526001600160a01b038481166004830152602482018390527f000000000000000000000000000000000000000000000000000000000000000016906380f0b44c90604401612909565b6109ee835f805160206140c08339815191525c836128b0565b5f612a35836001600160a01b031661304c565b905080156109ee576109ee6001600160a01b03841683836131e1565b6040515f90612a70908390600690602001918252602082015260400190565b604051602081830303815290604052805190602001209050919050565b63ffffffff600582901b8401358116840160208181019282351691829184918301018688011015612ac557633b99b53d5f526004601cfd5b5050935093915050565b805f811215610fe457610fe46393dafdf160e01b611fb4565b5f807f00000000000000000000000000000000000000000000000000000000000000006001600160a01b0316635a6bcfda886040518060800160405280612b328d60081c60020b90565b60020b8152602001612b478d60201c60020b90565b60020b81526020018a81526020018981525087876040518563ffffffff1660e01b8152600401612b7a949392919061404e565b60408051808303815f875af1158015612b95573d5f803e3d5ffd5b505050506040513d601f19601f82011682018060405250810190612bb9919061409d565b909250905060ff881615612bd257612bd2858783613277565b965096945050505050565b5f608082811d9084901d03600f83810b9085900b03611fab612bfe836132f9565b612c07836132f9565b6001600160801b031660809190911b1790565b5f612c258460801d90565b600f0b90505f612c3585600f0b90565b600f0b90505f82128015612c625750612c4d82613ee0565b6001600160801b0316846001600160801b0316105b15612c9d5783612c7183613ee0565b60405163031e30ad60e41b81526001600160801b03928316600482015291166024820152604401610ba4565b5f81128015612cc55750612cb081613ee0565b6001600160801b0316836001600160801b0316105b156113925782612c7182613ee0565b816001600160801b0316612cf3612ceb8560801d90565b600f0b613315565b6001600160801b03161015612d3c5781612d10612ceb8560801d90565b604051630940b79160e11b81526001600160801b03928316600482015291166024820152604401610ba4565b806001600160801b0316612d53612ceb85600f0b90565b6001600160801b031610156109ee5780612d10612ceb85600f0b90565b6001600160a01b038216612dba5760405162461bcd60e51b81526020600482015260116024820152701253959053125117d49150d25412515395607a1b6044820152606401610ba4565b5f818152600260205260409020546001600160a01b031615612e0f5760405162461bcd60e51b815260206004820152600e60248201526d1053149150511657d3525395115160921b6044820152606401610ba4565b6001600160a01b0382165f81815260036020908152604080832080546001019055848352600290915280822080546001600160a01b0319168417905551839291907fddf252ad1be2c89b69c2b068fc378daa952ba7f163c4a11628f55a4df523b3ef908290a45050565b5f80612e868560a0902090565b90508362ffffff1660081b8362ffffff1660201b8266ffffffffffffff191617179150509392505050565b5f818152600260205260409020546001600160a01b031680612f025760405162461bcd60e51b815260206004820152600a6024820152691393d517d3525395115160b21b6044820152606401610ba4565b6001600160a01b0381165f81815260036020908152604080832080545f190190558583526002825280832080546001600160a01b031990811690915560049092528083208054909216909155518492907fddf252ad1be2c89b69c2b068fc378daa952ba7f163c4a11628f55a4df523b3ef908390a45050565b5f80612fb16001600160a01b037f0000000000000000000000000000000000000000000000000000000000000000163085613192565b90505f811315612fdf5760405163019a8d9360e51b81526001600160a01b0384166004820152602401610ba4565b61114781613ee0565b5f8061301e6001600160a01b037f0000000000000000000000000000000000000000000000000000000000000000163085613192565b90505f8112156108de57604051634c085bf160e01b81526001600160a01b0384166004820152602401610ba4565b5f6001600160a01b038216613062575047919050565b6040516370a0823160e01b81523060048201526001600160a01b038316906370a0823190602401602060405180830381865afa1580156130a4573d5f803e3d5ffd5b505050506040513d601f19601f820116820180604052508101906108de9190613eb6565b306001600160a01b0383160361310c576109ee6001600160a01b0384167f0000000000000000000000000000000000000000000000000000000000000000836131e1565b604051631b63c28b60e11b81526001600160a01b0383811660048301527f000000000000000000000000000000000000000000000000000000000000000081166024830152828116604483015284811660648301527f000000000000000000000000000000000000000000000000000000000000000016906336c7851690608401612909565b5f806001600160a01b0384165f526001600160a01b03831660205260405f209050846001600160a01b031663f135baaa826040518263ffffffff1660e01b8152600401611f6c91815260200190565b5f6001600160a01b038416613215575f805f8085875af190508061321057613210638549db5960e01b84611be6565b610f8d565b60405163a9059cbb60e01b81526001600160a01b038416600482015282602482015260205f6044835f895af13d15601f3d1160015f511416171691505f81525f60208201525f60408201525080610f8d57610f8d632c4b17e760e21b85611be6565b5f838152600760205260408082205490516024810186905260448101859052606481018490526001600160a01b0390911691906132e290839060840160408051601f198184030181529190526020810180516001600160e01b031663d8865c2760e01b179052611bb1565b90508061139257611392622ad16d60e61b83611be6565b80600f81900b8114610fe457610fe46393dafdf160e01b611fb4565b5f8082600f0b1215612479576124796393dafdf160e01b611fb4565b6001600160a01b03811681146108ee575f80fd5b8035610fe481613331565b5f8083601f840112613360575f80fd5b5081356001600160401b03811115613376575f80fd5b60208301915083602082850101111561338d575f80fd5b9250929050565b5f805f80606085870312156133a7575f80fd5b84356133b281613331565b935060208501356001600160401b038111156133cc575f80fd5b8501606081880312156133dd575f80fd5b925060408501356001600160401b038111156133f7575f80fd5b61340387828801613350565b95989497509550505050565b5f81518084528060208401602086015e5f602082860101526020601f19601f83011685010191505092915050565b602081525f611147602083018461340f565b6001600160e01b0319811681146108ee575f80fd5b5f60208284031215613474575f80fd5b81356111478161344f565b5f6020828403121561348f575f80fd5b5035919050565b5f80604083850312156134a7575f80fd5b82356134b281613331565b946020939093013593505050565b5f805f805f8060a087890312156134d5575f80fd5b86356134e081613331565b955060208701359450604087013593506060870135925060808701356001600160401b0381111561350f575f80fd5b61351b89828a01613350565b979a9699509497509295939492505050565b5f805f6060848603121561353f575f80fd5b833561354a81613331565b9250602084013561355a81613331565b929592945050506040919091013590565b5f805f80848603610100811215613580575f80fd5b853561358b81613331565b945060c0601f198201121561359e575f80fd5b5060208501925060e08501356001600160401b038111156133f7575f80fd5b5f805f80606085870312156135d0575f80fd5b8435935060208501356133dd81613331565b80358015158114610fe4575f80fd5b5f805f805f805f60c0888a031215613607575f80fd5b873561361281613331565b9650602088013561362281613331565b9550613630604089016135e2565b9450606088013593506080880135925060a08801356001600160401b03811115613658575f80fd5b6136648a828b01613350565b989b979a50959850939692959293505050565b5f8083601f840112613687575f80fd5b5081356001600160401b0381111561369d575f80fd5b6020830191508360208260051b850101111561338d575f80fd5b5f805f80604085870312156136ca575f80fd5b84356001600160401b038111156136df575f80fd5b6136eb87828801613350565b90955093505060208501356001600160401b03811115613709575f80fd5b61340387828801613677565b5f60208284031215613725575f80fd5b813561114781613331565b80516001600160a01b03908116835260208083015182169084015260408083015162ffffff169084015260608083015160020b9084015260809182015116910152565b60c081016137818285613730565b8260a08301529392505050565b5f6020828403121561379e575f80fd5b813566ffffffffffffff1981168114611147575f80fd5b5f80602083850312156137c6575f80fd5b82356001600160401b038111156137db575f80fd5b6137e785828601613350565b90969095509350505050565b5f8060408385031215613804575f80fd5b823561380f81613331565b915061381d602084016135e2565b90509250929050565b5f8060208385031215613837575f80fd5b82356001600160401b0381111561384c575f80fd5b6137e785828601613677565b5f602082016020835280845180835260408501915060408160051b8601019250602086015f5b828110156138af57603f1987860301845261389a85835161340f565b9450602093840193919091019060010161387e565b50929695505050505050565b5f805f805f608086880312156138cf575f80fd5b85356138da81613331565b945060208601356138ea81613331565b93506040860135925060608601356001600160401b0381111561390b575f80fd5b61391788828901613350565b969995985093965092949392505050565b5f805f6040848603121561393a575f80fd5b83356001600160401b0381111561394f575f80fd5b61395b86828701613350565b909790965060209590950135949350505050565b5f8060408385031215613980575f80fd5b823561398b81613331565b9150602083013561399b81613331565b809150509250929050565b5f8082840360c08112156139b8575f80fd5b60a08112156139c5575f80fd5b5082915060a083013561399b81613331565b803565ffffffffffff81168114610fe4575f80fd5b80356139f781613331565b6001600160a01b031682526020810135613a1081613331565b6001600160a01b0316602083015265ffffffffffff613a31604083016139d7565b16604083015265ffffffffffff613a4a606083016139d7565b1660608301525050565b81835281816020850137505f828201602090810191909152601f909101601f19169091010190565b6001600160a01b0385168152606060208201525f60c08201853536879003601e19018112613aa8575f80fd5b86016020810190356001600160401b03811115613ac3575f80fd5b8060071b3603821315613ad4575f80fd5b60608581015291829052905f9060e085015b81831015613b0b57613af881856139ec565b6080938401936001939093019201613ae6565b613b1760208a01613345565b6001600160a01b0316608087015260408981013560a08801819052878303918801919091529350613b4981888a613a54565b9a9950505050505050505050565b600181811c90821680613b6b57607f821691505b602082108103613b8957634e487b7160e01b5f52602260045260245ffd5b50919050565b6001600160a01b0385168152613ba860208201856139ec565b5f6080850135613bb781613331565b6001600160a01b031660a08381019190915285013560c083015261010060e083018190526118b69083018486613a54565b838152604060208201525f611fab604083018486613a54565b5f60208284031215613c11575f80fd5b81516111478161344f565b634e487b7160e01b5f52604160045260245ffd5b634e487b7160e01b5f52603260045260245ffd5b5f808335601e19843603018112613c59575f80fd5b8301803591506001600160401b03821115613c72575f80fd5b60200191503681900382131561338d575f80fd5b818382375f9101908152919050565b6001600160a01b03868116825285166020820152604081018490526080606082018190525f90613cc89083018486613a54565b979650505050505050565b5f806001600160401b03841115613cec57613cec613c1c565b50604051601f19601f85018116603f011681018181106001600160401b0382111715613d1a57613d1a613c1c565b604052838152905080828401851015613d31575f80fd5b8383602083015e5f60208583010152509392505050565b5f60208284031215613d58575f80fd5b81516001600160401b03811115613d6d575f80fd5b8201601f81018413613d7d575f80fd5b61088b84825160208401613cd3565b62ffffff811681146108ee575f80fd5b8060020b81146108ee575f80fd5b60c081018335613db981613331565b6001600160a01b031682526020840135613dd281613331565b6001600160a01b031660208301526040840135613dee81613d8c565b62ffffff1660408301526060840135613e0681613d9c565b60020b60608301526080840135613e1c81613331565b6001600160a01b0390811660808401529290921660a090910152919050565b5f60208284031215613e4b575f80fd5b815161114781613d9c565b5f8060408385031215613e67575f80fd5b50508035926020909101359150565b634e487b7160e01b5f52601160045260245ffd5b60ff81811683821601908111156108de576108de613e76565b602081525f61088b602083018486613a54565b5f60208284031215613ec6575f80fd5b5051919050565b808201808211156108de576108de613e76565b5f600160ff1b8201613ef457613ef4613e76565b505f0390565b5f60a0828403128015613f0b575f80fd5b5060405160a081016001600160401b0381118282101715613f2e57613f2e613c1c565b6040528235613f3c81613331565b81526020830135613f4c81613331565b60208201526040830135613f5f81613d8c565b60408201526060830135613f7281613d9c565b60608201526080830135613f8581613331565b60808201529392505050565b80546001600160a01b0319166001600160a01b0392909216919091179055565b8135613fbc81613331565b613fc68183613f91565b50600181016020830135613fd981613331565b613fe38183613f91565b506040830135613ff281613d8c565b8154606085013561400281613d9c565b8060b81b62ffffff60b81b1662ffffff60a01b8460a01b1665ffffffffffff60a01b19841617178455505050505f608083013561403e81613331565b809150610f8d8160028501613f91565b6140588186613730565b835160020b60a0820152602084015160020b60c0820152604084015160e082015260608401516101008201526101406101208201525f6118b661014083018486613a54565b5f80604083850312156140ae575f80fd5b50508051602090910151909290915056fe0aedd6bde10e3aa2adec092b02a3e3e805795516cda41f27aa145b8f300af87aa26469706673582212206d7c302dfbb8b17de83dba75bf811fb6c91526fa79f5a3e438b308d6e17ef05464736f6c634300081a00336040608081526004908136101561001557600080fd5b600090813560e01c80630d58b1db1461126c578063137c29fe146110755780632a2d80d114610db75780632b67b57014610bde57806330f28b7a14610ade5780633644e51514610a9d57806336c7851614610a285780633ff9dcb1146109a85780634fe02b441461093f57806365d9723c146107ac57806387517c451461067a578063927da105146105c3578063cc53287f146104a3578063edd9444b1461033a5763fe8ec1a7146100c657600080fd5b346103365760c07ffffffffffffffffffffffffffffffffffffffffffffffffffffffffffffffffc3601126103365767ffffffffffffffff833581811161033257610114903690860161164b565b60243582811161032e5761012b903690870161161a565b6101336114e6565b9160843585811161032a5761014b9036908a016115c1565b98909560a43590811161032657610164913691016115c1565b969095815190610173826113ff565b606b82527f5065726d697442617463685769746e6573735472616e7366657246726f6d285460208301527f6f6b656e5065726d697373696f6e735b5d207065726d69747465642c61646472838301527f657373207370656e6465722c75696e74323536206e6f6e63652c75696e74323560608301527f3620646561646c696e652c000000000000000000000000000000000000000000608083015282519a8b9181610222602085018096611f93565b918237018a8152039961025b7fffffffffffffffffffffffffffffffffffffffffffffffffffffffffffffffe09b8c8101835282611437565b5190209085515161026b81611ebb565b908a5b8181106102f95750506102f6999a6102ed9183516102a081610294602082018095611f66565b03848101835282611437565b519020602089810151858b015195519182019687526040820192909252336060820152608081019190915260a081019390935260643560c08401528260e081015b03908101835282611437565b51902093611cf7565b80f35b8061031161030b610321938c5161175e565b51612054565b61031b828661175e565b52611f0a565b61026e565b8880fd5b8780fd5b8480fd5b8380fd5b5080fd5b5091346103365760807ffffffffffffffffffffffffffffffffffffffffffffffffffffffffffffffffc3601126103365767ffffffffffffffff9080358281116103325761038b903690830161164b565b60243583811161032e576103a2903690840161161a565b9390926103ad6114e6565b9160643590811161049f576103c4913691016115c1565b949093835151976103d489611ebb565b98885b81811061047d5750506102f697988151610425816103f9602082018095611f66565b037fffffffffffffffffffffffffffffffffffffffffffffffffffffffffffffffe08101835282611437565b5190206020860151828701519083519260208401947ffcf35f5ac6a2c28868dc44c302166470266239195f02b0ee408334829333b7668652840152336060840152608083015260a082015260a081526102ed8161141b565b808b61031b8261049461030b61049a968d5161175e565b9261175e565b6103d7565b8680fd5b5082346105bf57602090817ffffffffffffffffffffffffffffffffffffffffffffffffffffffffffffffffc3601126103325780359067ffffffffffffffff821161032e576104f49136910161161a565b929091845b848110610504578580f35b8061051a610515600193888861196c565b61197c565b61052f84610529848a8a61196c565b0161197c565b3389528385528589209173ffffffffffffffffffffffffffffffffffffffff80911692838b528652868a20911690818a5285528589207fffffffffffffffffffffffff000000000000000000000000000000000000000081541690558551918252848201527f89b1add15eff56b3dfe299ad94e01f2b52fbcb80ae1a3baea6ae8c04cb2b98a4853392a2016104f9565b8280fd5b50346103365760607ffffffffffffffffffffffffffffffffffffffffffffffffffffffffffffffffc36011261033657610676816105ff6114a0565b936106086114c3565b6106106114e6565b73ffffffffffffffffffffffffffffffffffffffff968716835260016020908152848420928816845291825283832090871683528152919020549251938316845260a083901c65ffffffffffff169084015260d09190911c604083015281906060820190565b0390f35b50346103365760807ffffffffffffffffffffffffffffffffffffffffffffffffffffffffffffffffc360112610336576106b26114a0565b906106bb6114c3565b916106c46114e6565b65ffffffffffff926064358481169081810361032a5779ffffffffffff0000000000000000000000000000000000000000947fda9fa7c1b00402c17d0161b249b1ab8bbec047c5a52207b9c112deffd817036b94338a5260016020527fffffffffffff0000000000000000000000000000000000000000000000000000858b209873ffffffffffffffffffffffffffffffffffffffff809416998a8d5260205283878d209b169a8b8d52602052868c209486156000146107a457504216925b8454921697889360a01b16911617179055815193845260208401523392a480f35b905092610783565b5082346105bf5760607ffffffffffffffffffffffffffffffffffffffffffffffffffffffffffffffffc3601126105bf576107e56114a0565b906107ee6114c3565b9265ffffffffffff604435818116939084810361032a57338852602091600183528489209673ffffffffffffffffffffffffffffffffffffffff80911697888b528452858a20981697888a5283528489205460d01c93848711156109175761ffff9085840316116108f05750907f55eb90d810e1700b35a8e7e25395ff7f2b2259abd7415ca2284dfb1c246418f393929133895260018252838920878a528252838920888a5282528389209079ffffffffffffffffffffffffffffffffffffffffffffffffffff7fffffffffffff000000000000000000000000000000000000000000000000000083549260d01b16911617905582519485528401523392a480f35b84517f24d35a26000000000000000000000000000000000000000000000000000000008152fd5b5084517f756688fe000000000000000000000000000000000000000000000000000000008152fd5b503461033657807ffffffffffffffffffffffffffffffffffffffffffffffffffffffffffffffffc360112610336578060209273ffffffffffffffffffffffffffffffffffffffff61098f6114a0565b1681528084528181206024358252845220549051908152f35b5082346105bf57817ffffffffffffffffffffffffffffffffffffffffffffffffffffffffffffffffc3601126105bf577f3704902f963766a4e561bbaab6e6cdc1b1dd12f6e9e99648da8843b3f46b918d90359160243533855284602052818520848652602052818520818154179055815193845260208401523392a280f35b8234610a9a5760807ffffffffffffffffffffffffffffffffffffffffffffffffffffffffffffffffc360112610a9a57610a606114a0565b610a686114c3565b610a706114e6565b6064359173ffffffffffffffffffffffffffffffffffffffff8316830361032e576102f6936117a1565b80fd5b503461033657817ffffffffffffffffffffffffffffffffffffffffffffffffffffffffffffffffc36011261033657602090610ad7611b1e565b9051908152f35b508290346105bf576101007ffffffffffffffffffffffffffffffffffffffffffffffffffffffffffffffffc3601126105bf57610b1a3661152a565b90807fffffffffffffffffffffffffffffffffffffffffffffffffffffffffffffff7c36011261033257610b4c611478565b9160e43567ffffffffffffffff8111610bda576102f694610b6f913691016115c1565b939092610b7c8351612054565b6020840151828501519083519260208401947f939c21a48a8dbe3a9a2404a1d46691e4d39f6583d6ec6b35714604c986d801068652840152336060840152608083015260a082015260a08152610bd18161141b565b51902091611c25565b8580fd5b509134610336576101007ffffffffffffffffffffffffffffffffffffffffffffffffffffffffffffffffc36011261033657610c186114a0565b7fffffffffffffffffffffffffffffffffffffffffffffffffffffffffffffffdc360160c08112610332576080855191610c51836113e3565b1261033257845190610c6282611398565b73ffffffffffffffffffffffffffffffffffffffff91602435838116810361049f578152604435838116810361049f57602082015265ffffffffffff606435818116810361032a5788830152608435908116810361049f576060820152815260a435938285168503610bda576020820194855260c4359087830182815260e43567ffffffffffffffff811161032657610cfe90369084016115c1565b929093804211610d88575050918591610d786102f6999a610d7e95610d238851611fbe565b90898c511690519083519260208401947ff3841cd1ff0085026a6327b620b67997ce40f282c88a8e905a7a5626e310f3d086528401526060830152608082015260808152610d70816113ff565b519020611bd9565b916120c7565b519251169161199d565b602492508a51917fcd21db4f000000000000000000000000000000000000000000000000000000008352820152fd5b5091346103365760607ffffffffffffffffffffffffffffffffffffffffffffffffffffffffffffffffc93818536011261033257610df36114a0565b9260249081359267ffffffffffffffff9788851161032a578590853603011261049f578051978589018981108282111761104a578252848301358181116103265785019036602383011215610326578382013591610e50836115ef565b90610e5d85519283611437565b838252602093878584019160071b83010191368311611046578801905b828210610fe9575050508a526044610e93868801611509565b96838c01978852013594838b0191868352604435908111610fe557610ebb90369087016115c1565b959096804211610fba575050508998995151610ed681611ebb565b908b5b818110610f9757505092889492610d7892610f6497958351610f02816103f98682018095611f66565b5190209073ffffffffffffffffffffffffffffffffffffffff9a8b8b51169151928551948501957faf1b0d30d2cab0380e68f0689007e3254993c596f2fdd0aaa7f4d04f794408638752850152830152608082015260808152610d70816113ff565b51169082515192845b848110610f78578580f35b80610f918585610f8b600195875161175e565b5161199d565b01610f6d565b80610311610fac8e9f9e93610fb2945161175e565b51611fbe565b9b9a9b610ed9565b8551917fcd21db4f000000000000000000000000000000000000000000000000000000008352820152fd5b8a80fd5b6080823603126110465785608091885161100281611398565b61100b85611509565b8152611018838601611509565b838201526110278a8601611607565b8a8201528d611037818701611607565b90820152815201910190610e7a565b8c80fd5b84896041867f4e487b7100000000000000000000000000000000000000000000000000000000835252fd5b5082346105bf576101407ffffffffffffffffffffffffffffffffffffffffffffffffffffffffffffffffc3601126105bf576110b03661152a565b91807fffffffffffffffffffffffffffffffffffffffffffffffffffffffffffffff7c360112610332576110e2611478565b67ffffffffffffffff93906101043585811161049f5761110590369086016115c1565b90936101243596871161032a57611125610bd1966102f6983691016115c1565b969095825190611134826113ff565b606482527f5065726d69745769746e6573735472616e7366657246726f6d28546f6b656e5060208301527f65726d697373696f6e73207065726d69747465642c6164647265737320737065848301527f6e6465722c75696e74323536206e6f6e63652c75696e7432353620646561646c60608301527f696e652c0000000000000000000000000000000000000000000000000000000060808301528351948591816111e3602085018096611f93565b918237018b8152039361121c7fffffffffffffffffffffffffffffffffffffffffffffffffffffffffffffffe095868101835282611437565b5190209261122a8651612054565b6020878101518589015195519182019687526040820192909252336060820152608081019190915260a081019390935260e43560c08401528260e081016102e1565b5082346105bf576020807ffffffffffffffffffffffffffffffffffffffffffffffffffffffffffffffffc36011261033257813567ffffffffffffffff92838211610bda5736602383011215610bda5781013592831161032e576024906007368386831b8401011161049f57865b8581106112e5578780f35b80821b83019060807fffffffffffffffffffffffffffffffffffffffffffffffffffffffffffffffdc83360301126103265761139288876001946060835161132c81611398565b611368608461133c8d8601611509565b9485845261134c60448201611509565b809785015261135d60648201611509565b809885015201611509565b918291015273ffffffffffffffffffffffffffffffffffffffff80808093169516931691166117a1565b016112da565b6080810190811067ffffffffffffffff8211176113b457604052565b7f4e487b7100000000000000000000000000000000000000000000000000000000600052604160045260246000fd5b6060810190811067ffffffffffffffff8211176113b457604052565b60a0810190811067ffffffffffffffff8211176113b457604052565b60c0810190811067ffffffffffffffff8211176113b457604052565b90601f7fffffffffffffffffffffffffffffffffffffffffffffffffffffffffffffffe0910116810190811067ffffffffffffffff8211176113b457604052565b60c4359073ffffffffffffffffffffffffffffffffffffffff8216820361149b57565b600080fd5b6004359073ffffffffffffffffffffffffffffffffffffffff8216820361149b57565b6024359073ffffffffffffffffffffffffffffffffffffffff8216820361149b57565b6044359073ffffffffffffffffffffffffffffffffffffffff8216820361149b57565b359073ffffffffffffffffffffffffffffffffffffffff8216820361149b57565b7ffffffffffffffffffffffffffffffffffffffffffffffffffffffffffffffffc01906080821261149b576040805190611563826113e3565b8082941261149b57805181810181811067ffffffffffffffff8211176113b457825260043573ffffffffffffffffffffffffffffffffffffffff8116810361149b578152602435602082015282526044356020830152606435910152565b9181601f8401121561149b5782359167ffffffffffffffff831161149b576020838186019501011161149b57565b67ffffffffffffffff81116113b45760051b60200190565b359065ffffffffffff8216820361149b57565b9181601f8401121561149b5782359167ffffffffffffffff831161149b576020808501948460061b01011161149b57565b91909160608184031261149b576040805191611666836113e3565b8294813567ffffffffffffffff9081811161149b57830182601f8201121561149b578035611693816115ef565b926116a087519485611437565b818452602094858086019360061b8501019381851161149b579086899897969594939201925b8484106116e3575050505050855280820135908501520135910152565b90919293949596978483031261149b578851908982019082821085831117611730578a928992845261171487611509565b81528287013583820152815201930191908897969594936116c6565b602460007f4e487b710000000000000000000000000000000000000000000000000000000081526041600452fd5b80518210156117725760209160051b010190565b7f4e487b7100000000000000000000000000000000000000000000000000000000600052603260045260246000fd5b92919273ffffffffffffffffffffffffffffffffffffffff604060008284168152600160205282828220961695868252602052818120338252602052209485549565ffffffffffff8760a01c16804211611884575082871696838803611812575b5050611810955016926118b5565b565b878484161160001461184f57602488604051907ff96fb0710000000000000000000000000000000000000000000000000000000082526004820152fd5b7fffffffffffffffffffffffff000000000000000000000000000000000000000084846118109a031691161790553880611802565b602490604051907fd81b2f2e0000000000000000000000000000000000000000000000000000000082526004820152fd5b9060006064926020958295604051947f23b872dd0000000000000000000000000000000000000000000000000000000086526004860152602485015260448401525af13d15601f3d116001600051141617161561190e57565b60646040517f08c379a000000000000000000000000000000000000000000000000000000000815260206004820152601460248201527f5452414e534645525f46524f4d5f4641494c45440000000000000000000000006044820152fd5b91908110156117725760061b0190565b3573ffffffffffffffffffffffffffffffffffffffff8116810361149b5790565b9065ffffffffffff908160608401511673ffffffffffffffffffffffffffffffffffffffff908185511694826020820151169280866040809401511695169560009187835260016020528383208984526020528383209916988983526020528282209184835460d01c03611af5579185611ace94927fc6a377bfc4eb120024a8ac08eef205be16b817020812c73223e81d1bdb9708ec98979694508715600014611ad35779ffffffffffff00000000000000000000000000000000000000009042165b60a01b167fffffffffffff00000000000000000000000000000000000000000000000000006001860160d01b1617179055519384938491604091949373ffffffffffffffffffffffffffffffffffffffff606085019616845265ffffffffffff809216602085015216910152565b0390a4565b5079ffffffffffff000000000000000000000000000000000000000087611a60565b600484517f756688fe000000000000000000000000000000000000000000000000000000008152fd5b467f0000000000000000000000000000000000000000000000000000000000007a6903611b69577fd5a17abc3865df5c1400c0299bd4ce2eefc8114aec5f9d3dded1745783e57b9890565b60405160208101907f8cad95687ba82c2ce50e74f7b754645e5117c3a5bec8151c0726d5857980a86682527f9ac997416e8ff9d2ff6bebeb7149f65cdae5e32e2b90440b566bb3044041d36a604082015246606082015230608082015260808152611bd3816113ff565b51902090565b611be1611b1e565b906040519060208201927f190100000000000000000000000000000000000000000000000000000000000084526022830152604282015260428152611bd381611398565b9192909360a435936040840151804211611cc65750602084510151808611611c955750918591610d78611c6594611c60602088015186611e47565b611bd9565b73ffffffffffffffffffffffffffffffffffffffff809151511692608435918216820361149b57611810936118b5565b602490604051907f3728b83d0000000000000000000000000000000000000000000000000000000082526004820152fd5b602490604051907fcd21db4f0000000000000000000000000000000000000000000000000000000082526004820152fd5b959093958051519560409283830151804211611e175750848803611dee57611d2e918691610d7860209b611c608d88015186611e47565b60005b868110611d42575050505050505050565b611d4d81835161175e565b5188611d5a83878a61196c565b01359089810151808311611dbe575091818888886001968596611d84575b50505050505001611d31565b611db395611dad9273ffffffffffffffffffffffffffffffffffffffff6105159351169561196c565b916118b5565b803888888883611d78565b6024908651907f3728b83d0000000000000000000000000000000000000000000000000000000082526004820152fd5b600484517fff633a38000000000000000000000000000000000000000000000000000000008152fd5b6024908551907fcd21db4f0000000000000000000000000000000000000000000000000000000082526004820152fd5b9073ffffffffffffffffffffffffffffffffffffffff600160ff83161b9216600052600060205260406000209060081c6000526020526040600020818154188091551615611e9157565b60046040517f756688fe000000000000000000000000000000000000000000000000000000008152fd5b90611ec5826115ef565b611ed26040519182611437565b8281527fffffffffffffffffffffffffffffffffffffffffffffffffffffffffffffffe0611f0082946115ef565b0190602036910137565b7fffffffffffffffffffffffffffffffffffffffffffffffffffffffffffffffff8114611f375760010190565b7f4e487b7100000000000000000000000000000000000000000000000000000000600052601160045260246000fd5b805160208092019160005b828110611f7f575050505090565b835185529381019392810192600101611f71565b9081519160005b838110611fab575050016000815290565b8060208092840101518185015201611f9a565b60405160208101917f65626cad6cb96493bf6f5ebea28756c966f023ab9e8a83a7101849d5573b3678835273ffffffffffffffffffffffffffffffffffffffff8082511660408401526020820151166060830152606065ffffffffffff9182604082015116608085015201511660a082015260a0815260c0810181811067ffffffffffffffff8211176113b45760405251902090565b6040516020808201927f618358ac3db8dc274f0cd8829da7e234bd48cd73c4a740aede1adec9846d06a1845273ffffffffffffffffffffffffffffffffffffffff81511660408401520151606082015260608152611bd381611398565b919082604091031261149b576020823592013590565b6000843b61222e5750604182036121ac576120e4828201826120b1565b939092604010156117725760209360009360ff6040608095013560f81c5b60405194855216868401526040830152606082015282805260015afa156121a05773ffffffffffffffffffffffffffffffffffffffff806000511691821561217657160361214c57565b60046040517f815e1d64000000000000000000000000000000000000000000000000000000008152fd5b60046040517f8baa579f000000000000000000000000000000000000000000000000000000008152fd5b6040513d6000823e3d90fd5b60408203612204576121c0918101906120b1565b91601b7f7fffffffffffffffffffffffffffffffffffffffffffffffffffffffffffffff84169360ff1c019060ff8211611f375760209360009360ff608094612102565b60046040517f4be6321b000000000000000000000000000000000000000000000000000000008152fd5b929391601f928173ffffffffffffffffffffffffffffffffffffffff60646020957fffffffffffffffffffffffffffffffffffffffffffffffffffffffffffffffe0604051988997889687947f1626ba7e000000000000000000000000000000000000000000000000000000009e8f8752600487015260406024870152816044870152868601378b85828601015201168101030192165afa9081156123a857829161232a575b507fffffffff000000000000000000000000000000000000000000000000000000009150160361230057565b60046040517fb0669cbc000000000000000000000000000000000000000000000000000000008152fd5b90506020813d82116123a0575b8161234460209383611437565b810103126103365751907fffffffff0000000000000000000000000000000000000000000000000000000082168203610a9a57507fffffffff0000000000000000000000000000000000000000000000000000000090386122d4565b3d9150612337565b6040513d84823e3d90fdfea164736f6c6343000811000aa264697066735822122001eb11ba76dcfd21a7ecc0b81f9f5fa478064bf1b6021806eb3230072eb6f5c064736f6c634300081a0033","linkReferences":{}},"methodIdentifiers":{"LIQUIDITY_PARAMS()":"93ad73ed","MAX_PRICE_LIMIT()":"542524dd","MIN_PRICE_LIMIT()":"c7b8e15d","REMOVE_LIQUIDITY_PARAMS()":"39cd2013","SWAP_PARAMS()":"b1a73b8a","anvilPermit2()":"b708593e","deployAndApprovePosm(address)":"03ef31f6","etchPermit2()":"dc7c8875"},"id":137}