{"abi":[{"type":"constructor","inputs":[],"stateMutability":"nonpayable"},{"type":"function","name":"DOMAIN_SEPARATOR","inputs":[],"outputs":[{"name":"","type":"bytes32","internalType":"bytes32"}],"stateMutability":"view"},{"type":"function","name":"allowance","inputs":[{"name":"","type":"address","internalType":"address"},{"name":"","type":"address","internalType":"address"}],"outputs":[{"name":"","type":"uint256","internalType":"uint256"}],"stateMutability":"view"},{"type":"function","name":"approve","inputs":[{"name":"spender","type":"address","internalType":"address"},{"name":"amount","type":"uint256","internalType":"uint256"}],"outputs":[{"name":"","type":"bool","internalType":"bool"}],"stateMutability":"nonpayable"},{"type":"function","name":"balanceOf","inputs":[{"name":"","type":"address","internalType":"address"}],"outputs":[{"name":"","type":"uint256","internalType":"uint256"}],"stateMutability":"view"},{"type":"function","name":"decimals","inputs":[],"outputs":[{"name":"","type":"uint8","internalType":"uint8"}],"stateMutability":"view"},{"type":"function","name":"mint","inputs":[{"name":"to","type":"address","internalType":"address"},{"name":"amount","type":"uint256","internalType":"uint256"}],"outputs":[],"stateMutability":"nonpayable"},{"type":"function","name":"name","inputs":[],"outputs":[{"name":"","type":"string","internalType":"string"}],"stateMutability":"view"},{"type":"function","name":"nonces","inputs":[{"name":"","type":"address","internalType":"address"}],"outputs":[{"name":"","type":"uint256","internalType":"uint256"}],"stateMutability":"view"},{"type":"function","name":"owner","inputs":[],"outputs":[{"name":"","type":"address","internalType":"address"}],"stateMutability":"view"},{"type":"function","name":"permit","inputs":[{"name":"owner","type":"address","internalType":"address"},{"name":"spender","type":"address","internalType":"address"},{"name":"value","type":"uint256","internalType":"uint256"},{"name":"deadline","type":"uint256","internalType":"uint256"},{"name":"v","type":"uint8","internalType":"uint8"},{"name":"r","type":"bytes32","internalType":"bytes32"},{"name":"s","type":"bytes32","internalType":"bytes32"}],"outputs":[],"stateMutability":"nonpayable"},{"type":"function","name":"symbol","inputs":[],"outputs":[{"name":"","type":"string","internalType":"string"}],"stateMutability":"view"},{"type":"function","name":"totalSupply","inputs":[],"outputs":[{"name":"","type":"uint256","internalType":"uint256"}],"stateMutability":"view"},{"type":"function","name":"transfer","inputs":[{"name":"to","type":"address","internalType":"address"},{"name":"amount","type":"uint256","internalType":"uint256"}],"outputs":[{"name":"","type":"bool","internalType":"bool"}],"stateMutability":"nonpayable"},{"type":"function","name":"transferFrom","inputs":[{"name":"from","type":"address","internalType":"address"},{"name":"to","type":"address","internalType":"address"},{"name":"amount","type":"uint256","internalType":"uint256"}],"outputs":[{"name":"","type":"bool","internalType":"bool"}],"stateMutability":"nonpayable"},{"type":"function","name":"transferOwnership","inputs":[{"name":"newOwner","type":"address","internalType":"address"}],"outputs":[],"stateMutability":"nonpayable"},{"type":"event","name":"Approval","inputs":[{"name":"owner","type":"address","indexed":true,"internalType":"address"},{"name":"spender","type":"address","indexed":true,"internalType":"address"},{"name":"amount","type":"uint256","indexed":false,"internalType":"uint256"}],"anonymous":false},{"type":"event","name":"OwnershipTransferred","inputs":[{"name":"user","type":"address","indexed":true,"internalType":"address"},{"name":"newOwner","type":"address","indexed":true,"internalType":"address"}],"anonymous":false},{"type":"event","name":"Transfer","inputs":[{"name":"from","type":"address","indexed":true,"internalType":"address"},{"name":"to","type":"address","indexed":true,"internalType":"address"},{"name":"amount","type":"uint256","indexed":false,"internalType":"uint256"}],"anonymous":false}],"bytecode":{"object":"0x60e060405234801561000f575f80fd5b50336040518060400160405280600a8152602001690427579657245524332360b41b8152506040518060400160405280600681526020016504245524332360d41b8152506012825f9081610063919061020a565b506001610070838261020a565b5060ff81166080524660a0526100846100da565b60c0525050600680546001600160a01b0319166001600160a01b0384169081179091556040519091505f907f8be0079c531659141344cd1fd0a4f28419497f9722a3daafe3b4186f6b6457e0908290a350610335565b5f7f8b73c3c69bb8fe3d512ecc4cf759cc79239f7b179b0ffacaa9a75d522b39400f5f60405161010a91906102c4565b6040805191829003822060208301939093528101919091527fc89efdaa54c0f20c7adf612882df0950f5a951637e0307cdcb4c672f298b8bc660608201524660808201523060a082015260c00160405160208183030381529060405280519060200120905090565b634e487b7160e01b5f52604160045260245ffd5b600181811c9082168061019a57607f821691505b6020821081036101b857634e487b7160e01b5f52602260045260245ffd5b50919050565b601f82111561020557805f5260205f20601f840160051c810160208510156101e35750805b601f840160051c820191505b81811015610202575f81556001016101ef565b50505b505050565b81516001600160401b0381111561022357610223610172565b610237816102318454610186565b846101be565b6020601f821160018114610269575f83156102525750848201515b5f19600385901b1c1916600184901b178455610202565b5f84815260208120601f198516915b828110156102985787850151825560209485019460019092019101610278565b50848210156102b557868401515f19600387901b60f8161c191681555b50505050600190811b01905550565b5f8083546102d181610186565b6001821680156102e857600181146102fd5761032a565b60ff198316865281151582028601935061032a565b865f5260205f205f5b8381101561032257815488820152600190910190602001610306565b505081860193505b509195945050505050565b60805160a05160c051610c2d61035f5f395f6104a501525f61047001525f6101640152610c2d5ff3fe608060405234801561000f575f80fd5b50600436106100f0575f3560e01c806370a0823111610093578063a9059cbb11610063578063a9059cbb14610226578063d505accf14610239578063dd62ed3e1461024c578063f2fde38b14610276575f80fd5b806370a08231146101b55780637ecebe00146101d45780638da5cb5b146101f357806395d89b411461021e575f80fd5b806323b872dd116100ce57806323b872dd1461014c578063313ce5671461015f5780633644e5151461019857806340c10f19146101a0575f80fd5b806306fdde03146100f4578063095ea7b31461011257806318160ddd14610135575b5f80fd5b6100fc610289565b6040516101099190610979565b60405180910390f35b6101256101203660046109c9565b610314565b6040519015158152602001610109565b61013e60025481565b604051908152602001610109565b61012561015a3660046109f1565b610380565b6101867f000000000000000000000000000000000000000000000000000000000000000081565b60405160ff9091168152602001610109565b61013e61046d565b6101b36101ae3660046109c9565b6104c7565b005b61013e6101c3366004610a2b565b60036020525f908152604090205481565b61013e6101e2366004610a2b565b60056020525f908152604090205481565b600654610206906001600160a01b031681565b6040516001600160a01b039091168152602001610109565b6100fc610523565b6101256102343660046109c9565b610530565b6101b3610247366004610a4b565b6105a6565b61013e61025a366004610ab8565b600460209081525f928352604080842090915290825290205481565b6101b3610284366004610a2b565b6107e4565b5f805461029590610ae9565b80601f01602080910402602001604051908101604052809291908181526020018280546102c190610ae9565b801561030c5780601f106102e35761010080835404028352916020019161030c565b820191905f5260205f20905b8154815290600101906020018083116102ef57829003601f168201915b505050505081565b335f8181526004602090815260408083206001600160a01b038716808552925280832085905551919290917f8c5be1e5ebec7d5bd14f71427d1e84f3dd0314c0f7b2291e5b200ac8c7c3b9259061036e9086815260200190565b60405180910390a35060015b92915050565b6001600160a01b0383165f9081526004602090815260408083203384529091528120545f1981146103d9576103b58382610b35565b6001600160a01b0386165f9081526004602090815260408083203384529091529020555b6001600160a01b0385165f9081526003602052604081208054859290610400908490610b35565b90915550506001600160a01b038085165f81815260036020526040908190208054870190555190918716907fddf252ad1be2c89b69c2b068fc378daa952ba7f163c4a11628f55a4df523b3ef9061045a9087815260200190565b60405180910390a3506001949350505050565b5f7f000000000000000000000000000000000000000000000000000000000000000046146104a25761049d610878565b905090565b507f000000000000000000000000000000000000000000000000000000000000000090565b6006546001600160a01b031633146105155760405162461bcd60e51b815260206004820152600c60248201526b15539055551213d49256915160a21b60448201526064015b60405180910390fd5b61051f8282610910565b5050565b6001805461029590610ae9565b335f90815260036020526040812080548391908390610550908490610b35565b90915550506001600160a01b0383165f81815260036020526040908190208054850190555133907fddf252ad1be2c89b69c2b068fc378daa952ba7f163c4a11628f55a4df523b3ef9061036e9086815260200190565b428410156105f65760405162461bcd60e51b815260206004820152601760248201527f5045524d49545f444541444c494e455f45585049524544000000000000000000604482015260640161050c565b5f600161060161046d565b6001600160a01b038a81165f8181526005602090815260409182902080546001810190915582517f6e71edae12b1b97f4d1f60370fef10105fa2faae0126114a169c64845d6126c98184015280840194909452938d166060840152608083018c905260a083019390935260c08083018b90528151808403909101815260e08301909152805192019190912061190160f01b6101008301526101028201929092526101228101919091526101420160408051601f1981840301815282825280516020918201205f84529083018083525260ff871690820152606081018590526080810184905260a0016020604051602081039080840390855afa158015610709573d5f803e3d5ffd5b5050604051601f1901519150506001600160a01b0381161580159061073f5750876001600160a01b0316816001600160a01b0316145b61077c5760405162461bcd60e51b815260206004820152600e60248201526d24a72b20a624a22fa9a4a3a722a960911b604482015260640161050c565b6001600160a01b039081165f9081526004602090815260408083208a8516808552908352928190208990555188815291928a16917f8c5be1e5ebec7d5bd14f71427d1e84f3dd0314c0f7b2291e5b200ac8c7c3b925910160405180910390a350505050505050565b6006546001600160a01b0316331461082d5760405162461bcd60e51b815260206004820152600c60248201526b15539055551213d49256915160a21b604482015260640161050c565b600680546001600160a01b0319166001600160a01b03831690811790915560405133907f8be0079c531659141344cd1fd0a4f28419497f9722a3daafe3b4186f6b6457e0905f90a350565b5f7f8b73c3c69bb8fe3d512ecc4cf759cc79239f7b179b0ffacaa9a75d522b39400f5f6040516108a89190610b48565b6040805191829003822060208301939093528101919091527fc89efdaa54c0f20c7adf612882df0950f5a951637e0307cdcb4c672f298b8bc660608201524660808201523060a082015260c00160405160208183030381529060405280519060200120905090565b8060025f8282546109219190610be4565b90915550506001600160a01b0382165f818152600360209081526040808320805486019055518481527fddf252ad1be2c89b69c2b068fc378daa952ba7f163c4a11628f55a4df523b3ef910160405180910390a35050565b602081525f82518060208401528060208501604085015e5f604082850101526040601f19601f83011684010191505092915050565b80356001600160a01b03811681146109c4575f80fd5b919050565b5f80604083850312156109da575f80fd5b6109e3836109ae565b946020939093013593505050565b5f805f60608486031215610a03575f80fd5b610a0c846109ae565b9250610a1a602085016109ae565b929592945050506040919091013590565b5f60208284031215610a3b575f80fd5b610a44826109ae565b9392505050565b5f805f805f805f60e0888a031215610a61575f80fd5b610a6a886109ae565b9650610a78602089016109ae565b95506040880135945060608801359350608088013560ff81168114610a9b575f80fd5b9699959850939692959460a0840135945060c09093013592915050565b5f8060408385031215610ac9575f80fd5b610ad2836109ae565b9150610ae0602084016109ae565b90509250929050565b600181811c90821680610afd57607f821691505b602082108103610b1b57634e487b7160e01b5f52602260045260245ffd5b50919050565b634e487b7160e01b5f52601160045260245ffd5b8181038181111561037a5761037a610b21565b5f8083545f8160011c90506001821680610b6357607f821691505b602082108103610b8157634e487b7160e01b5f52602260045260245ffd5b808015610b955760018114610baa57610bd8565b60ff1984168752821515830287019450610bd8565b5f888152602090205f5b84811015610bd057815489820152600190910190602001610bb4565b505082870194505b50929695505050505050565b8082018082111561037a5761037a610b2156fea2646970667358221220003f6f8504302ebc63c4d85b31838a5a4e44f71797fa453965e34d6c0c71c34364736f6c634300081a0033","linkReferences":{}},"methodIdentifiers":{"DOMAIN_SEPARATOR()":"3644e515","allowance(address,address)":"dd62ed3e","approve(address,uint256)":"095ea7b3","balanceOf(address)":"70a08231","decimals()":"313ce567","mint(address,uint256)":"40c10f19","name()":"06fdde03","nonces(address)":"7ecebe00","owner()":"8da5cb5b","permit(address,address,uint256,uint256,uint8,bytes32,bytes32)":"d505accf","symbol()":"95d89b41","totalSupply()":"18160ddd","transfer(address,uint256)":"a9059cbb","transferFrom(address,address,uint256)":"23b872dd","transferOwnership(address)":"f2fde38b"},"id":128}