{"abi":[{"type":"constructor","inputs":[{"name":"_manager","type":"address","internalType":"contract IPoolManager"}],"stateMutability":"nonpayable"},{"type":"function","name":"manager","inputs":[],"outputs":[{"name":"","type":"address","internalType":"contract IPoolManager"}],"stateMutability":"view"},{"type":"function","name":"swap","inputs":[{"name":"key","type":"tuple","internalType":"struct PoolKey","components":[{"name":"currency0","type":"address","internalType":"Currency"},{"name":"currency1","type":"address","internalType":"Currency"},{"name":"fee","type":"uint24","internalType":"uint24"},{"name":"tickSpacing","type":"int24","internalType":"int24"},{"name":"hooks","type":"address","internalType":"contract IHooks"}]},{"name":"params","type":"tuple","internalType":"struct IPoolManager.SwapParams","components":[{"name":"zeroForOne","type":"bool","internalType":"bool"},{"name":"amountSpecified","type":"int256","internalType":"int256"},{"name":"sqrtPriceLimitX96","type":"uint160","internalType":"uint160"}]}],"outputs":[],"stateMutability":"payable"},{"type":"function","name":"unlockCallback","inputs":[{"name":"rawData","type":"bytes","internalType":"bytes"}],"outputs":[{"name":"","type":"bytes","internalType":"bytes"}],"stateMutability":"nonpayable"},{"type":"error","name":"NoSwapOccurred","inputs":[]}],"bytecode":{"object":"0x60a0604052348015600e575f80fd5b50604051610d6b380380610d6b833981016040819052602b91603b565b6001600160a01b03166080526066565b5f60208284031215604a575f80fd5b81516001600160a01b0381168114605f575f80fd5b9392505050565b608051610cbe6100ad5f395f8181605d0152818160ca015281816101aa015281816101e5015281816102d1015281816103270152818161037b01526103d30152610cbe5ff3fe608060405260043610610033575f3560e01c80631e2817de14610037578063481c6a751461004c57806391dd73461461009c575b5f80fd5b61004a610045366004610963565b6100c8565b005b348015610057575f80fd5b5061007f7f000000000000000000000000000000000000000000000000000000000000000081565b6040516001600160a01b0390911681526020015b60405180910390f35b3480156100a7575f80fd5b506100bb6100b6366004610997565b61019d565b6040516100939190610a33565b7f00000000000000000000000000000000000000000000000000000000000000006001600160a01b03166348c894916040518060600160405280336001600160a01b031681526020018581526020018481525060405160200161012b9190610a8f565b6040516020818303038152906040526040518263ffffffff1660e01b81526004016101569190610a33565b5f604051808303815f875af1158015610171573d5f803e3d5ffd5b505050506040513d5f823e601f3d908101601f191682016040526101989190810190610ae5565b505050565b6060336001600160a01b037f000000000000000000000000000000000000000000000000000000000000000016146101d3575f80fd5b5f6101e083850185610b79565b90505f7f00000000000000000000000000000000000000000000000000000000000000006001600160a01b031663f3cd914c836020015184604001515f67ffffffffffffffff811115610235576102356107d0565b6040519080825280601f01601f19166020018201604052801561025f576020820181803683370190505b506040518463ffffffff1660e01b815260040161027e93929190610bcc565b6020604051808303815f875af115801561029a573d5f803e3d5ffd5b505050506040513d601f19601f820116820180604052508101906102be9190610c1d565b60408301515190915015610376576103227f0000000000000000000000000000000000000000000000000000000000000000835f01516102fe8460801d90565b61030790610c34565b6020860151516001600160a01b0316929190600f0b5f610432565b6103717f0000000000000000000000000000000000000000000000000000000000000000835f015161035484600f0b90565b60208087015101516001600160a01b0316929190600f0b5f6106fe565b61041b565b6103ce7f0000000000000000000000000000000000000000000000000000000000000000835f01516103a884600f0b90565b6103b190610c34565b60208087015101516001600160a01b0316929190600f0b5f610432565b61041b7f0000000000000000000000000000000000000000000000000000000000000000835f01516104008460801d90565b6020860151516001600160a01b0316929190600f0b5f6106fe565b505060408051602081019091525f81529392505050565b80156104c757836001600160a01b031663f5298aca84610461886001600160a01b03166001600160a01b031690565b6040516001600160e01b031960e085901b1681526001600160a01b0390921660048301526024820152604481018590526064015b5f604051808303815f87803b1580156104ac575f80fd5b505af11580156104be573d5f803e3d5ffd5b505050506106f7565b6001600160a01b03851661053e57836001600160a01b03166311da60b4836040518263ffffffff1660e01b815260040160206040518083038185885af1158015610513573d5f803e3d5ffd5b50505050506040513d601f19601f820116820180604052508101906105389190610c1d565b506106f7565b604051632961046560e21b81526001600160a01b03868116600483015285169063a5841194906024015f604051808303815f87803b15801561057e575f80fd5b505af1158015610590573d5f803e3d5ffd5b505050506001600160a01b0383163014610622576040516323b872dd60e01b81526001600160a01b0384811660048301528581166024830152604482018490528616906323b872dd906064016020604051808303815f875af11580156105f8573d5f803e3d5ffd5b505050506040513d601f19601f8201168201806040525081019061061c9190610c6d565b50610694565b60405163a9059cbb60e01b81526001600160a01b0385811660048301526024820184905286169063a9059cbb906044016020604051808303815f875af115801561066e573d5f803e3d5ffd5b505050506040513d601f19601f820116820180604052508101906106929190610c6d565b505b836001600160a01b03166311da60b46040518163ffffffff1660e01b81526004016020604051808303815f875af11580156106d1573d5f803e3d5ffd5b505050506040513d601f19601f820116820180604052508101906106f59190610c1d565b505b5050505050565b8061074057604051630b0d9c0960e01b81526001600160a01b038681166004830152848116602483015260448201849052851690630b0d9c0990606401610495565b836001600160a01b031663156e29f684610769886001600160a01b03166001600160a01b031690565b6040516001600160e01b031960e085901b1681526001600160a01b0390921660048301526024820152604481018590526064015f604051808303815f87803b1580156107b3575f80fd5b505af11580156107c5573d5f803e3d5ffd5b505050505050505050565b634e487b7160e01b5f52604160045260245ffd5b60405160a0810167ffffffffffffffff81118282101715610807576108076107d0565b60405290565b6040516060810167ffffffffffffffff81118282101715610807576108076107d0565b604051601f8201601f1916810167ffffffffffffffff81118282101715610859576108596107d0565b604052919050565b6001600160a01b0381168114610875575f80fd5b50565b803561088381610861565b919050565b5f60a08284031215610898575f80fd5b6108a06107e4565b905081356108ad81610861565b815260208201356108bd81610861565b6020820152604082013562ffffff811681146108d7575f80fd5b60408201526060820135600281900b81146108f0575f80fd5b606082015261090160808301610878565b608082015292915050565b8015158114610875575f80fd5b5f60608284031215610929575f80fd5b61093161080d565b9050813561093e8161090c565b815260208281013590820152604082013561095881610861565b604082015292915050565b5f806101008385031215610975575f80fd5b61097f8484610888565b915061098e8460a08501610919565b90509250929050565b5f80602083850312156109a8575f80fd5b823567ffffffffffffffff8111156109be575f80fd5b8301601f810185136109ce575f80fd5b803567ffffffffffffffff8111156109e4575f80fd5b8560208284010111156109f5575f80fd5b6020919091019590945092505050565b5f81518084528060208401602086015e5f602082860101526020601f19601f83011685010191505092915050565b602081525f610a456020830184610a05565b9392505050565b80516001600160a01b03908116835260208083015182169084015260408083015162ffffff169084015260608083015160020b9084015260809182015116910152565b81516001600160a01b03168152602080830151610120830191610ab490840182610a4c565b506040928301518051151560c0840152602081015160e0840152909201516001600160a01b03166101009091015290565b5f60208284031215610af5575f80fd5b815167ffffffffffffffff811115610b0b575f80fd5b8201601f81018413610b1b575f80fd5b805167ffffffffffffffff811115610b3557610b356107d0565b610b48601f8201601f1916602001610830565b818152856020838501011115610b5c575f80fd5b8160208401602083015e5f91810160200191909152949350505050565b5f610120828403128015610b8b575f80fd5b50610b9461080d565b8235610b9f81610861565b8152610bae8460208501610888565b6020820152610bc08460c08501610919565b60408201529392505050565b610bd68185610a4c565b8251151560a0820152602083015160c082015260408301516001600160a01b031660e08201526101206101008201525f610c14610120830184610a05565b95945050505050565b5f60208284031215610c2d575f80fd5b5051919050565b5f81600f0b6f7fffffffffffffffffffffffffffffff198103610c6557634e487b7160e01b5f52601160045260245ffd5b5f0392915050565b5f60208284031215610c7d575f80fd5b8151610a458161090c56fea264697066735822122081e984f88bea80457acbbbf3df2ca8ee3c657387925de77a4e3674002ed3b39b64736f6c634300081a0033","linkReferences":{}},"methodIdentifiers":{"manager()":"481c6a75","swap((address,address,uint24,int24,address),(bool,int256,uint160))":"1e2817de","unlockCallback(bytes)":"91dd7346"},"id":81}