{"abi":[{"type":"function","name":"nonces","inputs":[{"name":"owner","type":"address","internalType":"address"},{"name":"word","type":"uint256","internalType":"uint256"}],"outputs":[{"name":"bitmap","type":"uint256","internalType":"uint256"}],"stateMutability":"view"},{"type":"function","name":"revokeNonce","inputs":[{"name":"nonce","type":"uint256","internalType":"uint256"}],"outputs":[],"stateMutability":"payable"},{"type":"error","name":"NonceAlreadyUsed","inputs":[]}],"bytecode":{"object":"0x6080604052348015600e575f80fd5b506101798061001c5f395ff3fe608060405260043610610028575f3560e01c806305c1ee201461002c578063502e1a1614610041575b5f80fd5b61003f61003a3660046100f7565b610086565b005b34801561004c575f80fd5b5061007461005b36600461010e565b5f60208181529281526040808220909352908152205481565b60405190815260200160405180910390f35b6100903382610093565b50565b6001600160a01b0382165f90815260208181526040808320600885901c808552925282208054600160ff861690811b91821892839055929390919081831690036100ef57604051623f613760e71b815260040160405180910390fd5b505050505050565b5f60208284031215610107575f80fd5b5035919050565b5f806040838503121561011f575f80fd5b82356001600160a01b0381168114610135575f80fd5b94602093909301359350505056fea2646970667358221220ebc11713ce1811216c2d2896b3eb93a133c6ada0009e707b2d847b002c193d2664736f6c634300081a0033","linkReferences":{}},"methodIdentifiers":{"nonces(address,uint256)":"502e1a16","revokeNonce(uint256)":"05c1ee20"},"id":109}