{"abi":[{"type":"constructor","inputs":[{"name":"_poolManager","type":"address","internalType":"contract IPoolManager"},{"name":"_permit2","type":"address","internalType":"contract IAllowanceTransfer"},{"name":"_unsubscribeGasLimit","type":"uint256","internalType":"uint256"},{"name":"_tokenDescriptor","type":"address","internalType":"contract IPositionDescriptor"}],"stateMutability":"nonpayable"},{"type":"function","name":"DOMAIN_SEPARATOR","inputs":[],"outputs":[{"name":"","type":"bytes32","internalType":"bytes32"}],"stateMutability":"view"},{"type":"function","name":"approve","inputs":[{"name":"spender","type":"address","internalType":"address"},{"name":"id","type":"uint256","internalType":"uint256"}],"outputs":[],"stateMutability":"nonpayable"},{"type":"function","name":"balanceOf","inputs":[{"name":"owner","type":"address","internalType":"address"}],"outputs":[{"name":"","type":"uint256","internalType":"uint256"}],"stateMutability":"view"},{"type":"function","name":"getApproved","inputs":[{"name":"","type":"uint256","internalType":"uint256"}],"outputs":[{"name":"","type":"address","internalType":"address"}],"stateMutability":"view"},{"type":"function","name":"getPoolAndPositionInfo","inputs":[{"name":"tokenId","type":"uint256","internalType":"uint256"}],"outputs":[{"name":"poolKey","type":"tuple","internalType":"struct PoolKey","components":[{"name":"currency0","type":"address","internalType":"Currency"},{"name":"currency1","type":"address","internalType":"Currency"},{"name":"fee","type":"uint24","internalType":"uint24"},{"name":"tickSpacing","type":"int24","internalType":"int24"},{"name":"hooks","type":"address","internalType":"contract IHooks"}]},{"name":"info","type":"uint256","internalType":"PositionInfo"}],"stateMutability":"view"},{"type":"function","name":"getPositionLiquidity","inputs":[{"name":"tokenId","type":"uint256","internalType":"uint256"}],"outputs":[{"name":"liquidity","type":"uint128","internalType":"uint128"}],"stateMutability":"view"},{"type":"function","name":"initializePool","inputs":[{"name":"key","type":"tuple","internalType":"struct PoolKey","components":[{"name":"currency0","type":"address","internalType":"Currency"},{"name":"currency1","type":"address","internalType":"Currency"},{"name":"fee","type":"uint24","internalType":"uint24"},{"name":"tickSpacing","type":"int24","internalType":"int24"},{"name":"hooks","type":"address","internalType":"contract IHooks"}]},{"name":"sqrtPriceX96","type":"uint160","internalType":"uint160"}],"outputs":[{"name":"","type":"int24","internalType":"int24"}],"stateMutability":"payable"},{"type":"function","name":"isApprovedForAll","inputs":[{"name":"","type":"address","internalType":"address"},{"name":"","type":"address","internalType":"address"}],"outputs":[{"name":"","type":"bool","internalType":"bool"}],"stateMutability":"view"},{"type":"function","name":"modifyLiquidities","inputs":[{"name":"unlockData","type":"bytes","internalType":"bytes"},{"name":"deadline","type":"uint256","internalType":"uint256"}],"outputs":[],"stateMutability":"payable"},{"type":"function","name":"modifyLiquiditiesWithoutUnlock","inputs":[{"name":"actions","type":"bytes","internalType":"bytes"},{"name":"params","type":"bytes[]","internalType":"bytes[]"}],"outputs":[],"stateMutability":"payable"},{"type":"function","name":"msgSender","inputs":[],"outputs":[{"name":"","type":"address","internalType":"address"}],"stateMutability":"view"},{"type":"function","name":"multicall","inputs":[{"name":"data","type":"bytes[]","internalType":"bytes[]"}],"outputs":[{"name":"results","type":"bytes[]","internalType":"bytes[]"}],"stateMutability":"payable"},{"type":"function","name":"name","inputs":[],"outputs":[{"name":"","type":"string","internalType":"string"}],"stateMutability":"view"},{"type":"function","name":"nextTokenId","inputs":[],"outputs":[{"name":"","type":"uint256","internalType":"uint256"}],"stateMutability":"view"},{"type":"function","name":"nonces","inputs":[{"name":"owner","type":"address","internalType":"address"},{"name":"word","type":"uint256","internalType":"uint256"}],"outputs":[{"name":"bitmap","type":"uint256","internalType":"uint256"}],"stateMutability":"view"},{"type":"function","name":"ownerOf","inputs":[{"name":"id","type":"uint256","internalType":"uint256"}],"outputs":[{"name":"owner","type":"address","internalType":"address"}],"stateMutability":"view"},{"type":"function","name":"permit","inputs":[{"name":"spender","type":"address","internalType":"address"},{"name":"tokenId","type":"uint256","internalType":"uint256"},{"name":"deadline","type":"uint256","internalType":"uint256"},{"name":"nonce","type":"uint256","internalType":"uint256"},{"name":"signature","type":"bytes","internalType":"bytes"}],"outputs":[],"stateMutability":"payable"},{"type":"function","name":"permit","inputs":[{"name":"owner","type":"address","internalType":"address"},{"name":"permitSingle","type":"tuple","internalType":"struct IAllowanceTransfer.PermitSingle","components":[{"name":"details","type":"tuple","internalType":"struct IAllowanceTransfer.PermitDetails","components":[{"name":"token","type":"address","internalType":"address"},{"name":"amount","type":"uint160","internalType":"uint160"},{"name":"expiration","type":"uint48","internalType":"uint48"},{"name":"nonce","type":"uint48","internalType":"uint48"}]},{"name":"spender","type":"address","internalType":"address"},{"name":"sigDeadline","type":"uint256","internalType":"uint256"}]},{"name":"signature","type":"bytes","internalType":"bytes"}],"outputs":[{"name":"err","type":"bytes","internalType":"bytes"}],"stateMutability":"payable"},{"type":"function","name":"permit2","inputs":[],"outputs":[{"name":"","type":"address","internalType":"contract IAllowanceTransfer"}],"stateMutability":"view"},{"type":"function","name":"permitBatch","inputs":[{"name":"owner","type":"address","internalType":"address"},{"name":"_permitBatch","type":"tuple","internalType":"struct IAllowanceTransfer.PermitBatch","components":[{"name":"details","type":"tuple[]","internalType":"struct IAllowanceTransfer.PermitDetails[]","components":[{"name":"token","type":"address","internalType":"address"},{"name":"amount","type":"uint160","internalType":"uint160"},{"name":"expiration","type":"uint48","internalType":"uint48"},{"name":"nonce","type":"uint48","internalType":"uint48"}]},{"name":"spender","type":"address","internalType":"address"},{"name":"sigDeadline","type":"uint256","internalType":"uint256"}]},{"name":"signature","type":"bytes","internalType":"bytes"}],"outputs":[{"name":"err","type":"bytes","internalType":"bytes"}],"stateMutability":"payable"},{"type":"function","name":"permitForAll","inputs":[{"name":"owner","type":"address","internalType":"address"},{"name":"operator","type":"address","internalType":"address"},{"name":"approved","type":"bool","internalType":"bool"},{"name":"deadline","type":"uint256","internalType":"uint256"},{"name":"nonce","type":"uint256","internalType":"uint256"},{"name":"signature","type":"bytes","internalType":"bytes"}],"outputs":[],"stateMutability":"payable"},{"type":"function","name":"poolKeys","inputs":[{"name":"poolId","type":"bytes25","internalType":"bytes25"}],"outputs":[{"name":"currency0","type":"address","internalType":"Currency"},{"name":"currency1","type":"address","internalType":"Currency"},{"name":"fee","type":"uint24","internalType":"uint24"},{"name":"tickSpacing","type":"int24","internalType":"int24"},{"name":"hooks","type":"address","internalType":"contract IHooks"}],"stateMutability":"view"},{"type":"function","name":"poolManager","inputs":[],"outputs":[{"name":"","type":"address","internalType":"contract IPoolManager"}],"stateMutability":"view"},{"type":"function","name":"positionInfo","inputs":[{"name":"tokenId","type":"uint256","internalType":"uint256"}],"outputs":[{"name":"info","type":"uint256","internalType":"PositionInfo"}],"stateMutability":"view"},{"type":"function","name":"revokeNonce","inputs":[{"name":"nonce","type":"uint256","internalType":"uint256"}],"outputs":[],"stateMutability":"payable"},{"type":"function","name":"safeTransferFrom","inputs":[{"name":"from","type":"address","internalType":"address"},{"name":"to","type":"address","internalType":"address"},{"name":"id","type":"uint256","internalType":"uint256"}],"outputs":[],"stateMutability":"nonpayable"},{"type":"function","name":"safeTransferFrom","inputs":[{"name":"from","type":"address","internalType":"address"},{"name":"to","type":"address","internalType":"address"},{"name":"id","type":"uint256","internalType":"uint256"},{"name":"data","type":"bytes","internalType":"bytes"}],"outputs":[],"stateMutability":"nonpayable"},{"type":"function","name":"setApprovalForAll","inputs":[{"name":"operator","type":"address","internalType":"address"},{"name":"approved","type":"bool","internalType":"bool"}],"outputs":[],"stateMutability":"nonpayable"},{"type":"function","name":"subscribe","inputs":[{"name":"tokenId","type":"uint256","internalType":"uint256"},{"name":"newSubscriber","type":"address","internalType":"address"},{"name":"data","type":"bytes","internalType":"bytes"}],"outputs":[],"stateMutability":"payable"},{"type":"function","name":"subscriber","inputs":[{"name":"tokenId","type":"uint256","internalType":"uint256"}],"outputs":[{"name":"subscriber","type":"address","internalType":"contract ISubscriber"}],"stateMutability":"view"},{"type":"function","name":"supportsInterface","inputs":[{"name":"interfaceId","type":"bytes4","internalType":"bytes4"}],"outputs":[{"name":"","type":"bool","internalType":"bool"}],"stateMutability":"view"},{"type":"function","name":"symbol","inputs":[],"outputs":[{"name":"","type":"string","internalType":"string"}],"stateMutability":"view"},{"type":"function","name":"tokenDescriptor","inputs":[],"outputs":[{"name":"","type":"address","internalType":"contract IPositionDescriptor"}],"stateMutability":"view"},{"type":"function","name":"tokenURI","inputs":[{"name":"tokenId","type":"uint256","internalType":"uint256"}],"outputs":[{"name":"","type":"string","internalType":"string"}],"stateMutability":"view"},{"type":"function","name":"transferFrom","inputs":[{"name":"from","type":"address","internalType":"address"},{"name":"to","type":"address","internalType":"address"},{"name":"id","type":"uint256","internalType":"uint256"}],"outputs":[],"stateMutability":"nonpayable"},{"type":"function","name":"unlockCallback","inputs":[{"name":"data","type":"bytes","internalType":"bytes"}],"outputs":[{"name":"","type":"bytes","internalType":"bytes"}],"stateMutability":"nonpayable"},{"type":"function","name":"unsubscribe","inputs":[{"name":"tokenId","type":"uint256","internalType":"uint256"}],"outputs":[],"stateMutability":"payable"},{"type":"function","name":"unsubscribeGasLimit","inputs":[],"outputs":[{"name":"","type":"uint256","internalType":"uint256"}],"stateMutability":"view"},{"type":"event","name":"Approval","inputs":[{"name":"owner","type":"address","indexed":true,"internalType":"address"},{"name":"spender","type":"address","indexed":true,"internalType":"address"},{"name":"id","type":"uint256","indexed":true,"internalType":"uint256"}],"anonymous":false},{"type":"event","name":"ApprovalForAll","inputs":[{"name":"owner","type":"address","indexed":true,"internalType":"address"},{"name":"operator","type":"address","indexed":true,"internalType":"address"},{"name":"approved","type":"bool","indexed":false,"internalType":"bool"}],"anonymous":false},{"type":"event","name":"Subscription","inputs":[{"name":"tokenId","type":"uint256","indexed":true,"internalType":"uint256"},{"name":"subscriber","type":"address","indexed":true,"internalType":"address"}],"anonymous":false},{"type":"event","name":"Transfer","inputs":[{"name":"from","type":"address","indexed":true,"internalType":"address"},{"name":"to","type":"address","indexed":true,"internalType":"address"},{"name":"id","type":"uint256","indexed":true,"internalType":"uint256"}],"anonymous":false},{"type":"event","name":"Unsubscription","inputs":[{"name":"tokenId","type":"uint256","indexed":true,"internalType":"uint256"},{"name":"subscriber","type":"address","indexed":true,"internalType":"address"}],"anonymous":false},{"type":"error","name":"AlreadySubscribed","inputs":[{"name":"tokenId","type":"uint256","internalType":"uint256"},{"name":"subscriber","type":"address","internalType":"address"}]},{"type":"error","name":"ContractLocked","inputs":[]},{"type":"error","name":"DeadlinePassed","inputs":[{"name":"deadline","type":"uint256","internalType":"uint256"}]},{"type":"error","name":"DeltaNotNegative","inputs":[{"name":"currency","type":"address","internalType":"Currency"}]},{"type":"error","name":"DeltaNotPositive","inputs":[{"name":"currency","type":"address","internalType":"Currency"}]},{"type":"error","name":"GasLimitTooLow","inputs":[]},{"type":"error","name":"InputLengthMismatch","inputs":[]},{"type":"error","name":"InvalidContractSignature","inputs":[]},{"type":"error","name":"InvalidSignature","inputs":[]},{"type":"error","name":"InvalidSignatureLength","inputs":[]},{"type":"error","name":"InvalidSigner","inputs":[]},{"type":"error","name":"MaximumAmountExceeded","inputs":[{"name":"maximumAmount","type":"uint128","internalType":"uint128"},{"name":"amountRequested","type":"uint128","internalType":"uint128"}]},{"type":"error","name":"MinimumAmountInsufficient","inputs":[{"name":"minimumAmount","type":"uint128","internalType":"uint128"},{"name":"amountReceived","type":"uint128","internalType":"uint128"}]},{"type":"error","name":"NoCodeSubscriber","inputs":[]},{"type":"error","name":"NoSelfPermit","inputs":[]},{"type":"error","name":"NonceAlreadyUsed","inputs":[]},{"type":"error","name":"NotApproved","inputs":[{"name":"caller","type":"address","internalType":"address"}]},{"type":"error","name":"NotPoolManager","inputs":[]},{"type":"error","name":"NotSubscribed","inputs":[]},{"type":"error","name":"SignatureDeadlineExpired","inputs":[]},{"type":"error","name":"Unauthorized","inputs":[]},{"type":"error","name":"UnsupportedAction","inputs":[{"name":"action","type":"uint256","internalType":"uint256"}]},{"type":"error","name":"Wrap__ModifyLiquidityNotificationReverted","inputs":[{"name":"subscriber","type":"address","internalType":"address"},{"name":"reason","type":"bytes","internalType":"bytes"}]},{"type":"error","name":"Wrap__SubscriptionReverted","inputs":[{"name":"subscriber","type":"address","internalType":"address"},{"name":"reason","type":"bytes","internalType":"bytes"}]},{"type":"error","name":"Wrap__TransferNotificationReverted","inputs":[{"name":"subscriber","type":"address","internalType":"address"},{"name":"reason","type":"bytes","internalType":"bytes"}]}],"bytecode":{"object":"0x6101606040526001600855348015610015575f80fd5b5060405161450b38038061450b8339810160408190526100349161016e565b82828580806040518060400160405280601881526020017f556e697377617020763420506f736974696f6e73204e465400000000000000008152506040518060400160405280600b81526020016a554e492d56342d504f534d60a81b815250818282815f90816100a49190610258565b5060016100b18282610258565b50508151602083012060c052504660a05261012560c051604080517f8cad95687ba82c2ce50e74f7b754645e5117c3a5bec8151c0726d5857980a8666020820152908101919091524660608201523060808201525f9060a00160405160208183030381529060405280519060200120905090565b6080525050506001600160a01b0390811660e05261010093909352505090811661012052166101405250610312915050565b6001600160a01b038116811461016b575f80fd5b50565b5f805f8060808587031215610181575f80fd5b845161018c81610157565b602086015190945061019d81610157565b6040860151606087015191945092506101b581610157565b939692955090935050565b634e487b7160e01b5f52604160045260245ffd5b600181811c908216806101e857607f821691505b60208210810361020657634e487b7160e01b5f52602260045260245ffd5b50919050565b601f82111561025357805f5260205f20601f840160051c810160208510156102315750805b601f840160051c820191505b81811015610250575f815560010161023d565b50505b505050565b81516001600160401b03811115610271576102716101c0565b6102858161027f84546101d4565b8461020c565b6020601f8211600181146102b7575f83156102a05750848201515b5f19600385901b1c1916600184901b178455610250565b5f84815260208120601f198516915b828110156102e657878501518255602094850194600190920191016102c6565b508482101561030357868401515f19600387901b60f8161c191681555b50505050600190811b01905550565b60805160a05160c05160e0516101005161012051610140516141156103f65f395f81816104e301526113b801525f8181610330015281816107f201528181610b39015261316301525f818161046701528181611dc00152611e1d01525f8181610744015281816110ff015281816114bc0152818161188f01528181611ebb0152818161271e015281816127be01528181612822015281816128de01528181612940015281816129da01528181612aec01528181612f8a01528181612ff7015281816130e7015261312b01525f610d1b01525f610cc701525f610d7501526141155ff3fe60806040526004361061021c575f3560e01c80635a9d7a681161011e578063a22cb465116100a8578063d737d0c71161006d578063d737d0c714610713578063dc4c90d314610733578063dd46508f14610766578063e985e9c514610779578063f7020405146107b2575f80fd5b8063a22cb46514610683578063ac9650d8146106a2578063ad0b27fb146106c2578063b88d4fde146106d5578063c87b56dd146106f4575f80fd5b80637ba03aad116100ee5780637ba03aad1461055857806386b6be7d1461058557806389097a6a1461062557806391dd73461461065057806395d89b411461066f575f80fd5b80635a9d7a68146104d25780636352211e1461050557806370a082311461052457806375794a3c14610543575f80fd5b80631efeed33116101aa5780633aea60f01161016f5780633aea60f01461042457806342842e0e146104375780634767565f146104565780634afe393c14610489578063502e1a161461049c575f80fd5b80631efeed331461038657806323b872dd146103bd5780632b67b570146103dc5780632b9261de146103ef5780633644e51514610402575f80fd5b8063081812fc116101f0578063081812fc146102a1578063095ea7b3146102ed5780630f5730f11461030c57806312261ee71461031f57806316a2413114610352575f80fd5b80622a3e3a1461022057806301ffc9a71461024957806305c1ee201461027857806306fdde031461028d575b5f80fd5b61023361022e366004613394565b6107d8565b604051610240919061343d565b60405180910390f35b348015610254575f80fd5b50610268610263366004613464565b610893565b6040519015158152602001610240565b61028b61028636600461347f565b6108e4565b005b348015610298575f80fd5b506102336108f1565b3480156102ac575f80fd5b506102d56102bb36600461347f565b60046020525f90815260409020546001600160a01b031681565b6040516001600160a01b039091168152602001610240565b3480156102f8575f80fd5b5061028b610307366004613496565b61097c565b61028b61031a3660046134c0565b6109f3565b34801561032a575f80fd5b506102d57f000000000000000000000000000000000000000000000000000000000000000081565b34801561035d575f80fd5b506102d561036c36600461347f565b60076020525f90815260409020546001600160a01b031681565b348015610391575f80fd5b506103a56103a036600461347f565b610abf565b6040516001600160801b039091168152602001610240565b3480156103c8575f80fd5b5061028b6103d736600461352d565b610af3565b6102336103ea36600461356b565b610b1f565b61028b6103fd3660046135bd565b610b74565b34801561040d575f80fd5b50610416610cc4565b604051908152602001610240565b61028b6104323660046135f1565b610d97565b348015610442575f80fd5b5061028b61045136600461352d565b610e4a565b348015610461575f80fd5b506104167f000000000000000000000000000000000000000000000000000000000000000081565b61028b6104973660046136b7565b610f39565b3480156104a7575f80fd5b506104166104b6366004613496565b600660209081525f928352604080842090915290825290205481565b3480156104dd575f80fd5b506102d57f000000000000000000000000000000000000000000000000000000000000000081565b348015610510575f80fd5b506102d561051f36600461347f565b610f93565b34801561052f575f80fd5b5061041661053e366004613715565b610fe9565b34801561054e575f80fd5b5061041660085481565b348015610563575f80fd5b5061057761057236600461347f565b61104a565b604051610240929190613773565b348015610590575f80fd5b506105e561059f36600461378e565b600a6020525f90815260409020805460018201546002928301546001600160a01b03928316938284169362ffffff600160a01b85041693600160b81b900490910b911685565b604080516001600160a01b039687168152948616602086015262ffffff9093169284019290925260020b606083015291909116608082015260a001610240565b348015610630575f80fd5b5061041661063f36600461347f565b60096020525f908152604090205481565b34801561065b575f80fd5b5061023361066a3660046137b5565b6110f2565b34801561067a575f80fd5b5061023361114e565b34801561068e575f80fd5b5061028b61069d3660046137f3565b61115b565b6106b56106b0366004613826565b61116a565b6040516102409190613858565b61028b6106d036600461347f565b611277565b3480156106e0575f80fd5b5061028b6106ef3660046138bb565b6112b4565b3480156106ff575f80fd5b5061023361070e36600461347f565b611399565b34801561071e575f80fd5b505f805160206140c08339815191525c6102d5565b34801561073e575f80fd5b506102d57f000000000000000000000000000000000000000000000000000000000000000081565b61028b610774366004613928565b61142b565b348015610784575f80fd5b5061026861079336600461396f565b600560209081525f928352604080842090915290825290205460ff1681565b6107c56107c03660046139a6565b6114a3565b60405160029190910b8152602001610240565b604051632a2d80d160e01b81526060906001600160a01b037f00000000000000000000000000000000000000000000000000000000000000001690632a2d80d19061082d908890889088908890600401613a7c565b5f604051808303815f87803b158015610844575f80fd5b505af1925050508015610855575060015b61088b573d808015610882576040519150601f19603f3d011682016040523d82523d5f602084013e610887565b606091505b5090505b949350505050565b5f6301ffc9a760e01b6001600160e01b0319831614806108c357506380ac58cd60e01b6001600160e01b03198316145b806108de5750635b5e139f60e01b6001600160e01b03198316145b92915050565b6108ee3382611533565b50565b5f80546108fd90613b57565b80601f016020809104026020016040519081016040528092919081815260200182805461092990613b57565b80156109745780601f1061094b57610100808354040283529160200191610974565b820191905f5260205f20905b81548152906001019060200180831161095757829003601f168201915b505050505081565b5f818152600260205260409020546001600160a01b03163381148015906109c657506001600160a01b0381165f90815260056020908152604080832033845290915290205460ff16155b156109e3576040516282b42960e81b815260040160405180910390fd5b6109ee818484611599565b505050565b8380421115610a1557604051635a9165ff60e01b815260040160405180910390fd5b5f8681526002602090815260408083205481517f49ecf333e5b8c95c40fdafc95c1ad136e8914a8fb55e9dc8bb01eaa83a2df9ad81526001600160a01b038c81169482019485529281018b8152606082018a8152608083018c815260a08420938890529587905290869052859052939092521690610a9f610a95826115f4565b8690869085611633565b610aa98287611533565b610ab4828a8a611599565b505050505050505050565b5f805f610acb8461104a565b9150915061088b8483610ae18460081c60020b90565b610aee8560201c60020b90565b611848565b610afe8383836118c0565b5f8181526009602052604090205460ff16156109ee576109ee818484611a82565b6040516302b67b5760e41b81526060906001600160a01b037f00000000000000000000000000000000000000000000000000000000000000001690632b67b5709061082d908890889088908890600401613b8f565b3384610b808282611b07565b610bad576040516301952d1b60e31b81526001600160a01b03831660048201526024015b60405180910390fd5b5f868152600760205260409020546001600160a01b03168015610bf5576040516312fdec5f60e11b8152600481018890526001600160a01b0382166024820152604401610ba4565b610bfe87611b8e565b5f8781526007602052604080822080546001600160a01b0319166001600160a01b038a1617905551610c6d908890610c3e908b908a908a90602401613be8565b60408051601f198184030181529190526020810180516001600160e01b03166346abfb5960e11b179052611bb1565b905080610c8557610c856363b23e9f60e01b88611be6565b6040516001600160a01b0388169089907f9709492381f90bdc5938bb4e3b8e35b7e0eac8af058619e27191c5a40ce79fa9905f90a35050505050505050565b5f7f00000000000000000000000000000000000000000000000000000000000000004614610d7257610d6d604080517f8cad95687ba82c2ce50e74f7b754645e5117c3a5bec8151c0726d5857980a86660208201527f0000000000000000000000000000000000000000000000000000000000000000918101919091524660608201523060808201525f9060a00160405160208183030381529060405280519060200120905090565b905090565b507f000000000000000000000000000000000000000000000000000000000000000090565b8380421115610db957604051635a9165ff60e01b815260040160405180910390fd5b604080517f6673cb397ee2a50b6b8401653d3638b4ac8b3db9c28aa6870ffceb7574ec2f7681526001600160a01b0389166020820190815260018916928201928352606082018781526080830189815260a084205f9485905292849052938390528290529152610e35610e2b826115f4565b859085908c611633565b610e3f8986611533565b610ab4898989611c19565b610e55838383610af3565b6001600160a01b0382163b1580610efa5750604051630a85bd0160e11b8082523360048301526001600160a01b03858116602484015260448301849052608060648401525f608484015290919084169063150b7a029060a4016020604051808303815f875af1158015610eca573d5f803e3d5ffd5b505050506040513d601f19601f82011682018060405250810190610eee9190613c01565b6001600160e01b031916145b6109ee5760405162461bcd60e51b815260206004820152601060248201526f155394d0519157d49150d2541251539560821b6044820152606401610ba4565b6001600160a01b035f805160206140c08339815191525c1615610f6f576040516337affdbf60e11b815260040160405180910390fd5b610f7833611c85565b610f8484848484611c98565b610f8d5f611c85565b50505050565b5f818152600260205260409020546001600160a01b031680610fe45760405162461bcd60e51b815260206004820152600a6024820152691393d517d3525395115160b21b6044820152606401610ba4565b919050565b5f6001600160a01b03821661102f5760405162461bcd60e51b815260206004820152600c60248201526b5a45524f5f4144445245535360a01b6044820152606401610ba4565b506001600160a01b03165f9081526003602052604090205490565b6040805160a080820183525f808352602080840182905283850182905260608085018390526080948501839052958252600981528482205466ffffffffffffff1981168352600a8252918590208551938401865280546001600160a01b039081168552600182015480821693860193909352600160a01b830462ffffff1696850196909652600160b81b909104600290810b9684019690965294909401549092169082015291565b6060336001600160a01b037f0000000000000000000000000000000000000000000000000000000000000000161461113d5760405163570c108560e11b815260040160405180910390fd5b6111478383611d18565b9392505050565b600180546108fd90613b57565b611166338383611c19565b5050565b6060816001600160401b0381111561118457611184613c1c565b6040519080825280602002602001820160405280156111b757816020015b60608152602001906001900390816111a25790505b5090505f5b82811015611270575f80308686858181106111d9576111d9613c30565b90506020028101906111eb9190613c44565b6040516111f9929190613c86565b5f60405180830381855af49150503d805f8114611231576040519150601f19603f3d011682016040523d82523d5f602084013e611236565b606091505b50915091508161124857805160208201fd5b8084848151811061125b5761125b613c30565b602090810291909101015250506001016111bc565b5092915050565b33816112838282611b07565b6112ab576040516301952d1b60e31b81526001600160a01b0383166004820152602401610ba4565b6109ee83611d55565b6112bf858585610af3565b6001600160a01b0384163b15806113535750604051630a85bd0160e11b808252906001600160a01b0386169063150b7a02906113079033908a90899089908990600401613c95565b6020604051808303815f875af1158015611323573d5f803e3d5ffd5b505050506040513d601f19601f820116820180604052508101906113479190613c01565b6001600160e01b031916145b6113925760405162461bcd60e51b815260206004820152601060248201526f155394d0519157d49150d2541251539560821b6044820152606401610ba4565b5050505050565b60405163e9dc637560e01b8152306004820152602481018290526060907f00000000000000000000000000000000000000000000000000000000000000006001600160a01b03169063e9dc6375906044015f60405180830381865afa158015611404573d5f803e3d5ffd5b505050506040513d5f823e601f3d908101601f191682016040526108de9190810190613d48565b6001600160a01b035f805160206140c08339815191525c1615611461576040516337affdbf60e11b815260040160405180910390fd5b61146a33611c85565b808042111561148f5760405163bfb22adf60e01b815260048101829052602401610ba4565b6114998484611ea4565b506109ee5f611c85565b60405163313b65df60e11b81525f906001600160a01b037f00000000000000000000000000000000000000000000000000000000000000001690636276cbbe906114f39086908690600401613daa565b6020604051808303815f875af115801561150f573d5f803e3d5ffd5b505050506040513d601f19601f820116820180604052508101906111479190613e3b565b6001600160a01b0382165f908152600660209081526040808320600885901c808552925282208054600160ff861690811b918218928390559293909190818316900361159157604051623f613760e71b815260040160405180910390fd5b505050505050565b5f8181526004602052604080822080546001600160a01b0319166001600160a01b0386811691821790925591518493918716917f8c5be1e5ebec7d5bd14f71427d1e84f3dd0314c0f7b2291e5b200ac8c7c3b92591a4505050565b5f806115fe610cc4565b905060405161190160f01b81528160028201528360228201526042812092505f81525f60208201525f60408201525050919050565b5f805f836001600160a01b03163b5f036117995760418690036116855761165c86880188613e56565b90935091508686604081811061167457611674613c30565b919091013560f81c91506116dc9050565b60408690036116c3575f61169b87890189613e56565b9094506001600160ff1b038116935090506116bb60ff82901c601b613e8a565b9150506116dc565b604051634be6321b60e01b815260040160405180910390fd5b604080515f8082526020820180845288905260ff841692820192909252606081018590526080810184905260019060a0016020604051602081039080840390855afa15801561172d573d5f803e3d5ffd5b5050604051601f1901519150506001600160a01b03811661176157604051638baa579f60e01b815260040160405180910390fd5b846001600160a01b0316816001600160a01b03161461179357604051632057875960e21b815260040160405180910390fd5b5061183f565b604051630b135d3f60e11b81525f906001600160a01b03861690631626ba7e906117cb9089908c908c90600401613be8565b602060405180830381865afa1580156117e6573d5f803e3d5ffd5b505050506040513d601f19601f8201168201806040525081019061180a9190613c01565b90506001600160e01b03198116630b135d3f60e11b1461183d57604051632c19a72f60e21b815260040160405180910390fd5b505b50505050505050565b60408051602681018690526006810183905260038101849052308152603a600c8201205f928201839052602082018390529082905260a085206118b6906001600160a01b037f0000000000000000000000000000000000000000000000000000000000000000169083611f34565b9695505050505050565b5f818152600260205260409020546001600160a01b038481169116146119155760405162461bcd60e51b815260206004820152600a60248201526957524f4e475f46524f4d60b01b6044820152606401610ba4565b6001600160a01b03821661195f5760405162461bcd60e51b81526020600482015260116024820152701253959053125117d49150d25412515395607a1b6044820152606401610ba4565b336001600160a01b038416148061199857506001600160a01b0383165f90815260056020908152604080832033845290915290205460ff165b806119b857505f818152600460205260409020546001600160a01b031633145b6119f55760405162461bcd60e51b815260206004820152600e60248201526d1393d517d055551213d49256915160921b6044820152606401610ba4565b6001600160a01b038084165f81815260036020908152604080832080545f19019055938616808352848320805460010190558583526002825284832080546001600160a01b03199081168317909155600490925284832080549092169091559251849392917fddf252ad1be2c89b69c2b068fc378daa952ba7f163c4a11628f55a4df523b3ef91a4505050565b5f83815260076020526040808220549051602481018690526001600160a01b03858116604483015284811660648301529091169190611aef90839060840160408051601f198184030181529190526020810180516001600160e01b031663876fda0760e01b179052611bb1565b9050806113925761139263263bc7b560e01b83611be6565b5f611b1182610f93565b6001600160a01b0316836001600160a01b03161480611b4857505f828152600460205260409020546001600160a01b038481169116145b80611147575060055f611b5a84610f93565b6001600160a01b03908116825260208083019390935260409182015f9081209187168152925290205460ff16905092915050565b5f818152600960205260409020546001175b5f9182526009602052604090912055565b5f826001600160a01b03163b5f03611bd357611bd3637c402b2160e01b611fb4565b5f808351602085015f875af19392505050565b3d60405183815282600482015260406024820152816044820152815f606483013e602080601f8401040260640191508181fd5b6001600160a01b038381165f81815260056020908152604080832094871680845294825291829020805460ff191686151590811790915591519182527f17307eab39ab6107e8899845ad3d59bd9653f200f220920489ca2b5937696c31910160405180910390a3505050565b805f805160206140c08339815191525d50565b82818114611cb95760405163aaad13f760e01b815260040160405180910390fd5b5f5b81811015611591575f868683818110611cd657611cd6613c30565b919091013560f81c9150611d0f905081868685818110611cf857611cf8613c30565b9050602002810190611d0a9190613c44565b611fbc565b50600101611cbb565b6060365f365f611d2887876121b6565b9350935093509350611d3c84848484611c98565b505060408051602081019091525f815295945050505050565b5f818152600760205260409020546001600160a01b031680611d8a5760405163046fcd8560e31b815260040160405180910390fd5b611d938261225e565b5f82815260076020526040902080546001600160a01b03191690556001600160a01b0381163b15611e6b577f00000000000000000000000000000000000000000000000000000000000000005a1015611df657611df66376a1e1d360e11b611fb4565b604051632bd1774560e21b8152600481018390526001600160a01b0382169063af45dd14907f0000000000000000000000000000000000000000000000000000000000000000906024015f604051808303815f88803b158015611e57575f80fd5b5087f193505050508015611e69575060015b505b6040516001600160a01b0382169083907fa0ebb1de82db929a9153472f37d3a66dbede4436258311ad0f52a35a2c91d150905f90a35050565b6040516348c8949160e01b81526001600160a01b037f000000000000000000000000000000000000000000000000000000000000000016906348c8949190611ef29085908590600401613ea3565b5f604051808303815f875af1158015611f0d573d5f803e3d5ffd5b505050506040513d5f823e601f3d908101601f191682016040526109ee9190810190613d48565b5f80611f408484612275565b604051631e2eaeaf60e01b8152600481018290529091506001600160a01b03861690631e2eaeaf906024015b602060405180830381865afa158015611f87573d5f803e3d5ffd5b505050506040513d601f19601f82011682018060405250810190611fab9190613eb6565b95945050505050565b805f5260045ffd5b60098310156120ad5782611ff4575f805f80365f611fda88886122c5565b955095509550955095509550610ab48686868686866122f2565b60018303612026575f805f80365f61200c88886122c5565b955095509550955095509550610ab4868686868686612375565b6002830361207a57365f805f805f80365f6120418b8b6123f9565b98509850985098509850985098509850985061206c8989898989896120658a61243a565b898961247d565b505050505050505050505050565b600383036120a8575f805f365f6120918787612557565b9450945094509450945061183d858585858561257f565b61219a565b601183036120c65781356020830135611392828261266d565b601583036120ed5781356020830135604084013561159183836120e88461243a565b612698565b6009830361211d578135602083013560408401356115918361210e836126b4565b61211885876126d4565b61270e565b6012830361214d578135602083013560408401356115918361213e8461243a565b61214884876128a1565b6128b0565b60178303612160578135610f8d81612932565b60188303612179578135602083013561139282826129a1565b6019830361219a5781356020830135611392826121958361243a565b612a22565b604051635cda29d760e01b815260048101849052602401610ba4565b365f365f604086351860608701945063ffffffff6040880135169350606063ffffffe0601f860116018060208901351882179150808801905063ffffffff8135169250602081019350508160051b805f5b8281101561223657858101358281189490941793860135601f0163ffffffe01690910160209081019101612207565b508085018989011083171561225257633b99b53d5f526004601cfd5b50505092959194509250565b5f8181526009602052604090205460ff1916611ba0565b5f8061228084612a51565b90505f61228e600683613ecd565b6040805160208101879052908101829052909150606001604051602081830303815290604052805190602001209250505092915050565b8135602083013560408401356060850135365f6122e488886004612a8d565b915091509295509295509295565b5f805160206140c08339815191525c8661230c8282611b07565b612334576040516301952d1b60e31b81526001600160a01b0383166004820152602401610ba4565b5f8061233f8a61104a565b915091505f8061235b83856123538e612acf565b8f8c8c612ae8565b9150915061206c8a8a61236e8585612bdd565b9190612c1a565b5f805160206140c08339815191525c8661238f8282611b07565b6123b7576040516301952d1b60e31b81526001600160a01b0383166004820152602401610ba4565b5f806123c28a61104a565b915091505f806123df83856123d68e612acf565b61235390613ee0565b9150915061206c8a8a6123f28585612bdd565b9190612cd4565b8160a081013560c082013560e0830135610100840135610120850135610140860135365f612429898b600b612a8d565b915091509295985092959850929598565b5f5f196001600160a01b03831601612460575f805160206140c08339815191525c6108de565b6001196001600160a01b03831601612479575030919050565b5090565b60088054600181019091556124928482612d70565b5f6124ac6124a5368d90038d018d613efa565b8b8b612e79565b5f83815260096020908152604080832084905566ffffffffffffff198416808452600a90925282206001015492935091600160b81b900460020b90036125135766ffffffffffffff1981165f908152600a602052604090208c906125108282613fb1565b50505b5f61253a838e8036038101906125299190613efa565b6125328d612acf565b878a8a612ae8565b509050612548818a8a612c1a565b50505050505050505050505050565b813560208301356040840135365f61257187876003612a8d565b915091509295509295909350565b5f805160206140c08339815191525c856125998282611b07565b6125c1576040516301952d1b60e31b81526001600160a01b0383166004820152602401610ba4565b5f806125cc8961104a565b915091505f6125f08a846125e38560081c60020b90565b610aee8660201c60020b90565b5f8b8152600960205260408120556001600160801b031690506126128a612eb1565b801561264f575f80612639848661262886612acf565b61263190613ee0565b8f8d8d612ae8565b9150915061264c8b8b6123f28585612bdd565b50505b60ff821615612661576126618a611d55565b50505050505050505050565b5f805160206140c08339815191525c61268a838261211882612f7b565b6109ee828261211885612f7b565b6126a6838261214886612fe8565b6109ee828261214885612fe8565b5f816126c057306108de565b5f805160206140c08339815191525c6108de565b5f600160ff1b83036126f9576126f2826001600160a01b031661304c565b90506108de565b82612707576126f282612f7b565b50816108de565b6001600160a01b03831661279f577f00000000000000000000000000000000000000000000000000000000000000006001600160a01b03166311da60b4826040518263ffffffff1660e01b815260040160206040518083038185885af115801561277a573d5f803e3d5ffd5b50505050506040513d601f19601f82011682018060405250810190610f8d9190613eb6565b604051632961046560e21b81526001600160a01b0384811660048301527f0000000000000000000000000000000000000000000000000000000000000000169063a5841194906024015f604051808303815f87803b1580156127ff575f80fd5b505af1158015612811573d5f803e3d5ffd5b505050506128208383836130c8565b7f00000000000000000000000000000000000000000000000000000000000000006001600160a01b03166311da60b46040518163ffffffff1660e01b81526004016020604051808303815f875af115801561287d573d5f803e3d5ffd5b505050506040513d601f19601f82011682018060405250810190610f8d9190613eb6565b5f82612707576126f282612fe8565b604051630b0d9c0960e01b81526001600160a01b0384811660048301528381166024830152604482018390527f00000000000000000000000000000000000000000000000000000000000000001690630b0d9c09906064015b5f604051808303815f87803b158015612920575f80fd5b505af115801561183f573d5f803e3d5ffd5b5f6129676001600160a01b037f0000000000000000000000000000000000000000000000000000000000000000163084613192565b90505f805160206140c08339815191525c5f82121561298e576109ee838261211885613ee0565b5f8213156109ee576109ee8382846128b0565b5f6129ab83612fe8565b9050818111612a095760405163203c2d1360e21b81526001600160a01b038481166004830152602482018390527f000000000000000000000000000000000000000000000000000000000000000016906380f0b44c90604401612909565b6109ee835f805160206140c08339815191525c836128b0565b5f612a35836001600160a01b031661304c565b905080156109ee576109ee6001600160a01b03841683836131e1565b6040515f90612a70908390600690602001918252602082015260400190565b604051602081830303815290604052805190602001209050919050565b63ffffffff600582901b8401358116840160208181019282351691829184918301018688011015612ac557633b99b53d5f526004601cfd5b5050935093915050565b805f811215610fe457610fe46393dafdf160e01b611fb4565b5f807f00000000000000000000000000000000000000000000000000000000000000006001600160a01b0316635a6bcfda886040518060800160405280612b328d60081c60020b90565b60020b8152602001612b478d60201c60020b90565b60020b81526020018a81526020018981525087876040518563ffffffff1660e01b8152600401612b7a949392919061404e565b60408051808303815f875af1158015612b95573d5f803e3d5ffd5b505050506040513d601f19601f82011682018060405250810190612bb9919061409d565b909250905060ff881615612bd257612bd2858783613277565b965096945050505050565b5f608082811d9084901d03600f83810b9085900b03611fab612bfe836132f9565b612c07836132f9565b6001600160801b031660809190911b1790565b5f612c258460801d90565b600f0b90505f612c3585600f0b90565b600f0b90505f82128015612c625750612c4d82613ee0565b6001600160801b0316846001600160801b0316105b15612c9d5783612c7183613ee0565b60405163031e30ad60e41b81526001600160801b03928316600482015291166024820152604401610ba4565b5f81128015612cc55750612cb081613ee0565b6001600160801b0316836001600160801b0316105b156113925782612c7182613ee0565b816001600160801b0316612cf3612ceb8560801d90565b600f0b613315565b6001600160801b03161015612d3c5781612d10612ceb8560801d90565b604051630940b79160e11b81526001600160801b03928316600482015291166024820152604401610ba4565b806001600160801b0316612d53612ceb85600f0b90565b6001600160801b031610156109ee5780612d10612ceb85600f0b90565b6001600160a01b038216612dba5760405162461bcd60e51b81526020600482015260116024820152701253959053125117d49150d25412515395607a1b6044820152606401610ba4565b5f818152600260205260409020546001600160a01b031615612e0f5760405162461bcd60e51b815260206004820152600e60248201526d1053149150511657d3525395115160921b6044820152606401610ba4565b6001600160a01b0382165f81815260036020908152604080832080546001019055848352600290915280822080546001600160a01b0319168417905551839291907fddf252ad1be2c89b69c2b068fc378daa952ba7f163c4a11628f55a4df523b3ef908290a45050565b5f80612e868560a0902090565b90508362ffffff1660081b8362ffffff1660201b8266ffffffffffffff191617179150509392505050565b5f818152600260205260409020546001600160a01b031680612f025760405162461bcd60e51b815260206004820152600a6024820152691393d517d3525395115160b21b6044820152606401610ba4565b6001600160a01b0381165f81815260036020908152604080832080545f190190558583526002825280832080546001600160a01b031990811690915560049092528083208054909216909155518492907fddf252ad1be2c89b69c2b068fc378daa952ba7f163c4a11628f55a4df523b3ef908390a45050565b5f80612fb16001600160a01b037f0000000000000000000000000000000000000000000000000000000000000000163085613192565b90505f811315612fdf5760405163019a8d9360e51b81526001600160a01b0384166004820152602401610ba4565b61114781613ee0565b5f8061301e6001600160a01b037f0000000000000000000000000000000000000000000000000000000000000000163085613192565b90505f8112156108de57604051634c085bf160e01b81526001600160a01b0384166004820152602401610ba4565b5f6001600160a01b038216613062575047919050565b6040516370a0823160e01b81523060048201526001600160a01b038316906370a0823190602401602060405180830381865afa1580156130a4573d5f803e3d5ffd5b505050506040513d601f19601f820116820180604052508101906108de9190613eb6565b306001600160a01b0383160361310c576109ee6001600160a01b0384167f0000000000000000000000000000000000000000000000000000000000000000836131e1565b604051631b63c28b60e11b81526001600160a01b0383811660048301527f000000000000000000000000000000000000000000000000000000000000000081166024830152828116604483015284811660648301527f000000000000000000000000000000000000000000000000000000000000000016906336c7851690608401612909565b5f806001600160a01b0384165f526001600160a01b03831660205260405f209050846001600160a01b031663f135baaa826040518263ffffffff1660e01b8152600401611f6c91815260200190565b5f6001600160a01b038416613215575f805f8085875af190508061321057613210638549db5960e01b84611be6565b610f8d565b60405163a9059cbb60e01b81526001600160a01b038416600482015282602482015260205f6044835f895af13d15601f3d1160015f511416171691505f81525f60208201525f60408201525080610f8d57610f8d632c4b17e760e21b85611be6565b5f838152600760205260408082205490516024810186905260448101859052606481018490526001600160a01b0390911691906132e290839060840160408051601f198184030181529190526020810180516001600160e01b031663d8865c2760e01b179052611bb1565b90508061139257611392622ad16d60e61b83611be6565b80600f81900b8114610fe457610fe46393dafdf160e01b611fb4565b5f8082600f0b1215612479576124796393dafdf160e01b611fb4565b6001600160a01b03811681146108ee575f80fd5b8035610fe481613331565b5f8083601f840112613360575f80fd5b5081356001600160401b03811115613376575f80fd5b60208301915083602082850101111561338d575f80fd5b9250929050565b5f805f80606085870312156133a7575f80fd5b84356133b281613331565b935060208501356001600160401b038111156133cc575f80fd5b8501606081880312156133dd575f80fd5b925060408501356001600160401b038111156133f7575f80fd5b61340387828801613350565b95989497509550505050565b5f81518084528060208401602086015e5f602082860101526020601f19601f83011685010191505092915050565b602081525f611147602083018461340f565b6001600160e01b0319811681146108ee575f80fd5b5f60208284031215613474575f80fd5b81356111478161344f565b5f6020828403121561348f575f80fd5b5035919050565b5f80604083850312156134a7575f80fd5b82356134b281613331565b946020939093013593505050565b5f805f805f8060a087890312156134d5575f80fd5b86356134e081613331565b955060208701359450604087013593506060870135925060808701356001600160401b0381111561350f575f80fd5b61351b89828a01613350565b979a9699509497509295939492505050565b5f805f6060848603121561353f575f80fd5b833561354a81613331565b9250602084013561355a81613331565b929592945050506040919091013590565b5f805f80848603610100811215613580575f80fd5b853561358b81613331565b945060c0601f198201121561359e575f80fd5b5060208501925060e08501356001600160401b038111156133f7575f80fd5b5f805f80606085870312156135d0575f80fd5b8435935060208501356133dd81613331565b80358015158114610fe4575f80fd5b5f805f805f805f60c0888a031215613607575f80fd5b873561361281613331565b9650602088013561362281613331565b9550613630604089016135e2565b9450606088013593506080880135925060a08801356001600160401b03811115613658575f80fd5b6136648a828b01613350565b989b979a50959850939692959293505050565b5f8083601f840112613687575f80fd5b5081356001600160401b0381111561369d575f80fd5b6020830191508360208260051b850101111561338d575f80fd5b5f805f80604085870312156136ca575f80fd5b84356001600160401b038111156136df575f80fd5b6136eb87828801613350565b90955093505060208501356001600160401b03811115613709575f80fd5b61340387828801613677565b5f60208284031215613725575f80fd5b813561114781613331565b80516001600160a01b03908116835260208083015182169084015260408083015162ffffff169084015260608083015160020b9084015260809182015116910152565b60c081016137818285613730565b8260a08301529392505050565b5f6020828403121561379e575f80fd5b813566ffffffffffffff1981168114611147575f80fd5b5f80602083850312156137c6575f80fd5b82356001600160401b038111156137db575f80fd5b6137e785828601613350565b90969095509350505050565b5f8060408385031215613804575f80fd5b823561380f81613331565b915061381d602084016135e2565b90509250929050565b5f8060208385031215613837575f80fd5b82356001600160401b0381111561384c575f80fd5b6137e785828601613677565b5f602082016020835280845180835260408501915060408160051b8601019250602086015f5b828110156138af57603f1987860301845261389a85835161340f565b9450602093840193919091019060010161387e565b50929695505050505050565b5f805f805f608086880312156138cf575f80fd5b85356138da81613331565b945060208601356138ea81613331565b93506040860135925060608601356001600160401b0381111561390b575f80fd5b61391788828901613350565b969995985093965092949392505050565b5f805f6040848603121561393a575f80fd5b83356001600160401b0381111561394f575f80fd5b61395b86828701613350565b909790965060209590950135949350505050565b5f8060408385031215613980575f80fd5b823561398b81613331565b9150602083013561399b81613331565b809150509250929050565b5f8082840360c08112156139b8575f80fd5b60a08112156139c5575f80fd5b5082915060a083013561399b81613331565b803565ffffffffffff81168114610fe4575f80fd5b80356139f781613331565b6001600160a01b031682526020810135613a1081613331565b6001600160a01b0316602083015265ffffffffffff613a31604083016139d7565b16604083015265ffffffffffff613a4a606083016139d7565b1660608301525050565b81835281816020850137505f828201602090810191909152601f909101601f19169091010190565b6001600160a01b0385168152606060208201525f60c08201853536879003601e19018112613aa8575f80fd5b86016020810190356001600160401b03811115613ac3575f80fd5b8060071b3603821315613ad4575f80fd5b60608581015291829052905f9060e085015b81831015613b0b57613af881856139ec565b6080938401936001939093019201613ae6565b613b1760208a01613345565b6001600160a01b0316608087015260408981013560a08801819052878303918801919091529350613b4981888a613a54565b9a9950505050505050505050565b600181811c90821680613b6b57607f821691505b602082108103613b8957634e487b7160e01b5f52602260045260245ffd5b50919050565b6001600160a01b0385168152613ba860208201856139ec565b5f6080850135613bb781613331565b6001600160a01b031660a08381019190915285013560c083015261010060e083018190526118b69083018486613a54565b838152604060208201525f611fab604083018486613a54565b5f60208284031215613c11575f80fd5b81516111478161344f565b634e487b7160e01b5f52604160045260245ffd5b634e487b7160e01b5f52603260045260245ffd5b5f808335601e19843603018112613c59575f80fd5b8301803591506001600160401b03821115613c72575f80fd5b60200191503681900382131561338d575f80fd5b818382375f9101908152919050565b6001600160a01b03868116825285166020820152604081018490526080606082018190525f90613cc89083018486613a54565b979650505050505050565b5f806001600160401b03841115613cec57613cec613c1c565b50604051601f19601f85018116603f011681018181106001600160401b0382111715613d1a57613d1a613c1c565b604052838152905080828401851015613d31575f80fd5b8383602083015e5f60208583010152509392505050565b5f60208284031215613d58575f80fd5b81516001600160401b03811115613d6d575f80fd5b8201601f81018413613d7d575f80fd5b61088b84825160208401613cd3565b62ffffff811681146108ee575f80fd5b8060020b81146108ee575f80fd5b60c081018335613db981613331565b6001600160a01b031682526020840135613dd281613331565b6001600160a01b031660208301526040840135613dee81613d8c565b62ffffff1660408301526060840135613e0681613d9c565b60020b60608301526080840135613e1c81613331565b6001600160a01b0390811660808401529290921660a090910152919050565b5f60208284031215613e4b575f80fd5b815161114781613d9c565b5f8060408385031215613e67575f80fd5b50508035926020909101359150565b634e487b7160e01b5f52601160045260245ffd5b60ff81811683821601908111156108de576108de613e76565b602081525f61088b602083018486613a54565b5f60208284031215613ec6575f80fd5b5051919050565b808201808211156108de576108de613e76565b5f600160ff1b8201613ef457613ef4613e76565b505f0390565b5f60a0828403128015613f0b575f80fd5b5060405160a081016001600160401b0381118282101715613f2e57613f2e613c1c565b6040528235613f3c81613331565b81526020830135613f4c81613331565b60208201526040830135613f5f81613d8c565b60408201526060830135613f7281613d9c565b60608201526080830135613f8581613331565b60808201529392505050565b80546001600160a01b0319166001600160a01b0392909216919091179055565b8135613fbc81613331565b613fc68183613f91565b50600181016020830135613fd981613331565b613fe38183613f91565b506040830135613ff281613d8c565b8154606085013561400281613d9c565b8060b81b62ffffff60b81b1662ffffff60a01b8460a01b1665ffffffffffff60a01b19841617178455505050505f608083013561403e81613331565b809150610f8d8160028501613f91565b6140588186613730565b835160020b60a0820152602084015160020b60c0820152604084015160e082015260608401516101008201526101406101208201525f6118b661014083018486613a54565b5f80604083850312156140ae575f80fd5b50508051602090910151909290915056fe0aedd6bde10e3aa2adec092b02a3e3e805795516cda41f27aa145b8f300af87aa26469706673582212206d7c302dfbb8b17de83dba75bf811fb6c91526fa79f5a3e438b308d6e17ef05464736f6c634300081a0033","linkReferences":{}},"methodIdentifiers":{"DOMAIN_SEPARATOR()":"3644e515","approve(address,uint256)":"095ea7b3","balanceOf(address)":"70a08231","getApproved(uint256)":"081812fc","getPoolAndPositionInfo(uint256)":"7ba03aad","getPositionLiquidity(uint256)":"1efeed33","initializePool((address,address,uint24,int24,address),uint160)":"f7020405","isApprovedForAll(address,address)":"e985e9c5","modifyLiquidities(bytes,uint256)":"dd46508f","modifyLiquiditiesWithoutUnlock(bytes,bytes[])":"4afe393c","msgSender()":"d737d0c7","multicall(bytes[])":"ac9650d8","name()":"06fdde03","nextTokenId()":"75794a3c","nonces(address,uint256)":"502e1a16","ownerOf(uint256)":"6352211e","permit(address,((address,uint160,uint48,uint48),address,uint256),bytes)":"2b67b570","permit(address,uint256,uint256,uint256,bytes)":"0f5730f1","permit2()":"12261ee7","permitBatch(address,((address,uint160,uint48,uint48)[],address,uint256),bytes)":"002a3e3a","permitForAll(address,address,bool,uint256,uint256,bytes)":"3aea60f0","poolKeys(bytes25)":"86b6be7d","poolManager()":"dc4c90d3","positionInfo(uint256)":"89097a6a","revokeNonce(uint256)":"05c1ee20","safeTransferFrom(address,address,uint256)":"42842e0e","safeTransferFrom(address,address,uint256,bytes)":"b88d4fde","setApprovalForAll(address,bool)":"a22cb465","subscribe(uint256,address,bytes)":"2b9261de","subscriber(uint256)":"16a24131","supportsInterface(bytes4)":"01ffc9a7","symbol()":"95d89b41","tokenDescriptor()":"5a9d7a68","tokenURI(uint256)":"c87b56dd","transferFrom(address,address,uint256)":"23b872dd","unlockCallback(bytes)":"91dd7346","unsubscribe(uint256)":"ad0b27fb","unsubscribeGasLimit()":"4767565f"},"id":97}