{"abi":[{"type":"constructor","inputs":[{"name":"_manager","type":"address","internalType":"contract IPoolManager"}],"stateMutability":"nonpayable"},{"type":"function","name":"manager","inputs":[],"outputs":[{"name":"","type":"address","internalType":"contract IPoolManager"}],"stateMutability":"view"},{"type":"function","name":"take","inputs":[{"name":"key","type":"tuple","internalType":"struct PoolKey","components":[{"name":"currency0","type":"address","internalType":"Currency"},{"name":"currency1","type":"address","internalType":"Currency"},{"name":"fee","type":"uint24","internalType":"uint24"},{"name":"tickSpacing","type":"int24","internalType":"int24"},{"name":"hooks","type":"address","internalType":"contract IHooks"}]},{"name":"amount0","type":"uint256","internalType":"uint256"},{"name":"amount1","type":"uint256","internalType":"uint256"}],"outputs":[],"stateMutability":"payable"},{"type":"function","name":"unlockCallback","inputs":[{"name":"rawData","type":"bytes","internalType":"bytes"}],"outputs":[{"name":"","type":"bytes","internalType":"bytes"}],"stateMutability":"nonpayable"}],"bytecode":{"object":"0x60a060405234801561000f575f5ffd5b50604051610f02380380610f0283398101604081905261002e9161003f565b6001600160a01b031660805261006c565b5f6020828403121561004f575f5ffd5b81516001600160a01b0381168114610065575f5ffd5b9392505050565b608051610e556100ad5f395f8181605d01528181610149015281816101f601528181610310015281816104f50152818161054e01526105810152610e555ff3fe608060405260043610610033575f3560e01c8063055419b614610037578063481c6a751461004c57806391dd73461461009c575b5f5ffd5b61004a610045366004610bb3565b6100c8565b005b348015610057575f5ffd5b5061007f7f000000000000000000000000000000000000000000000000000000000000000081565b6040516001600160a01b0390911681526020015b60405180910390f35b3480156100a7575f5ffd5b506100bb6100b6366004610be4565b6101e9565b6040516100939190610c52565b60408051608080820183523380835260208084018881528486018881526060958601888152875180850195909552915180516001600160a01b03908116868a0152938101518416858801529687015162ffffff16848601529486015160020b60a08401529490920151821660c0820152915160e083015291516101008201527f0000000000000000000000000000000000000000000000000000000000000000909116906348c8949190610120016040516020818303038152906040526040518263ffffffff1660e01b81526004016101a19190610c52565b5f604051808303815f875af11580156101bc573d5f5f3e3d5ffd5b505050506040513d5f823e601f3d908101601f191682016040526101e39190810190610c87565b50505050565b6060336001600160a01b037f0000000000000000000000000000000000000000000000000000000000000000161461021f575f5ffd5b5f61022c83850185610d1b565b6040810151909150156102515760208101515181516040830151610251929190610299565b60608101511561027557610275816020015160200151825f01518360600151610299565b604080515f6020820152016040516020818303038152906040529150505b92915050565b5f5f5f6102a7868630610527565b925092509250805f146103015760405162461bcd60e51b815260206004820152601d60248201527f64656c74614265666f7265206973206e6f7420657175616c20746f203000000060448201526064015b60405180910390fd5b6103376001600160a01b0387167f000000000000000000000000000000000000000000000000000000000000000087875f6105b3565b5f5f5f610345898930610527565b925092509250610354876106af565b61035d90610da2565b600f0b81146103c45760405162461bcd60e51b815260206004820152602d60248201527f64656c74614166746572206973206e6f7420657175616c20746f202d616d6f7560448201526c6e742e746f496e74313238282960981b60648201526084016102f8565b866103cf8785610dcf565b146104575760405162461bcd60e51b815260206004820152604c60248201527f74686520646966666572656e6365206265747765656e207573657242616c416660448201527f74657220616e64207573657242616c4265666f7265206973206e6f742065717560648201526b185b081d1bc8185b5bdd5b9d60a21b608482015260a4016102f8565b866104628387610dcf565b146104e65760405162461bcd60e51b815260206004820152604860248201527f74686520646966666572656e6365206265747765656e20706d42616c4265666f60448201527f726520616e6420706d42616c4166746572206973206e6f7420657175616c20746064820152671bc8185b5bdd5b9d60c21b608482015260a4016102f8565b61051c6001600160a01b038a167f00000000000000000000000000000000000000000000000000000000000000008a8a5f6106cf565b505050505050505050565b5f808061053d6001600160a01b0387168661096c565b92506105726001600160a01b0387167f000000000000000000000000000000000000000000000000000000000000000061096c565b91506105a86001600160a01b037f00000000000000000000000000000000000000000000000000000000000000001685886109fb565b905093509350939050565b8061062357604051630b0d9c0960e01b81526001600160a01b038681166004830152848116602483015260448201849052851690630b0d9c09906064015b5f604051808303815f87803b158015610608575f5ffd5b505af115801561061a573d5f5f3e3d5ffd5b505050506106a8565b836001600160a01b031663156e29f68461064c886001600160a01b03166001600160a01b031690565b6040516001600160e01b031960e085901b1681526001600160a01b0390921660048301526024820152604481018590526064015f604051808303815f87803b158015610696575f5ffd5b505af115801561051c573d5f5f3e3d5ffd5b5050505050565b5f6001607f1b82106106cb576106cb6393dafdf160e01b610a92565b5090565b801561073657836001600160a01b031663f5298aca846106fe886001600160a01b03166001600160a01b031690565b6040516001600160e01b031960e085901b1681526001600160a01b0390921660048301526024820152604481018590526064016105f1565b6001600160a01b0385166107ad57836001600160a01b03166311da60b4836040518263ffffffff1660e01b815260040160206040518083038185885af1158015610782573d5f5f3e3d5ffd5b50505050506040513d601f19601f820116820180604052508101906107a79190610de2565b506106a8565b604051632961046560e21b81526001600160a01b03868116600483015285169063a5841194906024015f604051808303815f87803b1580156107ed575f5ffd5b505af11580156107ff573d5f5f3e3d5ffd5b505050506001600160a01b0383163014610891576040516323b872dd60e01b81526001600160a01b0384811660048301528581166024830152604482018490528616906323b872dd906064016020604051808303815f875af1158015610867573d5f5f3e3d5ffd5b505050506040513d601f19601f8201168201806040525081019061088b9190610df9565b50610903565b60405163a9059cbb60e01b81526001600160a01b0385811660048301526024820184905286169063a9059cbb906044016020604051808303815f875af11580156108dd573d5f5f3e3d5ffd5b505050506040513d601f19601f820116820180604052508101906109019190610df9565b505b836001600160a01b03166311da60b46040518163ffffffff1660e01b81526004016020604051808303815f875af1158015610940573d5f5f3e3d5ffd5b505050506040513d601f19601f820116820180604052508101906109649190610de2565b505050505050565b5f6001600160a01b03831661098c57506001600160a01b03811631610293565b6040516370a0823160e01b81526001600160a01b0383811660048301528416906370a0823190602401602060405180830381865afa1580156109d0573d5f5f3e3d5ffd5b505050506040513d601f19601f820116820180604052508101906109f49190610de2565b9050610293565b5f5f6001600160a01b0384165f526001600160a01b03831660205260405f209050846001600160a01b031663f135baaa826040518263ffffffff1660e01b8152600401610a4a91815260200190565b602060405180830381865afa158015610a65573d5f5f3e3d5ffd5b505050506040513d601f19601f82011682018060405250810190610a899190610de2565b95945050505050565b805f5260045ffd5b634e487b7160e01b5f52604160045260245ffd5b60405160a0810167ffffffffffffffff81118282101715610ad157610ad1610a9a565b60405290565b604051601f8201601f1916810167ffffffffffffffff81118282101715610b0057610b00610a9a565b604052919050565b6001600160a01b0381168114610b1c575f5ffd5b50565b8035610b2a81610b08565b919050565b5f60a08284031215610b3f575f5ffd5b610b47610aae565b90508135610b5481610b08565b81526020820135610b6481610b08565b6020820152604082013562ffffff81168114610b7e575f5ffd5b60408201526060820135600281900b8114610b97575f5ffd5b6060820152610ba860808301610b1f565b608082015292915050565b5f5f5f60e08486031215610bc5575f5ffd5b610bcf8585610b2f565b9560a0850135955060c0909401359392505050565b5f5f60208385031215610bf5575f5ffd5b823567ffffffffffffffff811115610c0b575f5ffd5b8301601f81018513610c1b575f5ffd5b803567ffffffffffffffff811115610c31575f5ffd5b856020828401011115610c42575f5ffd5b6020919091019590945092505050565b602081525f82518060208401528060208501604085015e5f604082850101526040601f19601f83011684010191505092915050565b5f60208284031215610c97575f5ffd5b815167ffffffffffffffff811115610cad575f5ffd5b8201601f81018413610cbd575f5ffd5b805167ffffffffffffffff811115610cd757610cd7610a9a565b610cea601f8201601f1916602001610ad7565b818152856020838501011115610cfe575f5ffd5b8160208401602083015e5f91810160200191909152949350505050565b5f610100828403128015610d2d575f5ffd5b506040516080810167ffffffffffffffff81118282101715610d5157610d51610a9a565b6040528235610d5f81610b08565b8152610d6e8460208501610b2f565b602082015260c0830135604082015260e090920135606083015250919050565b634e487b7160e01b5f52601160045260245ffd5b5f81600f0b6f7fffffffffffffffffffffffffffffff198103610dc757610dc7610d8e565b5f0392915050565b8181038181111561029357610293610d8e565b5f60208284031215610df2575f5ffd5b5051919050565b5f60208284031215610e09575f5ffd5b81518015158114610e18575f5ffd5b939250505056fea26469706673582212203c09e19f0d1687532524216c9e745fde7ddc1f2806465b5a166b0a929604cd1764736f6c634300081c0033","linkReferences":{}},"methodIdentifiers":{"manager()":"481c6a75","take((address,address,uint24,int24,address),uint256,uint256)":"055419b6","unlockCallback(bytes)":"91dd7346"},"id":93}