{
  "_format": "hh-sol-artifact-1",
  "contractName": "DiscountNFT",
  "sourceName": "contracts/DiscountNFT.sol",
  "abi": [
    {
      "inputs": [],
      "stateMutability": "nonpayable",
      "type": "constructor"
    },
    {
      "inputs": [
        {
          "internalType": "address",
          "name": "sender",
          "type": "address"
        },
        {
          "internalType": "uint256",
          "name": "tokenId",
          "type": "uint256"
        },
        {
          "internalType": "address",
          "name": "owner",
          "type": "address"
        }
      ],
      "name": "ERC721IncorrectOwner",
      "type": "error"
    },
    {
      "inputs": [
        {
          "internalType": "address",
          "name": "operator",
          "type": "address"
        },
        {
          "internalType": "uint256",
          "name": "tokenId",
          "type": "uint256"
        }
      ],
      "name": "ERC721InsufficientApproval",
      "type": "error"
    },
    {
      "inputs": [
        {
          "internalType": "address",
          "name": "approver",
          "type": "address"
        }
      ],
      "name": "ERC721InvalidApprover",
      "type": "error"
    },
    {
      "inputs": [
        {
          "internalType": "address",
          "name": "operator",
          "type": "address"
        }
      ],
      "name": "ERC721InvalidOperator",
      "type": "error"
    },
    {
      "inputs": [
        {
          "internalType": "address",
          "name": "owner",
          "type": "address"
        }
      ],
      "name": "ERC721InvalidOwner",
      "type": "error"
    },
    {
      "inputs": [
        {
          "internalType": "address",
          "name": "receiver",
          "type": "address"
        }
      ],
      "name": "ERC721InvalidReceiver",
      "type": "error"
    },
    {
      "inputs": [
        {
          "internalType": "address",
          "name": "sender",
          "type": "address"
        }
      ],
      "name": "ERC721InvalidSender",
      "type": "error"
    },
    {
      "inputs": [
        {
          "internalType": "uint256",
          "name": "tokenId",
          "type": "uint256"
        }
      ],
      "name": "ERC721NonexistentToken",
      "type": "error"
    },
    {
      "inputs": [
        {
          "internalType": "address",
          "name": "owner",
          "type": "address"
        }
      ],
      "name": "OwnableInvalidOwner",
      "type": "error"
    },
    {
      "inputs": [
        {
          "internalType": "address",
          "name": "account",
          "type": "address"
        }
      ],
      "name": "OwnableUnauthorizedAccount",
      "type": "error"
    },
    {
      "anonymous": false,
      "inputs": [
        {
          "indexed": true,
          "internalType": "address",
          "name": "owner",
          "type": "address"
        },
        {
          "indexed": true,
          "internalType": "address",
          "name": "approved",
          "type": "address"
        },
        {
          "indexed": true,
          "internalType": "uint256",
          "name": "tokenId",
          "type": "uint256"
        }
      ],
      "name": "Approval",
      "type": "event"
    },
    {
      "anonymous": false,
      "inputs": [
        {
          "indexed": true,
          "internalType": "address",
          "name": "owner",
          "type": "address"
        },
        {
          "indexed": true,
          "internalType": "address",
          "name": "operator",
          "type": "address"
        },
        {
          "indexed": false,
          "internalType": "bool",
          "name": "approved",
          "type": "bool"
        }
      ],
      "name": "ApprovalForAll",
      "type": "event"
    },
    {
      "anonymous": false,
      "inputs": [
        {
          "indexed": true,
          "internalType": "address",
          "name": "previousOwner",
          "type": "address"
        },
        {
          "indexed": true,
          "internalType": "address",
          "name": "newOwner",
          "type": "address"
        }
      ],
      "name": "OwnershipTransferred",
      "type": "event"
    },
    {
      "anonymous": false,
      "inputs": [
        {
          "indexed": true,
          "internalType": "address",
          "name": "from",
          "type": "address"
        },
        {
          "indexed": true,
          "internalType": "address",
          "name": "to",
          "type": "address"
        },
        {
          "indexed": true,
          "internalType": "uint256",
          "name": "tokenId",
          "type": "uint256"
        }
      ],
      "name": "Transfer",
      "type": "event"
    },
    {
      "inputs": [
        {
          "internalType": "address",
          "name": "to",
          "type": "address"
        },
        {
          "internalType": "uint256",
          "name": "tokenId",
          "type": "uint256"
        }
      ],
      "name": "approve",
      "outputs": [],
      "stateMutability": "nonpayable",
      "type": "function"
    },
    {
      "inputs": [
        {
          "internalType": "address",
          "name": "owner",
          "type": "address"
        }
      ],
      "name": "balanceOf",
      "outputs": [
        {
          "internalType": "uint256",
          "name": "",
          "type": "uint256"
        }
      ],
      "stateMutability": "view",
      "type": "function"
    },
    {
      "inputs": [
        {
          "internalType": "uint256",
          "name": "tokenId",
          "type": "uint256"
        }
      ],
      "name": "getApproved",
      "outputs": [
        {
          "internalType": "address",
          "name": "",
          "type": "address"
        }
      ],
      "stateMutability": "view",
      "type": "function"
    },
    {
      "inputs": [
        {
          "internalType": "uint256",
          "name": "tokenId",
          "type": "uint256"
        }
      ],
      "name": "getDiscount",
      "outputs": [
        {
          "internalType": "uint8",
          "name": "",
          "type": "uint8"
        }
      ],
      "stateMutability": "view",
      "type": "function"
    },
    {
      "inputs": [
        {
          "internalType": "address",
          "name": "user",
          "type": "address"
        }
      ],
      "name": "getUserFirstToken",
      "outputs": [
        {
          "internalType": "uint256",
          "name": "",
          "type": "uint256"
        }
      ],
      "stateMutability": "view",
      "type": "function"
    },
    {
      "inputs": [
        {
          "internalType": "address",
          "name": "owner",
          "type": "address"
        },
        {
          "internalType": "address",
          "name": "operator",
          "type": "address"
        }
      ],
      "name": "isApprovedForAll",
      "outputs": [
        {
          "internalType": "bool",
          "name": "",
          "type": "bool"
        }
      ],
      "stateMutability": "view",
      "type": "function"
    },
    {
      "inputs": [
        {
          "internalType": "address",
          "name": "to",
          "type": "address"
        },
        {
          "internalType": "uint8",
          "name": "discount",
          "type": "uint8"
        }
      ],
      "name": "mint",
      "outputs": [],
      "stateMutability": "nonpayable",
      "type": "function"
    },
    {
      "inputs": [],
      "name": "name",
      "outputs": [
        {
          "internalType": "string",
          "name": "",
          "type": "string"
        }
      ],
      "stateMutability": "view",
      "type": "function"
    },
    {
      "inputs": [],
      "name": "owner",
      "outputs": [
        {
          "internalType": "address",
          "name": "",
          "type": "address"
        }
      ],
      "stateMutability": "view",
      "type": "function"
    },
    {
      "inputs": [
        {
          "internalType": "uint256",
          "name": "tokenId",
          "type": "uint256"
        }
      ],
      "name": "ownerOf",
      "outputs": [
        {
          "internalType": "address",
          "name": "",
          "type": "address"
        }
      ],
      "stateMutability": "view",
      "type": "function"
    },
    {
      "inputs": [],
      "name": "renounceOwnership",
      "outputs": [],
      "stateMutability": "nonpayable",
      "type": "function"
    },
    {
      "inputs": [
        {
          "internalType": "address",
          "name": "from",
          "type": "address"
        },
        {
          "internalType": "address",
          "name": "to",
          "type": "address"
        },
        {
          "internalType": "uint256",
          "name": "tokenId",
          "type": "uint256"
        }
      ],
      "name": "safeTransferFrom",
      "outputs": [],
      "stateMutability": "nonpayable",
      "type": "function"
    },
    {
      "inputs": [
        {
          "internalType": "address",
          "name": "from",
          "type": "address"
        },
        {
          "internalType": "address",
          "name": "to",
          "type": "address"
        },
        {
          "internalType": "uint256",
          "name": "tokenId",
          "type": "uint256"
        },
        {
          "internalType": "bytes",
          "name": "data",
          "type": "bytes"
        }
      ],
      "name": "safeTransferFrom",
      "outputs": [],
      "stateMutability": "nonpayable",
      "type": "function"
    },
    {
      "inputs": [
        {
          "internalType": "address",
          "name": "operator",
          "type": "address"
        },
        {
          "internalType": "bool",
          "name": "approved",
          "type": "bool"
        }
      ],
      "name": "setApprovalForAll",
      "outputs": [],
      "stateMutability": "nonpayable",
      "type": "function"
    },
    {
      "inputs": [
        {
          "internalType": "bytes4",
          "name": "interfaceId",
          "type": "bytes4"
        }
      ],
      "name": "supportsInterface",
      "outputs": [
        {
          "internalType": "bool",
          "name": "",
          "type": "bool"
        }
      ],
      "stateMutability": "view",
      "type": "function"
    },
    {
      "inputs": [],
      "name": "symbol",
      "outputs": [
        {
          "internalType": "string",
          "name": "",
          "type": "string"
        }
      ],
      "stateMutability": "view",
      "type": "function"
    },
    {
      "inputs": [
        {
          "internalType": "uint256",
          "name": "",
          "type": "uint256"
        }
      ],
      "name": "tokenMetadata",
      "outputs": [
        {
          "internalType": "uint8",
          "name": "discount",
          "type": "uint8"
        }
      ],
      "stateMutability": "view",
      "type": "function"
    },
    {
      "inputs": [
        {
          "internalType": "uint256",
          "name": "tokenId",
          "type": "uint256"
        }
      ],
      "name": "tokenURI",
      "outputs": [
        {
          "internalType": "string",
          "name": "",
          "type": "string"
        }
      ],
      "stateMutability": "view",
      "type": "function"
    },
    {
      "inputs": [
        {
          "internalType": "address",
          "name": "from",
          "type": "address"
        },
        {
          "internalType": "address",
          "name": "to",
          "type": "address"
        },
        {
          "internalType": "uint256",
          "name": "tokenId",
          "type": "uint256"
        }
      ],
      "name": "transferFrom",
      "outputs": [],
      "stateMutability": "nonpayable",
      "type": "function"
    },
    {
      "inputs": [
        {
          "internalType": "address",
          "name": "newOwner",
          "type": "address"
        }
      ],
      "name": "transferOwnership",
      "outputs": [],
      "stateMutability": "nonpayable",
      "type": "function"
    }
  ],
  "bytecode": "0x60806040523480156200001157600080fd5b50336040518060400160405280600b81526020017f446973636f756e744e46540000000000000000000000000000000000000000008152506040518060400160405280600481526020017f444e465400000000000000000000000000000000000000000000000000000000815250816000908162000090919062000472565b508060019081620000a2919062000472565b505050600073ffffffffffffffffffffffffffffffffffffffff168173ffffffffffffffffffffffffffffffffffffffff16036200011a5760006040517f1e4fbdf70000000000000000000000000000000000000000000000000000000081526004016200011191906200059e565b60405180910390fd5b6200012b816200013260201b60201c565b50620005bb565b6000600660009054906101000a900473ffffffffffffffffffffffffffffffffffffffff16905081600660006101000a81548173ffffffffffffffffffffffffffffffffffffffff021916908373ffffffffffffffffffffffffffffffffffffffff1602179055508173ffffffffffffffffffffffffffffffffffffffff168173ffffffffffffffffffffffffffffffffffffffff167f8be0079c531659141344cd1fd0a4f28419497f9722a3daafe3b4186f6b6457e060405160405180910390a35050565b600081519050919050565b7f4e487b7100000000000000000000000000000000000000000000000000000000600052604160045260246000fd5b7f4e487b7100000000000000000000000000000000000000000000000000000000600052602260045260246000fd5b600060028204905060018216806200027a57607f821691505b60208210810362000290576200028f62000232565b5b50919050565b60008190508160005260206000209050919050565b60006020601f8301049050919050565b600082821b905092915050565b600060088302620002fa7fffffffffffffffffffffffffffffffffffffffffffffffffffffffffffffffff82620002bb565b620003068683620002bb565b95508019841693508086168417925050509392505050565b6000819050919050565b6000819050919050565b6000620003536200034d62000347846200031e565b62000328565b6200031e565b9050919050565b6000819050919050565b6200036f8362000332565b620003876200037e826200035a565b848454620002c8565b825550505050565b600090565b6200039e6200038f565b620003ab81848462000364565b505050565b5b81811015620003d357620003c760008262000394565b600181019050620003b1565b5050565b601f8211156200042257620003ec8162000296565b620003f784620002ab565b8101602085101562000407578190505b6200041f6200041685620002ab565b830182620003b0565b50505b505050565b600082821c905092915050565b6000620004476000198460080262000427565b1980831691505092915050565b600062000462838362000434565b9150826002028217905092915050565b6200047d82620001f8565b67ffffffffffffffff81111562000499576200049862000203565b5b620004a5825462000261565b620004b2828285620003d7565b600060209050601f831160018114620004ea5760008415620004d5578287015190505b620004e1858262000454565b86555062000551565b601f198416620004fa8662000296565b60005b828110156200052457848901518255600182019150602085019450602081019050620004fd565b8683101562000544578489015162000540601f89168262000434565b8355505b6001600288020188555050505b505050505050565b600073ffffffffffffffffffffffffffffffffffffffff82169050919050565b6000620005868262000559565b9050919050565b620005988162000579565b82525050565b6000602082019050620005b560008301846200058d565b92915050565b6128eb80620005cb6000396000f3fe608060405234801561001057600080fd5b506004361061012c5760003560e01c806370a08231116100ad578063b2ecc8b411610071578063b2ecc8b414610341578063b88d4fde14610371578063c87b56dd1461038d578063e985e9c5146103bd578063f2fde38b146103ed5761012c565b806370a08231146102af578063715018a6146102df5780638da5cb5b146102e957806395d89b4114610307578063a22cb465146103255761012c565b806323b872dd116100f457806323b872dd146101fb57806342842e0e146102175780636352211e146102335780636914db6014610263578063691562a0146102935761012c565b806301ffc9a71461013157806306fdde0314610161578063081812fc1461017f578063095ea7b3146101af5780632336dbe4146101cb575b600080fd5b61014b60048036038101906101469190611e1f565b610409565b6040516101589190611e67565b60405180910390f35b6101696104eb565b6040516101769190611f12565b60405180910390f35b61019960048036038101906101949190611f6a565b61057d565b6040516101a69190611fd8565b60405180910390f35b6101c960048036038101906101c4919061201f565b610599565b005b6101e560048036038101906101e09190611f6a565b6105af565b6040516101f2919061207b565b60405180910390f35b61021560048036038101906102109190612096565b610624565b005b610231600480360381019061022c9190612096565b610726565b005b61024d60048036038101906102489190611f6a565b610746565b60405161025a9190611fd8565b60405180910390f35b61027d60048036038101906102789190611f6a565b610758565b60405161028a919061207b565b60405180910390f35b6102ad60048036038101906102a89190612115565b610783565b005b6102c960048036038101906102c49190612155565b6108ab565b6040516102d69190612191565b60405180910390f35b6102e7610965565b005b6102f1610979565b6040516102fe9190611fd8565b60405180910390f35b61030f6109a3565b60405161031c9190611f12565b60405180910390f35b61033f600480360381019061033a91906121d8565b610a35565b005b61035b60048036038101906103569190612155565b610a4b565b6040516103689190612191565b60405180910390f35b61038b6004803603810190610386919061234d565b610b35565b005b6103a760048036038101906103a29190611f6a565b610b5a565b6040516103b49190611f12565b60405180910390f35b6103d760048036038101906103d291906123d0565b610bc3565b6040516103e49190611e67565b60405180910390f35b61040760048036038101906104029190612155565b610c57565b005b60007f80ac58cd000000000000000000000000000000000000000000000000000000007bffffffffffffffffffffffffffffffffffffffffffffffffffffffff1916827bffffffffffffffffffffffffffffffffffffffffffffffffffffffff191614806104d457507f5b5e139f000000000000000000000000000000000000000000000000000000007bffffffffffffffffffffffffffffffffffffffffffffffffffffffff1916827bffffffffffffffffffffffffffffffffffffffffffffffffffffffff1916145b806104e457506104e382610cdd565b5b9050919050565b6060600080546104fa9061243f565b80601f01602080910402602001604051908101604052809291908181526020018280546105269061243f565b80156105735780601f1061054857610100808354040283529160200191610573565b820191906000526020600020905b81548152906001019060200180831161055657829003601f168201915b5050505050905090565b600061058882610d47565b5061059282610dcf565b9050919050565b6105ab82826105a6610e0c565b610e14565b5050565b60006105ba82610e26565b6105f9576040517f08c379a00000000000000000000000000000000000000000000000000000000081526004016105f0906124bc565b60405180910390fd5b6007600083815260200190815260200160002060000160009054906101000a900460ff169050919050565b600073ffffffffffffffffffffffffffffffffffffffff168273ffffffffffffffffffffffffffffffffffffffff16036106965760006040517f64a0ae9200000000000000000000000000000000000000000000000000000000815260040161068d9190611fd8565b60405180910390fd5b60006106aa83836106a5610e0c565b610e41565b90508373ffffffffffffffffffffffffffffffffffffffff168173ffffffffffffffffffffffffffffffffffffffff1614610720578382826040517f64283d7b000000000000000000000000000000000000000000000000000000008152600401610717939291906124dc565b60405180910390fd5b50505050565b61074183838360405180602001604052806000815250610b35565b505050565b600061075182610d47565b9050919050565b60076020528060005260406000206000915090508060000160009054906101000a900460ff16905081565b61078b611032565b60148160ff1611156107d2576040517f08c379a00000000000000000000000000000000000000000000000000000000081526004016107c990612585565b60405180910390fd5b6000600960008154809291906107e7906125d4565b9190505590506107f783826110b9565b60405180602001604052808360ff168152506007600083815260200190815260200160002060008201518160000160006101000a81548160ff021916908360ff160217905550905050600860008473ffffffffffffffffffffffffffffffffffffffff1673ffffffffffffffffffffffffffffffffffffffff168152602001908152602001600020819080600181540180825580915050600190039060005260206000200160009091909190915055505050565b60008073ffffffffffffffffffffffffffffffffffffffff168273ffffffffffffffffffffffffffffffffffffffff160361091e5760006040517f89c62b640000000000000000000000000000000000000000000000000000000081526004016109159190611fd8565b60405180910390fd5b600360008373ffffffffffffffffffffffffffffffffffffffff1673ffffffffffffffffffffffffffffffffffffffff168152602001908152602001600020549050919050565b61096d611032565b61097760006110d7565b565b6000600660009054906101000a900473ffffffffffffffffffffffffffffffffffffffff16905090565b6060600180546109b29061243f565b80601f01602080910402602001604051908101604052809291908181526020018280546109de9061243f565b8015610a2b5780601f10610a0057610100808354040283529160200191610a2b565b820191906000526020600020905b815481529060010190602001808311610a0e57829003601f168201915b5050505050905090565b610a47610a40610e0c565b838361119d565b5050565b600080600860008473ffffffffffffffffffffffffffffffffffffffff1673ffffffffffffffffffffffffffffffffffffffff1681526020019081526020016000208054905011610ad1576040517f08c379a0000000000000000000000000000000000000000000000000000000008152600401610ac890612668565b60405180910390fd5b600860008373ffffffffffffffffffffffffffffffffffffffff1673ffffffffffffffffffffffffffffffffffffffff168152602001908152602001600020600081548110610b2357610b22612688565b5b90600052602060002001549050919050565b610b40848484610624565b610b54610b4b610e0c565b8585858561130c565b50505050565b6060610b6582610d47565b506000610b706114bd565b90506000815111610b905760405180602001604052806000815250610bbb565b80610b9a846114d4565b604051602001610bab9291906126f3565b6040516020818303038152906040525b915050919050565b6000600560008473ffffffffffffffffffffffffffffffffffffffff1673ffffffffffffffffffffffffffffffffffffffff16815260200190815260200160002060008373ffffffffffffffffffffffffffffffffffffffff1673ffffffffffffffffffffffffffffffffffffffff16815260200190815260200160002060009054906101000a900460ff16905092915050565b610c5f611032565b600073ffffffffffffffffffffffffffffffffffffffff168173ffffffffffffffffffffffffffffffffffffffff1603610cd15760006040517f1e4fbdf7000000000000000000000000000000000000000000000000000000008152600401610cc89190611fd8565b60405180910390fd5b610cda816110d7565b50565b60007f01ffc9a7000000000000000000000000000000000000000000000000000000007bffffffffffffffffffffffffffffffffffffffffffffffffffffffff1916827bffffffffffffffffffffffffffffffffffffffffffffffffffffffff1916149050919050565b600080610d53836115a2565b9050600073ffffffffffffffffffffffffffffffffffffffff168173ffffffffffffffffffffffffffffffffffffffff1603610dc657826040517f7e273289000000000000000000000000000000000000000000000000000000008152600401610dbd9190612191565b60405180910390fd5b80915050919050565b60006004600083815260200190815260200160002060009054906101000a900473ffffffffffffffffffffffffffffffffffffffff169050919050565b600033905090565b610e2183838360016115df565b505050565b600060095482108015610e3a575060008210155b9050919050565b600080610e4f8585856117a4565b9050600073ffffffffffffffffffffffffffffffffffffffff168173ffffffffffffffffffffffffffffffffffffffff1614610f8c576000600860008373ffffffffffffffffffffffffffffffffffffffff1673ffffffffffffffffffffffffffffffffffffffff168152602001908152602001600020905060005b8180549050811015610f895785828281548110610eeb57610eea612688565b5b906000526020600020015403610f76578160018380549050610f0d9190612717565b81548110610f1e57610f1d612688565b5b9060005260206000200154828281548110610f3c57610f3b612688565b5b906000526020600020018190555081805480610f5b57610f5a61274b565b5b60019003818190600052602060002001600090559055610f89565b8080610f81906125d4565b915050610ecb565b50505b600073ffffffffffffffffffffffffffffffffffffffff168573ffffffffffffffffffffffffffffffffffffffff161461102757600860008673ffffffffffffffffffffffffffffffffffffffff1673ffffffffffffffffffffffffffffffffffffffff1681526020019081526020016000208490806001815401808255809150506001900390600052602060002001600090919091909150555b809150509392505050565b61103a610e0c565b73ffffffffffffffffffffffffffffffffffffffff16611058610979565b73ffffffffffffffffffffffffffffffffffffffff16146110b75761107b610e0c565b6040517f118cdaa70000000000000000000000000000000000000000000000000000000081526004016110ae9190611fd8565b60405180910390fd5b565b6110d38282604051806020016040528060008152506119be565b5050565b6000600660009054906101000a900473ffffffffffffffffffffffffffffffffffffffff16905081600660006101000a81548173ffffffffffffffffffffffffffffffffffffffff021916908373ffffffffffffffffffffffffffffffffffffffff1602179055508173ffffffffffffffffffffffffffffffffffffffff168173ffffffffffffffffffffffffffffffffffffffff167f8be0079c531659141344cd1fd0a4f28419497f9722a3daafe3b4186f6b6457e060405160405180910390a35050565b600073ffffffffffffffffffffffffffffffffffffffff168273ffffffffffffffffffffffffffffffffffffffff160361120e57816040517f5b08ba180000000000000000000000000000000000000000000000000000000081526004016112059190611fd8565b60405180910390fd5b80600560008573ffffffffffffffffffffffffffffffffffffffff1673ffffffffffffffffffffffffffffffffffffffff16815260200190815260200160002060008473ffffffffffffffffffffffffffffffffffffffff1673ffffffffffffffffffffffffffffffffffffffff16815260200190815260200160002060006101000a81548160ff0219169083151502179055508173ffffffffffffffffffffffffffffffffffffffff168373ffffffffffffffffffffffffffffffffffffffff167f17307eab39ab6107e8899845ad3d59bd9653f200f220920489ca2b5937696c31836040516112ff9190611e67565b60405180910390a3505050565b60008373ffffffffffffffffffffffffffffffffffffffff163b11156114b6578273ffffffffffffffffffffffffffffffffffffffff1663150b7a02868685856040518563ffffffff1660e01b815260040161136b94939291906127cf565b6020604051808303816000875af19250505080156113a757506040513d601f19601f820116820180604052508101906113a49190612830565b60015b61142b573d80600081146113d7576040519150601f19603f3d011682016040523d82523d6000602084013e6113dc565b606091505b50600081510361142357836040517f64a0ae9200000000000000000000000000000000000000000000000000000000815260040161141a9190611fd8565b60405180910390fd5b805181602001fd5b63150b7a0260e01b7bffffffffffffffffffffffffffffffffffffffffffffffffffffffff1916817bffffffffffffffffffffffffffffffffffffffffffffffffffffffff1916146114b457836040517f64a0ae920000000000000000000000000000000000000000000000000000000081526004016114ab9190611fd8565b60405180910390fd5b505b5050505050565b606060405180602001604052806000815250905090565b6060600060016114e3846119e2565b01905060008167ffffffffffffffff81111561150257611501612222565b5b6040519080825280601f01601f1916602001820160405280156115345781602001600182028036833780820191505090505b509050600082602001820190505b600115611597578080600190039150507f3031323334353637383961626364656600000000000000000000000000000000600a86061a8153600a858161158b5761158a61285d565b5b04945060008503611542575b819350505050919050565b60006002600083815260200190815260200160002060009054906101000a900473ffffffffffffffffffffffffffffffffffffffff169050919050565b80806116185750600073ffffffffffffffffffffffffffffffffffffffff168273ffffffffffffffffffffffffffffffffffffffff1614155b1561174c57600061162884610d47565b9050600073ffffffffffffffffffffffffffffffffffffffff168373ffffffffffffffffffffffffffffffffffffffff161415801561169357508273ffffffffffffffffffffffffffffffffffffffff168173ffffffffffffffffffffffffffffffffffffffff1614155b80156116a657506116a48184610bc3565b155b156116e857826040517fa9fbf51f0000000000000000000000000000000000000000000000000000000081526004016116df9190611fd8565b60405180910390fd5b811561174a57838573ffffffffffffffffffffffffffffffffffffffff168273ffffffffffffffffffffffffffffffffffffffff167f8c5be1e5ebec7d5bd14f71427d1e84f3dd0314c0f7b2291e5b200ac8c7c3b92560405160405180910390a45b505b836004600085815260200190815260200160002060006101000a81548173ffffffffffffffffffffffffffffffffffffffff021916908373ffffffffffffffffffffffffffffffffffffffff16021790555050505050565b6000806117b0846115a2565b9050600073ffffffffffffffffffffffffffffffffffffffff168373ffffffffffffffffffffffffffffffffffffffff16146117f2576117f1818486611b35565b5b600073ffffffffffffffffffffffffffffffffffffffff168173ffffffffffffffffffffffffffffffffffffffff1614611883576118346000856000806115df565b6001600360008373ffffffffffffffffffffffffffffffffffffffff1673ffffffffffffffffffffffffffffffffffffffff168152602001908152602001600020600082825403925050819055505b600073ffffffffffffffffffffffffffffffffffffffff168573ffffffffffffffffffffffffffffffffffffffff1614611906576001600360008773ffffffffffffffffffffffffffffffffffffffff1673ffffffffffffffffffffffffffffffffffffffff168152602001908152602001600020600082825401925050819055505b846002600086815260200190815260200160002060006101000a81548173ffffffffffffffffffffffffffffffffffffffff021916908373ffffffffffffffffffffffffffffffffffffffff160217905550838573ffffffffffffffffffffffffffffffffffffffff168273ffffffffffffffffffffffffffffffffffffffff167fddf252ad1be2c89b69c2b068fc378daa952ba7f163c4a11628f55a4df523b3ef60405160405180910390a4809150509392505050565b6119c88383611bf9565b6119dd6119d3610e0c565b600085858561130c565b505050565b600080600090507a184f03e93ff9f4daa797ed6e38ed64bf6a1f0100000000000000008310611a40577a184f03e93ff9f4daa797ed6e38ed64bf6a1f0100000000000000008381611a3657611a3561285d565b5b0492506040810190505b6d04ee2d6d415b85acef81000000008310611a7d576d04ee2d6d415b85acef81000000008381611a7357611a7261285d565b5b0492506020810190505b662386f26fc100008310611aac57662386f26fc100008381611aa257611aa161285d565b5b0492506010810190505b6305f5e1008310611ad5576305f5e1008381611acb57611aca61285d565b5b0492506008810190505b6127108310611afa576127108381611af057611aef61285d565b5b0492506004810190505b60648310611b1d5760648381611b1357611b1261285d565b5b0492506002810190505b600a8310611b2c576001810190505b80915050919050565b611b40838383611cf2565b611bf457600073ffffffffffffffffffffffffffffffffffffffff168373ffffffffffffffffffffffffffffffffffffffff1603611bb557806040517f7e273289000000000000000000000000000000000000000000000000000000008152600401611bac9190612191565b60405180910390fd5b81816040517f177e802f000000000000000000000000000000000000000000000000000000008152600401611beb92919061288c565b60405180910390fd5b505050565b600073ffffffffffffffffffffffffffffffffffffffff168273ffffffffffffffffffffffffffffffffffffffff1603611c6b5760006040517f64a0ae92000000000000000000000000000000000000000000000000000000008152600401611c629190611fd8565b60405180910390fd5b6000611c7983836000610e41565b9050600073ffffffffffffffffffffffffffffffffffffffff168173ffffffffffffffffffffffffffffffffffffffff1614611ced5760006040517f73c6ac6e000000000000000000000000000000000000000000000000000000008152600401611ce49190611fd8565b60405180910390fd5b505050565b60008073ffffffffffffffffffffffffffffffffffffffff168373ffffffffffffffffffffffffffffffffffffffff1614158015611daa57508273ffffffffffffffffffffffffffffffffffffffff168473ffffffffffffffffffffffffffffffffffffffff161480611d6b5750611d6a8484610bc3565b5b80611da957508273ffffffffffffffffffffffffffffffffffffffff16611d9183610dcf565b73ffffffffffffffffffffffffffffffffffffffff16145b5b90509392505050565b6000604051905090565b600080fd5b600080fd5b60007fffffffff0000000000000000000000000000000000000000000000000000000082169050919050565b611dfc81611dc7565b8114611e0757600080fd5b50565b600081359050611e1981611df3565b92915050565b600060208284031215611e3557611e34611dbd565b5b6000611e4384828501611e0a565b91505092915050565b60008115159050919050565b611e6181611e4c565b82525050565b6000602082019050611e7c6000830184611e58565b92915050565b600081519050919050565b600082825260208201905092915050565b60005b83811015611ebc578082015181840152602081019050611ea1565b60008484015250505050565b6000601f19601f8301169050919050565b6000611ee482611e82565b611eee8185611e8d565b9350611efe818560208601611e9e565b611f0781611ec8565b840191505092915050565b60006020820190508181036000830152611f2c8184611ed9565b905092915050565b6000819050919050565b611f4781611f34565b8114611f5257600080fd5b50565b600081359050611f6481611f3e565b92915050565b600060208284031215611f8057611f7f611dbd565b5b6000611f8e84828501611f55565b91505092915050565b600073ffffffffffffffffffffffffffffffffffffffff82169050919050565b6000611fc282611f97565b9050919050565b611fd281611fb7565b82525050565b6000602082019050611fed6000830184611fc9565b92915050565b611ffc81611fb7565b811461200757600080fd5b50565b60008135905061201981611ff3565b92915050565b6000806040838503121561203657612035611dbd565b5b60006120448582860161200a565b925050602061205585828601611f55565b9150509250929050565b600060ff82169050919050565b6120758161205f565b82525050565b6000602082019050612090600083018461206c565b92915050565b6000806000606084860312156120af576120ae611dbd565b5b60006120bd8682870161200a565b93505060206120ce8682870161200a565b92505060406120df86828701611f55565b9150509250925092565b6120f28161205f565b81146120fd57600080fd5b50565b60008135905061210f816120e9565b92915050565b6000806040838503121561212c5761212b611dbd565b5b600061213a8582860161200a565b925050602061214b85828601612100565b9150509250929050565b60006020828403121561216b5761216a611dbd565b5b60006121798482850161200a565b91505092915050565b61218b81611f34565b82525050565b60006020820190506121a66000830184612182565b92915050565b6121b581611e4c565b81146121c057600080fd5b50565b6000813590506121d2816121ac565b92915050565b600080604083850312156121ef576121ee611dbd565b5b60006121fd8582860161200a565b925050602061220e858286016121c3565b9150509250929050565b600080fd5b600080fd5b7f4e487b7100000000000000000000000000000000000000000000000000000000600052604160045260246000fd5b61225a82611ec8565b810181811067ffffffffffffffff8211171561227957612278612222565b5b80604052505050565b600061228c611db3565b90506122988282612251565b919050565b600067ffffffffffffffff8211156122b8576122b7612222565b5b6122c182611ec8565b9050602081019050919050565b82818337600083830152505050565b60006122f06122eb8461229d565b612282565b90508281526020810184848401111561230c5761230b61221d565b5b6123178482856122ce565b509392505050565b600082601f83011261233457612333612218565b5b81356123448482602086016122dd565b91505092915050565b6000806000806080858703121561236757612366611dbd565b5b60006123758782880161200a565b94505060206123868782880161200a565b935050604061239787828801611f55565b925050606085013567ffffffffffffffff8111156123b8576123b7611dc2565b5b6123c48782880161231f565b91505092959194509250565b600080604083850312156123e7576123e6611dbd565b5b60006123f58582860161200a565b92505060206124068582860161200a565b9150509250929050565b7f4e487b7100000000000000000000000000000000000000000000000000000000600052602260045260246000fd5b6000600282049050600182168061245757607f821691505b60208210810361246a57612469612410565b5b50919050565b7f546f6b656e20646f6573206e6f74206578697374000000000000000000000000600082015250565b60006124a6601483611e8d565b91506124b182612470565b602082019050919050565b600060208201905081810360008301526124d581612499565b9050919050565b60006060820190506124f16000830186611fc9565b6124fe6020830185612182565b61250b6040830184611fc9565b949350505050565b7f446973636f756e74206d757374206265206265747765656e203020616e64203260008201527f3000000000000000000000000000000000000000000000000000000000000000602082015250565b600061256f602183611e8d565b915061257a82612513565b604082019050919050565b6000602082019050818103600083015261259e81612562565b9050919050565b7f4e487b7100000000000000000000000000000000000000000000000000000000600052601160045260246000fd5b60006125df82611f34565b91507fffffffffffffffffffffffffffffffffffffffffffffffffffffffffffffffff8203612611576126106125a5565b5b600182019050919050565b7f5573657220686173206e6f20746f6b656e730000000000000000000000000000600082015250565b6000612652601283611e8d565b915061265d8261261c565b602082019050919050565b6000602082019050818103600083015261268181612645565b9050919050565b7f4e487b7100000000000000000000000000000000000000000000000000000000600052603260045260246000fd5b600081905092915050565b60006126cd82611e82565b6126d781856126b7565b93506126e7818560208601611e9e565b80840191505092915050565b60006126ff82856126c2565b915061270b82846126c2565b91508190509392505050565b600061272282611f34565b915061272d83611f34565b9250828203905081811115612745576127446125a5565b5b92915050565b7f4e487b7100000000000000000000000000000000000000000000000000000000600052603160045260246000fd5b600081519050919050565b600082825260208201905092915050565b60006127a18261277a565b6127ab8185612785565b93506127bb818560208601611e9e565b6127c481611ec8565b840191505092915050565b60006080820190506127e46000830187611fc9565b6127f16020830186611fc9565b6127fe6040830185612182565b81810360608301526128108184612796565b905095945050505050565b60008151905061282a81611df3565b92915050565b60006020828403121561284657612845611dbd565b5b60006128548482850161281b565b91505092915050565b7f4e487b7100000000000000000000000000000000000000000000000000000000600052601260045260246000fd5b60006040820190506128a16000830185611fc9565b6128ae6020830184612182565b939250505056fea2646970667358221220b18e381cd30ee1d5bd82be02bddffa953a2e94e09050e9b73f1dcafb31faac1564736f6c63430008140033",
  "linkReferences": {},
  "deployedLinkReferences": {}
}