{"abi":[{"type":"constructor","inputs":[{"name":"_manager","type":"address","internalType":"contract IPoolManager"}],"stateMutability":"nonpayable"},{"type":"function","name":"donate","inputs":[{"name":"key","type":"tuple","internalType":"struct PoolKey","components":[{"name":"currency0","type":"address","internalType":"Currency"},{"name":"currency1","type":"address","internalType":"Currency"},{"name":"fee","type":"uint24","internalType":"uint24"},{"name":"tickSpacing","type":"int24","internalType":"int24"},{"name":"hooks","type":"address","internalType":"contract IHooks"}]},{"name":"amount0","type":"uint256","internalType":"uint256"},{"name":"amount1","type":"uint256","internalType":"uint256"},{"name":"hookData","type":"bytes","internalType":"bytes"}],"outputs":[{"name":"delta","type":"int256","internalType":"BalanceDelta"}],"stateMutability":"payable"},{"type":"function","name":"manager","inputs":[],"outputs":[{"name":"","type":"address","internalType":"contract IPoolManager"}],"stateMutability":"view"},{"type":"function","name":"unlockCallback","inputs":[{"name":"rawData","type":"bytes","internalType":"bytes"}],"outputs":[{"name":"","type":"bytes","internalType":"bytes"}],"stateMutability":"nonpayable"}],"bytecode":{"object":"0x60a060405234801561000f575f5ffd5b5060405161122138038061122183398101604081905261002e9161003f565b6001600160a01b031660805261006c565b5f6020828403121561004f575f5ffd5b81516001600160a01b0381168114610065575f5ffd5b9392505050565b6080516111606100c15f395f8181606e0152818160d7015281816101ee015281816102f0015281816104c30152818161051401528181610579015281816105c4015281816106d8015261070b01526111605ff3fe608060405260043610610033575f3560e01c8063234266d714610037578063481c6a751461005d57806391dd7346146100a8575b5f5ffd5b61004a610045366004610dc6565b6100d4565b6040519081526020015b60405180910390f35b348015610068575f5ffd5b506100907f000000000000000000000000000000000000000000000000000000000000000081565b6040516001600160a01b039091168152602001610054565b3480156100b3575f5ffd5b506100c76100c2366004610e25565b6101e1565b6040516100549190610ec1565b5f7f00000000000000000000000000000000000000000000000000000000000000006001600160a01b03166348c894916040518060a00160405280336001600160a01b03168152602001888152602001878152602001868152602001858152506040516020016101449190610f1d565b6040516020818303038152906040526040518263ffffffff1660e01b815260040161016f9190610ec1565b5f604051808303815f875af115801561018a573d5f5f3e3d5ffd5b505050506040513d5f823e601f3d908101601f191682016040526101b19190810190610f7b565b8060200190518101906101c49190610ff0565b90504780156101d8576101d85f3383610615565b50949350505050565b6060336001600160a01b037f00000000000000000000000000000000000000000000000000000000000000001614610217575f5ffd5b5f61022483850185611007565b90505f61023c82602001515f0151835f0151306106b1565b925050505f610257836020015160200151845f0151306106b1565b92505050815f146102a75760405162461bcd60e51b8152602060048201526015602482015274064656c74614265666f726530206973206e6f74203605c1b60448201526064015b60405180910390fd5b80156102ed5760405162461bcd60e51b8152602060048201526015602482015274064656c74614265666f726531206973206e6f74203605c1b604482015260640161029e565b5f7f00000000000000000000000000000000000000000000000000000000000000006001600160a01b031663234266d785602001518660400151876060015188608001516040518563ffffffff1660e01b815260040161035094939291906110ae565b6020604051808303815f875af115801561036c573d5f5f3e3d5ffd5b505050506040513d601f19601f820116820180604052508101906103909190610ff0565b90505f6103a885602001515f0151865f0151306106b1565b925050505f6103c3866020015160200151875f0151306106b1565b9250505085604001516103d5906110e5565b821461043d5760405162461bcd60e51b815260206004820152603160248201527f64656c7461416674657230206973206e6f7420657175616c20746f202d696e7460448201527032353628646174612e616d6f756e74302960781b606482015260840161029e565b856060015161044b906110e5565b81146104b35760405162461bcd60e51b815260206004820152603160248201527f64656c7461416674657231206973206e6f7420657175616c20746f202d696e7460448201527032353628646174612e616d6f756e74312960781b606482015260840161029e565b5f821215610504578551610504907f0000000000000000000000000000000000000000000000000000000000000000906104ec856110e5565b60208a0151516001600160a01b03169291905f61073d565b5f811215610557578551610557907f00000000000000000000000000000000000000000000000000000000000000009061053d846110e5565b6020808b015101516001600160a01b03169291905f61073d565b5f8213156105a05785516020870151516105a0916001600160a01b03909116907f000000000000000000000000000000000000000000000000000000000000000090855f610a09565b5f8113156105eb57855160208088015101516105eb916001600160a01b03909116907f000000000000000000000000000000000000000000000000000000000000000090845f610a09565b60408051602081018590520160405160208183030381529060405296505050505050505b92915050565b5f6001600160a01b038416610649575f5f5f5f85875af190508061064457610644638549db5960e01b84610adb565b6106ab565b60405163a9059cbb60e01b81526001600160a01b038416600482015282602482015260205f6044835f895af13d15601f3d1160015f511416171691505f81525f60208201525f604082015250806106ab576106ab632c4b17e760e21b85610adb565b50505050565b5f80806106c76001600160a01b03871686610b0e565b92506106fc6001600160a01b0387167f0000000000000000000000000000000000000000000000000000000000000000610b0e565b91506107326001600160a01b037f0000000000000000000000000000000000000000000000000000000000000000168588610b9d565b905093509350939050565b80156107d257836001600160a01b031663f5298aca8461076c886001600160a01b03166001600160a01b031690565b6040516001600160e01b031960e085901b1681526001600160a01b0390921660048301526024820152604481018590526064015b5f604051808303815f87803b1580156107b7575f5ffd5b505af11580156107c9573d5f5f3e3d5ffd5b50505050610a02565b6001600160a01b03851661084957836001600160a01b03166311da60b4836040518263ffffffff1660e01b815260040160206040518083038185885af115801561081e573d5f5f3e3d5ffd5b50505050506040513d601f19601f820116820180604052508101906108439190610ff0565b50610a02565b604051632961046560e21b81526001600160a01b03868116600483015285169063a5841194906024015f604051808303815f87803b158015610889575f5ffd5b505af115801561089b573d5f5f3e3d5ffd5b505050506001600160a01b038316301461092d576040516323b872dd60e01b81526001600160a01b0384811660048301528581166024830152604482018490528616906323b872dd906064016020604051808303815f875af1158015610903573d5f5f3e3d5ffd5b505050506040513d601f19601f82011682018060405250810190610927919061110b565b5061099f565b60405163a9059cbb60e01b81526001600160a01b0385811660048301526024820184905286169063a9059cbb906044016020604051808303815f875af1158015610979573d5f5f3e3d5ffd5b505050506040513d601f19601f8201168201806040525081019061099d919061110b565b505b836001600160a01b03166311da60b46040518163ffffffff1660e01b81526004016020604051808303815f875af11580156109dc573d5f5f3e3d5ffd5b505050506040513d601f19601f82011682018060405250810190610a009190610ff0565b505b5050505050565b80610a4b57604051630b0d9c0960e01b81526001600160a01b038681166004830152848116602483015260448201849052851690630b0d9c09906064016107a0565b836001600160a01b031663156e29f684610a74886001600160a01b03166001600160a01b031690565b6040516001600160e01b031960e085901b1681526001600160a01b0390921660048301526024820152604481018590526064015f604051808303815f87803b158015610abe575f5ffd5b505af1158015610ad0573d5f5f3e3d5ffd5b505050505050505050565b3d60405183815282600482015260406024820152816044820152815f606483013e602080601f8401040260640191508181fd5b5f6001600160a01b038316610b2e57506001600160a01b0381163161060f565b6040516370a0823160e01b81526001600160a01b0383811660048301528416906370a0823190602401602060405180830381865afa158015610b72573d5f5f3e3d5ffd5b505050506040513d601f19601f82011682018060405250810190610b969190610ff0565b905061060f565b5f5f6001600160a01b0384165f526001600160a01b03831660205260405f209050846001600160a01b031663f135baaa826040518263ffffffff1660e01b8152600401610bec91815260200190565b602060405180830381865afa158015610c07573d5f5f3e3d5ffd5b505050506040513d601f19601f82011682018060405250810190610c2b9190610ff0565b95945050505050565b634e487b7160e01b5f52604160045260245ffd5b60405160a0810167ffffffffffffffff81118282101715610c6b57610c6b610c34565b60405290565b604051601f8201601f1916810167ffffffffffffffff81118282101715610c9a57610c9a610c34565b604052919050565b6001600160a01b0381168114610cb6575f5ffd5b50565b8035610cc481610ca2565b919050565b5f60a08284031215610cd9575f5ffd5b610ce1610c48565b90508135610cee81610ca2565b81526020820135610cfe81610ca2565b6020820152604082013562ffffff81168114610d18575f5ffd5b60408201526060820135600281900b8114610d31575f5ffd5b6060820152610d4260808301610cb9565b608082015292915050565b5f67ffffffffffffffff821115610d6657610d66610c34565b50601f01601f191660200190565b5f82601f830112610d83575f5ffd5b8135610d96610d9182610d4d565b610c71565b818152846020838601011115610daa575f5ffd5b816020850160208301375f918101602001919091529392505050565b5f5f5f5f6101008587031215610dda575f5ffd5b610de48686610cc9565b935060a0850135925060c0850135915060e085013567ffffffffffffffff811115610e0d575f5ffd5b610e1987828801610d74565b91505092959194509250565b5f5f60208385031215610e36575f5ffd5b823567ffffffffffffffff811115610e4c575f5ffd5b8301601f81018513610e5c575f5ffd5b803567ffffffffffffffff811115610e72575f5ffd5b856020828401011115610e83575f5ffd5b6020919091019590945092505050565b5f81518084528060208401602086015e5f602082860101526020601f19601f83011685010191505092915050565b602081525f610ed36020830184610e93565b9392505050565b80516001600160a01b03908116835260208083015182169084015260408083015162ffffff169084015260608083015160020b9084015260809182015116910152565b602080825282516001600160a01b0316828201528201515f90610f436040840182610eda565b50604083015160e08301526060830151610100830152608083015161012080840152610f73610140840182610e93565b949350505050565b5f60208284031215610f8b575f5ffd5b815167ffffffffffffffff811115610fa1575f5ffd5b8201601f81018413610fb1575f5ffd5b8051610fbf610d9182610d4d565b818152856020838501011115610fd3575f5ffd5b8160208401602083015e5f91810160200191909152949350505050565b5f60208284031215611000575f5ffd5b5051919050565b5f60208284031215611017575f5ffd5b813567ffffffffffffffff81111561102d575f5ffd5b8201610120818503121561103f575f5ffd5b611047610c48565b813561105281610ca2565b81526110618560208401610cc9565b602082015260c0820135604082015260e0820135606082015261010082013567ffffffffffffffff811115611094575f5ffd5b6110a086828501610d74565b608083015250949350505050565b6110b88186610eda565b8360a08201528260c082015261010060e08201525f6110db610100830184610e93565b9695505050505050565b5f600160ff1b820161110557634e487b7160e01b5f52601160045260245ffd5b505f0390565b5f6020828403121561111b575f5ffd5b81518015158114610ed3575f5ffdfea26469706673582212202d27ac0776997954dd2321d651613332537fec35b0eac91d09cc1f21862d618164736f6c634300081c0033","linkReferences":{}},"methodIdentifiers":{"donate((address,address,uint24,int24,address),uint256,uint256,bytes)":"234266d7","manager()":"481c6a75","unlockCallback(bytes)":"91dd7346"},"id":88}