{"abi":[{"type":"constructor","inputs":[{"name":"_manager","type":"address","internalType":"contract IPoolManager"}],"stateMutability":"nonpayable"},{"type":"function","name":"deposit","inputs":[{"name":"currency","type":"address","internalType":"Currency"},{"name":"user","type":"address","internalType":"address"},{"name":"amount","type":"uint256","internalType":"uint256"}],"outputs":[],"stateMutability":"payable"},{"type":"function","name":"manager","inputs":[],"outputs":[{"name":"","type":"address","internalType":"contract IPoolManager"}],"stateMutability":"view"},{"type":"function","name":"unlockCallback","inputs":[{"name":"rawData","type":"bytes","internalType":"bytes"}],"outputs":[{"name":"","type":"bytes","internalType":"bytes"}],"stateMutability":"nonpayable"},{"type":"function","name":"withdraw","inputs":[{"name":"currency","type":"address","internalType":"Currency"},{"name":"user","type":"address","internalType":"address"},{"name":"amount","type":"uint256","internalType":"uint256"}],"outputs":[],"stateMutability":"payable"}],"bytecode":{"object":"0x60a060405234801561000f575f5ffd5b50604051610b85380380610b8583398101604081905261002e9161003f565b6001600160a01b031660805261006c565b5f6020828403121561004f575f5ffd5b81516001600160a01b0381168114610065575f5ffd5b9392505050565b608051610ad26100b35f395f818160530152818160e8015281816101ea0152818161023101528181610280015281816102d30152818161032201526103900152610ad25ff3fe60806040526004361061003e575f3560e01c8063481c6a75146100425780638340f5491461009257806391dd7346146100a7578063d9caed12146100d3575b5f5ffd5b34801561004d575f5ffd5b506100757f000000000000000000000000000000000000000000000000000000000000000081565b6040516001600160a01b0390911681526020015b60405180910390f35b6100a56100a03660046107c6565b6100e6565b005b3480156100b2575f5ffd5b506100c66100c1366004610804565b6101dd565b6040516100899190610872565b6100a56100e13660046107c6565b61038e565b7f00000000000000000000000000000000000000000000000000000000000000006001600160a01b03166348c894916040518060a00160405280336001600160a01b03168152602001856001600160a01b03168152602001866001600160a01b031681526020018481526020016001151581525060405160200161016a91906108a7565b6040516020818303038152906040526040518263ffffffff1660e01b81526004016101959190610872565b5f604051808303815f875af11580156101b0573d5f5f3e3d5ffd5b505050506040513d5f823e601f3d908101601f191682016040526101d79190810190610933565b50505050565b6060336001600160a01b037f00000000000000000000000000000000000000000000000000000000000000001614610213575f5ffd5b5f610220838501856109d4565b90508060800151156102ce5761027b7f000000000000000000000000000000000000000000000000000000000000000082602001518360600151600185604001516001600160a01b031661041190949392919063ffffffff16565b6102c97f0000000000000000000000000000000000000000000000000000000000000000826020015183606001515f85604001516001600160a01b031661051290949392919063ffffffff16565b61036b565b61031d7f000000000000000000000000000000000000000000000000000000000000000082602001518360600151600185604001516001600160a01b031661051290949392919063ffffffff16565b61036b7f0000000000000000000000000000000000000000000000000000000000000000826020015183606001515f85604001516001600160a01b031661041190949392919063ffffffff16565b604080515f60208201520160405160208183030381529060405291505092915050565b7f00000000000000000000000000000000000000000000000000000000000000006001600160a01b03166348c894916040518060a00160405280336001600160a01b03168152602001856001600160a01b03168152602001866001600160a01b031681526020018481526020015f151581525060405160200161016a91906108a7565b8061048157604051630b0d9c0960e01b81526001600160a01b038681166004830152848116602483015260448201849052851690630b0d9c09906064015b5f604051808303815f87803b158015610466575f5ffd5b505af1158015610478573d5f5f3e3d5ffd5b5050505061050b565b836001600160a01b031663156e29f6846104aa886001600160a01b03166001600160a01b031690565b6040516001600160e01b031960e085901b1681526001600160a01b0390921660048301526024820152604481018590526064015f604051808303815f87803b1580156104f4575f5ffd5b505af1158015610506573d5f5f3e3d5ffd5b505050505b5050505050565b801561057957836001600160a01b031663f5298aca84610541886001600160a01b03166001600160a01b031690565b6040516001600160e01b031960e085901b1681526001600160a01b03909216600483015260248201526044810185905260640161044f565b6001600160a01b0385166105f057836001600160a01b03166311da60b4836040518263ffffffff1660e01b815260040160206040518083038185885af11580156105c5573d5f5f3e3d5ffd5b50505050506040513d601f19601f820116820180604052508101906105ea9190610a63565b5061050b565b604051632961046560e21b81526001600160a01b03868116600483015285169063a5841194906024015f604051808303815f87803b158015610630575f5ffd5b505af1158015610642573d5f5f3e3d5ffd5b505050506001600160a01b03831630146106d4576040516323b872dd60e01b81526001600160a01b0384811660048301528581166024830152604482018490528616906323b872dd906064016020604051808303815f875af11580156106aa573d5f5f3e3d5ffd5b505050506040513d601f19601f820116820180604052508101906106ce9190610a7a565b50610746565b60405163a9059cbb60e01b81526001600160a01b0385811660048301526024820184905286169063a9059cbb906044016020604051808303815f875af1158015610720573d5f5f3e3d5ffd5b505050506040513d601f19601f820116820180604052508101906107449190610a7a565b505b836001600160a01b03166311da60b46040518163ffffffff1660e01b81526004016020604051808303815f875af1158015610783573d5f5f3e3d5ffd5b505050506040513d601f19601f820116820180604052508101906107a79190610a63565b505050505050565b6001600160a01b03811681146107c3575f5ffd5b50565b5f5f5f606084860312156107d8575f5ffd5b83356107e3816107af565b925060208401356107f3816107af565b929592945050506040919091013590565b5f5f60208385031215610815575f5ffd5b823567ffffffffffffffff81111561082b575f5ffd5b8301601f8101851361083b575f5ffd5b803567ffffffffffffffff811115610851575f5ffd5b856020828401011115610862575f5ffd5b6020919091019590945092505050565b602081525f82518060208401528060208501604085015e5f604082850101526040601f19601f83011684010191505092915050565b81516001600160a01b039081168252602080840151821690830152604080840151909116908201526060808301519082015260809182015115159181019190915260a00190565b634e487b7160e01b5f52604160045260245ffd5b604051601f8201601f1916810167ffffffffffffffff8111828210171561092b5761092b6108ee565b604052919050565b5f60208284031215610943575f5ffd5b815167ffffffffffffffff811115610959575f5ffd5b8201601f81018413610969575f5ffd5b805167ffffffffffffffff811115610983576109836108ee565b610996601f8201601f1916602001610902565b8181528560208385010111156109aa575f5ffd5b8160208401602083015e5f91810160200191909152949350505050565b80151581146107c3575f5ffd5b5f60a08284031280156109e5575f5ffd5b5060405160a0810167ffffffffffffffff81118282101715610a0957610a096108ee565b6040528235610a17816107af565b81526020830135610a27816107af565b60208201526040830135610a3a816107af565b6040820152606083810135908201526080830135610a57816109c7565b60808201529392505050565b5f60208284031215610a73575f5ffd5b5051919050565b5f60208284031215610a8a575f5ffd5b8151610a95816109c7565b939250505056fea2646970667358221220c810d0e8aae0fa6f3e90a143c1003f0d29f2d00f4199213508b75bf73d76e08464736f6c634300081c0033","linkReferences":{}},"methodIdentifiers":{"deposit(address,address,uint256)":"8340f549","manager()":"481c6a75","unlockCallback(bytes)":"91dd7346","withdraw(address,address,uint256)":"d9caed12"},"id":87}