{"abi":[{"type":"constructor","inputs":[{"name":"_manager","type":"address","internalType":"contract IPoolManager"}],"stateMutability":"nonpayable"},{"type":"function","name":"afterAddLiquidity","inputs":[{"name":"","type":"address","internalType":"address"},{"name":"","type":"tuple","internalType":"struct PoolKey","components":[{"name":"currency0","type":"address","internalType":"Currency"},{"name":"currency1","type":"address","internalType":"Currency"},{"name":"fee","type":"uint24","internalType":"uint24"},{"name":"tickSpacing","type":"int24","internalType":"int24"},{"name":"hooks","type":"address","internalType":"contract IHooks"}]},{"name":"","type":"tuple","internalType":"struct IPoolManager.ModifyLiquidityParams","components":[{"name":"tickLower","type":"int24","internalType":"int24"},{"name":"tickUpper","type":"int24","internalType":"int24"},{"name":"liquidityDelta","type":"int256","internalType":"int256"},{"name":"salt","type":"bytes32","internalType":"bytes32"}]},{"name":"","type":"int256","internalType":"BalanceDelta"},{"name":"","type":"int256","internalType":"BalanceDelta"},{"name":"","type":"bytes","internalType":"bytes"}],"outputs":[{"name":"","type":"bytes4","internalType":"bytes4"},{"name":"","type":"int256","internalType":"BalanceDelta"}],"stateMutability":"nonpayable"},{"type":"function","name":"afterDonate","inputs":[{"name":"","type":"address","internalType":"address"},{"name":"","type":"tuple","internalType":"struct PoolKey","components":[{"name":"currency0","type":"address","internalType":"Currency"},{"name":"currency1","type":"address","internalType":"Currency"},{"name":"fee","type":"uint24","internalType":"uint24"},{"name":"tickSpacing","type":"int24","internalType":"int24"},{"name":"hooks","type":"address","internalType":"contract IHooks"}]},{"name":"","type":"uint256","internalType":"uint256"},{"name":"","type":"uint256","internalType":"uint256"},{"name":"","type":"bytes","internalType":"bytes"}],"outputs":[{"name":"","type":"bytes4","internalType":"bytes4"}],"stateMutability":"nonpayable"},{"type":"function","name":"afterInitialize","inputs":[{"name":"","type":"address","internalType":"address"},{"name":"","type":"tuple","internalType":"struct PoolKey","components":[{"name":"currency0","type":"address","internalType":"Currency"},{"name":"currency1","type":"address","internalType":"Currency"},{"name":"fee","type":"uint24","internalType":"uint24"},{"name":"tickSpacing","type":"int24","internalType":"int24"},{"name":"hooks","type":"address","internalType":"contract IHooks"}]},{"name":"","type":"uint160","internalType":"uint160"},{"name":"","type":"int24","internalType":"int24"}],"outputs":[{"name":"","type":"bytes4","internalType":"bytes4"}],"stateMutability":"nonpayable"},{"type":"function","name":"afterRemoveLiquidity","inputs":[{"name":"","type":"address","internalType":"address"},{"name":"","type":"tuple","internalType":"struct PoolKey","components":[{"name":"currency0","type":"address","internalType":"Currency"},{"name":"currency1","type":"address","internalType":"Currency"},{"name":"fee","type":"uint24","internalType":"uint24"},{"name":"tickSpacing","type":"int24","internalType":"int24"},{"name":"hooks","type":"address","internalType":"contract IHooks"}]},{"name":"","type":"tuple","internalType":"struct IPoolManager.ModifyLiquidityParams","components":[{"name":"tickLower","type":"int24","internalType":"int24"},{"name":"tickUpper","type":"int24","internalType":"int24"},{"name":"liquidityDelta","type":"int256","internalType":"int256"},{"name":"salt","type":"bytes32","internalType":"bytes32"}]},{"name":"","type":"int256","internalType":"BalanceDelta"},{"name":"","type":"int256","internalType":"BalanceDelta"},{"name":"","type":"bytes","internalType":"bytes"}],"outputs":[{"name":"","type":"bytes4","internalType":"bytes4"},{"name":"","type":"int256","internalType":"BalanceDelta"}],"stateMutability":"nonpayable"},{"type":"function","name":"afterSwap","inputs":[{"name":"","type":"address","internalType":"address"},{"name":"","type":"tuple","internalType":"struct PoolKey","components":[{"name":"currency0","type":"address","internalType":"Currency"},{"name":"currency1","type":"address","internalType":"Currency"},{"name":"fee","type":"uint24","internalType":"uint24"},{"name":"tickSpacing","type":"int24","internalType":"int24"},{"name":"hooks","type":"address","internalType":"contract IHooks"}]},{"name":"","type":"tuple","internalType":"struct IPoolManager.SwapParams","components":[{"name":"zeroForOne","type":"bool","internalType":"bool"},{"name":"amountSpecified","type":"int256","internalType":"int256"},{"name":"sqrtPriceLimitX96","type":"uint160","internalType":"uint160"}]},{"name":"","type":"int256","internalType":"BalanceDelta"},{"name":"","type":"bytes","internalType":"bytes"}],"outputs":[{"name":"","type":"bytes4","internalType":"bytes4"},{"name":"","type":"int128","internalType":"int128"}],"stateMutability":"nonpayable"},{"type":"function","name":"beforeAddLiquidity","inputs":[{"name":"","type":"address","internalType":"address"},{"name":"","type":"tuple","internalType":"struct PoolKey","components":[{"name":"currency0","type":"address","internalType":"Currency"},{"name":"currency1","type":"address","internalType":"Currency"},{"name":"fee","type":"uint24","internalType":"uint24"},{"name":"tickSpacing","type":"int24","internalType":"int24"},{"name":"hooks","type":"address","internalType":"contract IHooks"}]},{"name":"","type":"tuple","internalType":"struct IPoolManager.ModifyLiquidityParams","components":[{"name":"tickLower","type":"int24","internalType":"int24"},{"name":"tickUpper","type":"int24","internalType":"int24"},{"name":"liquidityDelta","type":"int256","internalType":"int256"},{"name":"salt","type":"bytes32","internalType":"bytes32"}]},{"name":"","type":"bytes","internalType":"bytes"}],"outputs":[{"name":"","type":"bytes4","internalType":"bytes4"}],"stateMutability":"nonpayable"},{"type":"function","name":"beforeDonate","inputs":[{"name":"","type":"address","internalType":"address"},{"name":"","type":"tuple","internalType":"struct PoolKey","components":[{"name":"currency0","type":"address","internalType":"Currency"},{"name":"currency1","type":"address","internalType":"Currency"},{"name":"fee","type":"uint24","internalType":"uint24"},{"name":"tickSpacing","type":"int24","internalType":"int24"},{"name":"hooks","type":"address","internalType":"contract IHooks"}]},{"name":"","type":"uint256","internalType":"uint256"},{"name":"","type":"uint256","internalType":"uint256"},{"name":"","type":"bytes","internalType":"bytes"}],"outputs":[{"name":"","type":"bytes4","internalType":"bytes4"}],"stateMutability":"nonpayable"},{"type":"function","name":"beforeInitialize","inputs":[{"name":"","type":"address","internalType":"address"},{"name":"","type":"tuple","internalType":"struct PoolKey","components":[{"name":"currency0","type":"address","internalType":"Currency"},{"name":"currency1","type":"address","internalType":"Currency"},{"name":"fee","type":"uint24","internalType":"uint24"},{"name":"tickSpacing","type":"int24","internalType":"int24"},{"name":"hooks","type":"address","internalType":"contract IHooks"}]},{"name":"","type":"uint160","internalType":"uint160"}],"outputs":[{"name":"","type":"bytes4","internalType":"bytes4"}],"stateMutability":"nonpayable"},{"type":"function","name":"beforeRemoveLiquidity","inputs":[{"name":"","type":"address","internalType":"address"},{"name":"","type":"tuple","internalType":"struct PoolKey","components":[{"name":"currency0","type":"address","internalType":"Currency"},{"name":"currency1","type":"address","internalType":"Currency"},{"name":"fee","type":"uint24","internalType":"uint24"},{"name":"tickSpacing","type":"int24","internalType":"int24"},{"name":"hooks","type":"address","internalType":"contract IHooks"}]},{"name":"","type":"tuple","internalType":"struct IPoolManager.ModifyLiquidityParams","components":[{"name":"tickLower","type":"int24","internalType":"int24"},{"name":"tickUpper","type":"int24","internalType":"int24"},{"name":"liquidityDelta","type":"int256","internalType":"int256"},{"name":"salt","type":"bytes32","internalType":"bytes32"}]},{"name":"","type":"bytes","internalType":"bytes"}],"outputs":[{"name":"","type":"bytes4","internalType":"bytes4"}],"stateMutability":"nonpayable"},{"type":"function","name":"beforeSwap","inputs":[{"name":"buyer","type":"address","internalType":"address"},{"name":"key","type":"tuple","internalType":"struct PoolKey","components":[{"name":"currency0","type":"address","internalType":"Currency"},{"name":"currency1","type":"address","internalType":"Currency"},{"name":"fee","type":"uint24","internalType":"uint24"},{"name":"tickSpacing","type":"int24","internalType":"int24"},{"name":"hooks","type":"address","internalType":"contract IHooks"}]},{"name":"swapParams","type":"tuple","internalType":"struct IPoolManager.SwapParams","components":[{"name":"zeroForOne","type":"bool","internalType":"bool"},{"name":"amountSpecified","type":"int256","internalType":"int256"},{"name":"sqrtPriceLimitX96","type":"uint160","internalType":"uint160"}]},{"name":"","type":"bytes","internalType":"bytes"}],"outputs":[{"name":"","type":"bytes4","internalType":"bytes4"},{"name":"","type":"int256","internalType":"BeforeSwapDelta"},{"name":"","type":"uint24","internalType":"uint24"}],"stateMutability":"nonpayable"},{"type":"function","name":"couponContract","inputs":[],"outputs":[{"name":"","type":"address","internalType":"contract DiscountCouponNFT"}],"stateMutability":"view"},{"type":"function","name":"getHookPermissions","inputs":[],"outputs":[{"name":"","type":"tuple","internalType":"struct Hooks.Permissions","components":[{"name":"beforeInitialize","type":"bool","internalType":"bool"},{"name":"afterInitialize","type":"bool","internalType":"bool"},{"name":"beforeAddLiquidity","type":"bool","internalType":"bool"},{"name":"afterAddLiquidity","type":"bool","internalType":"bool"},{"name":"beforeRemoveLiquidity","type":"bool","internalType":"bool"},{"name":"afterRemoveLiquidity","type":"bool","internalType":"bool"},{"name":"beforeSwap","type":"bool","internalType":"bool"},{"name":"afterSwap","type":"bool","internalType":"bool"},{"name":"beforeDonate","type":"bool","internalType":"bool"},{"name":"afterDonate","type":"bool","internalType":"bool"},{"name":"beforeSwapReturnDelta","type":"bool","internalType":"bool"},{"name":"afterSwapReturnDelta","type":"bool","internalType":"bool"},{"name":"afterAddLiquidityReturnDelta","type":"bool","internalType":"bool"},{"name":"afterRemoveLiquidityReturnDelta","type":"bool","internalType":"bool"}]}],"stateMutability":"pure"},{"type":"function","name":"poolManager","inputs":[],"outputs":[{"name":"","type":"address","internalType":"contract IPoolManager"}],"stateMutability":"view"},{"type":"function","name":"unlockCallback","inputs":[{"name":"data","type":"bytes","internalType":"bytes"}],"outputs":[{"name":"","type":"bytes","internalType":"bytes"}],"stateMutability":"nonpayable"},{"type":"error","name":"HookNotImplemented","inputs":[]},{"type":"error","name":"InvalidPool","inputs":[]},{"type":"error","name":"LockFailure","inputs":[]},{"type":"error","name":"NotPoolManager","inputs":[]},{"type":"error","name":"NotSelf","inputs":[]}],"bytecode":{"object":"0x60a060405234801561000f575f5ffd5b506040516122f63803806122f683398101604081905261002e916102f6565b6001600160a01b0381166080528061004530610091565b50604051610052906102e9565b604051809103905ff08015801561006b573d5f5f3e3d5ffd5b505f80546001600160a01b0319166001600160a01b039290921691909117905550610323565b6101818161017c604080516101c0810182525f80825260208201819052918101829052606081018290526080810182905260a0810182905260c0810182905260e08101829052610100810182905261012081018290526101408101829052610160810182905261018081018290526101a081019190915250604080516101c0810182525f80825260208201819052918101829052606081018290526080810182905260a08101829052600160c082015260e08101829052610100810182905261012081018290526101408101829052610160810182905261018081018290526101a081019190915290565b610184565b50565b80511515612000831615151415806101a85750602081015115156110008316151514155b806101bf5750604081015115156108008316151514155b806101d65750606081015115156104008316151514155b806101ed5750608081015115156102008316151514155b80610204575060a081015115156101008316151514155b8061021a575060c0810151151560808316151514155b80610230575060e0810151151560408316151514155b806102475750610100810151151560208316151514155b8061025e5750610120810151151560108316151514155b806102755750610140810151151560088316151514155b8061028c5750610160810151151560048316151514155b806102a35750610180810151151560028316151514155b806102ba57506101a0810151151560018316151514155b156102d0576102d0630732d7b560e51b836102d4565b5050565b815f526001600160a01b03811660045260245ffd5b61128e8061106883390190565b5f60208284031215610306575f5ffd5b81516001600160a01b038116811461031c575f5ffd5b9392505050565b608051610d1f6103495f395f81816102f10152818161037301526105e20152610d1f5ff3fe608060405234801561000f575f5ffd5b50600436106100e5575f3560e01c8063b47b2fb111610088578063dc4c90d311610063578063dc4c90d3146102ec578063dc98354e1461032b578063e1b4af69146101ea578063e72bfc9214610339575f5ffd5b8063b47b2fb1146101b9578063b6a8b0fa146101ea578063c4e833ce146101f8575f5ffd5b80636c2bbe7e116100c35780636c2bbe7e146101585780636fe7e6eb1461018b57806391dd7346146101995780639f063efc14610158575f5ffd5b806321d0ee70146100e9578063259982e5146100e9578063575e24b41461011a575b5f5ffd5b6100fc6100f73660046107b4565b61034b565b6040516001600160e01b031990911681526020015b60405180910390f35b61012d61012836600461083b565b610365565b604080516001600160e01b03199094168452602084019290925262ffffff1690820152606001610111565b61016b610166366004610895565b6105ba565b604080516001600160e01b03199093168352602083019190915201610111565b6100fc6100f7366004610920565b6101ac6101a736600461097f565b6105d5565b60405161011191906109ec565b6101c76101663660046109fe565b604080516001600160e01b03199093168352600f9190910b602083015201610111565b6100fc6100f7366004610a7f565b6102df604080516101c0810182525f80825260208201819052918101829052606081018290526080810182905260a0810182905260c0810182905260e08101829052610100810182905261012081018290526101408101829052610160810182905261018081018290526101a081019190915250604080516101c0810182525f80825260208201819052918101829052606081018290526080810182905260a08101829052600160c082015260e08101829052610100810182905261012081018290526101408101829052610160810182905261018081018290526101a081019190915290565b6040516101119190610ad9565b6103137f000000000000000000000000000000000000000000000000000000000000000081565b6040516001600160a01b039091168152602001610111565b6100fc6100f7366004610bfa565b5f54610313906001600160a01b031681565b5f604051630a85dc2960e01b815260040160405180910390fd5b5f8080336001600160a01b037f000000000000000000000000000000000000000000000000000000000000000016146103b15760405163570c108560e11b815260040160405180910390fd5b5f866020013512801561042e57505f546040516370a0823160e01b81526001600160a01b038a8116600483015260019216906370a0823190602401602060405180830381865afa158015610407573d5f5f3e3d5ffd5b505050506040513d601f19601f8201168201806040525081019061042b9190610c41565b10155b156105725761045f6040518060400160405280600b81526020016a48617320636f75706f6e2160a81b815250610633565b5f8054604051631d61c4ef60e11b81526001600160a01b038b8116600483015290911690633ac389de90602401602060405180830381865afa1580156104a7573d5f5f3e3d5ffd5b505050506040513d601f19601f820116820180604052508101906104cb9190610c41565b5f8054604051632494ceb760e11b81526004810184905292935090916001600160a01b03909116906349299d6e90602401602060405180830381865afa158015610517573d5f5f3e3d5ffd5b505050506040513d601f19601f8201168201806040525081019061053b9190610c58565b60ff1661054c6064620f4240610c7f565b6105569190610cb0565b6315d7892d60e21b95505f9450624000001792506105af915050565b61059f6040518060400160405280600c81526020016b09cde40c6deeae0dedc4074560a31b815250610633565b506315d7892d60e21b91505f9050805b955095509592505050565b5f5f604051630a85dc2960e01b815260040160405180910390fd5b6060336001600160a01b037f000000000000000000000000000000000000000000000000000000000000000016146106205760405163570c108560e11b815260040160405180910390fd5b61062a8383610679565b90505b92915050565b6106768160405160240161064791906109ec565b60408051601f198184030181529190526020810180516001600160e01b031663104c13eb60e21b179052610712565b50565b60605f5f306001600160a01b03168585604051610697929190610cda565b5f604051808303815f865af19150503d805f81146106d0576040519150601f19603f3d011682016040523d82523d5f602084013e6106d5565b606091505b509150915081156106e957915061062d9050565b80515f0361070a576040516314815f4760e31b815260040160405180910390fd5b805160208201fd5b610676815f6a636f6e736f6c652e6c6f6790505f5f835160208501845afa505050565b6001600160a01b0381168114610676575f5ffd5b5f60a08284031215610759575f5ffd5b50919050565b5f60808284031215610759575f5ffd5b5f5f83601f84011261077f575f5ffd5b50813567ffffffffffffffff811115610796575f5ffd5b6020830191508360208285010111156107ad575f5ffd5b9250929050565b5f5f5f5f5f61016086880312156107c9575f5ffd5b85356107d481610735565b94506107e38760208801610749565b93506107f28760c0880161075f565b925061014086013567ffffffffffffffff81111561080e575f5ffd5b61081a8882890161076f565b969995985093965092949392505050565b5f60608284031215610759575f5ffd5b5f5f5f5f5f6101408688031215610850575f5ffd5b853561085b81610735565b945061086a8760208801610749565b93506108798760c0880161082b565b925061012086013567ffffffffffffffff81111561080e575f5ffd5b5f5f5f5f5f5f5f6101a0888a0312156108ac575f5ffd5b87356108b781610735565b96506108c68960208a01610749565b95506108d58960c08a0161075f565b94506101408801359350610160880135925061018088013567ffffffffffffffff811115610901575f5ffd5b61090d8a828b0161076f565b989b979a50959850939692959293505050565b5f5f5f5f6101008587031215610934575f5ffd5b843561093f81610735565b935061094e8660208701610749565b925060c085013561095e81610735565b915060e0850135600281900b8114610974575f5ffd5b939692955090935050565b5f5f60208385031215610990575f5ffd5b823567ffffffffffffffff8111156109a6575f5ffd5b6109b28582860161076f565b90969095509350505050565b5f81518084528060208401602086015e5f602082860101526020601f19601f83011685010191505092915050565b602081525f61062a60208301846109be565b5f5f5f5f5f5f6101608789031215610a14575f5ffd5b8635610a1f81610735565b9550610a2e8860208901610749565b9450610a3d8860c0890161082b565b9350610120870135925061014087013567ffffffffffffffff811115610a61575f5ffd5b610a6d89828a0161076f565b979a9699509497509295939492505050565b5f5f5f5f5f5f6101208789031215610a95575f5ffd5b8635610aa081610735565b9550610aaf8860208901610749565b945060c0870135935060e0870135925061010087013567ffffffffffffffff811115610a61575f5ffd5b8151151581526101c081016020830151610af7602084018215159052565b506040830151610b0b604084018215159052565b506060830151610b1f606084018215159052565b506080830151610b33608084018215159052565b5060a0830151610b4760a084018215159052565b5060c0830151610b5b60c084018215159052565b5060e0830151610b6f60e084018215159052565b50610100830151610b8561010084018215159052565b50610120830151610b9b61012084018215159052565b50610140830151610bb161014084018215159052565b50610160830151610bc761016084018215159052565b50610180830151610bdd61018084018215159052565b506101a0830151610bf36101a084018215159052565b5092915050565b5f5f5f60e08486031215610c0c575f5ffd5b8335610c1781610735565b9250610c268560208601610749565b915060c0840135610c3681610735565b809150509250925092565b5f60208284031215610c51575f5ffd5b5051919050565b5f60208284031215610c68575f5ffd5b815160ff81168114610c78575f5ffd5b9392505050565b5f62ffffff831680610c9f57634e487b7160e01b5f52601260045260245ffd5b8062ffffff84160491505092915050565b62ffffff8181168382160290811690818114610bf357634e487b7160e01b5f52601160045260245ffd5b818382375f910190815291905056fea2646970667358221220739aadf5036c3da6b3e750f93236ea95dcdd967811dac8f805a3b21481e9100464736f6c634300081c0033608060405234801561000f575f5ffd5b5060405180604001604052806011815260200170111a5cd8dbdd5b9d10dbdd5c1bdb939195607a1b815250604051806040016040528060058152602001642229a1a82760d91b815250815f90816100669190610117565b5060016100738282610117565b50505f600655506101d1565b634e487b7160e01b5f52604160045260245ffd5b600181811c908216806100a757607f821691505b6020821081036100c557634e487b7160e01b5f52602260045260245ffd5b50919050565b601f82111561011257805f5260205f20601f840160051c810160208510156100f05750805b601f840160051c820191505b8181101561010f575f81556001016100fc565b50505b505050565b81516001600160401b038111156101305761013061007f565b6101448161013e8454610093565b846100cb565b6020601f821160018114610176575f831561015f5750848201515b5f19600385901b1c1916600184901b17845561010f565b5f84815260208120601f198516915b828110156101a55787850151825560209485019460019092019101610185565b50848210156101c257868401515f19600387901b60f8161c191681555b50505050600190811b01905550565b6110b0806101de5f395ff3fe608060405234801561000f575f5ffd5b5060043610610106575f3560e01c80636352211e1161009e57806395d89b411161006e57806395d89b411461026f578063a22cb46514610277578063b88d4fde1461028a578063c87b56dd1461029d578063e985e9c5146102b0575f5ffd5b80636352211e14610217578063691562a01461022a57806370a082311461023d57806375d09b3214610250575f5ffd5b806323b872dd116100d957806323b872dd146101875780633ac389de1461019a57806342842e0e146101d057806349299d6e146101e3575f5ffd5b806301ffc9a71461010a57806306fdde0314610132578063081812fc14610147578063095ea7b314610172575b5f5ffd5b61011d610118366004610d0a565b6102c3565b60405190151581526020015b60405180910390f35b61013a610314565b6040516101299190610d53565b61015a610155366004610d65565b6103a3565b6040516001600160a01b039091168152602001610129565b610185610180366004610d97565b6103ca565b005b610185610195366004610dbf565b6103d9565b6101c26101a8366004610df9565b6001600160a01b03165f9081526008602052604090205490565b604051908152602001610129565b6101856101de366004610dbf565b610467565b6102056101f1366004610d65565b5f9081526007602052604090205460ff1690565b60405160ff9091168152602001610129565b61015a610225366004610d65565b610486565b6101c2610238366004610e12565b610490565b6101c261024b366004610df9565b61054c565b6101c261025e366004610df9565b60086020525f908152604090205481565b61013a610591565b610185610285366004610e4c565b6105a0565b610185610298366004610e8e565b6105ab565b61013a6102ab366004610d65565b6105c3565b61011d6102be366004610f6b565b610634565b5f6001600160e01b031982166380ac58cd60e01b14806102f357506001600160e01b03198216635b5e139f60e01b145b8061030e57506301ffc9a760e01b6001600160e01b03198316145b92915050565b60605f805461032290610f9c565b80601f016020809104026020016040519081016040528092919081815260200182805461034e90610f9c565b80156103995780601f1061037057610100808354040283529160200191610399565b820191905f5260205f20905b81548152906001019060200180831161037c57829003601f168201915b5050505050905090565b5f6103ad82610661565b505f828152600460205260409020546001600160a01b031661030e565b6103d5828233610699565b5050565b6001600160a01b03821661040757604051633250574960e11b81525f60048201526024015b60405180910390fd5b5f6104138383336106a6565b9050836001600160a01b0316816001600160a01b031614610461576040516364283d7b60e01b81526001600160a01b03808616600483015260248201849052821660448201526064016103fe565b50505050565b61048183838360405180602001604052805f8152506105ab565b505050565b5f61030e82610661565b5f60148260ff1611156104f15760405162461bcd60e51b815260206004820152602360248201527f446973636f756e74206d757374206265206265747765656e20302520616e642060448201526232302560e81b60648201526084016103fe565b6006546104fe8482610798565b5f818152600760209081526040808320805460ff191660ff88161790556001600160a01b038716835260089091528120829055600680549161053f83610fd4565b9091555090949350505050565b5f6001600160a01b038216610576576040516322718ad960e21b81525f60048201526024016103fe565b506001600160a01b03165f9081526003602052604090205490565b60606001805461032290610f9c565b6103d53383836107f9565b6105b68484846103d9565b6104613385858585610897565b60606105ce82610661565b505f6105e460408051602081019091525f815290565b90505f8151116106025760405180602001604052805f81525061062d565b8061060c846109bf565b60405160200161061d92919061100f565b6040516020818303038152906040525b9392505050565b6001600160a01b039182165f90815260056020908152604080832093909416825291909152205460ff1690565b5f818152600260205260408120546001600160a01b03168061030e57604051637e27328960e01b8152600481018490526024016103fe565b6104818383836001610a4f565b5f828152600260205260408120546001600160a01b03908116908316156106d2576106d2818486610b53565b6001600160a01b0381161561070c576106ed5f855f5f610a4f565b6001600160a01b0381165f90815260036020526040902080545f190190555b6001600160a01b0385161561073a576001600160a01b0385165f908152600360205260409020805460010190555b5f8481526002602052604080822080546001600160a01b0319166001600160a01b0389811691821790925591518793918516917fddf252ad1be2c89b69c2b068fc378daa952ba7f163c4a11628f55a4df523b3ef91a4949350505050565b6001600160a01b0382166107c157604051633250574960e11b81525f60048201526024016103fe565b5f6107cd83835f6106a6565b90506001600160a01b03811615610481576040516339e3563760e11b81525f60048201526024016103fe565b6001600160a01b03821661082b57604051630b61174360e31b81526001600160a01b03831660048201526024016103fe565b6001600160a01b038381165f81815260056020908152604080832094871680845294825291829020805460ff191686151590811790915591519182527f17307eab39ab6107e8899845ad3d59bd9653f200f220920489ca2b5937696c31910160405180910390a3505050565b6001600160a01b0383163b156109b857604051630a85bd0160e11b81526001600160a01b0384169063150b7a02906108d9908890889087908790600401611023565b6020604051808303815f875af1925050508015610913575060408051601f3d908101601f191682019092526109109181019061105f565b60015b61097a573d808015610940576040519150601f19603f3d011682016040523d82523d5f602084013e610945565b606091505b5080515f0361097257604051633250574960e11b81526001600160a01b03851660048201526024016103fe565b805181602001fd5b6001600160e01b03198116630a85bd0160e11b146109b657604051633250574960e11b81526001600160a01b03851660048201526024016103fe565b505b5050505050565b60605f6109cb83610bb7565b60010190505f8167ffffffffffffffff8111156109ea576109ea610e7a565b6040519080825280601f01601f191660200182016040528015610a14576020820181803683370190505b5090508181016020015b5f19016f181899199a1a9b1b9c1cb0b131b232b360811b600a86061a8153600a8504945084610a1e57509392505050565b8080610a6357506001600160a01b03821615155b15610b24575f610a7284610661565b90506001600160a01b03831615801590610a9e5750826001600160a01b0316816001600160a01b031614155b8015610ab15750610aaf8184610634565b155b15610ada5760405163a9fbf51f60e01b81526001600160a01b03841660048201526024016103fe565b8115610b225783856001600160a01b0316826001600160a01b03167f8c5be1e5ebec7d5bd14f71427d1e84f3dd0314c0f7b2291e5b200ac8c7c3b92560405160405180910390a45b505b50505f90815260046020526040902080546001600160a01b0319166001600160a01b0392909216919091179055565b610b5e838383610c8e565b610481576001600160a01b038316610b8c57604051637e27328960e01b8152600481018290526024016103fe565b60405163177e802f60e01b81526001600160a01b0383166004820152602481018290526044016103fe565b5f8072184f03e93ff9f4daa797ed6e38ed64bf6a1f0160401b8310610bf55772184f03e93ff9f4daa797ed6e38ed64bf6a1f0160401b830492506040015b6d04ee2d6d415b85acef81000000008310610c21576d04ee2d6d415b85acef8100000000830492506020015b662386f26fc100008310610c3f57662386f26fc10000830492506010015b6305f5e1008310610c57576305f5e100830492506008015b6127108310610c6b57612710830492506004015b60648310610c7d576064830492506002015b600a831061030e5760010192915050565b5f6001600160a01b03831615801590610cea5750826001600160a01b0316846001600160a01b03161480610cc75750610cc78484610634565b80610cea57505f828152600460205260409020546001600160a01b038481169116145b949350505050565b6001600160e01b031981168114610d07575f5ffd5b50565b5f60208284031215610d1a575f5ffd5b813561062d81610cf2565b5f81518084528060208401602086015e5f602082860101526020601f19601f83011685010191505092915050565b602081525f61062d6020830184610d25565b5f60208284031215610d75575f5ffd5b5035919050565b80356001600160a01b0381168114610d92575f5ffd5b919050565b5f5f60408385031215610da8575f5ffd5b610db183610d7c565b946020939093013593505050565b5f5f5f60608486031215610dd1575f5ffd5b610dda84610d7c565b9250610de860208501610d7c565b929592945050506040919091013590565b5f60208284031215610e09575f5ffd5b61062d82610d7c565b5f5f60408385031215610e23575f5ffd5b610e2c83610d7c565b9150602083013560ff81168114610e41575f5ffd5b809150509250929050565b5f5f60408385031215610e5d575f5ffd5b610e6683610d7c565b915060208301358015158114610e41575f5ffd5b634e487b7160e01b5f52604160045260245ffd5b5f5f5f5f60808587031215610ea1575f5ffd5b610eaa85610d7c565b9350610eb860208601610d7c565b925060408501359150606085013567ffffffffffffffff811115610eda575f5ffd5b8501601f81018713610eea575f5ffd5b803567ffffffffffffffff811115610f0457610f04610e7a565b604051601f8201601f19908116603f0116810167ffffffffffffffff81118282101715610f3357610f33610e7a565b604052818152828201602001891015610f4a575f5ffd5b816020840160208301375f6020838301015280935050505092959194509250565b5f5f60408385031215610f7c575f5ffd5b610f8583610d7c565b9150610f9360208401610d7c565b90509250929050565b600181811c90821680610fb057607f821691505b602082108103610fce57634e487b7160e01b5f52602260045260245ffd5b50919050565b5f60018201610ff157634e487b7160e01b5f52601160045260245ffd5b5060010190565b5f81518060208401855e5f93019283525090919050565b5f610cea61101d8386610ff8565b84610ff8565b6001600160a01b03858116825284166020820152604081018390526080606082018190525f9061105590830184610d25565b9695505050505050565b5f6020828403121561106f575f5ffd5b815161062d81610cf256fea26469706673582212206986a202b3bb27050fb48bdfa757f8da3128de9610bb44ed9b9f00f6a740427964736f6c634300081c0033","linkReferences":{}},"methodIdentifiers":{"afterAddLiquidity(address,(address,address,uint24,int24,address),(int24,int24,int256,bytes32),int256,int256,bytes)":"9f063efc","afterDonate(address,(address,address,uint24,int24,address),uint256,uint256,bytes)":"e1b4af69","afterInitialize(address,(address,address,uint24,int24,address),uint160,int24)":"6fe7e6eb","afterRemoveLiquidity(address,(address,address,uint24,int24,address),(int24,int24,int256,bytes32),int256,int256,bytes)":"6c2bbe7e","afterSwap(address,(address,address,uint24,int24,address),(bool,int256,uint160),int256,bytes)":"b47b2fb1","beforeAddLiquidity(address,(address,address,uint24,int24,address),(int24,int24,int256,bytes32),bytes)":"259982e5","beforeDonate(address,(address,address,uint24,int24,address),uint256,uint256,bytes)":"b6a8b0fa","beforeInitialize(address,(address,address,uint24,int24,address),uint160)":"dc98354e","beforeRemoveLiquidity(address,(address,address,uint24,int24,address),(int24,int24,int256,bytes32),bytes)":"21d0ee70","beforeSwap(address,(address,address,uint24,int24,address),(bool,int256,uint160),bytes)":"575e24b4","couponContract()":"e72bfc92","getHookPermissions()":"c4e833ce","poolManager()":"dc4c90d3","unlockCallback(bytes)":"91dd7346"},"id":115}