{"abi":[{"type":"constructor","inputs":[],"stateMutability":"nonpayable"},{"type":"function","name":"approve","inputs":[{"name":"spender","type":"address","internalType":"address"},{"name":"id","type":"uint256","internalType":"uint256"}],"outputs":[],"stateMutability":"nonpayable"},{"type":"function","name":"balanceOf","inputs":[{"name":"owner","type":"address","internalType":"address"}],"outputs":[{"name":"","type":"uint256","internalType":"uint256"}],"stateMutability":"view"},{"type":"function","name":"getApproved","inputs":[{"name":"","type":"uint256","internalType":"uint256"}],"outputs":[{"name":"","type":"address","internalType":"address"}],"stateMutability":"view"},{"type":"function","name":"getDiscount","inputs":[{"name":"who","type":"address","internalType":"address"}],"outputs":[{"name":"","type":"uint24","internalType":"uint24"}],"stateMutability":"view"},{"type":"function","name":"isApprovedForAll","inputs":[{"name":"","type":"address","internalType":"address"},{"name":"","type":"address","internalType":"address"}],"outputs":[{"name":"","type":"bool","internalType":"bool"}],"stateMutability":"view"},{"type":"function","name":"mint","inputs":[{"name":"to","type":"address","internalType":"address"},{"name":"discount","type":"uint24","internalType":"uint24"}],"outputs":[],"stateMutability":"nonpayable"},{"type":"function","name":"name","inputs":[],"outputs":[{"name":"","type":"string","internalType":"string"}],"stateMutability":"view"},{"type":"function","name":"ownerOf","inputs":[{"name":"id","type":"uint256","internalType":"uint256"}],"outputs":[{"name":"owner","type":"address","internalType":"address"}],"stateMutability":"view"},{"type":"function","name":"safeTransferFrom","inputs":[{"name":"from","type":"address","internalType":"address"},{"name":"to","type":"address","internalType":"address"},{"name":"id","type":"uint256","internalType":"uint256"}],"outputs":[],"stateMutability":"nonpayable"},{"type":"function","name":"safeTransferFrom","inputs":[{"name":"from","type":"address","internalType":"address"},{"name":"to","type":"address","internalType":"address"},{"name":"id","type":"uint256","internalType":"uint256"},{"name":"data","type":"bytes","internalType":"bytes"}],"outputs":[],"stateMutability":"nonpayable"},{"type":"function","name":"setApprovalForAll","inputs":[{"name":"operator","type":"address","internalType":"address"},{"name":"approved","type":"bool","internalType":"bool"}],"outputs":[],"stateMutability":"nonpayable"},{"type":"function","name":"setDiscount","inputs":[{"name":"_id","type":"uint256","internalType":"uint256"},{"name":"_discount","type":"uint24","internalType":"uint24"}],"outputs":[],"stateMutability":"nonpayable"},{"type":"function","name":"supportsInterface","inputs":[{"name":"interfaceId","type":"bytes4","internalType":"bytes4"}],"outputs":[{"name":"","type":"bool","internalType":"bool"}],"stateMutability":"view"},{"type":"function","name":"symbol","inputs":[],"outputs":[{"name":"","type":"string","internalType":"string"}],"stateMutability":"view"},{"type":"function","name":"tokenURI","inputs":[{"name":"id","type":"uint256","internalType":"uint256"}],"outputs":[{"name":"","type":"string","internalType":"string"}],"stateMutability":"view"},{"type":"function","name":"transferFrom","inputs":[{"name":"from","type":"address","internalType":"address"},{"name":"to","type":"address","internalType":"address"},{"name":"id","type":"uint256","internalType":"uint256"}],"outputs":[],"stateMutability":"nonpayable"},{"type":"event","name":"Approval","inputs":[{"name":"owner","type":"address","indexed":true,"internalType":"address"},{"name":"spender","type":"address","indexed":true,"internalType":"address"},{"name":"id","type":"uint256","indexed":true,"internalType":"uint256"}],"anonymous":false},{"type":"event","name":"ApprovalForAll","inputs":[{"name":"owner","type":"address","indexed":true,"internalType":"address"},{"name":"operator","type":"address","indexed":true,"internalType":"address"},{"name":"approved","type":"bool","indexed":false,"internalType":"bool"}],"anonymous":false},{"type":"event","name":"Transfer","inputs":[{"name":"from","type":"address","indexed":true,"internalType":"address"},{"name":"to","type":"address","indexed":true,"internalType":"address"},{"name":"id","type":"uint256","indexed":true,"internalType":"uint256"}],"anonymous":false}],"bytecode":{"object":"0x608060405234801561000f575f80fd5b506040518060400160405280600b81526020016a111a5cd8dbdd5b9d13919560aa1b815250604051806040016040528060048152602001631113919560e21b815250815f908161005f919061010c565b50600161006c828261010c565b5050506101c6565b634e487b7160e01b5f52604160045260245ffd5b600181811c9082168061009c57607f821691505b6020821081036100ba57634e487b7160e01b5f52602260045260245ffd5b50919050565b601f82111561010757805f5260205f20601f840160051c810160208510156100e55750805b601f840160051c820191505b81811015610104575f81556001016100f1565b50505b505050565b81516001600160401b0381111561012557610125610074565b610139816101338454610088565b846100c0565b6020601f82116001811461016b575f83156101545750848201515b5f19600385901b1c1916600184901b178455610104565b5f84815260208120601f198516915b8281101561019a578785015182556020948501946001909201910161017a565b50848210156101b757868401515f19600387901b60f8161c191681555b50505050600190811b01905550565b610e6c806101d35f395ff3fe608060405234801561000f575f80fd5b50600436106100fb575f3560e01c80636352211e11610093578063a22cb46511610063578063a22cb4651461025a578063b88d4fde1461026d578063c87b56dd14610280578063e985e9c5146102b4575f80fd5b80636352211e1461020b57806370a082311461021e578063773703971461023f57806395d89b4114610252575f80fd5b8063095ea7b3116100ce578063095ea7b3146101bd57806323b872dd146101d257806342842e0e146101e5578063435e555e146101f8575f80fd5b806301ffc9a7146100ff57806306f2791a1461012757806306fdde0314610168578063081812fc1461017d575b5f80fd5b61011261010d366004610b3a565b6102e1565b60405190151581526020015b60405180910390f35b610154610135366004610b72565b6001600160a01b03165f9081526006602052604090205462ffffff1690565b60405162ffffff909116815260200161011e565b610170610332565b60405161011e9190610b8b565b6101a561018b366004610bc0565b60046020525f90815260409020546001600160a01b031681565b6040516001600160a01b03909116815260200161011e565b6101d06101cb366004610bd7565b6103bd565b005b6101d06101e0366004610bff565b6104a1565b6101d06101f3366004610bff565b610663565b6101d0610206366004610c4b565b610757565b6101a5610219366004610bc0565b6107d3565b61023161022c366004610b72565b610829565b60405190815260200161011e565b6101d061024d366004610c75565b61088a565b6101706108bc565b6101d0610268366004610c9d565b6108c9565b6101d061027b366004610cd6565b610934565b61017061028e366004610bc0565b5060408051808201909152600b81526a756b6d612e6564752e756160a81b602082015290565b6101126102c2366004610d6b565b600560209081525f928352604080842090915290825290205460ff1681565b5f6301ffc9a760e01b6001600160e01b03198316148061031157506380ac58cd60e01b6001600160e01b03198316145b8061032c5750635b5e139f60e01b6001600160e01b03198316145b92915050565b5f805461033e90610d93565b80601f016020809104026020016040519081016040528092919081815260200182805461036a90610d93565b80156103b55780601f1061038c576101008083540402835291602001916103b5565b820191905f5260205f20905b81548152906001019060200180831161039857829003601f168201915b505050505081565b5f818152600260205260409020546001600160a01b03163381148061040457506001600160a01b0381165f90815260056020908152604080832033845290915290205460ff165b6104465760405162461bcd60e51b815260206004820152600e60248201526d1393d517d055551213d49256915160921b60448201526064015b60405180910390fd5b5f8281526004602052604080822080546001600160a01b0319166001600160a01b0387811691821790925591518593918516917f8c5be1e5ebec7d5bd14f71427d1e84f3dd0314c0f7b2291e5b200ac8c7c3b92591a4505050565b5f818152600260205260409020546001600160a01b038481169116146104f65760405162461bcd60e51b815260206004820152600a60248201526957524f4e475f46524f4d60b01b604482015260640161043d565b6001600160a01b0382166105405760405162461bcd60e51b81526020600482015260116024820152701253959053125117d49150d25412515395607a1b604482015260640161043d565b336001600160a01b038416148061057957506001600160a01b0383165f90815260056020908152604080832033845290915290205460ff165b8061059957505f818152600460205260409020546001600160a01b031633145b6105d65760405162461bcd60e51b815260206004820152600e60248201526d1393d517d055551213d49256915160921b604482015260640161043d565b6001600160a01b038084165f81815260036020908152604080832080545f19019055938616808352848320805460010190558583526002825284832080546001600160a01b03199081168317909155600490925284832080549092169091559251849392917fddf252ad1be2c89b69c2b068fc378daa952ba7f163c4a11628f55a4df523b3ef91a4505050565b61066e8383836104a1565b6001600160a01b0382163b15806107135750604051630a85bd0160e11b8082523360048301526001600160a01b03858116602484015260448301849052608060648401525f608484015290919084169063150b7a029060a4016020604051808303815f875af11580156106e3573d5f803e3d5ffd5b505050506040513d601f19601f820116820180604052508101906107079190610dcb565b6001600160e01b031916145b6107525760405162461bcd60e51b815260206004820152601060248201526f155394d0519157d49150d2541251539560821b604482015260640161043d565b505050565b5f8162ffffff16118015610771575060148162ffffff1611155b6107ae5760405162461bcd60e51b815260206004820152600e60248201526d444953434f554e545f52414e474560901b604482015260640161043d565b5f91825260066020526040909120805462ffffff191662ffffff909216919091179055565b5f818152600260205260409020546001600160a01b0316806108245760405162461bcd60e51b815260206004820152600a6024820152691393d517d3525395115160b21b604482015260640161043d565b919050565b5f6001600160a01b03821661086f5760405162461bcd60e51b815260206004820152600c60248201526b5a45524f5f4144445245535360a01b604482015260640161043d565b506001600160a01b03165f9081526003602052604090205490565b6001600160a01b0382165f818152600660205260409020805462ffffff191662ffffff84161790556107528382610a19565b6001805461033e90610d93565b335f8181526005602090815260408083206001600160a01b03871680855290835292819020805460ff191686151590811790915590519081529192917f17307eab39ab6107e8899845ad3d59bd9653f200f220920489ca2b5937696c31910160405180910390a35050565b61093f8585856104a1565b6001600160a01b0384163b15806109d35750604051630a85bd0160e11b808252906001600160a01b0386169063150b7a02906109879033908a90899089908990600401610de6565b6020604051808303815f875af11580156109a3573d5f803e3d5ffd5b505050506040513d601f19601f820116820180604052508101906109c79190610dcb565b6001600160e01b031916145b610a125760405162461bcd60e51b815260206004820152601060248201526f155394d0519157d49150d2541251539560821b604482015260640161043d565b5050505050565b6001600160a01b038216610a635760405162461bcd60e51b81526020600482015260116024820152701253959053125117d49150d25412515395607a1b604482015260640161043d565b5f818152600260205260409020546001600160a01b031615610ab85760405162461bcd60e51b815260206004820152600e60248201526d1053149150511657d3525395115160921b604482015260640161043d565b6001600160a01b0382165f81815260036020908152604080832080546001019055848352600290915280822080546001600160a01b0319168417905551839291907fddf252ad1be2c89b69c2b068fc378daa952ba7f163c4a11628f55a4df523b3ef908290a45050565b6001600160e01b031981168114610b37575f80fd5b50565b5f60208284031215610b4a575f80fd5b8135610b5581610b22565b9392505050565b80356001600160a01b0381168114610824575f80fd5b5f60208284031215610b82575f80fd5b610b5582610b5c565b602081525f82518060208401528060208501604085015e5f604082850101526040601f19601f83011684010191505092915050565b5f60208284031215610bd0575f80fd5b5035919050565b5f8060408385031215610be8575f80fd5b610bf183610b5c565b946020939093013593505050565b5f805f60608486031215610c11575f80fd5b610c1a84610b5c565b9250610c2860208501610b5c565b929592945050506040919091013590565b803562ffffff81168114610824575f80fd5b5f8060408385031215610c5c575f80fd5b82359150610c6c60208401610c39565b90509250929050565b5f8060408385031215610c86575f80fd5b610c8f83610b5c565b9150610c6c60208401610c39565b5f8060408385031215610cae575f80fd5b610cb783610b5c565b915060208301358015158114610ccb575f80fd5b809150509250929050565b5f805f805f60808688031215610cea575f80fd5b610cf386610b5c565b9450610d0160208701610b5c565b935060408601359250606086013567ffffffffffffffff811115610d23575f80fd5b8601601f81018813610d33575f80fd5b803567ffffffffffffffff811115610d49575f80fd5b886020828401011115610d5a575f80fd5b959894975092955050506020019190565b5f8060408385031215610d7c575f80fd5b610d8583610b5c565b9150610c6c60208401610b5c565b600181811c90821680610da757607f821691505b602082108103610dc557634e487b7160e01b5f52602260045260245ffd5b50919050565b5f60208284031215610ddb575f80fd5b8151610b5581610b22565b6001600160a01b03868116825285166020820152604081018490526080606082018190528101829052818360a08301375f81830160a090810191909152601f909201601f1916010194935050505056fea264697066735822122044d8d5458b2a8b3116d6d71e3a94f6fa15836b51c763ebbfcaed9bb03a92afc764736f6c634300081a0033","linkReferences":{}},"methodIdentifiers":{"approve(address,uint256)":"095ea7b3","balanceOf(address)":"70a08231","getApproved(uint256)":"081812fc","getDiscount(address)":"06f2791a","isApprovedForAll(address,address)":"e985e9c5","mint(address,uint24)":"77370397","name()":"06fdde03","ownerOf(uint256)":"6352211e","safeTransferFrom(address,address,uint256)":"42842e0e","safeTransferFrom(address,address,uint256,bytes)":"b88d4fde","setApprovalForAll(address,bool)":"a22cb465","setDiscount(uint256,uint24)":"435e555e","supportsInterface(bytes4)":"01ffc9a7","symbol()":"95d89b41","tokenURI(uint256)":"c87b56dd","transferFrom(address,address,uint256)":"23b872dd"},"id":130}