{"abi":[{"type":"function","name":"allowance","inputs":[{"name":"owner","type":"address","internalType":"address"},{"name":"spender","type":"address","internalType":"address"},{"name":"id","type":"uint256","internalType":"uint256"}],"outputs":[{"name":"amount","type":"uint256","internalType":"uint256"}],"stateMutability":"view"},{"type":"function","name":"approve","inputs":[{"name":"spender","type":"address","internalType":"address"},{"name":"id","type":"uint256","internalType":"uint256"},{"name":"amount","type":"uint256","internalType":"uint256"}],"outputs":[{"name":"","type":"bool","internalType":"bool"}],"stateMutability":"nonpayable"},{"type":"function","name":"balanceOf","inputs":[{"name":"owner","type":"address","internalType":"address"},{"name":"id","type":"uint256","internalType":"uint256"}],"outputs":[{"name":"balance","type":"uint256","internalType":"uint256"}],"stateMutability":"view"},{"type":"function","name":"burn","inputs":[{"name":"from","type":"address","internalType":"address"},{"name":"id","type":"uint256","internalType":"uint256"},{"name":"amount","type":"uint256","internalType":"uint256"}],"outputs":[],"stateMutability":"nonpayable"},{"type":"function","name":"clear","inputs":[{"name":"currency","type":"address","internalType":"Currency"},{"name":"amount","type":"uint256","internalType":"uint256"}],"outputs":[],"stateMutability":"nonpayable"},{"type":"function","name":"collectProtocolFees","inputs":[{"name":"recipient","type":"address","internalType":"address"},{"name":"currency","type":"address","internalType":"Currency"},{"name":"amount","type":"uint256","internalType":"uint256"}],"outputs":[{"name":"amountCollected","type":"uint256","internalType":"uint256"}],"stateMutability":"nonpayable"},{"type":"function","name":"donate","inputs":[{"name":"key","type":"tuple","internalType":"struct PoolKey","components":[{"name":"currency0","type":"address","internalType":"Currency"},{"name":"currency1","type":"address","internalType":"Currency"},{"name":"fee","type":"uint24","internalType":"uint24"},{"name":"tickSpacing","type":"int24","internalType":"int24"},{"name":"hooks","type":"address","internalType":"contract IHooks"}]},{"name":"amount0","type":"uint256","internalType":"uint256"},{"name":"amount1","type":"uint256","internalType":"uint256"},{"name":"hookData","type":"bytes","internalType":"bytes"}],"outputs":[{"name":"delta","type":"int256","internalType":"BalanceDelta"}],"stateMutability":"nonpayable"},{"type":"function","name":"extsload","inputs":[{"name":"slot","type":"bytes32","internalType":"bytes32"}],"outputs":[{"name":"","type":"bytes32","internalType":"bytes32"}],"stateMutability":"view"},{"type":"function","name":"extsload","inputs":[{"name":"startSlot","type":"bytes32","internalType":"bytes32"},{"name":"nSlots","type":"uint256","internalType":"uint256"}],"outputs":[{"name":"","type":"bytes32[]","internalType":"bytes32[]"}],"stateMutability":"view"},{"type":"function","name":"extsload","inputs":[{"name":"slots","type":"bytes32[]","internalType":"bytes32[]"}],"outputs":[{"name":"","type":"bytes32[]","internalType":"bytes32[]"}],"stateMutability":"view"},{"type":"function","name":"exttload","inputs":[{"name":"slots","type":"bytes32[]","internalType":"bytes32[]"}],"outputs":[{"name":"","type":"bytes32[]","internalType":"bytes32[]"}],"stateMutability":"view"},{"type":"function","name":"exttload","inputs":[{"name":"slot","type":"bytes32","internalType":"bytes32"}],"outputs":[{"name":"","type":"bytes32","internalType":"bytes32"}],"stateMutability":"view"},{"type":"function","name":"initialize","inputs":[{"name":"key","type":"tuple","internalType":"struct PoolKey","components":[{"name":"currency0","type":"address","internalType":"Currency"},{"name":"currency1","type":"address","internalType":"Currency"},{"name":"fee","type":"uint24","internalType":"uint24"},{"name":"tickSpacing","type":"int24","internalType":"int24"},{"name":"hooks","type":"address","internalType":"contract IHooks"}]},{"name":"sqrtPriceX96","type":"uint160","internalType":"uint160"}],"outputs":[{"name":"tick","type":"int24","internalType":"int24"}],"stateMutability":"nonpayable"},{"type":"function","name":"isOperator","inputs":[{"name":"owner","type":"address","internalType":"address"},{"name":"operator","type":"address","internalType":"address"}],"outputs":[{"name":"isOperator","type":"bool","internalType":"bool"}],"stateMutability":"view"},{"type":"function","name":"mint","inputs":[{"name":"to","type":"address","internalType":"address"},{"name":"id","type":"uint256","internalType":"uint256"},{"name":"amount","type":"uint256","internalType":"uint256"}],"outputs":[],"stateMutability":"nonpayable"},{"type":"function","name":"modifyLiquidity","inputs":[{"name":"key","type":"tuple","internalType":"struct PoolKey","components":[{"name":"currency0","type":"address","internalType":"Currency"},{"name":"currency1","type":"address","internalType":"Currency"},{"name":"fee","type":"uint24","internalType":"uint24"},{"name":"tickSpacing","type":"int24","internalType":"int24"},{"name":"hooks","type":"address","internalType":"contract IHooks"}]},{"name":"params","type":"tuple","internalType":"struct IPoolManager.ModifyLiquidityParams","components":[{"name":"tickLower","type":"int24","internalType":"int24"},{"name":"tickUpper","type":"int24","internalType":"int24"},{"name":"liquidityDelta","type":"int256","internalType":"int256"},{"name":"salt","type":"bytes32","internalType":"bytes32"}]},{"name":"hookData","type":"bytes","internalType":"bytes"}],"outputs":[{"name":"callerDelta","type":"int256","internalType":"BalanceDelta"},{"name":"feesAccrued","type":"int256","internalType":"BalanceDelta"}],"stateMutability":"nonpayable"},{"type":"function","name":"owner","inputs":[],"outputs":[{"name":"","type":"address","internalType":"address"}],"stateMutability":"view"},{"type":"function","name":"protocolFeeController","inputs":[],"outputs":[{"name":"","type":"address","internalType":"contract IProtocolFeeController"}],"stateMutability":"view"},{"type":"function","name":"protocolFeesAccrued","inputs":[{"name":"currency","type":"address","internalType":"Currency"}],"outputs":[{"name":"amount","type":"uint256","internalType":"uint256"}],"stateMutability":"view"},{"type":"function","name":"setOperator","inputs":[{"name":"operator","type":"address","internalType":"address"},{"name":"approved","type":"bool","internalType":"bool"}],"outputs":[{"name":"","type":"bool","internalType":"bool"}],"stateMutability":"nonpayable"},{"type":"function","name":"setProtocolFee","inputs":[{"name":"key","type":"tuple","internalType":"struct PoolKey","components":[{"name":"currency0","type":"address","internalType":"Currency"},{"name":"currency1","type":"address","internalType":"Currency"},{"name":"fee","type":"uint24","internalType":"uint24"},{"name":"tickSpacing","type":"int24","internalType":"int24"},{"name":"hooks","type":"address","internalType":"contract IHooks"}]},{"name":"newProtocolFee","type":"uint24","internalType":"uint24"}],"outputs":[],"stateMutability":"nonpayable"},{"type":"function","name":"setProtocolFeeController","inputs":[{"name":"controller","type":"address","internalType":"contract IProtocolFeeController"}],"outputs":[],"stateMutability":"nonpayable"},{"type":"function","name":"settle","inputs":[],"outputs":[{"name":"","type":"uint256","internalType":"uint256"}],"stateMutability":"payable"},{"type":"function","name":"settleFor","inputs":[{"name":"recipient","type":"address","internalType":"address"}],"outputs":[{"name":"","type":"uint256","internalType":"uint256"}],"stateMutability":"payable"},{"type":"function","name":"supportsInterface","inputs":[{"name":"interfaceId","type":"bytes4","internalType":"bytes4"}],"outputs":[{"name":"","type":"bool","internalType":"bool"}],"stateMutability":"view"},{"type":"function","name":"swap","inputs":[{"name":"key","type":"tuple","internalType":"struct PoolKey","components":[{"name":"currency0","type":"address","internalType":"Currency"},{"name":"currency1","type":"address","internalType":"Currency"},{"name":"fee","type":"uint24","internalType":"uint24"},{"name":"tickSpacing","type":"int24","internalType":"int24"},{"name":"hooks","type":"address","internalType":"contract IHooks"}]},{"name":"params","type":"tuple","internalType":"struct IPoolManager.SwapParams","components":[{"name":"zeroForOne","type":"bool","internalType":"bool"},{"name":"amountSpecified","type":"int256","internalType":"int256"},{"name":"sqrtPriceLimitX96","type":"uint160","internalType":"uint160"}]},{"name":"hookData","type":"bytes","internalType":"bytes"}],"outputs":[{"name":"swapDelta","type":"int256","internalType":"BalanceDelta"}],"stateMutability":"nonpayable"},{"type":"function","name":"sync","inputs":[{"name":"currency","type":"address","internalType":"Currency"}],"outputs":[],"stateMutability":"nonpayable"},{"type":"function","name":"take","inputs":[{"name":"currency","type":"address","internalType":"Currency"},{"name":"to","type":"address","internalType":"address"},{"name":"amount","type":"uint256","internalType":"uint256"}],"outputs":[],"stateMutability":"nonpayable"},{"type":"function","name":"transfer","inputs":[{"name":"receiver","type":"address","internalType":"address"},{"name":"id","type":"uint256","internalType":"uint256"},{"name":"amount","type":"uint256","internalType":"uint256"}],"outputs":[{"name":"","type":"bool","internalType":"bool"}],"stateMutability":"nonpayable"},{"type":"function","name":"transferFrom","inputs":[{"name":"sender","type":"address","internalType":"address"},{"name":"receiver","type":"address","internalType":"address"},{"name":"id","type":"uint256","internalType":"uint256"},{"name":"amount","type":"uint256","internalType":"uint256"}],"outputs":[{"name":"","type":"bool","internalType":"bool"}],"stateMutability":"nonpayable"},{"type":"function","name":"transferOwnership","inputs":[{"name":"newOwner","type":"address","internalType":"address"}],"outputs":[],"stateMutability":"nonpayable"},{"type":"function","name":"unlock","inputs":[{"name":"data","type":"bytes","internalType":"bytes"}],"outputs":[{"name":"result","type":"bytes","internalType":"bytes"}],"stateMutability":"nonpayable"},{"type":"function","name":"updateDynamicLPFee","inputs":[{"name":"key","type":"tuple","internalType":"struct PoolKey","components":[{"name":"currency0","type":"address","internalType":"Currency"},{"name":"currency1","type":"address","internalType":"Currency"},{"name":"fee","type":"uint24","internalType":"uint24"},{"name":"tickSpacing","type":"int24","internalType":"int24"},{"name":"hooks","type":"address","internalType":"contract IHooks"}]},{"name":"newDynamicLPFee","type":"uint24","internalType":"uint24"}],"outputs":[],"stateMutability":"nonpayable"},{"type":"event","name":"Approval","inputs":[{"name":"owner","type":"address","indexed":true,"internalType":"address"},{"name":"spender","type":"address","indexed":true,"internalType":"address"},{"name":"id","type":"uint256","indexed":true,"internalType":"uint256"},{"name":"amount","type":"uint256","indexed":false,"internalType":"uint256"}],"anonymous":false},{"type":"event","name":"Donate","inputs":[{"name":"id","type":"bytes32","indexed":true,"internalType":"PoolId"},{"name":"sender","type":"address","indexed":true,"internalType":"address"},{"name":"amount0","type":"uint256","indexed":false,"internalType":"uint256"},{"name":"amount1","type":"uint256","indexed":false,"internalType":"uint256"}],"anonymous":false},{"type":"event","name":"Initialize","inputs":[{"name":"id","type":"bytes32","indexed":true,"internalType":"PoolId"},{"name":"currency0","type":"address","indexed":true,"internalType":"Currency"},{"name":"currency1","type":"address","indexed":true,"internalType":"Currency"},{"name":"fee","type":"uint24","indexed":false,"internalType":"uint24"},{"name":"tickSpacing","type":"int24","indexed":false,"internalType":"int24"},{"name":"hooks","type":"address","indexed":false,"internalType":"contract IHooks"},{"name":"sqrtPriceX96","type":"uint160","indexed":false,"internalType":"uint160"},{"name":"tick","type":"int24","indexed":false,"internalType":"int24"}],"anonymous":false},{"type":"event","name":"ModifyLiquidity","inputs":[{"name":"id","type":"bytes32","indexed":true,"internalType":"PoolId"},{"name":"sender","type":"address","indexed":true,"internalType":"address"},{"name":"tickLower","type":"int24","indexed":false,"internalType":"int24"},{"name":"tickUpper","type":"int24","indexed":false,"internalType":"int24"},{"name":"liquidityDelta","type":"int256","indexed":false,"internalType":"int256"},{"name":"salt","type":"bytes32","indexed":false,"internalType":"bytes32"}],"anonymous":false},{"type":"event","name":"OperatorSet","inputs":[{"name":"owner","type":"address","indexed":true,"internalType":"address"},{"name":"operator","type":"address","indexed":true,"internalType":"address"},{"name":"approved","type":"bool","indexed":false,"internalType":"bool"}],"anonymous":false},{"type":"event","name":"OwnershipTransferred","inputs":[{"name":"user","type":"address","indexed":true,"internalType":"address"},{"name":"newOwner","type":"address","indexed":true,"internalType":"address"}],"anonymous":false},{"type":"event","name":"ProtocolFeeControllerUpdated","inputs":[{"name":"protocolFeeController","type":"address","indexed":true,"internalType":"address"}],"anonymous":false},{"type":"event","name":"ProtocolFeeUpdated","inputs":[{"name":"id","type":"bytes32","indexed":true,"internalType":"PoolId"},{"name":"protocolFee","type":"uint24","indexed":false,"internalType":"uint24"}],"anonymous":false},{"type":"event","name":"Swap","inputs":[{"name":"id","type":"bytes32","indexed":true,"internalType":"PoolId"},{"name":"sender","type":"address","indexed":true,"internalType":"address"},{"name":"amount0","type":"int128","indexed":false,"internalType":"int128"},{"name":"amount1","type":"int128","indexed":false,"internalType":"int128"},{"name":"sqrtPriceX96","type":"uint160","indexed":false,"internalType":"uint160"},{"name":"liquidity","type":"uint128","indexed":false,"internalType":"uint128"},{"name":"tick","type":"int24","indexed":false,"internalType":"int24"},{"name":"fee","type":"uint24","indexed":false,"internalType":"uint24"}],"anonymous":false},{"type":"event","name":"Transfer","inputs":[{"name":"caller","type":"address","indexed":false,"internalType":"address"},{"name":"from","type":"address","indexed":true,"internalType":"address"},{"name":"to","type":"address","indexed":true,"internalType":"address"},{"name":"id","type":"uint256","indexed":true,"internalType":"uint256"},{"name":"amount","type":"uint256","indexed":false,"internalType":"uint256"}],"anonymous":false},{"type":"error","name":"AlreadyUnlocked","inputs":[]},{"type":"error","name":"ContractUnlocked","inputs":[]},{"type":"error","name":"CurrenciesOutOfOrderOrEqual","inputs":[{"name":"currency0","type":"address","internalType":"address"},{"name":"currency1","type":"address","internalType":"address"}]},{"type":"error","name":"CurrencyNotSettled","inputs":[]},{"type":"error","name":"DelegateCallNotAllowed","inputs":[]},{"type":"error","name":"InvalidCaller","inputs":[]},{"type":"error","name":"ManagerLocked","inputs":[]},{"type":"error","name":"MustClearExactPositiveDelta","inputs":[]},{"type":"error","name":"NonzeroNativeValue","inputs":[]},{"type":"error","name":"PoolNotInitialized","inputs":[]},{"type":"error","name":"ProtocolFeeTooLarge","inputs":[{"name":"fee","type":"uint24","internalType":"uint24"}]},{"type":"error","name":"SwapAmountCannotBeZero","inputs":[]},{"type":"error","name":"TickSpacingTooLarge","inputs":[{"name":"tickSpacing","type":"int24","internalType":"int24"}]},{"type":"error","name":"TickSpacingTooSmall","inputs":[{"name":"tickSpacing","type":"int24","internalType":"int24"}]},{"type":"error","name":"UnauthorizedDynamicLPFeeUpdate","inputs":[]}],"bytecode":{"object":"0x60a0604052348015600e575f5ffd5b505f80546001600160a01b031916339081178255604051909182917f8be0079c531659141344cd1fd0a4f28419497f9722a3daafe3b4186f6b6457e0908290a35030608052608051614cb961006b5f395f6118230152614cb95ff3fe6080604052600436106101e5575f3560e01c80635a6bcfda11610108578063a58411941161009d578063f135baaa1161006d578063f135baaa14610602578063f2fde38b14610621578063f3cd914c14610640578063f5298aca1461065f578063fe99049a1461067e575f5ffd5b8063a58411941461056c578063b6363cf21461058b578063dbd035ff146105c4578063f02de3b2146105e3575f5ffd5b80638161b874116100d85780638161b874146104cd5780638da5cb5b146104ec57806397e8cd4e146105225780639bf6645f1461054d575f5ffd5b80635a6bcfda146104295780636276cbbe1461045d5780637e87ce7d1461048f57806380f0b44c146104ae575f5ffd5b80632d7713891161017e57806348c894911161014e57806348c894911461038357806352759651146103af578063558a7297146103ce578063598af9e7146103ed575f5ffd5b80632d7713891461030657806335fd631a146103255780633dd45adb14610351578063426a849314610364575f5ffd5b806311da60b4116101b957806311da60b4146102a1578063156e29f6146102a95780631e2eaeaf146102c8578063234266d7146102e7575f5ffd5b8062fdd58e146101e957806301ffc9a714610232578063095bcdb6146102615780630b0d9c0914610280575b5f5ffd5b3480156101f4575f5ffd5b5061021f610203366004614154565b600460209081525f928352604080842090915290825290205481565b6040519081526020015b60405180910390f35b34801561023d575f5ffd5b5061025161024c36600461417e565b61069d565b6040519015158152602001610229565b34801561026c575f5ffd5b5061025161027b3660046141a5565b6106d3565b34801561028b575f5ffd5b5061029f61029a3660046141d7565b61077a565b005b61021f6107cb565b3480156102b4575f5ffd5b5061029f6102c33660046141a5565b6107fd565b3480156102d3575f5ffd5b5061021f6102e2366004614215565b610848565b3480156102f2575f5ffd5b5061021f610301366004614394565b610852565b348015610311575f5ffd5b5061029f6103203660046143f8565b610930565b348015610330575f5ffd5b5061034461033f366004614413565b6109c6565b6040516102299190614433565b61021f61035f3660046143f8565b610a03565b34801561036f575f5ffd5b5061025161037e3660046141a5565b610a35565b34801561038e575f5ffd5b506103a261039d366004614475565b610a99565b60405161022991906144b3565b3480156103ba575f5ffd5b5061029f6103c93660046144e8565b610b5c565b3480156103d9575f5ffd5b506102516103e8366004614529565b610bcb565b3480156103f8575f5ffd5b5061021f6104073660046141d7565b600560209081525f938452604080852082529284528284209052825290205481565b348015610434575f5ffd5b50610448610443366004614553565b610c3a565b60408051928352602083019190915201610229565b348015610468575f5ffd5b5061047c6104773660046145f5565b610dd9565b60405160029190910b8152602001610229565b34801561049a575f5ffd5b5061029f6104a93660046144e8565b610fb2565b3480156104b9575f5ffd5b5061029f6104c8366004614154565b611064565b3480156104d8575f5ffd5b5061021f6104e73660046141d7565b6110d1565b3480156104f7575f5ffd5b505f5461050a906001600160a01b031681565b6040516001600160a01b039091168152602001610229565b34801561052d575f5ffd5b5061021f61053c3660046143f8565b60016020525f908152604090205481565b348015610558575f5ffd5b5061034461056736600461462b565b611184565b348015610577575f5ffd5b5061029f6105863660046143f8565b6111bd565b348015610596575f5ffd5b506102516105a536600461469a565b600360209081525f928352604080842090915290825290205460ff1681565b3480156105cf575f5ffd5b506103446105de36600461462b565b61121c565b3480156105ee575f5ffd5b5060025461050a906001600160a01b031681565b34801561060d575f5ffd5b5061021f61061c366004614215565b611253565b34801561062c575f5ffd5b5061029f61063b3660046143f8565b61125d565b34801561064b575f5ffd5b5061021f61065a3660046146c6565b6112ef565b34801561066a575f5ffd5b5061029f6106793660046141a5565b611435565b348015610689575f5ffd5b50610251610698366004614764565b611480565b5f6301ffc9a760e01b6001600160e01b0319831614806106cd5750630f632fb360e01b6001600160e01b03198316145b92915050565b335f9081526004602090815260408083208584529091528120805483919083906106fe9084906147bb565b90915550506001600160a01b0384165f908152600460209081526040808320868452909152812080548492906107359084906147ce565b909155505060408051338082526020820185905285926001600160a01b038816925f516020614c245f395f51905f5291015b60405180910390a45060015b9392505050565b5f516020614c445f395f51905f525c61079d5761079d6354e3ca0d60e01b6115df565b6107b2836107aa836115e7565b5f0333611607565b6107c66001600160a01b038416838361165a565b505050565b5f5f516020614c445f395f51905f525c6107ef576107ef6354e3ca0d60e01b6115df565b6107f8336116f0565b905090565b5f516020614c445f395f51905f525c610820576108206354e3ca0d60e01b6115df565b8161082e816107aa846115e7565b610842846001600160a01b038316846117a6565b50505050565b5f81545f5260205ff35b5f5f516020614c445f395f51905f525c610876576108766354e3ca0d60e01b6115df565b61087e611818565b60a086205f8181526006602052604090206108988161185a565b60808801516108b4906001600160a01b0316898989898961187b565b6108bf8188886118f8565b92506108cc88843361199b565b6040805188815260208101889052339184917f29ef05caaff9404b7cb6d1c0e9bbae9eaa7ab2541feba1a9c4248594c08156cb910160405180910390a36080880151610925906001600160a01b031689898989896119c3565b505095945050505050565b5f546001600160a01b0316331461097d5760405162461bcd60e51b815260206004820152600c60248201526b15539055551213d49256915160a21b60448201526064015b60405180910390fd5b600280546001600160a01b0319166001600160a01b0383169081179091556040517fb4bd8ef53df690b9943d3318996006dbb82a25f54719d8c8035b516a2a5b8acc905f90a250565b6060604051808360051b6020835284602084015260408301925080830190505b855483526020830192506001860195508083106109e65781810382f35b5f5f516020614c445f395f51905f525c610a2757610a276354e3ca0d60e01b6115df565b6106cd826116f0565b919050565b335f8181526005602090815260408083206001600160a01b03881680855290835281842087855290925280832085905551919285927fb3fd5071835887567a0671151121894ddccc2842f1d10bedad13e0d17cace9a7906107679087815260200190565b60605f516020614c445f395f51905f525c15610abf57610abf6328486b6360e11b6115df565b610ac7611a35565b6040516348eeb9a360e11b815233906391dd734690610aec9086908690600401614809565b5f604051808303815f875af1158015610b07573d5f5f3e3d5ffd5b505050506040513d5f823e601f3d908101601f19168201604052610b2e919081019061481c565b90505f516020614c645f395f51905f525c15610b5457610b54635212cba160e01b6115df565b6106cd611a48565b604082015162ffffff1662800000141580610b8d575081608001516001600160a01b0316336001600160a01b031614155b15610ba257610ba26330d2164160e01b6115df565b610bb08162ffffff16611a5a565b60a082205f8181526006602052604090206107c69083611a80565b335f8181526003602090815260408083206001600160a01b038716808552908352818420805460ff191687151590811790915591519182529293917fceb576d9f15e4e200fdb5096d64d5dfd667e16def20c1eefd14256d8e3faa267910160405180910390a350600192915050565b5f805f516020614c445f395f51905f525c610c5f57610c5f6354e3ca0d60e01b6115df565b610c67611818565b60a086205f818152600660205260409020610c818161185a565b6080880151610c9c906001600160a01b031689898989611a9b565b5f610d036040518060c00160405280336001600160a01b031681526020018a5f015160020b81526020018a6020015160020b8152602001610ce08b60400151611b9d565b600f0b81526060808d015160020b60208301528b01516040909101528390611bb9565b94509050610d118185611f31565b94505050336001600160a01b0316817ff208f4912782fd25c7f114ca3723a2d5dd6f3bcc3ac8db5af63baa85f711d5ec885f015189602001518a604001518b60600151604051610d829493929190600294850b81529290930b60208301526040820152606081019190915260800190565b60405180910390a360808701515f90610da9906001600160a01b0316898987878b8b611f64565b90945090508015610dc357610dc388828a6080015161199b565b610dce88853361199b565b505094509492505050565b5f610de2611818565b6060830151617fff60029190910b1315610e0d576060830151610e0d906316e0049f60e31b90612089565b600160020b836060015160020b1215610e37576060830151610e3790631d3d20b160e31b90612089565b825160208401516001600160a01b03908116911610610e695782516020840151610e69916306e6c98360e41b91612098565b610e8d836040015184608001516001600160a01b03166120c190919063ffffffff16565b610ea8576080830151610ea890630732d7b560e51b90612182565b5f610ebb846040015162ffffff16612197565b6080850151909150610ed7906001600160a01b031685856121bc565b60a084205f818152600660205260409020610ef3908584612229565b6080860151909350610f10906001600160a01b031686868661227d565b84602001516001600160a01b0316855f01516001600160a01b0316827fdd466e674ea557f56295e2d0218a125ea4b4f0f6f3307b95f85e6110838d6438886040015189606001518a608001518a8a604051610fa295949392919062ffffff959095168552600293840b60208601526001600160a01b03928316604086015291166060840152900b608082015260a00190565b60405180910390a4505092915050565b6002546001600160a01b03163314610fd457610fd46348f5c3ed60e01b6115df565b6103e9610fff821610623e900062fff000831610166110035761100363a7abe2f760e01b62ffffff8316612182565b60a082206110258261101f835f90815260066020526040902090565b906122ec565b60405162ffffff8316815281907fe9c42593e71f84403b84352cd168d693e2c9fcd1fdbcc3feb21d92b43e6696f99060200160405180910390a2505050565b5f516020614c445f395f51905f525c611087576110876354e3ca0d60e01b6115df565b335f9081526001600160a01b038316602052604081205c906110a8836115e7565b90508181600f0b146110c4576110c463bda73abf60e01b6115df565b61084284825f0333611607565b6002545f906001600160a01b031633146110f5576110f56348f5c3ed60e01b6115df565b5f516020614c445f395f51905f525c1561111957611119631f2fa7eb60e11b6115df565b8115611125578161113e565b6001600160a01b0383165f908152600160205260409020545b6001600160a01b0384165f9081526001602052604081208054929350839290919061116a9084906147bb565b9091555061077390506001600160a01b038416858361165a565b606060405180602082528360208301526040820191508360051b8201855b80355c8452602093840193018184106111a2575b5081810382f35b5f516020614c445f395f51905f525c6111e0576111e06354e3ca0d60e01b6115df565b6001600160a01b0381166111f9576111f6612313565b50565b5f61120c826001600160a01b0316612338565b905061121882826123b4565b5050565b606060405180602082528360208301526040820191508360051b8201855b803554845260209384019301818410156111b65761123a565b5f815c5f5260205ff35b5f546001600160a01b031633146112a55760405162461bcd60e51b815260206004820152600c60248201526b15539055551213d49256915160a21b6044820152606401610974565b5f80546001600160a01b0319166001600160a01b0383169081178255604051909133917f8be0079c531659141344cd1fd0a4f28419497f9722a3daafe3b4186f6b6457e09190a350565b5f5f516020614c445f395f51905f525c611313576113136354e3ca0d60e01b6115df565b61131b611818565b83602001515f036113365761133663be8b850760e01b6115df565b60a085205f8181526006602052604090206113508161185a565b60808701515f9081908190611371906001600160a01b03168b8b8b8b612407565b8093508195508294505050506113e084866040518060a001604052808681526020018e6060015160020b81526020018d5f0151151581526020018d604001516001600160a01b031681526020018562ffffff168152508c5f01516113d9578d60200151612523565b8d51612523565b60808b01519096505f925061140491506001600160a01b03168a8a888b8b88612601565b9095509050801561141e5761141e89828b6080015161199b565b61142989863361199b565b50505050949350505050565b5f516020614c445f395f51905f525c611458576114586354e3ca0d60e01b6115df565b8161146c81611466846115e7565b33611607565b610842846001600160a01b03831684612722565b5f336001600160a01b038616148015906114bd57506001600160a01b0385165f90815260036020908152604080832033845290915290205460ff16155b1561152d576001600160a01b0385165f90815260056020908152604080832033845282528083208684529091529020545f19811461152b576114ff83826147bb565b6001600160a01b0387165f90815260056020908152604080832033845282528083208884529091529020555b505b6001600160a01b0385165f9081526004602090815260408083208684529091528120805484929061155f9084906147bb565b90915550506001600160a01b0384165f908152600460209081526040808320868452909152812080548492906115969084906147ce565b9091555050604080513381526020810184905284916001600160a01b0380881692908916915f516020614c245f395f51905f52910160405180910390a45060015b949350505050565b805f5260045ffd5b5f6001607f1b8210611603576116036393dafdf160e01b6115df565b5090565b81600f0b5f0361161657505050565b5f8061162c6001600160a01b03861684866127e0565b91509150805f036116445761163f612819565b611653565b815f0361165357611653612841565b5050505050565b5f6001600160a01b03841661168e575f5f5f5f85875af190508061168957611689638549db5960e01b84612869565b610842565b60405163a9059cbb60e01b81526001600160a01b038416600482015282602482015260205f6044835f895af13d15601f3d1160015f511416171691505f81525f60208201525f6040820152508061084257610842632c4b17e760e21b85612869565b5f7f27e098c505d44ec3574004bca052aabf76bd35004c182099d8c575fb238593b95c6001600160a01b0381166117295734915061178d565b341561173f5761173f635876424f60e11b6115df565b7f1e0745a7db1623981f0b2a5d4232364c00787266eb75ad546f190e6cebe9bd955c5f6117746001600160a01b038416612338565b905061178082826147bb565b935061178a612313565b50505b6117a08161179a846115e7565b85611607565b50919050565b6001600160a01b0383165f908152600460209081526040808320858452909152812080548392906117d89084906147ce565b9091555050604080513381526020810183905283916001600160a01b038616915f915f516020614c245f395f51905f5291015b60405180910390a4505050565b306001600160a01b037f00000000000000000000000000000000000000000000000000000000000000001614611858576118586306c4a1c760e11b6115df565b565b80546001600160a01b03165f036111f6576111f663486aa30760e01b6115df565b85336001600160a01b038216146118ef5760208716156118ef576118ed3387878787876040516024016118b3969594939291906148f1565b60408051601f198184030181529190526020810180516001600160e01b0316635b54587d60e11b1790526001600160a01b0389169061289c565b505b50505050505050565b60038301545f906001600160801b031680820361191f5761191f63a74f97ab60e01b6115df565b61194d61192b856115e7565b5f03611936856115e7565b5f0360809190911b6001600160801b039091161790565b91508315611971576001850180546001600160801b038316600160801b8702040190555b8215611993576002850180546001600160801b038316600160801b8602040190555b509392505050565b82516119b1906119ab8460801d90565b83611607565b6107c683602001516119ab84600f0b90565b85336001600160a01b038216146118ef5760108716156118ef576118ed3387878787876040516024016119fb969594939291906148f1565b60408051601f198184030181529190526020810180516001600160e01b031663e1b4af6960e01b1790526001600160a01b0389169061289c565b60015f516020614c445f395f51905f525d565b5f5f516020614c445f395f51905f525d565b620f424062ffffff821611156111f6576111f6631400211360e01b62ffffff8316612182565b611a898261185a565b8154611a95908261292d565b90915550565b84336001600160a01b03821614611b95575f8460400151138015611ac25750610800861615155b15611b2357611b1d3386868686604051602401611ae395949392919061493b565b60408051601f198184030181529190526020810180516001600160e01b031663259982e560e01b1790526001600160a01b0388169061289c565b50611b95565b5f846040015113158015611b3a5750610200861615155b15611b95576118ef3386868686604051602401611b5b95949392919061493b565b60408051601f198184030181529190526020810180516001600160e01b031663021d0ee760e41b1790526001600160a01b0388169061289c565b505050505050565b80600f81900b8114610a3057610a306393dafdf160e01b6115df565b6060810151602082015160408301515f9283929091611bd88282612948565b604080516080810182525f80825260208201819052918101829052606081019190915283600f0b5f14611d1b57611c118884865f6129a8565b6001600160801b0316602083015215158152611c3088838660016129a8565b6001600160801b03166060830152151560408201525f600f85900b12611ce05760808701515f9060020b620d89e71981810783139082900503620d89e891909105036001016001600160801b03049050806001600160801b031682602001516001600160801b03161115611caf57611caf63b8e3c38560e01b85612089565b806001600160801b031682606001516001600160801b03161115611cde57611cde63b8e3c38560e01b84612089565b505b805115611cfc576080870151611cfc9060058a01908590612a69565b806040015115611d1b576080870151611d1b9060058a01908490612a69565b5f5f611d288a8686612abb565b8a5160a08c015160408051602681019290925260068083018a9052600383018b9052928252603a600c8301205f838301819052602080850182905293819052908152928f01909152812092945090925080611d85838a8787612b6f565b91509150611db1611d95836115e7565b611d9e836115e7565b6001600160801b031660809190911b1790565b995050505050505f84600f0b1215611e1a57805115611ded57600283810b5f90815260048a016020526040812081815560018101829055909101555b806040015115611e1a57600282810b5f90815260048a016020526040812081815560018101829055909101555b5082600f0b5f14611f275786545f80611e368360a01c60020b90565b6001600160a01b038416915091508460020b8260020b1215611e8557611e7e611e78611e73611e6488612c28565b611e6d88612c28565b8a612ee0565b611b9d565b60801b90565b9750611f23565b8360020b8260020b1215611efe57611ebc611ea6611e7383611e6d88612c28565b611d9e611e73611eb589612c28565b858b612f18565b60038b0154909850611ed7906001600160801b031687612f44565b60038b0180546001600160801b0319166001600160801b0392909216919091179055611f23565b611f205f611d9e611e73611f1189612c28565b611f1a89612c28565b8b612f18565b97505b5050505b5050509250929050565b5f608082811d9084901d01600f83810b9085900b01611f5b611f5283611b9d565b611d9e83611b9d565b95945050505050565b5f806001600160a01b0389163303611f8057508490505f61207d565b8591505f8760400151131561200f5761040089161561200a57611ffb33898989898989604051602401611fb9979695949392919061499b565b60408051601f198184030181529190526020810180516001600160e01b03166327c18fbf60e21b17905260028b1615155b6001600160a01b038c169190612f6b565b90506120078282612fac565b91505b61207d565b61010089161561207d5761206e33898989898989604051602401612039979695949392919061499b565b60408051601f198184030181529190526020810180516001600160e01b0316633615df3f60e11b17905260018b161515611fea565b905061207a8282612fac565b91505b97509795505050505050565b815f528060020b60045260245ffd5b6040518381526001600160a01b03831660048201526001600160a01b0382166024820152604481fd5b5f608083161580156120d557506008831615155b156120e157505f6106cd565b604083161580156120f457506004831615155b1561210057505f6106cd565b610400831615801561211457506002831615155b1561212057505f6106cd565b610100831615801561213457506001831615155b1561214057505f6106cd565b6001600160a01b0383161561217157613fff831615158061216c57506280000062ffffff831614610773565b610773565b5062ffffff16628000001415919050565b815f526001600160a01b03811660045260245ffd5b5f6280000062ffffff8316036121ae57505f919050565b6116038262ffffff16611a5a565b82336001600160a01b0382161461084257612000841615610842576116533384846040516024016121ef93929190614a09565b60408051601f198184030181529190526020810180516001600160e01b0316636e4c1aa760e11b1790526001600160a01b0386169061289c565b82545f906001600160a01b03161561224b5761224b637983c05160e01b6115df565b61225483612fcd565b90506122738261226d6001600160a01b0386168461325d565b9061292d565b9093555090919050565b83336001600160a01b038216146116535761100085161561165357611b95338585856040516024016122b29493929190614a3f565b60408051601f198184030181529190526020810180516001600160e01b0316636fe7e6eb60e01b1790526001600160a01b0387169061289c565b6122f58261185a565b815462ffffff60b81b191662ffffff60b81b60b883901b1617611a95565b5f7f27e098c505d44ec3574004bca052aabf76bd35004c182099d8c575fb238593b95d565b5f6001600160a01b03821661234e575047919050565b6040516370a0823160e01b81523060048201526001600160a01b038316906370a0823190602401602060405180830381865afa158015612390573d5f5f3e3d5ffd5b505050506040513d601f19601f820116820180604052508101906106cd9190614a80565b6001600160a01b0382167f27e098c505d44ec3574004bca052aabf76bd35004c182099d8c575fb238593b95d807f1e0745a7db1623981f0b2a5d4232364c00787266eb75ad546f190e6cebe9bd955d5050565b60208301515f806001600160a01b0388163303612426575f9150612518565b6080881615612518575f61247c89338a8a8a8a60405160240161244d959493929190614a97565b60408051601f198184030181529190526020810180516001600160e01b03166315d7892d60e21b17905261289c565b9050805160601461249757612497631e048e1d60e01b6115df565b604088015162ffffff1662800000036124b257606081015191505b600889161561251657604081015192505f6124cd8460801d90565b905080600f0b5f14612514575f85126124ea600f83900b87614af0565b9550806124f9575f86126124fd565b5f86135b1561251257612512637d05b8eb60e11b6115df565b505b505b505b955095509592505050565b5f808080806125328988613278565b93509350935093505f831115612560576001600160a01b0386165f9081526001602052604090208054840190555b33887f40e9cecb9f5f1f1c5b9c97dec2917b7ee92e57ba5563708daca94dd84ad7112f61258d8760801d90565b61259788600f0b90565b85516040808801516020808a01518351600f97880b81529590960b908501526001600160a01b03909216908301526001600160801b0316606082015260029190910b608082015262ffffff861660a082015260c00160405180910390a35091979650505050505050565b5f806001600160a01b038916330361261d57508490505f61207d565b5f6126288460801d90565b90505f61263585600f0b90565b905060408b16156126af576126a2611e73338c8c8c8c8c60405160240161266196959493929190614b17565b60408051601f198184030181529190526020810180516001600160e01b031663b47b2fb160e01b17905260048e1615156001600160a01b038f169190612f6b565b6126ac9082614b77565b90505b5f81600f0b5f1415806126c5575082600f0b5f14155b1561271057895160208b01515f13901515146126f0576001600160801b038316608083901b17612701565b6001600160801b038216608084901b175b905061270d8982612fac565b98505b979b979a509698505050505050505050565b336001600160a01b038416811480159061276157506001600160a01b038085165f9081526003602090815260408083209385168352929052205460ff16155b156127d5576001600160a01b038085165f9081526005602090815260408083209385168352928152828220868352905220545f1981146127d3576127a583826147bb565b6001600160a01b038087165f9081526005602090815260408083209387168352928152828220888352905220555b505b6108428484846138c4565b6001600160a01b038281165f90815290841660205260408120805c919061280b600f85900b84614af0565b915081815d50935093915050565b5f516020614c645f395f51905f525c600181039050805f516020614c645f395f51905f525d50565b5f516020614c645f395f51905f525c600181019050805f516020614c645f395f51905f525d50565b3d60405183815282600482015260406024820152816044820152815f606483013e602080601f8401040260640191508181fd5b60605f5f5f8451602086015f885af19050806128c3576128c363319d54c360e01b85612869565b6040519150601f19603f3d011682016040523d82523d5f602084013e602082511080612911575060208301516001600160e01b031916612904836020015190565b6001600160e01b03191614155b1561292657612926631e048e1d60e01b6115df565b5092915050565b60d01b62ffffff60d01b1662ffffff60d01b19919091161790565b8060020b8260020b126129675761296763c4433ed560e01b838361392d565b620d89e719600283900b12156129885761298863d5e2f7ab60e01b83612089565b620d89e8600282900b13156112185761121863035aeeff60e31b82612089565b600283900b5f908152600485016020526040812080548291906001600160801b03811690600160801b9004600f0b6129e08288612f44565b6001600160801b03808216159084168015919091141596509094505f03612a2a57885460a01c60020b60020b8860020b13612a2a576001808a0154908401556002808a0154908401555b5f86612a3f57612a3a8883614b77565b612a49565b612a498883614ba4565b90508060801b6001600160801b0386161784555050505094509492505050565b600291820b910b80820715612a965760405163d4d8f3e681528260208201528160408201526044601c8201fd5b80820591508160081d5f528260205260405f20600160ff84161b815418815550505050565b600282810b5f81815260048601602052604080822085850b83529082208754929485949293919260a09290921c900b90811215612b11578160010154836001015403945081600201548360020154039350612b64565b8560020b8160020b12612b3d578260010154826001015403945082600201548260020154039350612b64565b81600101548360010154896001015403039450816002015483600201548960020154030393505b505050935093915050565b83545f9081906001600160801b0316600f86900b8203612bae57806001600160801b03165f03612ba957612ba9632bbfae4960e21b6115df565b612bd4565b612bb88187612f44565b87546001600160801b0319166001600160801b03919091161787555b612bf287600101548603826001600160801b0316600160801b61394a565b9250612c1287600201548503826001600160801b0316600160801b61394a565b6001880195909555505060029094015591929050565b60020b5f60ff82901d80830118620d89e8811115612c5157612c516345c3193d60e11b84612089565b7001fffcb933bd6fad37aa2d162d1a5940016001821602600160801b186002821615612c8d576ffff97272373d413259a46990580e213a0260801c5b6004821615612cac576ffff2e50f5f656932ef12357cf3c7fdcc0260801c5b6008821615612ccb576fffe5caca7e10e4e61c3624eaa0941cd00260801c5b6010821615612cea576fffcb9843d60f6159c9db58835c9266440260801c5b6020821615612d09576fff973b41fa98c081472e6896dfb254c00260801c5b6040821615612d28576fff2ea16466c96a3843ec78b326b528610260801c5b6080821615612d47576ffe5dee046a99a2a811c461f1969c30530260801c5b610100821615612d67576ffcbe86c7900a88aedcffc83b479aa3a40260801c5b610200821615612d87576ff987a7253ac413176f2b074cf7815e540260801c5b610400821615612da7576ff3392b0822b70005940c7a398e4b70f30260801c5b610800821615612dc7576fe7159475a2c29b7443b29c7fa6e889d90260801c5b611000821615612de7576fd097f3bdfd2022b8845ad8f792aa58250260801c5b612000821615612e07576fa9f746462d870fdf8a65dc1f90e061e50260801c5b614000821615612e27576f70d869a156d2a1b890bb3df62baf32f70260801c5b618000821615612e47576f31be135f97d08fd981231505542fcfa60260801c5b62010000821615612e68576f09aa508b5b7a84e1c677de54f3e99bc90260801c5b62020000821615612e88576e5d6af8dedb81196699c329225ee6040260801c5b62040000821615612ea7576d2216e584f5fa1ea926041bedfe980260801c5b62080000821615612ec4576b048a170391f7dc42444e8fa20260801c5b5f841315612ed0575f19045b63ffffffff0160201c9392505050565b5f5f82600f0b12612f0757612f00612efb85858560016139e6565b613aa9565b5f036115d7565b6115d7612efb8585855f035f6139e6565b5f5f82600f0b12612f3357612f00612efb8585856001613ac2565b6115d7612efb8585855f035f613ac2565b6001600160801b038216600f82900b01608081901c156106cd576393dafdf15f526004601cfd5b5f5f612f77858561289c565b905082612f87575f915050610773565b8051604014612fa057612fa0631e048e1d60e01b6115df565b60400151949350505050565b5f608082811d9084901d03600f83810b9085900b03611f5b611f5283611b9d565b5f73fffd8963efd1fc6a506488495d951d51639616826401000276a21983016001600160a01b0316111561300c5761300c6318521d4960e21b83612182565b640100000000600160c01b03602083901b16805f61302982613b0e565b60ff1690506080811061304457607f810383901c915061304e565b80607f0383901b91505b908002607f81811c60ff83811c9190911c800280831c81831c1c800280841c81841c1c800280851c81851c1c800280861c81861c1c800280871c81871c1c800280881c81881c1c800280891c81891c1c8002808a1c818a1c1c8002808b1c818b1c1c8002808c1c818c1c1c8002808d1c818d1c1c8002808e1c9c81901c9c909c1c80029c8d901c9e9d607f198f0160401b60c09190911c678000000000000000161760c19b909b1c674000000000000000169a909a1760c29990991c672000000000000000169890981760c39790971c671000000000000000169690961760c49590951c670800000000000000169490941760c59390931c670400000000000000169290921760c69190911c670200000000000000161760c79190911c670100000000000000161760c89190911c6680000000000000161760c99190911c6640000000000000161760ca9190911c6620000000000000161760cb9190911c6610000000000000161760cc9190911c6608000000000000161760cd9190911c66040000000000001617693627a301d71055774c8581026f028f6481ab7f045a5af012a19d003aa9198101608090811d906fdb2df09e81959a81455e260799a0632f8301901d600281810b9083900b1461324e57886001600160a01b031661323382612c28565b6001600160a01b031611156132485781613250565b80613250565b815b9998505050505050505050565b60a01b62ffffff60a01b1662ffffff60a01b19919091161790565b604080516060810182525f8082526020820181905291810182905281908190855460408601515f816132b257610fff60c484901c166132bc565b610fff60b884901c165b88516001600160a01b038516865261ffff9190911691505f60a085901c60020b60020b602087015260038b01546001600160801b0316604087015260808a01515f9062400000166133165760d086901c62ffffff16613328565b6133288b6080015162ffffff16613b98565b9050831561335657620f4240610fff851662ffffff8316818102838106151593900492909201910103613358565b805b975050620f42408762ffffff16106133835789515f121561338357613383634b10312360e11b6115df565b89515f0361339b575f5f9850985050505050506138bb565b83156134185760608a01516001600160a01b038681169116106133da576133da6001600160a01b0386165b60608c0151637c9c6e8f60e01b9190612098565b6401000276a36001600160a01b03168a606001516001600160a01b0316116134135760608a015161341390639e4d7cc760e01b90612182565b613489565b60608a01516001600160a01b03868116911611613441576134416001600160a01b0386166133c6565b73fffd8963efd1fc6a506488495d951d5263988d266001600160a01b03168a606001516001600160a01b0316106134895760608a015161348990639e4d7cc760e01b90612182565b60408051610100810182525f80825260208201819052918101829052606081018290526080810182905260a0810182905260c0810182905260e0810191909152846134d8578b600201546134de565b8b600101545b60e08201525b82158061350957508a606001516001600160a01b0316875f01516001600160a01b0316145b6137d65786516001600160a01b03168152602080880151908c01516135339160058f019188613ba7565b1515604083015260020b60208201819052620d89e7191261355957620d89e71960208201525b620d89e860020b816020015160020b1261357757620d89e860208201525b6135848160200151612c28565b6001600160a01b0390811660608381018290528951908e01516135c1939192911680821891811160018a161891909102188960400151868c613c94565b60c085015260a084015260808301526001600160a01b031687528a515f121561361d576135f18160a00151613aa9565b8303925061360c8160c001518260800151612efb91906147ce565b6136169083614bd1565b915061364e565b6136308160c00151826080015101613aa9565b830192506136418160a00151613aa9565b61364b9083614af0565b91505b831561368a575f620f4240858360c00151846080015101028161367357613673614bf0565b60c084018051929091049182900390529990990198505b60408701516001600160801b0316156136ca576136be8160c00151600160801b89604001516001600160801b031691020490565b60e08201805190910190525b80606001516001600160a01b0316875f01516001600160a01b0316036137b05780604001511561378b575f5f8661370a578d600101548360e00151613715565b8260e001518e600201545b915091505f6137608f85602001518585600292830b5f90815260049094016020526040909320600181018054909203909155908101805490920390915554600160801b9004600f0b90565b9050871561376b575f035b6137798a6040015182612f44565b6001600160801b031660408b01525050505b8461379a5780602001516137a3565b60018160200151035b60020b60208801526134e4565b805187516001600160a01b039081169116146137d15786516137a390612fcd565b6134e4565b8651602088015161380691906137ed90899061325d565b6001600160a01b0319166001600160a01b039091161790565b8c55604087015160038d01546001600160801b0390811691161461384b57604087015160038d0180546001600160801b0319166001600160801b039092169190911790555b8461385f5760e081015160028d015561386a565b60e081015160018d01555b8a515f13851515146138975761389061388283611b9d565b611d9e858e5f015103611b9d565b99506138b4565b6138b16138a8848d5f015103611b9d565b611d9e84611b9d565b99505b5050505050505b92959194509250565b6001600160a01b0383165f908152600460209081526040808320858452909152812080548392906138f69084906147bb565b9091555050604080513381526020810183905283915f916001600160a01b038716915f516020614c245f395f51905f52910161180b565b6040518381528260020b60048201528160020b6024820152604481fd5b5f838302815f1985870982811083820303915050808411613969575f5ffd5b805f0361397b57508290049050610773565b5f848688095f868103871696879004966002600389028118808a02820302808a02820302808a02820302808a02820302808a02820302808a02909103029181900381900460010186841190950394909402919094039290920491909117919091029150509392505050565b5f836001600160a01b0316856001600160a01b03161115613a05579293925b6001600160a01b038516613a1f5762bfc9215f526004601cfd5b600160601b600160e01b03606084901b166001600160a01b038686031683613a7257866001600160a01b0316613a5f8383896001600160a01b031661394a565b81613a6c57613a6c614bf0565b04613a9e565b613a9e613a898383896001600160a01b0316613df7565b886001600160a01b0316808204910615150190565b979650505050505050565b805f811215610a3057610a306393dafdf160e01b6115df565b5f6001600160a01b038481169086160360ff81901d90810118600160601b6001600160801b038516613af581848461394a565b9350845f83858409111684019350505050949350505050565b5f5f8211613b1a575f5ffd5b507f0706060506020500060203020504000106050205030304010505030400000000601f6f8421084210842108cc6318c6db6d54be6001600160801b03841160071b84811c6001600160401b031060061b1784811c63ffffffff1060051b1784811c61ffff1060041b1784811c60ff1060031b1793841c1c161a1790565b62bfffff8116610a3081611a5a565b5f80600284810b9086900b8181078313919005038315613c2657600281900b60081d600181900b5f908152602089905260409020545f1960ff808516908190039190911c918216801515955090919085613c0857888360ff16860302613c1b565b88613c1282613b0e565b840360ff168603025b965050505050613c8a565b6001908101600281900b60081d80830b5f90815260208a905260409020545f1960ff841694851b011990811680151595509293919285613c7057888360ff0360ff16860102613c83565b8883613c7b83613e27565b0360ff168601025b9650505050505b5094509492505050565b5f80808062ffffff85166001600160a01b03808a16908b1610158288128015613d6a575f613ccd8a5f0385620f424003620f424061394a565b905082613ce657613ce18d8d8d6001613ac2565b613cf3565b613cf38c8e8d60016139e6565b9650868110613d27578b9750620f42408414613d1e57613d19878586620f424003613df7565b613d20565b865b9450613d40565b809650613d368d8c8386613ec1565b9750868a5f030394505b82613d5657613d518d898d5f6139e6565b613d62565b613d62888e8d5f613ac2565b955050613de8565b81613d8057613d7b8c8c8c5f6139e6565b613d8c565b613d8c8b8d8c5f613ac2565b9450848910613d9d578a9650613daf565b889450613dac8c8b8785613f0f565b96505b81613dc657613dc18c888c6001613ac2565b613dd3565b613dd3878d8c60016139e6565b9550613de5868485620f424003613df7565b93505b50505095509550955095915050565b5f613e0384848461394a565b90508180613e1357613e13614bf0565b838509156107735760010180610773575f5ffd5b5f5f8211613e33575f5ffd5b507e1f0d1e100c1d070f090b19131c1706010e11080a1a141802121b15031604055f8290039091166101e07f804040554300526644320000502061067405302602000010750620017611707760fc7fb6db6db6ddddddddd34d34d349249249210842108c6318c639ce739cffffffff840260f81c161b60f71c1690811c63d76453e004601f169190911a1790565b5f6001600160801b038416156001600160a01b038616151715613eeb57634f2461b85f526004601cfd5b81613f0257613efd8585856001613f52565b611f5b565b611f5b858585600161403d565b5f6001600160801b038416156001600160a01b038616151715613f3957634f2461b85f526004601cfd5b81613f4a57613efd8585855f61403d565b611f5b8585855f5b5f8115613fc2575f6001600160a01b03841115613f8657613f8184600160601b876001600160801b031661394a565b613f9d565b613f9d6001600160801b038616606086901b614c04565b9050613fba613fb5826001600160a01b0389166147ce565b61411f565b9150506115d7565b5f6001600160a01b03841115613fef57613fea84600160601b876001600160801b0316613df7565b61400c565b61400c606085901b6001600160801b038716808204910615150190565b9050806001600160a01b0387161161402b57634323a5555f526004601cfd5b6001600160a01b0386160390506115d7565b5f825f0361404c5750836115d7565b600160601b600160e01b03606085901b1682156140de576001600160a01b0386168481029085828161408057614080614bf0565b04036140b0578181018281106140ae576140a483896001600160a01b031683613df7565b93505050506115d7565b505b50613fba81856140c96001600160a01b038a1683614c04565b6140d391906147ce565b808204910615150190565b6001600160a01b0386168481029085820414818311166141055763f5c787f15f526004601cfd5b8082036140a4613fb5846001600160a01b038b1684613df7565b806001600160a01b0381168114610a3057610a306393dafdf160e01b6115df565b6001600160a01b03811681146111f6575f5ffd5b5f5f60408385031215614165575f5ffd5b823561417081614140565b946020939093013593505050565b5f6020828403121561418e575f5ffd5b81356001600160e01b031981168114610773575f5ffd5b5f5f5f606084860312156141b7575f5ffd5b83356141c281614140565b95602085013595506040909401359392505050565b5f5f5f606084860312156141e9575f5ffd5b83356141f481614140565b9250602084013561420481614140565b929592945050506040919091013590565b5f60208284031215614225575f5ffd5b5035919050565b634e487b7160e01b5f52604160045260245ffd5b604051608081016001600160401b03811182821017156142625761426261422c565b60405290565b604051601f8201601f191681016001600160401b03811182821017156142905761429061422c565b604052919050565b803562ffffff81168114610a30575f5ffd5b8035600281900b8114610a30575f5ffd5b5f60a082840312156142cb575f5ffd5b60405160a081016001600160401b03811182821017156142ed576142ed61422c565b60405290508082356142fe81614140565b8152602083013561430e81614140565b602082015261431f60408401614298565b6040820152614330606084016142aa565b6060820152608083013561434381614140565b6080919091015292915050565b5f5f83601f840112614360575f5ffd5b5081356001600160401b03811115614376575f5ffd5b60208301915083602082850101111561438d575f5ffd5b9250929050565b5f5f5f5f5f61010086880312156143a9575f5ffd5b6143b387876142bb565b945060a0860135935060c0860135925060e08601356001600160401b038111156143db575f5ffd5b6143e788828901614350565b969995985093965092949392505050565b5f60208284031215614408575f5ffd5b813561077381614140565b5f5f60408385031215614424575f5ffd5b50508035926020909101359150565b602080825282518282018190525f918401906040840190835b8181101561446a57835183526020938401939092019160010161444c565b509095945050505050565b5f5f60208385031215614486575f5ffd5b82356001600160401b0381111561449b575f5ffd5b6144a785828601614350565b90969095509350505050565b602081525f82518060208401528060208501604085015e5f604082850101526040601f19601f83011684010191505092915050565b5f5f60c083850312156144f9575f5ffd5b61450384846142bb565b915061451160a08401614298565b90509250929050565b80358015158114610a30575f5ffd5b5f5f6040838503121561453a575f5ffd5b823561454581614140565b91506145116020840161451a565b5f5f5f5f848603610140811215614568575f5ffd5b61457287876142bb565b94506080609f1982011215614585575f5ffd5b5061458e614240565b61459a60a087016142aa565b81526145a860c087016142aa565b602082015260e08601356040820152610100860135606082015292506101208501356001600160401b038111156145dd575f5ffd5b6145e987828801614350565b95989497509550505050565b5f5f60c08385031215614606575f5ffd5b61461084846142bb565b915060a083013561462081614140565b809150509250929050565b5f5f6020838503121561463c575f5ffd5b82356001600160401b03811115614651575f5ffd5b8301601f81018513614661575f5ffd5b80356001600160401b03811115614676575f5ffd5b8560208260051b840101111561468a575f5ffd5b6020919091019590945092505050565b5f5f604083850312156146ab575f5ffd5b82356146b681614140565b9150602083013561462081614140565b5f5f5f5f8486036101208112156146db575f5ffd5b6146e587876142bb565b94506060609f19820112156146f8575f5ffd5b50604051606081016001600160401b038111828210171561471b5761471b61422c565b60405261472a60a0870161451a565b815260c0860135602082015260e086013561474481614140565b604082015292506101008501356001600160401b038111156145dd575f5ffd5b5f5f5f5f60808587031215614777575f5ffd5b843561478281614140565b9350602085013561479281614140565b93969395505050506040820135916060013590565b634e487b7160e01b5f52601160045260245ffd5b818103818111156106cd576106cd6147a7565b808201808211156106cd576106cd6147a7565b81835281816020850137505f828201602090810191909152601f909101601f19169091010190565b602081525f6115d76020830184866147e1565b5f6020828403121561482c575f5ffd5b81516001600160401b03811115614841575f5ffd5b8201601f81018413614851575f5ffd5b80516001600160401b0381111561486a5761486a61422c565b61487d601f8201601f1916602001614268565b818152856020838501011115614891575f5ffd5b8160208401602083015e5f91810160200191909152949350505050565b80516001600160a01b03908116835260208083015182169084015260408083015162ffffff169084015260608083015160020b9084015260809182015116910152565b6001600160a01b038716815261490a60208201876148ae565b8460c08201528360e08201526101206101008201525f61492f610120830184866147e1565b98975050505050505050565b6001600160a01b038616815261495460208201866148ae565b8351600290810b60c08301526020850151900b60e0820152604084015161010082015260608401516101208201526101606101408201525f613a9e610160830184866147e1565b6001600160a01b03881681526149b460208201886148ae565b8551600290810b60c08301526020870151900b60e08201526040860151610100820152606086015161012082015284610140820152836101608201526101a06101808201525f6132506101a0830184866147e1565b6001600160a01b038416815260e08101614a2660208301856148ae565b6001600160a01b039290921660c0919091015292915050565b6001600160a01b03851681526101008101614a5d60208301866148ae565b6001600160a01b039390931660c082015260029190910b60e09091015292915050565b5f60208284031215614a90575f5ffd5b5051919050565b6001600160a01b0386168152614ab060208201866148ae565b8351151560c0820152602084015160e082015260408401516001600160a01b03166101008201526101406101208201525f613a9e610140830184866147e1565b8082018281125f831280158216821582161715614b0f57614b0f6147a7565b505092915050565b6001600160a01b0387168152614b3060208201876148ae565b8451151560c0820152602085015160e082015260408501516001600160a01b0316610100820152836101208201526101606101408201525f61492f610160830184866147e1565b600f81810b9083900b0160016001607f1b03811360016001607f1b0319821217156106cd576106cd6147a7565b600f82810b9082900b0360016001607f1b0319811260016001607f1b03821317156106cd576106cd6147a7565b8181035f831280158383131683831282161715612926576129266147a7565b634e487b7160e01b5f52601260045260245ffd5b5f82614c1e57634e487b7160e01b5f52601260045260245ffd5b50049056fe1b3d7edb2e9c0b0e7c525b20aaaef0f5940d2ed71663c7d39266ecafac728859c090fc4683624cfc3884e9d8de5eca132f2d0ec062aff75d43c0465d5ceeab237d4b3164c6e45b97e7d87b7125a44c5828d005af88f9d751cfd78729c5d99a0ba2646970667358221220d2f4760f68b11458ba403376ba4cb7b6485dd663b09390ff285590756b48504e64736f6c634300081c0033","linkReferences":{}},"methodIdentifiers":{"allowance(address,address,uint256)":"598af9e7","approve(address,uint256,uint256)":"426a8493","balanceOf(address,uint256)":"00fdd58e","burn(address,uint256,uint256)":"f5298aca","clear(address,uint256)":"80f0b44c","collectProtocolFees(address,address,uint256)":"8161b874","donate((address,address,uint24,int24,address),uint256,uint256,bytes)":"234266d7","extsload(bytes32)":"1e2eaeaf","extsload(bytes32,uint256)":"35fd631a","extsload(bytes32[])":"dbd035ff","exttload(bytes32)":"f135baaa","exttload(bytes32[])":"9bf6645f","initialize((address,address,uint24,int24,address),uint160)":"6276cbbe","isOperator(address,address)":"b6363cf2","mint(address,uint256,uint256)":"156e29f6","modifyLiquidity((address,address,uint24,int24,address),(int24,int24,int256,bytes32),bytes)":"5a6bcfda","owner()":"8da5cb5b","protocolFeeController()":"f02de3b2","protocolFeesAccrued(address)":"97e8cd4e","setOperator(address,bool)":"558a7297","setProtocolFee((address,address,uint24,int24,address),uint24)":"7e87ce7d","setProtocolFeeController(address)":"2d771389","settle()":"11da60b4","settleFor(address)":"3dd45adb","supportsInterface(bytes4)":"01ffc9a7","swap((address,address,uint24,int24,address),(bool,int256,uint160),bytes)":"f3cd914c","sync(address)":"a5841194","take(address,address,uint256)":"0b0d9c09","transfer(address,uint256,uint256)":"095bcdb6","transferFrom(address,address,uint256,uint256)":"fe99049a","transferOwnership(address)":"f2fde38b","unlock(bytes)":"48c89491","updateDynamicLPFee((address,address,uint24,int24,address),uint24)":"52759651"},"id":51}